{
	"CONTRACT/v2-core-master/contracts/UniswapV2Factory.sol": {
		"UniswapV2Factory": {
			"abi": [
				{
					"inputs": [
						{
							"internalType": "address",
							"name": "_feeToSetter",
							"type": "address"
						}
					],
					"payable": false,
					"stateMutability": "nonpayable",
					"type": "constructor"
				},
				{
					"anonymous": false,
					"inputs": [
						{
							"indexed": true,
							"internalType": "address",
							"name": "token0",
							"type": "address"
						},
						{
							"indexed": true,
							"internalType": "address",
							"name": "token1",
							"type": "address"
						},
						{
							"indexed": false,
							"internalType": "address",
							"name": "pair",
							"type": "address"
						},
						{
							"indexed": false,
							"internalType": "uint256",
							"name": "",
							"type": "uint256"
						}
					],
					"name": "PairCreated",
					"type": "event"
				},
				{
					"constant": true,
					"inputs": [],
					"name": "INIT_CODE_HASH",
					"outputs": [
						{
							"internalType": "bytes32",
							"name": "",
							"type": "bytes32"
						}
					],
					"payable": false,
					"stateMutability": "view",
					"type": "function"
				},
				{
					"constant": true,
					"inputs": [
						{
							"internalType": "uint256",
							"name": "",
							"type": "uint256"
						}
					],
					"name": "allPairs",
					"outputs": [
						{
							"internalType": "address",
							"name": "",
							"type": "address"
						}
					],
					"payable": false,
					"stateMutability": "view",
					"type": "function"
				},
				{
					"constant": true,
					"inputs": [],
					"name": "allPairsLength",
					"outputs": [
						{
							"internalType": "uint256",
							"name": "",
							"type": "uint256"
						}
					],
					"payable": false,
					"stateMutability": "view",
					"type": "function"
				},
				{
					"constant": false,
					"inputs": [
						{
							"internalType": "address",
							"name": "tokenA",
							"type": "address"
						},
						{
							"internalType": "address",
							"name": "tokenB",
							"type": "address"
						}
					],
					"name": "createPair",
					"outputs": [
						{
							"internalType": "address",
							"name": "pair",
							"type": "address"
						}
					],
					"payable": false,
					"stateMutability": "nonpayable",
					"type": "function"
				},
				{
					"constant": true,
					"inputs": [],
					"name": "feeTo",
					"outputs": [
						{
							"internalType": "address",
							"name": "",
							"type": "address"
						}
					],
					"payable": false,
					"stateMutability": "view",
					"type": "function"
				},
				{
					"constant": true,
					"inputs": [],
					"name": "feeToSetter",
					"outputs": [
						{
							"internalType": "address",
							"name": "",
							"type": "address"
						}
					],
					"payable": false,
					"stateMutability": "view",
					"type": "function"
				},
				{
					"constant": true,
					"inputs": [
						{
							"internalType": "address",
							"name": "",
							"type": "address"
						},
						{
							"internalType": "address",
							"name": "",
							"type": "address"
						}
					],
					"name": "getPair",
					"outputs": [
						{
							"internalType": "address",
							"name": "",
							"type": "address"
						}
					],
					"payable": false,
					"stateMutability": "view",
					"type": "function"
				},
				{
					"constant": false,
					"inputs": [
						{
							"internalType": "address",
							"name": "_feeTo",
							"type": "address"
						}
					],
					"name": "setFeeTo",
					"outputs": [],
					"payable": false,
					"stateMutability": "nonpayable",
					"type": "function"
				},
				{
					"constant": false,
					"inputs": [
						{
							"internalType": "address",
							"name": "_feeToSetter",
							"type": "address"
						}
					],
					"name": "setFeeToSetter",
					"outputs": [],
					"payable": false,
					"stateMutability": "nonpayable",
					"type": "function"
				}
			],
			"devdoc": {
				"methods": {}
			},
			"evm": {
				"assembly": "    /* \"CONTRACT/v2-core-master/contracts/UniswapV2Factory.sol\":108:2026  contract UniswapV2Factory is IUniswapV2Factory {\r... */\n  mstore(0x40, 0x80)\n    /* \"CONTRACT/v2-core-master/contracts/UniswapV2Factory.sol\":532:618  constructor(address _feeToSetter) public {\r... */\n  callvalue\n    /* \"--CODEGEN--\":8:17   */\n  dup1\n    /* \"--CODEGEN--\":5:7   */\n  iszero\n  tag_1\n  jumpi\n    /* \"--CODEGEN--\":30:31   */\n  0x00\n    /* \"--CODEGEN--\":27:28   */\n  dup1\n    /* \"--CODEGEN--\":20:32   */\n  revert\n    /* \"--CODEGEN--\":5:7   */\ntag_1:\n    /* \"CONTRACT/v2-core-master/contracts/UniswapV2Factory.sol\":532:618  constructor(address _feeToSetter) public {\r... */\n  pop\n  mload(0x40)\n  sub(codesize, bytecodeSize)\n  dup1\n  bytecodeSize\n  dup4\n  codecopy\n  dup2\n  dup2\n  add\n  0x40\n  mstore\n    /* \"--CODEGEN--\":13:15   */\n  0x20\n    /* \"--CODEGEN--\":8:11   */\n  dup2\n    /* \"--CODEGEN--\":5:16   */\n  lt\n    /* \"--CODEGEN--\":2:4   */\n  iszero\n  tag_2\n  jumpi\n    /* \"--CODEGEN--\":29:30   */\n  0x00\n    /* \"--CODEGEN--\":26:27   */\n  dup1\n    /* \"--CODEGEN--\":19:31   */\n  revert\n    /* \"--CODEGEN--\":2:4   */\ntag_2:\n  pop\n    /* \"CONTRACT/v2-core-master/contracts/UniswapV2Factory.sol\":532:618  constructor(address _feeToSetter) public {\r... */\n  mload\n    /* \"CONTRACT/v2-core-master/contracts/UniswapV2Factory.sol\":584:595  feeToSetter */\n  0x01\n    /* \"CONTRACT/v2-core-master/contracts/UniswapV2Factory.sol\":584:610  feeToSetter = _feeToSetter */\n  dup1\n  sload\n  not(sub(shl(0xa0, 0x01), 0x01))\n  and\n  sub(shl(0xa0, 0x01), 0x01)\n  swap1\n  swap3\n  and\n  swap2\n  swap1\n  swap2\n  or\n  swap1\n  sstore\n    /* \"CONTRACT/v2-core-master/contracts/UniswapV2Factory.sol\":108:2026  contract UniswapV2Factory is IUniswapV2Factory {\r... */\n  dataSize(sub_0)\n  dup1\n  dataOffset(sub_0)\n  0x00\n  codecopy\n  0x00\n  return\nstop\n\nsub_0: assembly {\n        /* \"CONTRACT/v2-core-master/contracts/UniswapV2Factory.sol\":108:2026  contract UniswapV2Factory is IUniswapV2Factory {\r... */\n      mstore(0x40, 0x80)\n      callvalue\n        /* \"--CODEGEN--\":8:17   */\n      dup1\n        /* \"--CODEGEN--\":5:7   */\n      iszero\n      tag_1\n      jumpi\n        /* \"--CODEGEN--\":30:31   */\n      0x00\n        /* \"--CODEGEN--\":27:28   */\n      dup1\n        /* \"--CODEGEN--\":20:32   */\n      revert\n        /* \"--CODEGEN--\":5:7   */\n    tag_1:\n        /* \"CONTRACT/v2-core-master/contracts/UniswapV2Factory.sol\":108:2026  contract UniswapV2Factory is IUniswapV2Factory {\r... */\n      pop\n      jumpi(tag_2, lt(calldatasize, 0x04))\n      shr(0xe0, calldataload(0x00))\n      dup1\n      0x574f2ba3\n      gt\n      tag_12\n      jumpi\n      dup1\n      0x574f2ba3\n      eq\n      tag_7\n      jumpi\n      dup1\n      0xa2e74af6\n      eq\n      tag_8\n      jumpi\n      dup1\n      0xc9c65396\n      eq\n      tag_9\n      jumpi\n      dup1\n      0xe6a43905\n      eq\n      tag_10\n      jumpi\n      dup1\n      0xf46901ed\n      eq\n      tag_11\n      jumpi\n      jump(tag_2)\n    tag_12:\n      dup1\n      0x017e7e58\n      eq\n      tag_3\n      jumpi\n      dup1\n      0x094b7415\n      eq\n      tag_4\n      jumpi\n      dup1\n      0x1e3dd18b\n      eq\n      tag_5\n      jumpi\n      dup1\n      0x257671f5\n      eq\n      tag_6\n      jumpi\n    tag_2:\n      0x00\n      dup1\n      revert\n        /* \"CONTRACT/v2-core-master/contracts/UniswapV2Factory.sol\":162:182  address public feeTo */\n    tag_3:\n      tag_13\n      tag_14\n      jump\t// in\n    tag_13:\n      0x40\n      dup1\n      mload\n      sub(shl(0xa0, 0x01), 0x01)\n      swap1\n      swap3\n      and\n      dup3\n      mstore\n      mload\n      swap1\n      dup2\n      swap1\n      sub\n      0x20\n      add\n      swap1\n      return\n        /* \"CONTRACT/v2-core-master/contracts/UniswapV2Factory.sol\":189:215  address public feeToSetter */\n    tag_4:\n      tag_13\n      tag_16\n      jump\t// in\n        /* \"CONTRACT/v2-core-master/contracts/UniswapV2Factory.sol\":404:429  address[] public allPairs */\n    tag_5:\n      tag_13\n      0x04\n      dup1\n      calldatasize\n      sub\n        /* \"--CODEGEN--\":13:15   */\n      0x20\n        /* \"--CODEGEN--\":8:11   */\n      dup2\n        /* \"--CODEGEN--\":5:16   */\n      lt\n        /* \"--CODEGEN--\":2:4   */\n      iszero\n      tag_18\n      jumpi\n        /* \"--CODEGEN--\":29:30   */\n      0x00\n        /* \"--CODEGEN--\":26:27   */\n      dup1\n        /* \"--CODEGEN--\":19:31   */\n      revert\n        /* \"--CODEGEN--\":2:4   */\n    tag_18:\n      pop\n        /* \"CONTRACT/v2-core-master/contracts/UniswapV2Factory.sol\":404:429  address[] public allPairs */\n      calldataload\n      tag_19\n      jump\t// in\n        /* \"CONTRACT/v2-core-master/contracts/UniswapV2Factory.sol\":224:326  bytes32 public constant INIT_CODE_HASH = keccak256(abi.encodePacked(type(UniswapV2Pair).creationCode)) */\n    tag_6:\n      tag_20\n      tag_21\n      jump\t// in\n    tag_20:\n      0x40\n      dup1\n      mload\n      swap2\n      dup3\n      mstore\n      mload\n      swap1\n      dup2\n      swap1\n      sub\n      0x20\n      add\n      swap1\n      return\n        /* \"CONTRACT/v2-core-master/contracts/UniswapV2Factory.sol\":626:722  function allPairsLength() external view returns (uint) {\r... */\n    tag_7:\n      tag_20\n      tag_23\n      jump\t// in\n        /* \"CONTRACT/v2-core-master/contracts/UniswapV2Factory.sol\":1854:2023  function setFeeToSetter(address _feeToSetter) external {\r... */\n    tag_8:\n      tag_24\n      0x04\n      dup1\n      calldatasize\n      sub\n        /* \"--CODEGEN--\":13:15   */\n      0x20\n        /* \"--CODEGEN--\":8:11   */\n      dup2\n        /* \"--CODEGEN--\":5:16   */\n      lt\n        /* \"--CODEGEN--\":2:4   */\n      iszero\n      tag_25\n      jumpi\n        /* \"--CODEGEN--\":29:30   */\n      0x00\n        /* \"--CODEGEN--\":26:27   */\n      dup1\n        /* \"--CODEGEN--\":19:31   */\n      revert\n        /* \"--CODEGEN--\":2:4   */\n    tag_25:\n      pop\n        /* \"CONTRACT/v2-core-master/contracts/UniswapV2Factory.sol\":1854:2023  function setFeeToSetter(address _feeToSetter) external {\r... */\n      calldataload\n      sub(shl(0xa0, 0x01), 0x01)\n      and\n      tag_26\n      jump\t// in\n    tag_24:\n      stop\n        /* \"CONTRACT/v2-core-master/contracts/UniswapV2Factory.sol\":730:1693  function createPair(address tokenA, address tokenB) external returns (address pair) {\r... */\n    tag_9:\n      tag_13\n      0x04\n      dup1\n      calldatasize\n      sub\n        /* \"--CODEGEN--\":13:15   */\n      0x40\n        /* \"--CODEGEN--\":8:11   */\n      dup2\n        /* \"--CODEGEN--\":5:16   */\n      lt\n        /* \"--CODEGEN--\":2:4   */\n      iszero\n      tag_28\n      jumpi\n        /* \"--CODEGEN--\":29:30   */\n      0x00\n        /* \"--CODEGEN--\":26:27   */\n      dup1\n        /* \"--CODEGEN--\":19:31   */\n      revert\n        /* \"--CODEGEN--\":2:4   */\n    tag_28:\n      pop\n      sub(shl(0xa0, 0x01), 0x01)\n        /* \"CONTRACT/v2-core-master/contracts/UniswapV2Factory.sol\":730:1693  function createPair(address tokenA, address tokenB) external returns (address pair) {\r... */\n      dup2\n      calldataload\n      dup2\n      and\n      swap2\n      0x20\n      add\n      calldataload\n      and\n      tag_29\n      jump\t// in\n        /* \"CONTRACT/v2-core-master/contracts/UniswapV2Factory.sol\":335:397  mapping(address => mapping(address => address)) public getPair */\n    tag_10:\n      tag_13\n      0x04\n      dup1\n      calldatasize\n      sub\n        /* \"--CODEGEN--\":13:15   */\n      0x40\n        /* \"--CODEGEN--\":8:11   */\n      dup2\n        /* \"--CODEGEN--\":5:16   */\n      lt\n        /* \"--CODEGEN--\":2:4   */\n      iszero\n      tag_31\n      jumpi\n        /* \"--CODEGEN--\":29:30   */\n      0x00\n        /* \"--CODEGEN--\":26:27   */\n      dup1\n        /* \"--CODEGEN--\":19:31   */\n      revert\n        /* \"--CODEGEN--\":2:4   */\n    tag_31:\n      pop\n      sub(shl(0xa0, 0x01), 0x01)\n        /* \"CONTRACT/v2-core-master/contracts/UniswapV2Factory.sol\":335:397  mapping(address => mapping(address => address)) public getPair */\n      dup2\n      calldataload\n      dup2\n      and\n      swap2\n      0x20\n      add\n      calldataload\n      and\n      tag_32\n      jump\t// in\n        /* \"CONTRACT/v2-core-master/contracts/UniswapV2Factory.sol\":1701:1846  function setFeeTo(address _feeTo) external {\r... */\n    tag_11:\n      tag_24\n      0x04\n      dup1\n      calldatasize\n      sub\n        /* \"--CODEGEN--\":13:15   */\n      0x20\n        /* \"--CODEGEN--\":8:11   */\n      dup2\n        /* \"--CODEGEN--\":5:16   */\n      lt\n        /* \"--CODEGEN--\":2:4   */\n      iszero\n      tag_34\n      jumpi\n        /* \"--CODEGEN--\":29:30   */\n      0x00\n        /* \"--CODEGEN--\":26:27   */\n      dup1\n        /* \"--CODEGEN--\":19:31   */\n      revert\n        /* \"--CODEGEN--\":2:4   */\n    tag_34:\n      pop\n        /* \"CONTRACT/v2-core-master/contracts/UniswapV2Factory.sol\":1701:1846  function setFeeTo(address _feeTo) external {\r... */\n      calldataload\n      sub(shl(0xa0, 0x01), 0x01)\n      and\n      tag_35\n      jump\t// in\n        /* \"CONTRACT/v2-core-master/contracts/UniswapV2Factory.sol\":162:182  address public feeTo */\n    tag_14:\n      and(sub(shl(0xa0, 0x01), 0x01), sload(0x00))\n      dup2\n      jump\t// out\n        /* \"CONTRACT/v2-core-master/contracts/UniswapV2Factory.sol\":189:215  address public feeToSetter */\n    tag_16:\n      and(sub(shl(0xa0, 0x01), 0x01), sload(0x01))\n      dup2\n      jump\t// out\n        /* \"CONTRACT/v2-core-master/contracts/UniswapV2Factory.sol\":404:429  address[] public allPairs */\n    tag_19:\n      0x03\n      dup2\n      dup2\n      sload\n      dup2\n      lt\n      tag_36\n      jumpi\n      invalid\n    tag_36:\n      0x00\n      swap2\n      dup3\n      mstore\n      0x20\n      swap1\n      swap2\n      keccak256\n      add\n      sload\n      sub(shl(0xa0, 0x01), 0x01)\n      and\n      swap1\n      pop\n      dup2\n      jump\t// out\n        /* \"CONTRACT/v2-core-master/contracts/UniswapV2Factory.sol\":224:326  bytes32 public constant INIT_CODE_HASH = keccak256(abi.encodePacked(type(UniswapV2Pair).creationCode)) */\n    tag_21:\n        /* \"CONTRACT/v2-core-master/contracts/UniswapV2Factory.sol\":292:324  type(UniswapV2Pair).creationCode */\n      mload(0x40)\n      tag_38\n      0x20\n      dup3\n      add\n      tag_39\n      jump\t// in\n    tag_38:\n        /* \"--CODEGEN--\":41:45   */\n      0x20\n        /* \"--CODEGEN--\":34:39   */\n      dup3\n        /* \"--CODEGEN--\":30:46   */\n      add\n        /* \"--CODEGEN--\":25:28   */\n      dup2\n        /* \"--CODEGEN--\":21:47   */\n      sub\n        /* \"--CODEGEN--\":14:19   */\n      dup3\n        /* \"--CODEGEN--\":7:48   */\n      mstore\n        /* \"--CODEGEN--\":87:89   */\n      0x1f\n        /* \"--CODEGEN--\":83:90   */\n      not\n        /* \"--CODEGEN--\":78:80   */\n      0x1f\n        /* \"--CODEGEN--\":73:76   */\n      dup3\n        /* \"--CODEGEN--\":69:81   */\n      add\n        /* \"--CODEGEN--\":65:91   */\n      and\n        /* \"--CODEGEN--\":61:63   */\n      0x40\n        /* \"--CODEGEN--\":54:92   */\n      mstore\n        /* \"CONTRACT/v2-core-master/contracts/UniswapV2Factory.sol\":292:324  type(UniswapV2Pair).creationCode */\n      pop\n        /* \"CONTRACT/v2-core-master/contracts/UniswapV2Factory.sol\":275:325  abi.encodePacked(type(UniswapV2Pair).creationCode) */\n      add(0x20, mload(0x40))\n      dup1\n      dup3\n      dup1\n      mload\n      swap1\n      0x20\n      add\n      swap1\n      dup1\n      dup4\n      dup4\n        /* \"--CODEGEN--\":36:189   */\n    tag_40:\n        /* \"--CODEGEN--\":66:68   */\n      0x20\n        /* \"--CODEGEN--\":61:64   */\n      dup4\n        /* \"--CODEGEN--\":58:69   */\n      lt\n        /* \"--CODEGEN--\":36:189   */\n      tag_42\n      jumpi\n        /* \"--CODEGEN--\":176:186   */\n      dup1\n      mload\n        /* \"--CODEGEN--\":164:187   */\n      dup3\n      mstore\n      not(0x1f)\n        /* \"--CODEGEN--\":139:151   */\n      swap1\n      swap3\n      add\n      swap2\n        /* \"--CODEGEN--\":98:100   */\n      0x20\n        /* \"--CODEGEN--\":89:101   */\n      swap2\n      dup3\n      add\n      swap2\n        /* \"--CODEGEN--\":114:126   */\n      add\n        /* \"--CODEGEN--\":36:189   */\n      jump(tag_40)\n    tag_42:\n        /* \"--CODEGEN--\":274:275   */\n      0x01\n        /* \"--CODEGEN--\":267:270   */\n      dup4\n        /* \"--CODEGEN--\":263:265   */\n      0x20\n        /* \"--CODEGEN--\":259:271   */\n      sub\n        /* \"--CODEGEN--\":254:257   */\n      0x0100\n        /* \"--CODEGEN--\":250:272   */\n      exp\n        /* \"--CODEGEN--\":246:276   */\n      sub\n        /* \"--CODEGEN--\":315:319   */\n      dup1\n        /* \"--CODEGEN--\":311:320   */\n      not\n        /* \"--CODEGEN--\":305:308   */\n      dup3\n        /* \"--CODEGEN--\":299:309   */\n      mload\n        /* \"--CODEGEN--\":295:321   */\n      and\n        /* \"--CODEGEN--\":356:360   */\n      dup2\n        /* \"--CODEGEN--\":350:353   */\n      dup5\n        /* \"--CODEGEN--\":344:354   */\n      mload\n        /* \"--CODEGEN--\":340:361   */\n      and\n        /* \"--CODEGEN--\":389:396   */\n      dup1\n        /* \"--CODEGEN--\":380:387   */\n      dup3\n        /* \"--CODEGEN--\":377:397   */\n      or\n        /* \"--CODEGEN--\":372:375   */\n      dup6\n        /* \"--CODEGEN--\":365:398   */\n      mstore\n        /* \"--CODEGEN--\":3:402   */\n      pop\n      pop\n      pop\n        /* \"CONTRACT/v2-core-master/contracts/UniswapV2Factory.sol\":275:325  abi.encodePacked(type(UniswapV2Pair).creationCode) */\n      pop\n      pop\n      pop\n      swap1\n      pop\n      add\n      swap2\n      pop\n      pop\n      mload(0x40)\n        /* \"--CODEGEN--\":49:53   */\n      0x20\n        /* \"--CODEGEN--\":39:46   */\n      dup2\n        /* \"--CODEGEN--\":30:37   */\n      dup4\n        /* \"--CODEGEN--\":26:47   */\n      sub\n        /* \"--CODEGEN--\":22:54   */\n      sub\n        /* \"--CODEGEN--\":13:20   */\n      dup2\n        /* \"--CODEGEN--\":6:55   */\n      mstore\n        /* \"CONTRACT/v2-core-master/contracts/UniswapV2Factory.sol\":275:325  abi.encodePacked(type(UniswapV2Pair).creationCode) */\n      swap1\n      0x40\n      mstore\n        /* \"CONTRACT/v2-core-master/contracts/UniswapV2Factory.sol\":265:326  keccak256(abi.encodePacked(type(UniswapV2Pair).creationCode)) */\n      dup1\n      mload\n      swap1\n      0x20\n      add\n      keccak256\n        /* \"CONTRACT/v2-core-master/contracts/UniswapV2Factory.sol\":224:326  bytes32 public constant INIT_CODE_HASH = keccak256(abi.encodePacked(type(UniswapV2Pair).creationCode)) */\n      dup2\n      jump\t// out\n        /* \"CONTRACT/v2-core-master/contracts/UniswapV2Factory.sol\":626:722  function allPairsLength() external view returns (uint) {\r... */\n    tag_23:\n        /* \"CONTRACT/v2-core-master/contracts/UniswapV2Factory.sol\":699:707  allPairs */\n      0x03\n        /* \"CONTRACT/v2-core-master/contracts/UniswapV2Factory.sol\":699:714  allPairs.length */\n      sload\n        /* \"CONTRACT/v2-core-master/contracts/UniswapV2Factory.sol\":626:722  function allPairsLength() external view returns (uint) {\r... */\n      swap1\n      jump\t// out\n        /* \"CONTRACT/v2-core-master/contracts/UniswapV2Factory.sol\":1854:2023  function setFeeToSetter(address _feeToSetter) external {\r... */\n    tag_26:\n        /* \"CONTRACT/v2-core-master/contracts/UniswapV2Factory.sol\":1942:1953  feeToSetter */\n      and(sub(shl(0xa0, 0x01), 0x01), sload(0x01))\n        /* \"CONTRACT/v2-core-master/contracts/UniswapV2Factory.sol\":1928:1938  msg.sender */\n      caller\n        /* \"CONTRACT/v2-core-master/contracts/UniswapV2Factory.sol\":1928:1953  msg.sender == feeToSetter */\n      eq\n        /* \"CONTRACT/v2-core-master/contracts/UniswapV2Factory.sol\":1920:1978  require(msg.sender == feeToSetter, 'UniswapV2: FORBIDDEN') */\n      tag_45\n      jumpi\n      0x40\n      dup1\n      mload\n      shl(0xe5, 0x461bcd)\n      dup2\n      mstore\n      0x20\n      0x04\n      dup3\n      add\n      mstore\n      0x14\n      0x24\n      dup3\n      add\n      mstore\n      shl(0x61, 0x2ab734b9bbb0b82b191d102327a92124a22222a7)\n      0x44\n      dup3\n      add\n      mstore\n      swap1\n      mload\n      swap1\n      dup2\n      swap1\n      sub\n      0x64\n      add\n      swap1\n      revert\n    tag_45:\n        /* \"CONTRACT/v2-core-master/contracts/UniswapV2Factory.sol\":1989:2000  feeToSetter */\n      0x01\n        /* \"CONTRACT/v2-core-master/contracts/UniswapV2Factory.sol\":1989:2015  feeToSetter = _feeToSetter */\n      dup1\n      sload\n      not(sub(shl(0xa0, 0x01), 0x01))\n      and\n      sub(shl(0xa0, 0x01), 0x01)\n      swap3\n      swap1\n      swap3\n      and\n      swap2\n      swap1\n      swap2\n      or\n      swap1\n      sstore\n        /* \"CONTRACT/v2-core-master/contracts/UniswapV2Factory.sol\":1854:2023  function setFeeToSetter(address _feeToSetter) external {\r... */\n      jump\t// out\n        /* \"CONTRACT/v2-core-master/contracts/UniswapV2Factory.sol\":730:1693  function createPair(address tokenA, address tokenB) external returns (address pair) {\r... */\n    tag_29:\n        /* \"CONTRACT/v2-core-master/contracts/UniswapV2Factory.sol\":800:812  address pair */\n      0x00\n        /* \"CONTRACT/v2-core-master/contracts/UniswapV2Factory.sol\":843:849  tokenB */\n      dup2\n      sub(shl(0xa0, 0x01), 0x01)\n        /* \"CONTRACT/v2-core-master/contracts/UniswapV2Factory.sol\":833:849  tokenA != tokenB */\n      and\n        /* \"CONTRACT/v2-core-master/contracts/UniswapV2Factory.sol\":833:839  tokenA */\n      dup4\n      sub(shl(0xa0, 0x01), 0x01)\n        /* \"CONTRACT/v2-core-master/contracts/UniswapV2Factory.sol\":833:849  tokenA != tokenB */\n      and\n      eq\n      iszero\n        /* \"CONTRACT/v2-core-master/contracts/UniswapV2Factory.sol\":825:884  require(tokenA != tokenB, 'UniswapV2: IDENTICAL_ADDRESSES') */\n      tag_47\n      jumpi\n      0x40\n      dup1\n      mload\n      shl(0xe5, 0x461bcd)\n      dup2\n      mstore\n      0x20\n      0x04\n      dup3\n      add\n      mstore\n      0x1e\n      0x24\n      dup3\n      add\n      mstore\n      0x556e697377617056323a204944454e544943414c5f4144445245535345530000\n      0x44\n      dup3\n      add\n      mstore\n      swap1\n      mload\n      swap1\n      dup2\n      swap1\n      sub\n      0x64\n      add\n      swap1\n      revert\n    tag_47:\n        /* \"CONTRACT/v2-core-master/contracts/UniswapV2Factory.sol\":896:910  address token0 */\n      0x00\n        /* \"CONTRACT/v2-core-master/contracts/UniswapV2Factory.sol\":912:926  address token1 */\n      dup1\n        /* \"CONTRACT/v2-core-master/contracts/UniswapV2Factory.sol\":939:945  tokenB */\n      dup4\n      sub(shl(0xa0, 0x01), 0x01)\n        /* \"CONTRACT/v2-core-master/contracts/UniswapV2Factory.sol\":930:945  tokenA < tokenB */\n      and\n        /* \"CONTRACT/v2-core-master/contracts/UniswapV2Factory.sol\":930:936  tokenA */\n      dup6\n      sub(shl(0xa0, 0x01), 0x01)\n        /* \"CONTRACT/v2-core-master/contracts/UniswapV2Factory.sol\":930:945  tokenA < tokenB */\n      and\n      lt\n        /* \"CONTRACT/v2-core-master/contracts/UniswapV2Factory.sol\":930:983  tokenA < tokenB ? (tokenA, tokenB) : (tokenB, tokenA) */\n      tag_48\n      jumpi\n        /* \"CONTRACT/v2-core-master/contracts/UniswapV2Factory.sol\":968:974  tokenB */\n      dup4\n        /* \"CONTRACT/v2-core-master/contracts/UniswapV2Factory.sol\":976:982  tokenA */\n      dup6\n        /* \"CONTRACT/v2-core-master/contracts/UniswapV2Factory.sol\":930:983  tokenA < tokenB ? (tokenA, tokenB) : (tokenB, tokenA) */\n      jump(tag_49)\n    tag_48:\n        /* \"CONTRACT/v2-core-master/contracts/UniswapV2Factory.sol\":949:955  tokenA */\n      dup5\n        /* \"CONTRACT/v2-core-master/contracts/UniswapV2Factory.sol\":957:963  tokenB */\n      dup5\n        /* \"CONTRACT/v2-core-master/contracts/UniswapV2Factory.sol\":930:983  tokenA < tokenB ? (tokenA, tokenB) : (tokenB, tokenA) */\n    tag_49:\n        /* \"CONTRACT/v2-core-master/contracts/UniswapV2Factory.sol\":895:983  (address token0, address token1) = tokenA < tokenB ? (tokenA, tokenB) : (tokenB, tokenA) */\n      swap1\n      swap3\n      pop\n      swap1\n      pop\n      sub(shl(0xa0, 0x01), 0x01)\n        /* \"CONTRACT/v2-core-master/contracts/UniswapV2Factory.sol\":1002:1022  token0 != address(0) */\n      dup3\n      and\n        /* \"CONTRACT/v2-core-master/contracts/UniswapV2Factory.sol\":994:1050  require(token0 != address(0), 'UniswapV2: ZERO_ADDRESS') */\n      tag_50\n      jumpi\n      0x40\n      dup1\n      mload\n      shl(0xe5, 0x461bcd)\n      dup2\n      mstore\n      0x20\n      0x04\n      dup3\n      add\n      mstore\n      0x17\n      0x24\n      dup3\n      add\n      mstore\n      0x556e697377617056323a205a45524f5f41444452455353000000000000000000\n      0x44\n      dup3\n      add\n      mstore\n      swap1\n      mload\n      swap1\n      dup2\n      swap1\n      sub\n      0x64\n      add\n      swap1\n      revert\n    tag_50:\n      sub(shl(0xa0, 0x01), 0x01)\n        /* \"CONTRACT/v2-core-master/contracts/UniswapV2Factory.sol\":1069:1084  getPair[token0] */\n      dup3\n      dup2\n      and\n        /* \"CONTRACT/v2-core-master/contracts/UniswapV2Factory.sol\":1104:1105  0 */\n      0x00\n        /* \"CONTRACT/v2-core-master/contracts/UniswapV2Factory.sol\":1069:1084  getPair[token0] */\n      swap1\n      dup2\n      mstore\n        /* \"CONTRACT/v2-core-master/contracts/UniswapV2Factory.sol\":1069:1076  getPair */\n      0x02\n        /* \"CONTRACT/v2-core-master/contracts/UniswapV2Factory.sol\":1069:1084  getPair[token0] */\n      0x20\n      swap1\n      dup2\n      mstore\n      0x40\n      dup1\n      dup4\n      keccak256\n        /* \"CONTRACT/v2-core-master/contracts/UniswapV2Factory.sol\":1069:1092  getPair[token0][token1] */\n      dup6\n      dup6\n      and\n      dup5\n      mstore\n      swap1\n      swap2\n      mstore\n      swap1\n      keccak256\n      sload\n      and\n        /* \"CONTRACT/v2-core-master/contracts/UniswapV2Factory.sol\":1069:1106  getPair[token0][token1] == address(0) */\n      iszero\n        /* \"CONTRACT/v2-core-master/contracts/UniswapV2Factory.sol\":1061:1133  require(getPair[token0][token1] == address(0), 'UniswapV2: PAIR_EXISTS') */\n      tag_51\n      jumpi\n      0x40\n      dup1\n      mload\n      shl(0xe5, 0x461bcd)\n      dup2\n      mstore\n      0x20\n      0x04\n      dup3\n      add\n      mstore\n      0x16\n      0x24\n      dup3\n      add\n      mstore\n      shl(0x50, 0x556e697377617056323a20504149525f455849535453)\n      0x44\n      dup3\n      add\n      mstore\n      swap1\n      mload\n      swap1\n      dup2\n      swap1\n      sub\n      0x64\n      add\n      swap1\n      revert\n    tag_51:\n        /* \"CONTRACT/v2-core-master/contracts/UniswapV2Factory.sol\":1174:1195  bytes memory bytecode */\n      0x60\n        /* \"CONTRACT/v2-core-master/contracts/UniswapV2Factory.sol\":1198:1230  type(UniswapV2Pair).creationCode */\n      mload(0x40)\n      dup1\n      0x20\n      add\n      tag_52\n      swap1\n      tag_39\n      jump\t// in\n    tag_52:\n        /* \"--CODEGEN--\":41:45   */\n      0x20\n        /* \"--CODEGEN--\":34:39   */\n      dup3\n        /* \"--CODEGEN--\":30:46   */\n      add\n        /* \"--CODEGEN--\":25:28   */\n      dup2\n        /* \"--CODEGEN--\":21:47   */\n      sub\n        /* \"--CODEGEN--\":14:19   */\n      dup3\n        /* \"--CODEGEN--\":7:48   */\n      mstore\n        /* \"--CODEGEN--\":87:89   */\n      0x1f\n        /* \"--CODEGEN--\":83:90   */\n      not\n        /* \"--CODEGEN--\":78:80   */\n      0x1f\n        /* \"--CODEGEN--\":73:76   */\n      dup3\n        /* \"--CODEGEN--\":69:81   */\n      add\n        /* \"--CODEGEN--\":65:91   */\n      and\n        /* \"--CODEGEN--\":61:63   */\n      0x40\n        /* \"--CODEGEN--\":54:92   */\n      mstore\n        /* \"CONTRACT/v2-core-master/contracts/UniswapV2Factory.sol\":1198:1230  type(UniswapV2Pair).creationCode */\n      pop\n        /* \"CONTRACT/v2-core-master/contracts/UniswapV2Factory.sol\":1174:1230  bytes memory bytecode = type(UniswapV2Pair).creationCode */\n      swap1\n      pop\n        /* \"CONTRACT/v2-core-master/contracts/UniswapV2Factory.sol\":1241:1253  bytes32 salt */\n      0x00\n        /* \"CONTRACT/v2-core-master/contracts/UniswapV2Factory.sol\":1283:1289  token0 */\n      dup4\n        /* \"CONTRACT/v2-core-master/contracts/UniswapV2Factory.sol\":1291:1297  token1 */\n      dup4\n        /* \"CONTRACT/v2-core-master/contracts/UniswapV2Factory.sol\":1266:1298  abi.encodePacked(token0, token1) */\n      add(0x20, mload(0x40))\n      dup1\n      dup4\n      sub(shl(0xa0, 0x01), 0x01)\n      and\n      sub(shl(0xa0, 0x01), 0x01)\n      and\n      0x60\n      shl\n      dup2\n      mstore\n      0x14\n      add\n      dup3\n      sub(shl(0xa0, 0x01), 0x01)\n      and\n      sub(shl(0xa0, 0x01), 0x01)\n      and\n      0x60\n      shl\n      dup2\n      mstore\n      0x14\n      add\n      swap3\n      pop\n      pop\n      pop\n      mload(0x40)\n        /* \"--CODEGEN--\":49:53   */\n      0x20\n        /* \"--CODEGEN--\":39:46   */\n      dup2\n        /* \"--CODEGEN--\":30:37   */\n      dup4\n        /* \"--CODEGEN--\":26:47   */\n      sub\n        /* \"--CODEGEN--\":22:54   */\n      sub\n        /* \"--CODEGEN--\":13:20   */\n      dup2\n        /* \"--CODEGEN--\":6:55   */\n      mstore\n        /* \"CONTRACT/v2-core-master/contracts/UniswapV2Factory.sol\":1266:1298  abi.encodePacked(token0, token1) */\n      swap1\n      0x40\n      mstore\n        /* \"CONTRACT/v2-core-master/contracts/UniswapV2Factory.sol\":1256:1299  keccak256(abi.encodePacked(token0, token1)) */\n      dup1\n      mload\n      swap1\n      0x20\n      add\n      keccak256\n        /* \"CONTRACT/v2-core-master/contracts/UniswapV2Factory.sol\":1241:1299  bytes32 salt = keccak256(abi.encodePacked(token0, token1)) */\n      swap1\n      pop\n        /* \"CONTRACT/v2-core-master/contracts/UniswapV2Factory.sol\":1389:1393  salt */\n      dup1\n        /* \"CONTRACT/v2-core-master/contracts/UniswapV2Factory.sol\":1378:1386  bytecode */\n      dup3\n        /* \"CONTRACT/v2-core-master/contracts/UniswapV2Factory.sol\":1372:1387  mload(bytecode) */\n      mload\n        /* \"CONTRACT/v2-core-master/contracts/UniswapV2Factory.sol\":1367:1369  32 */\n      0x20\n        /* \"CONTRACT/v2-core-master/contracts/UniswapV2Factory.sol\":1357:1365  bytecode */\n      dup5\n        /* \"CONTRACT/v2-core-master/contracts/UniswapV2Factory.sol\":1353:1370  add(bytecode, 32) */\n      add\n        /* \"CONTRACT/v2-core-master/contracts/UniswapV2Factory.sol\":1350:1351  0 */\n      0x00\n        /* \"CONTRACT/v2-core-master/contracts/UniswapV2Factory.sol\":1342:1394  create2(0, add(bytecode, 32), mload(bytecode), salt) */\n      create2\n        /* \"CONTRACT/v2-core-master/contracts/UniswapV2Factory.sol\":1415:1462  IUniswapV2Pair(pair).initialize(token0, token1) */\n      0x40\n      dup1\n      mload\n      shl(0xe0, 0x485cc955)\n      dup2\n      mstore\n      sub(shl(0xa0, 0x01), 0x01)\n      dup8\n      dup2\n      and\n      0x04\n      dup4\n      add\n      mstore\n      dup7\n      dup2\n      and\n      0x24\n      dup4\n      add\n      mstore\n      swap2\n      mload\n        /* \"CONTRACT/v2-core-master/contracts/UniswapV2Factory.sol\":1334:1394  pair := create2(0, add(bytecode, 32), mload(bytecode), salt) */\n      swap3\n      swap8\n      pop\n        /* \"CONTRACT/v2-core-master/contracts/UniswapV2Factory.sol\":1415:1446  IUniswapV2Pair(pair).initialize */\n      swap1\n      dup8\n      and\n      swap2\n      0x485cc955\n      swap2\n        /* \"CONTRACT/v2-core-master/contracts/UniswapV2Factory.sol\":1415:1462  IUniswapV2Pair(pair).initialize(token0, token1) */\n      0x44\n      dup1\n      dup3\n      add\n      swap3\n      0x00\n      swap3\n      swap1\n      swap2\n      swap1\n      dup3\n      swap1\n      sub\n      add\n      dup2\n      dup4\n        /* \"CONTRACT/v2-core-master/contracts/UniswapV2Factory.sol\":1415:1446  IUniswapV2Pair(pair).initialize */\n      dup8\n        /* \"CONTRACT/v2-core-master/contracts/UniswapV2Factory.sol\":1415:1462  IUniswapV2Pair(pair).initialize(token0, token1) */\n      dup1\n      extcodesize\n      iszero\n        /* \"--CODEGEN--\":5:7   */\n      dup1\n      iszero\n      tag_53\n      jumpi\n        /* \"--CODEGEN--\":30:31   */\n      0x00\n        /* \"--CODEGEN--\":27:28   */\n      dup1\n        /* \"--CODEGEN--\":20:32   */\n      revert\n        /* \"--CODEGEN--\":5:7   */\n    tag_53:\n        /* \"CONTRACT/v2-core-master/contracts/UniswapV2Factory.sol\":1415:1462  IUniswapV2Pair(pair).initialize(token0, token1) */\n      pop\n      gas\n      call\n      iszero\n        /* \"--CODEGEN--\":8:17   */\n      dup1\n        /* \"--CODEGEN--\":5:7   */\n      iszero\n      tag_54\n      jumpi\n        /* \"--CODEGEN--\":45:61   */\n      returndatasize\n        /* \"--CODEGEN--\":42:43   */\n      0x00\n        /* \"--CODEGEN--\":39:40   */\n      dup1\n        /* \"--CODEGEN--\":24:62   */\n      returndatacopy\n        /* \"--CODEGEN--\":77:93   */\n      returndatasize\n        /* \"--CODEGEN--\":74:75   */\n      0x00\n        /* \"--CODEGEN--\":67:94   */\n      revert\n        /* \"--CODEGEN--\":5:7   */\n    tag_54:\n      pop\n      pop\n      pop\n      pop\n      sub(shl(0xa0, 0x01), 0x01)\n        /* \"CONTRACT/v2-core-master/contracts/UniswapV2Factory.sol\":1473:1488  getPair[token0] */\n      dup5\n      dup2\n      and\n      0x00\n      dup2\n      dup2\n      mstore\n        /* \"CONTRACT/v2-core-master/contracts/UniswapV2Factory.sol\":1473:1480  getPair */\n      0x02\n        /* \"CONTRACT/v2-core-master/contracts/UniswapV2Factory.sol\":1473:1488  getPair[token0] */\n      0x20\n      dup2\n      dup2\n      mstore\n      0x40\n      dup1\n      dup5\n      keccak256\n        /* \"CONTRACT/v2-core-master/contracts/UniswapV2Factory.sol\":1473:1496  getPair[token0][token1] */\n      dup10\n      dup8\n      and\n      dup1\n      dup7\n      mstore\n      swap1\n      dup4\n      mstore\n      dup2\n      dup6\n      keccak256\n        /* \"CONTRACT/v2-core-master/contracts/UniswapV2Factory.sol\":1473:1503  getPair[token0][token1] = pair */\n      dup1\n      sload\n      swap8\n      dup14\n      and\n      not(sub(shl(0xa0, 0x01), 0x01))\n      swap9\n      dup10\n      and\n      dup2\n      or\n      swap1\n      swap2\n      sstore\n        /* \"CONTRACT/v2-core-master/contracts/UniswapV2Factory.sol\":1514:1529  getPair[token1] */\n      swap4\n      dup4\n      mstore\n      dup2\n      dup6\n      keccak256\n        /* \"CONTRACT/v2-core-master/contracts/UniswapV2Factory.sol\":1514:1537  getPair[token1][token0] */\n      dup7\n      dup7\n      mstore\n      dup4\n      mstore\n      dup2\n      dup6\n      keccak256\n        /* \"CONTRACT/v2-core-master/contracts/UniswapV2Factory.sol\":1514:1544  getPair[token1][token0] = pair */\n      dup1\n      sload\n      dup9\n      and\n      dup6\n      or\n      swap1\n      sstore\n        /* \"CONTRACT/v2-core-master/contracts/UniswapV2Factory.sol\":1600:1608  allPairs */\n      0x03\n        /* \"--CODEGEN--\":27:37   */\n      dup1\n      sload\n      0x01\n        /* \"--CODEGEN--\":23:41   */\n      dup2\n      add\n        /* \"--CODEGEN--\":45:68   */\n      dup3\n      sstore\n        /* \"CONTRACT/v2-core-master/contracts/UniswapV2Factory.sol\":1600:1619  allPairs.push(pair) */\n      swap6\n      dup2\n      swap1\n      mstore\n      0xc2575a0e9e593c00f959f8c92f12db2869c3395a3b0502d05e2516446f71f85b\n      swap1\n      swap6\n      add\n      dup1\n      sload\n      swap1\n      swap8\n      and\n      dup5\n      or\n      swap1\n      swap7\n      sstore\n        /* \"CONTRACT/v2-core-master/contracts/UniswapV2Factory.sol\":1669:1684  allPairs.length */\n      swap3\n      sload\n        /* \"CONTRACT/v2-core-master/contracts/UniswapV2Factory.sol\":1635:1685  PairCreated(token0, token1, pair, allPairs.length) */\n      dup4\n      mload\n      swap3\n      dup4\n      mstore\n      swap1\n      dup3\n      add\n      mstore\n      dup2\n      mload\n      0x0d3648bd0f6ba80134a33ba9275ac585d9d315f0ad8355cddefde31afa28d0e9\n      swap3\n      swap2\n      dup2\n      swap1\n      sub\n      swap1\n      swap2\n      add\n      swap1\n      log3\n        /* \"CONTRACT/v2-core-master/contracts/UniswapV2Factory.sol\":730:1693  function createPair(address tokenA, address tokenB) external returns (address pair) {\r... */\n      pop\n      pop\n      pop\n      pop\n      swap3\n      swap2\n      pop\n      pop\n      jump\t// out\n        /* \"CONTRACT/v2-core-master/contracts/UniswapV2Factory.sol\":335:397  mapping(address => mapping(address => address)) public getPair */\n    tag_32:\n      0x02\n      0x20\n      swap1\n      dup2\n      mstore\n      0x00\n      swap3\n      dup4\n      mstore\n      0x40\n      dup1\n      dup5\n      keccak256\n      swap1\n      swap2\n      mstore\n      swap1\n      dup3\n      mstore\n      swap1\n      keccak256\n      sload\n      sub(shl(0xa0, 0x01), 0x01)\n      and\n      dup2\n      jump\t// out\n        /* \"CONTRACT/v2-core-master/contracts/UniswapV2Factory.sol\":1701:1846  function setFeeTo(address _feeTo) external {\r... */\n    tag_35:\n        /* \"CONTRACT/v2-core-master/contracts/UniswapV2Factory.sol\":1777:1788  feeToSetter */\n      and(sub(shl(0xa0, 0x01), 0x01), sload(0x01))\n        /* \"CONTRACT/v2-core-master/contracts/UniswapV2Factory.sol\":1763:1773  msg.sender */\n      caller\n        /* \"CONTRACT/v2-core-master/contracts/UniswapV2Factory.sol\":1763:1788  msg.sender == feeToSetter */\n      eq\n        /* \"CONTRACT/v2-core-master/contracts/UniswapV2Factory.sol\":1755:1813  require(msg.sender == feeToSetter, 'UniswapV2: FORBIDDEN') */\n      tag_57\n      jumpi\n      0x40\n      dup1\n      mload\n      shl(0xe5, 0x461bcd)\n      dup2\n      mstore\n      0x20\n      0x04\n      dup3\n      add\n      mstore\n      0x14\n      0x24\n      dup3\n      add\n      mstore\n      shl(0x61, 0x2ab734b9bbb0b82b191d102327a92124a22222a7)\n      0x44\n      dup3\n      add\n      mstore\n      swap1\n      mload\n      swap1\n      dup2\n      swap1\n      sub\n      0x64\n      add\n      swap1\n      revert\n    tag_57:\n        /* \"CONTRACT/v2-core-master/contracts/UniswapV2Factory.sol\":1824:1829  feeTo */\n      0x00\n        /* \"CONTRACT/v2-core-master/contracts/UniswapV2Factory.sol\":1824:1838  feeTo = _feeTo */\n      dup1\n      sload\n      not(sub(shl(0xa0, 0x01), 0x01))\n      and\n      sub(shl(0xa0, 0x01), 0x01)\n      swap3\n      swap1\n      swap3\n      and\n      swap2\n      swap1\n      swap2\n      or\n      swap1\n      sstore\n        /* \"CONTRACT/v2-core-master/contracts/UniswapV2Factory.sol\":1701:1846  function setFeeTo(address _feeTo) external {\r... */\n      jump\t// out\n        /* \"CONTRACT/v2-core-master/contracts/UniswapV2Factory.sol\":108:2026  contract UniswapV2Factory is IUniswapV2Factory {\r... */\n    tag_39:\n      dataSize(sub_0)\n      dup1\n      dataOffset(sub_0)\n      dup4\n      codecopy\n      add\n      swap1\n      jump\t// out\n    stop\n\n    sub_0: assembly {\n            /* \"CONTRACT/v2-core-master/contracts/UniswapV2Pair.sol\":301:9989  contract UniswapV2Pair is IUniswapV2Pair, UniswapV2ERC20 {\r... */\n          mstore(0x40, 0x80)\n            /* \"CONTRACT/v2-core-master/contracts/UniswapV2Pair.sol\":1170:1171  1 */\n          0x01\n            /* \"CONTRACT/v2-core-master/contracts/UniswapV2Pair.sol\":1146:1171  uint private unlocked = 1 */\n          0x0c\n          sstore\n            /* \"CONTRACT/v2-core-master/contracts/UniswapV2Pair.sol\":2257:2317  constructor() public {\r... */\n          callvalue\n            /* \"--CODEGEN--\":8:17   */\n          dup1\n            /* \"--CODEGEN--\":5:7   */\n          iszero\n          tag_1\n          jumpi\n            /* \"--CODEGEN--\":30:31   */\n          0x00\n            /* \"--CODEGEN--\":27:28   */\n          dup1\n            /* \"--CODEGEN--\":20:32   */\n          revert\n            /* \"--CODEGEN--\":5:7   */\n        tag_1:\n          pop\n            /* \"CONTRACT/v2-core-master/contracts/UniswapV2ERC20.sol\":1123:1218  keccak256('EIP712Domain(string name,string version,uint256 chainId,address verifyingContract)') */\n          mload(0x40)\n            /* \"CONTRACT/v2-core-master/contracts/UniswapV2ERC20.sol\":1023:1030  chainid */\n          chainid\n          swap1\n            /* \"CONTRACT/v2-core-master/contracts/UniswapV2ERC20.sol\":1123:1218  keccak256('EIP712Domain(string name,string version,uint256 chainId,address verifyingContract)') */\n          dup1\n          0x52\n          data_8b73c3c69bb8fe3d512ecc4cf759cc79239f7b179b0ffacaa9a75d522b39400f\n          dup3\n          codecopy\n          0x40\n          dup1\n          mload\n          swap2\n          dup3\n          swap1\n          sub\n          0x52\n          add\n          dup3\n          keccak256\n            /* \"CONTRACT/v2-core-master/contracts/UniswapV2ERC20.sol\":1253:1257  name */\n          dup3\n          dup3\n          add\n          dup3\n          mstore\n          0x03\n          dup1\n          dup5\n          mstore\n          shl(0xe8, 0x45564f)\n          0x20\n          swap5\n          dup6\n          add\n          mstore\n            /* \"CONTRACT/v2-core-master/contracts/UniswapV2ERC20.sol\":1288:1298  bytes('1') */\n          dup3\n          mload\n          dup1\n          dup5\n          add\n          dup5\n          mstore\n          0x01\n          dup2\n          mstore\n          shl(0xf8, 0x31)\n          swap1\n          dup6\n          add\n          mstore\n            /* \"CONTRACT/v2-core-master/contracts/UniswapV2ERC20.sol\":1094:1372  abi.encode(\r... */\n          dup3\n          mload\n          dup1\n          dup6\n          add\n          swap3\n          swap1\n          swap3\n          mstore\n            /* \"CONTRACT/v2-core-master/contracts/UniswapV2ERC20.sol\":1237:1259  keccak256(bytes(name)) */\n          0x19282f83aceb4f3cdf76a68e7025cfbabe6150e8d7b6d40b07961c72c7c778e8\n            /* \"CONTRACT/v2-core-master/contracts/UniswapV2ERC20.sol\":1094:1372  abi.encode(\r... */\n          dup3\n          dup5\n          add\n          mstore\n            /* \"CONTRACT/v2-core-master/contracts/UniswapV2ERC20.sol\":1278:1299  keccak256(bytes('1')) */\n          0xc89efdaa54c0f20c7adf612882df0950f5a951637e0307cdcb4c672f298b8bc6\n            /* \"CONTRACT/v2-core-master/contracts/UniswapV2ERC20.sol\":1094:1372  abi.encode(\r... */\n          0x60\n          dup4\n          add\n          mstore\n          0x80\n          dup3\n          add\n          swap6\n          swap1\n          swap6\n          mstore\n            /* \"CONTRACT/v2-core-master/contracts/UniswapV2ERC20.sol\":1352:1356  this */\n          address\n            /* \"CONTRACT/v2-core-master/contracts/UniswapV2ERC20.sol\":1094:1372  abi.encode(\r... */\n          0xa0\n          dup1\n          dup4\n          add\n          swap2\n          swap1\n          swap2\n          mstore\n          dup3\n          mload\n            /* \"--CODEGEN--\":26:47   */\n          dup1\n          dup4\n          sub\n            /* \"--CODEGEN--\":22:54   */\n          swap1\n          swap2\n          add\n            /* \"--CODEGEN--\":6:55   */\n          dup2\n          mstore\n            /* \"CONTRACT/v2-core-master/contracts/UniswapV2ERC20.sol\":1094:1372  abi.encode(\r... */\n          0xc0\n          swap1\n          swap2\n          add\n          swap1\n          swap2\n          mstore\n            /* \"CONTRACT/v2-core-master/contracts/UniswapV2ERC20.sol\":1070:1383  keccak256(\r... */\n          dup1\n          mload\n          swap2\n          add\n          keccak256\n            /* \"CONTRACT/v2-core-master/contracts/UniswapV2ERC20.sol\":1051:1383  DOMAIN_SEPARATOR = keccak256(\r... */\n          swap1\n          swap2\n          sstore\n          pop\n            /* \"CONTRACT/v2-core-master/contracts/UniswapV2Pair.sol\":2289:2296  factory */\n          0x05\n            /* \"CONTRACT/v2-core-master/contracts/UniswapV2Pair.sol\":2289:2309  factory = msg.sender */\n          dup1\n          sload\n          not(sub(shl(0xa0, 0x01), 0x01))\n          and\n            /* \"CONTRACT/v2-core-master/contracts/UniswapV2Pair.sol\":2299:2309  msg.sender */\n          caller\n            /* \"CONTRACT/v2-core-master/contracts/UniswapV2Pair.sol\":2289:2309  factory = msg.sender */\n          or\n          swap1\n          sstore\n          0x2250\n          dup1\n            /* \"CONTRACT/v2-core-master/contracts/UniswapV2Pair.sol\":301:9989  contract UniswapV2Pair is IUniswapV2Pair, UniswapV2ERC20 {\r... */\n          dataOffset(sub_0)\n          0x00\n          codecopy\n          0x00\n          return\n        stop\n        data_8b73c3c69bb8fe3d512ecc4cf759cc79239f7b179b0ffacaa9a75d522b39400f 454950373132446f6d61696e28737472696e67206e616d652c737472696e672076657273696f6e2c75696e7432353620636861696e49642c6164647265737320766572696679696e67436f6e747261637429\n\n        sub_0: assembly {\n                /* \"CONTRACT/v2-core-master/contracts/UniswapV2Pair.sol\":301:9989  contract UniswapV2Pair is IUniswapV2Pair, UniswapV2ERC20 {\r... */\n              mstore(0x40, 0x80)\n              callvalue\n                /* \"--CODEGEN--\":8:17   */\n              dup1\n                /* \"--CODEGEN--\":5:7   */\n              iszero\n              tag_1\n              jumpi\n                /* \"--CODEGEN--\":30:31   */\n              0x00\n                /* \"--CODEGEN--\":27:28   */\n              dup1\n                /* \"--CODEGEN--\":20:32   */\n              revert\n                /* \"--CODEGEN--\":5:7   */\n            tag_1:\n                /* \"CONTRACT/v2-core-master/contracts/UniswapV2Pair.sol\":301:9989  contract UniswapV2Pair is IUniswapV2Pair, UniswapV2ERC20 {\r... */\n              pop\n              jumpi(tag_2, lt(calldatasize, 0x04))\n              shr(0xe0, calldataload(0x00))\n              dup1\n              0x6a627842\n              gt\n              tag_30\n              jumpi\n              dup1\n              0xba9a7a56\n              gt\n              tag_31\n              jumpi\n              dup1\n              0xd21220a7\n              gt\n              tag_32\n              jumpi\n              dup1\n              0xd21220a7\n              eq\n              tag_26\n              jumpi\n              dup1\n              0xd505accf\n              eq\n              tag_27\n              jumpi\n              dup1\n              0xdd62ed3e\n              eq\n              tag_28\n              jumpi\n              dup1\n              0xfff6cae9\n              eq\n              tag_29\n              jumpi\n              jump(tag_2)\n            tag_32:\n              dup1\n              0xba9a7a56\n              eq\n              tag_23\n              jumpi\n              dup1\n              0xbc25cf77\n              eq\n              tag_24\n              jumpi\n              dup1\n              0xc45a0155\n              eq\n              tag_25\n              jumpi\n              jump(tag_2)\n            tag_31:\n              dup1\n              0x7ecebe00\n              gt\n              tag_33\n              jumpi\n              dup1\n              0x7ecebe00\n              eq\n              tag_19\n              jumpi\n              dup1\n              0x89afcb44\n              eq\n              tag_20\n              jumpi\n              dup1\n              0x95d89b41\n              eq\n              tag_4\n              jumpi\n              dup1\n              0xa9059cbb\n              eq\n              tag_22\n              jumpi\n              jump(tag_2)\n            tag_33:\n              dup1\n              0x6a627842\n              eq\n              tag_16\n              jumpi\n              dup1\n              0x70a08231\n              eq\n              tag_17\n              jumpi\n              dup1\n              0x7464fc3d\n              eq\n              tag_18\n              jumpi\n              jump(tag_2)\n            tag_30:\n              dup1\n              0x23b872dd\n              gt\n              tag_34\n              jumpi\n              dup1\n              0x3644e515\n              gt\n              tag_35\n              jumpi\n              dup1\n              0x3644e515\n              eq\n              tag_12\n              jumpi\n              dup1\n              0x485cc955\n              eq\n              tag_13\n              jumpi\n              dup1\n              0x5909c0d5\n              eq\n              tag_14\n              jumpi\n              dup1\n              0x5a3d5493\n              eq\n              tag_15\n              jumpi\n              jump(tag_2)\n            tag_35:\n              dup1\n              0x23b872dd\n              eq\n              tag_9\n              jumpi\n              dup1\n              0x30adf81f\n              eq\n              tag_10\n              jumpi\n              dup1\n              0x313ce567\n              eq\n              tag_11\n              jumpi\n              jump(tag_2)\n            tag_34:\n              dup1\n              0x022c0d9f\n              eq\n              tag_3\n              jumpi\n              dup1\n              0x06fdde03\n              eq\n              tag_4\n              jumpi\n              dup1\n              0x0902f1ac\n              eq\n              tag_5\n              jumpi\n              dup1\n              0x095ea7b3\n              eq\n              tag_6\n              jumpi\n              dup1\n              0x0dfe1681\n              eq\n              tag_7\n              jumpi\n              dup1\n              0x18160ddd\n              eq\n              tag_8\n              jumpi\n            tag_2:\n              0x00\n              dup1\n              revert\n                /* \"CONTRACT/v2-core-master/contracts/UniswapV2Pair.sol\":7507:9396  function swap(uint amount0Out, uint amount1Out, address to, bytes calldata data) external lock {\r... */\n            tag_3:\n              tag_36\n              0x04\n              dup1\n              calldatasize\n              sub\n                /* \"--CODEGEN--\":13:16   */\n              0x80\n                /* \"--CODEGEN--\":8:11   */\n              dup2\n                /* \"--CODEGEN--\":5:17   */\n              lt\n                /* \"--CODEGEN--\":2:4   */\n              iszero\n              tag_37\n              jumpi\n                /* \"--CODEGEN--\":30:31   */\n              0x00\n                /* \"--CODEGEN--\":27:28   */\n              dup1\n                /* \"--CODEGEN--\":20:32   */\n              revert\n                /* \"--CODEGEN--\":2:4   */\n            tag_37:\n                /* \"CONTRACT/v2-core-master/contracts/UniswapV2Pair.sol\":7507:9396  function swap(uint amount0Out, uint amount1Out, address to, bytes calldata data) external lock {\r... */\n              dup2\n              calldataload\n              swap2\n              0x20\n              dup2\n              add\n              calldataload\n              swap2\n              0x40\n              dup3\n              add\n              calldataload\n              sub(shl(0xa0, 0x01), 0x01)\n              and\n              swap2\n              swap1\n              dup2\n              add\n              swap1\n              0x80\n              dup2\n              add\n              0x60\n              dup3\n              add\n              calldataload\n                /* \"--CODEGEN--\":21:32   */\n              0x0100000000\n                /* \"--CODEGEN--\":5:33   */\n              dup2\n              gt\n                /* \"--CODEGEN--\":2:4   */\n              iszero\n              tag_38\n              jumpi\n                /* \"--CODEGEN--\":46:47   */\n              0x00\n                /* \"--CODEGEN--\":43:44   */\n              dup1\n                /* \"--CODEGEN--\":36:48   */\n              revert\n                /* \"--CODEGEN--\":2:4   */\n            tag_38:\n                /* \"CONTRACT/v2-core-master/contracts/UniswapV2Pair.sol\":7507:9396  function swap(uint amount0Out, uint amount1Out, address to, bytes calldata data) external lock {\r... */\n              dup3\n              add\n                /* \"--CODEGEN--\":35:44   */\n              dup4\n                /* \"--CODEGEN--\":28:32   */\n              0x20\n                /* \"--CODEGEN--\":12:26   */\n              dup3\n                /* \"--CODEGEN--\":8:33   */\n              add\n                /* \"--CODEGEN--\":5:45   */\n              gt\n                /* \"--CODEGEN--\":2:4   */\n              iszero\n              tag_39\n              jumpi\n                /* \"--CODEGEN--\":58:59   */\n              0x00\n                /* \"--CODEGEN--\":55:56   */\n              dup1\n                /* \"--CODEGEN--\":48:60   */\n              revert\n                /* \"--CODEGEN--\":2:4   */\n            tag_39:\n                /* \"CONTRACT/v2-core-master/contracts/UniswapV2Pair.sol\":7507:9396  function swap(uint amount0Out, uint amount1Out, address to, bytes calldata data) external lock {\r... */\n              dup1\n              calldataload\n              swap1\n              0x20\n              add\n              swap2\n                /* \"--CODEGEN--\":100:109   */\n              dup5\n                /* \"--CODEGEN--\":95:96   */\n              0x01\n                /* \"--CODEGEN--\":81:93   */\n              dup4\n                /* \"--CODEGEN--\":77:97   */\n              mul\n                /* \"--CODEGEN--\":67:75   */\n              dup5\n                /* \"--CODEGEN--\":63:98   */\n              add\n                /* \"--CODEGEN--\":60:110   */\n              gt\n                /* \"--CODEGEN--\":39:50   */\n              0x0100000000\n                /* \"--CODEGEN--\":25:37   */\n              dup4\n                /* \"--CODEGEN--\":22:51   */\n              gt\n                /* \"--CODEGEN--\":11:118   */\n              or\n                /* \"--CODEGEN--\":8:10   */\n              iszero\n              tag_40\n              jumpi\n                /* \"--CODEGEN--\":131:132   */\n              0x00\n                /* \"--CODEGEN--\":128:129   */\n              dup1\n                /* \"--CODEGEN--\":121:133   */\n              revert\n                /* \"--CODEGEN--\":8:10   */\n            tag_40:\n              pop\n                /* \"CONTRACT/v2-core-master/contracts/UniswapV2Pair.sol\":7507:9396  function swap(uint amount0Out, uint amount1Out, address to, bytes calldata data) external lock {\r... */\n              swap1\n              swap3\n              pop\n              swap1\n              pop\n              tag_41\n              jump\t// in\n            tag_36:\n              stop\n                /* \"CONTRACT/v2-core-master/contracts/UniswapV2ERC20.sol\":193:228  string public constant name = 'EVO' */\n            tag_4:\n              tag_42\n              tag_43\n              jump\t// in\n            tag_42:\n              0x40\n              dup1\n              mload\n              0x20\n              dup1\n              dup3\n              mstore\n              dup4\n              mload\n              dup2\n              dup4\n              add\n              mstore\n              dup4\n              mload\n              swap2\n              swap3\n              dup4\n              swap3\n              swap1\n              dup4\n              add\n              swap2\n              dup6\n              add\n              swap1\n              dup1\n              dup4\n              dup4\n              0x00\n                /* \"--CODEGEN--\":8:108   */\n            tag_44:\n                /* \"--CODEGEN--\":33:36   */\n              dup4\n                /* \"--CODEGEN--\":30:31   */\n              dup2\n                /* \"--CODEGEN--\":27:37   */\n              lt\n                /* \"--CODEGEN--\":8:108   */\n              iszero\n              tag_46\n              jumpi\n                /* \"--CODEGEN--\":90:101   */\n              dup2\n              dup2\n              add\n                /* \"--CODEGEN--\":84:102   */\n              mload\n                /* \"--CODEGEN--\":71:82   */\n              dup4\n              dup3\n              add\n                /* \"--CODEGEN--\":64:103   */\n              mstore\n                /* \"--CODEGEN--\":52:54   */\n              0x20\n                /* \"--CODEGEN--\":45:55   */\n              add\n                /* \"--CODEGEN--\":8:108   */\n              jump(tag_44)\n            tag_46:\n                /* \"--CODEGEN--\":12:26   */\n              pop\n                /* \"CONTRACT/v2-core-master/contracts/UniswapV2ERC20.sol\":193:228  string public constant name = 'EVO' */\n              pop\n              pop\n              pop\n              swap1\n              pop\n              swap1\n              dup2\n              add\n              swap1\n              0x1f\n              and\n              dup1\n              iszero\n              tag_47\n              jumpi\n              dup1\n              dup3\n              sub\n              dup1\n              mload\n              0x01\n              dup4\n              0x20\n              sub\n              0x0100\n              exp\n              sub\n              not\n              and\n              dup2\n              mstore\n              0x20\n              add\n              swap2\n              pop\n            tag_47:\n              pop\n              swap3\n              pop\n              pop\n              pop\n              mload(0x40)\n              dup1\n              swap2\n              sub\n              swap1\n              return\n                /* \"CONTRACT/v2-core-master/contracts/UniswapV2Pair.sol\":1322:1553  function getReserves() public view returns (uint112 _reserve0, uint112 _reserve1, uint32 _blockTimestampLast) {\r... */\n            tag_5:\n              tag_48\n              tag_49\n              jump\t// in\n            tag_48:\n              0x40\n              dup1\n              mload\n              sub(shl(0x70, 0x01), 0x01)\n              swap5\n              dup6\n              and\n              dup2\n              mstore\n              swap3\n              swap1\n              swap4\n              and\n              0x20\n              dup4\n              add\n              mstore\n              0xffffffff\n              and\n              dup2\n              dup4\n              add\n              mstore\n              swap1\n              mload\n              swap1\n              dup2\n              swap1\n              sub\n              0x60\n              add\n              swap1\n              return\n                /* \"CONTRACT/v2-core-master/contracts/UniswapV2ERC20.sol\":2230:2377  function approve(address spender, uint value) external returns (bool) {\r... */\n            tag_6:\n              tag_50\n              0x04\n              dup1\n              calldatasize\n              sub\n                /* \"--CODEGEN--\":13:15   */\n              0x40\n                /* \"--CODEGEN--\":8:11   */\n              dup2\n                /* \"--CODEGEN--\":5:16   */\n              lt\n                /* \"--CODEGEN--\":2:4   */\n              iszero\n              tag_51\n              jumpi\n                /* \"--CODEGEN--\":29:30   */\n              0x00\n                /* \"--CODEGEN--\":26:27   */\n              dup1\n                /* \"--CODEGEN--\":19:31   */\n              revert\n                /* \"--CODEGEN--\":2:4   */\n            tag_51:\n              pop\n                /* \"CONTRACT/v2-core-master/contracts/UniswapV2ERC20.sol\":2230:2377  function approve(address spender, uint value) external returns (bool) {\r... */\n              dup1\n              calldataload\n              sub(shl(0xa0, 0x01), 0x01)\n              and\n              swap1\n              0x20\n              add\n              calldataload\n              tag_52\n              jump\t// in\n            tag_50:\n              0x40\n              dup1\n              mload\n              swap2\n              iszero\n              iszero\n              dup3\n              mstore\n              mload\n              swap1\n              dup2\n              swap1\n              sub\n              0x20\n              add\n              swap1\n              return\n                /* \"CONTRACT/v2-core-master/contracts/UniswapV2Pair.sol\":611:632  address public token0 */\n            tag_7:\n              tag_53\n              tag_54\n              jump\t// in\n            tag_53:\n              0x40\n              dup1\n              mload\n              0x01\n              dup1\n              0xa0\n              shl\n              sub\n              swap1\n              swap3\n              and\n              dup3\n              mstore\n              mload\n              swap1\n              dup2\n              swap1\n              sub\n              0x20\n              add\n              swap1\n              return\n                /* \"CONTRACT/v2-core-master/contracts/UniswapV2ERC20.sol\":321:345  uint  public totalSupply */\n            tag_8:\n              tag_55\n              tag_56\n              jump\t// in\n            tag_55:\n              0x40\n              dup1\n              mload\n              swap2\n              dup3\n              mstore\n              mload\n              swap1\n              dup2\n              swap1\n              sub\n              0x20\n              add\n              swap1\n              return\n                /* \"CONTRACT/v2-core-master/contracts/UniswapV2ERC20.sol\":2532:2833  function transferFrom(address from, address to, uint value) external returns (bool) {\r... */\n            tag_9:\n              tag_50\n              0x04\n              dup1\n              calldatasize\n              sub\n                /* \"--CODEGEN--\":13:15   */\n              0x60\n                /* \"--CODEGEN--\":8:11   */\n              dup2\n                /* \"--CODEGEN--\":5:16   */\n              lt\n                /* \"--CODEGEN--\":2:4   */\n              iszero\n              tag_58\n              jumpi\n                /* \"--CODEGEN--\":29:30   */\n              0x00\n                /* \"--CODEGEN--\":26:27   */\n              dup1\n                /* \"--CODEGEN--\":19:31   */\n              revert\n                /* \"--CODEGEN--\":2:4   */\n            tag_58:\n              pop\n              sub(shl(0xa0, 0x01), 0x01)\n                /* \"CONTRACT/v2-core-master/contracts/UniswapV2ERC20.sol\":2532:2833  function transferFrom(address from, address to, uint value) external returns (bool) {\r... */\n              dup2\n              calldataload\n              dup2\n              and\n              swap2\n              0x20\n              dup2\n              add\n              calldataload\n              swap1\n              swap2\n              and\n              swap1\n              0x40\n              add\n              calldataload\n              tag_59\n              jump\t// in\n                /* \"CONTRACT/v2-core-master/contracts/UniswapV2ERC20.sol\":613:721  bytes32 public constant PERMIT_TYPEHASH = 0x6e71edae12b1b97f4d1f60370fef10105fa2faae0126114a169c64845d6126c9 */\n            tag_10:\n              tag_55\n              tag_61\n              jump\t// in\n                /* \"CONTRACT/v2-core-master/contracts/UniswapV2ERC20.sol\":279:314  uint8 public constant decimals = 18 */\n            tag_11:\n              tag_62\n              tag_63\n              jump\t// in\n            tag_62:\n              0x40\n              dup1\n              mload\n              0xff\n              swap1\n              swap3\n              and\n              dup3\n              mstore\n              mload\n              swap1\n              dup2\n              swap1\n              sub\n              0x20\n              add\n              swap1\n              return\n                /* \"CONTRACT/v2-core-master/contracts/UniswapV2ERC20.sol\":470:501  bytes32 public DOMAIN_SEPARATOR */\n            tag_12:\n              tag_55\n              tag_65\n              jump\t// in\n                /* \"CONTRACT/v2-core-master/contracts/UniswapV2Pair.sol\":2382:2592  function initialize(address _token0, address _token1) external {\r... */\n            tag_13:\n              tag_36\n              0x04\n              dup1\n              calldatasize\n              sub\n                /* \"--CODEGEN--\":13:15   */\n              0x40\n                /* \"--CODEGEN--\":8:11   */\n              dup2\n                /* \"--CODEGEN--\":5:16   */\n              lt\n                /* \"--CODEGEN--\":2:4   */\n              iszero\n              tag_67\n              jumpi\n                /* \"--CODEGEN--\":29:30   */\n              0x00\n                /* \"--CODEGEN--\":26:27   */\n              dup1\n                /* \"--CODEGEN--\":19:31   */\n              revert\n                /* \"--CODEGEN--\":2:4   */\n            tag_67:\n              pop\n              sub(shl(0xa0, 0x01), 0x01)\n                /* \"CONTRACT/v2-core-master/contracts/UniswapV2Pair.sol\":2382:2592  function initialize(address _token0, address _token1) external {\r... */\n              dup2\n              calldataload\n              dup2\n              and\n              swap2\n              0x20\n              add\n              calldataload\n              and\n              tag_68\n              jump\t// in\n                /* \"CONTRACT/v2-core-master/contracts/UniswapV2Pair.sol\":962:994  uint public price0CumulativeLast */\n            tag_14:\n              tag_55\n              tag_70\n              jump\t// in\n                /* \"CONTRACT/v2-core-master/contracts/UniswapV2Pair.sol\":1001:1033  uint public price1CumulativeLast */\n            tag_15:\n              tag_55\n              tag_72\n              jump\t// in\n                /* \"CONTRACT/v2-core-master/contracts/UniswapV2Pair.sol\":4577:5817  function mint(address to) external lock returns (uint liquidity) {\r... */\n            tag_16:\n              tag_55\n              0x04\n              dup1\n              calldatasize\n              sub\n                /* \"--CODEGEN--\":13:15   */\n              0x20\n                /* \"--CODEGEN--\":8:11   */\n              dup2\n                /* \"--CODEGEN--\":5:16   */\n              lt\n                /* \"--CODEGEN--\":2:4   */\n              iszero\n              tag_74\n              jumpi\n                /* \"--CODEGEN--\":29:30   */\n              0x00\n                /* \"--CODEGEN--\":26:27   */\n              dup1\n                /* \"--CODEGEN--\":19:31   */\n              revert\n                /* \"--CODEGEN--\":2:4   */\n            tag_74:\n              pop\n                /* \"CONTRACT/v2-core-master/contracts/UniswapV2Pair.sol\":4577:5817  function mint(address to) external lock returns (uint liquidity) {\r... */\n              calldataload\n              sub(shl(0xa0, 0x01), 0x01)\n              and\n              tag_75\n              jump\t// in\n                /* \"CONTRACT/v2-core-master/contracts/UniswapV2ERC20.sol\":352:393  mapping(address => uint) public balanceOf */\n            tag_17:\n              tag_55\n              0x04\n              dup1\n              calldatasize\n              sub\n                /* \"--CODEGEN--\":13:15   */\n              0x20\n                /* \"--CODEGEN--\":8:11   */\n              dup2\n                /* \"--CODEGEN--\":5:16   */\n              lt\n                /* \"--CODEGEN--\":2:4   */\n              iszero\n              tag_77\n              jumpi\n                /* \"--CODEGEN--\":29:30   */\n              0x00\n                /* \"--CODEGEN--\":26:27   */\n              dup1\n                /* \"--CODEGEN--\":19:31   */\n              revert\n                /* \"--CODEGEN--\":2:4   */\n            tag_77:\n              pop\n                /* \"CONTRACT/v2-core-master/contracts/UniswapV2ERC20.sol\":352:393  mapping(address => uint) public balanceOf */\n              calldataload\n              sub(shl(0xa0, 0x01), 0x01)\n              and\n              tag_78\n              jump\t// in\n                /* \"CONTRACT/v2-core-master/contracts/UniswapV2Pair.sol\":1040:1057  uint public kLast */\n            tag_18:\n              tag_55\n              tag_80\n              jump\t// in\n                /* \"CONTRACT/v2-core-master/contracts/UniswapV2ERC20.sol\":728:766  mapping(address => uint) public nonces */\n            tag_19:\n              tag_55\n              0x04\n              dup1\n              calldatasize\n              sub\n                /* \"--CODEGEN--\":13:15   */\n              0x20\n                /* \"--CODEGEN--\":8:11   */\n              dup2\n                /* \"--CODEGEN--\":5:16   */\n              lt\n                /* \"--CODEGEN--\":2:4   */\n              iszero\n              tag_82\n              jumpi\n                /* \"--CODEGEN--\":29:30   */\n              0x00\n                /* \"--CODEGEN--\":26:27   */\n              dup1\n                /* \"--CODEGEN--\":19:31   */\n              revert\n                /* \"--CODEGEN--\":2:4   */\n            tag_82:\n              pop\n                /* \"CONTRACT/v2-core-master/contracts/UniswapV2ERC20.sol\":728:766  mapping(address => uint) public nonces */\n              calldataload\n              sub(shl(0xa0, 0x01), 0x01)\n              and\n              tag_83\n              jump\t// in\n                /* \"CONTRACT/v2-core-master/contracts/UniswapV2Pair.sol\":5929:7395  function burn(address to) external lock returns (uint amount0, uint amount1) {\r... */\n            tag_20:\n              tag_84\n              0x04\n              dup1\n              calldatasize\n              sub\n                /* \"--CODEGEN--\":13:15   */\n              0x20\n                /* \"--CODEGEN--\":8:11   */\n              dup2\n                /* \"--CODEGEN--\":5:16   */\n              lt\n                /* \"--CODEGEN--\":2:4   */\n              iszero\n              tag_85\n              jumpi\n                /* \"--CODEGEN--\":29:30   */\n              0x00\n                /* \"--CODEGEN--\":26:27   */\n              dup1\n                /* \"--CODEGEN--\":19:31   */\n              revert\n                /* \"--CODEGEN--\":2:4   */\n            tag_85:\n              pop\n                /* \"CONTRACT/v2-core-master/contracts/UniswapV2Pair.sol\":5929:7395  function burn(address to) external lock returns (uint amount0, uint amount1) {\r... */\n              calldataload\n              sub(shl(0xa0, 0x01), 0x01)\n              and\n              tag_86\n              jump\t// in\n            tag_84:\n              0x40\n              dup1\n              mload\n              swap3\n              dup4\n              mstore\n              0x20\n              dup4\n              add\n              swap2\n              swap1\n              swap2\n              mstore\n              dup1\n              mload\n              swap2\n              dup3\n              swap1\n              sub\n              add\n              swap1\n              return\n                /* \"CONTRACT/v2-core-master/contracts/UniswapV2ERC20.sol\":2385:2524  function transfer(address to, uint value) external returns (bool) {\r... */\n            tag_22:\n              tag_50\n              0x04\n              dup1\n              calldatasize\n              sub\n                /* \"--CODEGEN--\":13:15   */\n              0x40\n                /* \"--CODEGEN--\":8:11   */\n              dup2\n                /* \"--CODEGEN--\":5:16   */\n              lt\n                /* \"--CODEGEN--\":2:4   */\n              iszero\n              tag_94\n              jumpi\n                /* \"--CODEGEN--\":29:30   */\n              0x00\n                /* \"--CODEGEN--\":26:27   */\n              dup1\n                /* \"--CODEGEN--\":19:31   */\n              revert\n                /* \"--CODEGEN--\":2:4   */\n            tag_94:\n              pop\n                /* \"CONTRACT/v2-core-master/contracts/UniswapV2ERC20.sol\":2385:2524  function transfer(address to, uint value) external returns (bool) {\r... */\n              dup1\n              calldataload\n              sub(shl(0xa0, 0x01), 0x01)\n              and\n              swap1\n              0x20\n              add\n              calldataload\n              tag_95\n              jump\t// in\n                /* \"CONTRACT/v2-core-master/contracts/UniswapV2Pair.sol\":432:478  uint public constant MINIMUM_LIQUIDITY = 10**3 */\n            tag_23:\n              tag_55\n              tag_97\n              jump\t// in\n                /* \"CONTRACT/v2-core-master/contracts/UniswapV2Pair.sol\":9445:9779  function skim(address to) external lock {\r... */\n            tag_24:\n              tag_36\n              0x04\n              dup1\n              calldatasize\n              sub\n                /* \"--CODEGEN--\":13:15   */\n              0x20\n                /* \"--CODEGEN--\":8:11   */\n              dup2\n                /* \"--CODEGEN--\":5:16   */\n              lt\n                /* \"--CODEGEN--\":2:4   */\n              iszero\n              tag_99\n              jumpi\n                /* \"--CODEGEN--\":29:30   */\n              0x00\n                /* \"--CODEGEN--\":26:27   */\n              dup1\n                /* \"--CODEGEN--\":19:31   */\n              revert\n                /* \"--CODEGEN--\":2:4   */\n            tag_99:\n              pop\n                /* \"CONTRACT/v2-core-master/contracts/UniswapV2Pair.sol\":9445:9779  function skim(address to) external lock {\r... */\n              calldataload\n              sub(shl(0xa0, 0x01), 0x01)\n              and\n              tag_100\n              jump\t// in\n                /* \"CONTRACT/v2-core-master/contracts/UniswapV2Pair.sol\":582:604  address public factory */\n            tag_25:\n              tag_53\n              tag_102\n              jump\t// in\n                /* \"CONTRACT/v2-core-master/contracts/UniswapV2Pair.sol\":639:660  address public token1 */\n            tag_26:\n              tag_53\n              tag_104\n              jump\t// in\n                /* \"CONTRACT/v2-core-master/contracts/UniswapV2ERC20.sol\":2841:3515  function permit(address owner, address spender, uint value, uint deadline, uint8 v, bytes32 r, bytes32 s) external {\r... */\n            tag_27:\n              tag_36\n              0x04\n              dup1\n              calldatasize\n              sub\n                /* \"--CODEGEN--\":13:16   */\n              0xe0\n                /* \"--CODEGEN--\":8:11   */\n              dup2\n                /* \"--CODEGEN--\":5:17   */\n              lt\n                /* \"--CODEGEN--\":2:4   */\n              iszero\n              tag_106\n              jumpi\n                /* \"--CODEGEN--\":30:31   */\n              0x00\n                /* \"--CODEGEN--\":27:28   */\n              dup1\n                /* \"--CODEGEN--\":20:32   */\n              revert\n                /* \"--CODEGEN--\":2:4   */\n            tag_106:\n              pop\n              sub(shl(0xa0, 0x01), 0x01)\n                /* \"CONTRACT/v2-core-master/contracts/UniswapV2ERC20.sol\":2841:3515  function permit(address owner, address spender, uint value, uint deadline, uint8 v, bytes32 r, bytes32 s) external {\r... */\n              dup2\n              calldataload\n              dup2\n              and\n              swap2\n              0x20\n              dup2\n              add\n              calldataload\n              swap1\n              swap2\n              and\n              swap1\n              0x40\n              dup2\n              add\n              calldataload\n              swap1\n              0x60\n              dup2\n              add\n              calldataload\n              swap1\n              0xff\n              0x80\n              dup3\n              add\n              calldataload\n              and\n              swap1\n              0xa0\n              dup2\n              add\n              calldataload\n              swap1\n              0xc0\n              add\n              calldataload\n              tag_107\n              jump\t// in\n                /* \"CONTRACT/v2-core-master/contracts/UniswapV2ERC20.sol\":400:461  mapping(address => mapping(address => uint)) public allowance */\n            tag_28:\n              tag_55\n              0x04\n              dup1\n              calldatasize\n              sub\n                /* \"--CODEGEN--\":13:15   */\n              0x40\n                /* \"--CODEGEN--\":8:11   */\n              dup2\n                /* \"--CODEGEN--\":5:16   */\n              lt\n                /* \"--CODEGEN--\":2:4   */\n              iszero\n              tag_109\n              jumpi\n                /* \"--CODEGEN--\":29:30   */\n              0x00\n                /* \"--CODEGEN--\":26:27   */\n              dup1\n                /* \"--CODEGEN--\":19:31   */\n              revert\n                /* \"--CODEGEN--\":2:4   */\n            tag_109:\n              pop\n              sub(shl(0xa0, 0x01), 0x01)\n                /* \"CONTRACT/v2-core-master/contracts/UniswapV2ERC20.sol\":400:461  mapping(address => mapping(address => uint)) public allowance */\n              dup2\n              calldataload\n              dup2\n              and\n              swap2\n              0x20\n              add\n              calldataload\n              and\n              tag_110\n              jump\t// in\n                /* \"CONTRACT/v2-core-master/contracts/UniswapV2Pair.sol\":9828:9986  function sync() external lock {\r... */\n            tag_29:\n              tag_36\n              tag_112\n              jump\t// in\n                /* \"CONTRACT/v2-core-master/contracts/UniswapV2Pair.sol\":7507:9396  function swap(uint amount0Out, uint amount1Out, address to, bytes calldata data) external lock {\r... */\n            tag_41:\n                /* \"CONTRACT/v2-core-master/contracts/UniswapV2Pair.sol\":1213:1221  unlocked */\n              sload(0x0c)\n                /* \"CONTRACT/v2-core-master/contracts/UniswapV2Pair.sol\":1225:1226  1 */\n              0x01\n                /* \"CONTRACT/v2-core-master/contracts/UniswapV2Pair.sol\":1213:1226  unlocked == 1 */\n              eq\n                /* \"CONTRACT/v2-core-master/contracts/UniswapV2Pair.sol\":1205:1248  require(unlocked == 1, 'UniswapV2: LOCKED') */\n              tag_114\n              jumpi\n              0x40\n              dup1\n              mload\n              shl(0xe5, 0x461bcd)\n              dup2\n              mstore\n              0x20\n              0x04\n              dup3\n              add\n              mstore\n              0x11\n              0x24\n              dup3\n              add\n              mstore\n              shl(0x7a, 0x155b9a5cddd85c158c8e881313d0d2d151)\n              0x44\n              dup3\n              add\n              mstore\n              swap1\n              mload\n              swap1\n              dup2\n              swap1\n              sub\n              0x64\n              add\n              swap1\n              revert\n            tag_114:\n                /* \"CONTRACT/v2-core-master/contracts/UniswapV2Pair.sol\":1270:1271  0 */\n              0x00\n                /* \"CONTRACT/v2-core-master/contracts/UniswapV2Pair.sol\":1259:1267  unlocked */\n              0x0c\n                /* \"CONTRACT/v2-core-master/contracts/UniswapV2Pair.sol\":1259:1271  unlocked = 0 */\n              sstore\n                /* \"CONTRACT/v2-core-master/contracts/UniswapV2Pair.sol\":7621:7635  amount0Out > 0 */\n              dup5\n              iszero\n              iszero\n              dup1\n                /* \"CONTRACT/v2-core-master/contracts/UniswapV2Pair.sol\":7621:7653  amount0Out > 0 || amount1Out > 0 */\n              tag_116\n              jumpi\n              pop\n                /* \"CONTRACT/v2-core-master/contracts/UniswapV2Pair.sol\":7652:7653  0 */\n              0x00\n                /* \"CONTRACT/v2-core-master/contracts/UniswapV2Pair.sol\":7639:7649  amount1Out */\n              dup5\n                /* \"CONTRACT/v2-core-master/contracts/UniswapV2Pair.sol\":7639:7653  amount1Out > 0 */\n              gt\n                /* \"CONTRACT/v2-core-master/contracts/UniswapV2Pair.sol\":7621:7653  amount0Out > 0 || amount1Out > 0 */\n            tag_116:\n                /* \"CONTRACT/v2-core-master/contracts/UniswapV2Pair.sol\":7613:7695  require(amount0Out > 0 || amount1Out > 0, 'UniswapV2: INSUFFICIENT_OUTPUT_AMOUNT') */\n              tag_117\n              jumpi\n              mload(0x40)\n              shl(0xe5, 0x461bcd)\n              dup2\n              mstore\n              0x04\n              add\n              dup1\n              dup1\n              0x20\n              add\n              dup3\n              dup2\n              sub\n              dup3\n              mstore\n              0x25\n              dup2\n              mstore\n              0x20\n              add\n              dup1\n              data_05339493da7e2cbe77e17beadf6b91132eb307939495f5f1797bf88d95539e83\n              0x25\n              swap2\n              codecopy\n              0x40\n              add\n              swap2\n              pop\n              pop\n              mload(0x40)\n              dup1\n              swap2\n              sub\n              swap1\n              revert\n            tag_117:\n                /* \"CONTRACT/v2-core-master/contracts/UniswapV2Pair.sol\":7707:7724  uint112 _reserve0 */\n              0x00\n                /* \"CONTRACT/v2-core-master/contracts/UniswapV2Pair.sol\":7726:7743  uint112 _reserve1 */\n              dup1\n                /* \"CONTRACT/v2-core-master/contracts/UniswapV2Pair.sol\":7748:7761  getReserves() */\n              tag_118\n                /* \"CONTRACT/v2-core-master/contracts/UniswapV2Pair.sol\":7748:7759  getReserves */\n              tag_49\n                /* \"CONTRACT/v2-core-master/contracts/UniswapV2Pair.sol\":7748:7761  getReserves() */\n              jump\t// in\n            tag_118:\n              pop\n                /* \"CONTRACT/v2-core-master/contracts/UniswapV2Pair.sol\":7706:7761  (uint112 _reserve0, uint112 _reserve1,) = getReserves() */\n              swap1\n              swap3\n              pop\n              swap1\n              pop\n              sub(shl(0x70, 0x01), 0x01)\n                /* \"CONTRACT/v2-core-master/contracts/UniswapV2Pair.sol\":7795:7817  amount0Out < _reserve0 */\n              dup3\n              and\n              dup8\n              lt\n                /* \"CONTRACT/v2-core-master/contracts/UniswapV2Pair.sol\":7795:7843  amount0Out < _reserve0 && amount1Out < _reserve1 */\n              dup1\n              iszero\n              tag_119\n              jumpi\n              pop\n              sub(shl(0x70, 0x01), 0x01)\n                /* \"CONTRACT/v2-core-master/contracts/UniswapV2Pair.sol\":7821:7843  amount1Out < _reserve1 */\n              dup2\n              and\n              dup7\n              lt\n                /* \"CONTRACT/v2-core-master/contracts/UniswapV2Pair.sol\":7795:7843  amount0Out < _reserve0 && amount1Out < _reserve1 */\n            tag_119:\n                /* \"CONTRACT/v2-core-master/contracts/UniswapV2Pair.sol\":7787:7881  require(amount0Out < _reserve0 && amount1Out < _reserve1, 'UniswapV2: INSUFFICIENT_LIQUIDITY') */\n              tag_120\n              jumpi\n              mload(0x40)\n              shl(0xe5, 0x461bcd)\n              dup2\n              mstore\n              0x04\n              add\n              dup1\n              dup1\n              0x20\n              add\n              dup3\n              dup2\n              sub\n              dup3\n              mstore\n              0x21\n              dup2\n              mstore\n              0x20\n              add\n              dup1\n              data_3f354ef449b2a9b081220ce21f57691008110b653edc191d8288e60cef58bb5f\n              0x21\n              swap2\n              codecopy\n              0x40\n              add\n              swap2\n              pop\n              pop\n              mload(0x40)\n              dup1\n              swap2\n              sub\n              swap1\n              revert\n            tag_120:\n                /* \"CONTRACT/v2-core-master/contracts/UniswapV2Pair.sol\":8026:8032  token0 */\n              sload(0x06)\n                /* \"CONTRACT/v2-core-master/contracts/UniswapV2Pair.sol\":8061:8067  token1 */\n              sload(0x07)\n                /* \"CONTRACT/v2-core-master/contracts/UniswapV2Pair.sol\":7894:7907  uint balance0 */\n              0x00\n              swap2\n              dup3\n              swap2\n              sub(shl(0xa0, 0x01), 0x01)\n                /* \"CONTRACT/v2-core-master/contracts/UniswapV2Pair.sol\":8026:8032  token0 */\n              swap2\n              dup3\n              and\n              swap2\n                /* \"CONTRACT/v2-core-master/contracts/UniswapV2Pair.sol\":8061:8067  token1 */\n              swap1\n              dup2\n              and\n              swap1\n                /* \"CONTRACT/v2-core-master/contracts/UniswapV2Pair.sol\":8086:8099  to != _token0 */\n              dup10\n              and\n              dup3\n              eq\n              dup1\n              iszero\n              swap1\n                /* \"CONTRACT/v2-core-master/contracts/UniswapV2Pair.sol\":8086:8116  to != _token0 && to != _token1 */\n              tag_121\n              jumpi\n              pop\n              sub(shl(0xa0, 0x01), 0x01)\n                /* \"CONTRACT/v2-core-master/contracts/UniswapV2Pair.sol\":8103:8116  to != _token1 */\n              dup10\n              dup2\n              and\n              swap1\n              dup3\n              and\n              eq\n              iszero\n                /* \"CONTRACT/v2-core-master/contracts/UniswapV2Pair.sol\":8086:8116  to != _token0 && to != _token1 */\n            tag_121:\n                /* \"CONTRACT/v2-core-master/contracts/UniswapV2Pair.sol\":8078:8142  require(to != _token0 && to != _token1, 'UniswapV2: INVALID_TO') */\n              tag_122\n              jumpi\n              0x40\n              dup1\n              mload\n              shl(0xe5, 0x461bcd)\n              dup2\n              mstore\n              0x20\n              0x04\n              dup3\n              add\n              mstore\n              0x15\n              0x24\n              dup3\n              add\n              mstore\n              shl(0x58, 0x556e697377617056323a20494e56414c49445f544f)\n              0x44\n              dup3\n              add\n              mstore\n              swap1\n              mload\n              swap1\n              dup2\n              swap1\n              sub\n              0x64\n              add\n              swap1\n              revert\n            tag_122:\n                /* \"CONTRACT/v2-core-master/contracts/UniswapV2Pair.sol\":8157:8171  amount0Out > 0 */\n              dup11\n              iszero\n                /* \"CONTRACT/v2-core-master/contracts/UniswapV2Pair.sol\":8153:8211  if (amount0Out > 0) _safeTransfer(_token0, to, amount0Out) */\n              tag_124\n              jumpi\n                /* \"CONTRACT/v2-core-master/contracts/UniswapV2Pair.sol\":8173:8211  _safeTransfer(_token0, to, amount0Out) */\n              tag_124\n                /* \"CONTRACT/v2-core-master/contracts/UniswapV2Pair.sol\":8187:8194  _token0 */\n              dup3\n                /* \"CONTRACT/v2-core-master/contracts/UniswapV2Pair.sol\":8196:8198  to */\n              dup11\n                /* \"CONTRACT/v2-core-master/contracts/UniswapV2Pair.sol\":8200:8210  amount0Out */\n              dup14\n                /* \"CONTRACT/v2-core-master/contracts/UniswapV2Pair.sol\":8173:8186  _safeTransfer */\n              tag_125\n                /* \"CONTRACT/v2-core-master/contracts/UniswapV2Pair.sol\":8173:8211  _safeTransfer(_token0, to, amount0Out) */\n              jump\t// in\n            tag_124:\n                /* \"CONTRACT/v2-core-master/contracts/UniswapV2Pair.sol\":8260:8274  amount1Out > 0 */\n              dup10\n              iszero\n                /* \"CONTRACT/v2-core-master/contracts/UniswapV2Pair.sol\":8256:8314  if (amount1Out > 0) _safeTransfer(_token1, to, amount1Out) */\n              tag_127\n              jumpi\n                /* \"CONTRACT/v2-core-master/contracts/UniswapV2Pair.sol\":8276:8314  _safeTransfer(_token1, to, amount1Out) */\n              tag_127\n                /* \"CONTRACT/v2-core-master/contracts/UniswapV2Pair.sol\":8290:8297  _token1 */\n              dup2\n                /* \"CONTRACT/v2-core-master/contracts/UniswapV2Pair.sol\":8299:8301  to */\n              dup11\n                /* \"CONTRACT/v2-core-master/contracts/UniswapV2Pair.sol\":8303:8313  amount1Out */\n              dup13\n                /* \"CONTRACT/v2-core-master/contracts/UniswapV2Pair.sol\":8276:8289  _safeTransfer */\n              tag_125\n                /* \"CONTRACT/v2-core-master/contracts/UniswapV2Pair.sol\":8276:8314  _safeTransfer(_token1, to, amount1Out) */\n              jump\t// in\n            tag_127:\n                /* \"CONTRACT/v2-core-master/contracts/UniswapV2Pair.sol\":8363:8378  data.length > 0 */\n              dup7\n              iszero\n                /* \"CONTRACT/v2-core-master/contracts/UniswapV2Pair.sol\":8359:8456  if (data.length > 0) IUniswapV2Callee(to).uniswapV2Call(msg.sender, amount0Out, amount1Out, data) */\n              tag_128\n              jumpi\n                /* \"CONTRACT/v2-core-master/contracts/UniswapV2Pair.sol\":8397:8399  to */\n              dup9\n              0x01\n              dup1\n              0xa0\n              shl\n              sub\n                /* \"CONTRACT/v2-core-master/contracts/UniswapV2Pair.sol\":8380:8414  IUniswapV2Callee(to).uniswapV2Call */\n              and\n              0x10d1e85c\n                /* \"CONTRACT/v2-core-master/contracts/UniswapV2Pair.sol\":8415:8425  msg.sender */\n              caller\n                /* \"CONTRACT/v2-core-master/contracts/UniswapV2Pair.sol\":8427:8437  amount0Out */\n              dup14\n                /* \"CONTRACT/v2-core-master/contracts/UniswapV2Pair.sol\":8439:8449  amount1Out */\n              dup14\n                /* \"CONTRACT/v2-core-master/contracts/UniswapV2Pair.sol\":8451:8455  data */\n              dup13\n              dup13\n                /* \"CONTRACT/v2-core-master/contracts/UniswapV2Pair.sol\":8380:8456  IUniswapV2Callee(to).uniswapV2Call(msg.sender, amount0Out, amount1Out, data) */\n              mload(0x40)\n              dup7\n              0xffffffff\n              and\n              0xe0\n              shl\n              dup2\n              mstore\n              0x04\n              add\n              dup1\n              dup7\n              0x01\n              dup1\n              0xa0\n              shl\n              sub\n              and\n              0x01\n              dup1\n              0xa0\n              shl\n              sub\n              and\n              dup2\n              mstore\n              0x20\n              add\n              dup6\n              dup2\n              mstore\n              0x20\n              add\n              dup5\n              dup2\n              mstore\n              0x20\n              add\n              dup1\n              0x20\n              add\n              dup3\n              dup2\n              sub\n              dup3\n              mstore\n              dup5\n              dup5\n              dup3\n              dup2\n              dup2\n              mstore\n              0x20\n              add\n              swap3\n              pop\n                /* \"--CODEGEN--\":30:33   */\n              dup1\n                /* \"--CODEGEN--\":22:28   */\n              dup3\n                /* \"--CODEGEN--\":14:20   */\n              dup5\n                /* \"--CODEGEN--\":1:34   */\n              calldatacopy\n                /* \"--CODEGEN--\":99:100   */\n              0x00\n                /* \"--CODEGEN--\":93:96   */\n              dup2\n                /* \"--CODEGEN--\":85:91   */\n              dup5\n                /* \"--CODEGEN--\":81:97   */\n              add\n                /* \"--CODEGEN--\":74:101   */\n              mstore\n                /* \"--CODEGEN--\":137:141   */\n              0x1f\n                /* \"--CODEGEN--\":133:142   */\n              not\n                /* \"--CODEGEN--\":126:130   */\n              0x1f\n                /* \"--CODEGEN--\":121:124   */\n              dup3\n                /* \"--CODEGEN--\":117:131   */\n              add\n                /* \"--CODEGEN--\":113:143   */\n              and\n                /* \"--CODEGEN--\":106:143   */\n              swap1\n              pop\n                /* \"--CODEGEN--\":169:172   */\n              dup1\n                /* \"--CODEGEN--\":161:167   */\n              dup4\n                /* \"--CODEGEN--\":157:173   */\n              add\n                /* \"--CODEGEN--\":147:173   */\n              swap3\n              pop\n                /* \"CONTRACT/v2-core-master/contracts/UniswapV2Pair.sol\":8380:8456  IUniswapV2Callee(to).uniswapV2Call(msg.sender, amount0Out, amount1Out, data) */\n              pop\n              pop\n              swap7\n              pop\n              pop\n              pop\n              pop\n              pop\n              pop\n              pop\n              0x00\n              mload(0x40)\n              dup1\n              dup4\n              sub\n              dup2\n              0x00\n              dup8\n              dup1\n              extcodesize\n              iszero\n                /* \"--CODEGEN--\":8:17   */\n              dup1\n                /* \"--CODEGEN--\":5:7   */\n              iszero\n              tag_129\n              jumpi\n                /* \"--CODEGEN--\":30:31   */\n              0x00\n                /* \"--CODEGEN--\":27:28   */\n              dup1\n                /* \"--CODEGEN--\":20:32   */\n              revert\n                /* \"--CODEGEN--\":5:7   */\n            tag_129:\n                /* \"CONTRACT/v2-core-master/contracts/UniswapV2Pair.sol\":8380:8456  IUniswapV2Callee(to).uniswapV2Call(msg.sender, amount0Out, amount1Out, data) */\n              pop\n              gas\n              call\n              iszero\n                /* \"--CODEGEN--\":8:17   */\n              dup1\n                /* \"--CODEGEN--\":5:7   */\n              iszero\n              tag_130\n              jumpi\n                /* \"--CODEGEN--\":45:61   */\n              returndatasize\n                /* \"--CODEGEN--\":42:43   */\n              0x00\n                /* \"--CODEGEN--\":39:40   */\n              dup1\n                /* \"--CODEGEN--\":24:62   */\n              returndatacopy\n                /* \"--CODEGEN--\":77:93   */\n              returndatasize\n                /* \"--CODEGEN--\":74:75   */\n              0x00\n                /* \"--CODEGEN--\":67:94   */\n              revert\n                /* \"--CODEGEN--\":5:7   */\n            tag_130:\n                /* \"CONTRACT/v2-core-master/contracts/UniswapV2Pair.sol\":8380:8456  IUniswapV2Callee(to).uniswapV2Call(msg.sender, amount0Out, amount1Out, data) */\n              pop\n              pop\n              pop\n              pop\n                /* \"CONTRACT/v2-core-master/contracts/UniswapV2Pair.sol\":8359:8456  if (data.length > 0) IUniswapV2Callee(to).uniswapV2Call(msg.sender, amount0Out, amount1Out, data) */\n            tag_128:\n                /* \"CONTRACT/v2-core-master/contracts/UniswapV2Pair.sol\":8478:8518  IERC20(_token0).balanceOf(address(this)) */\n              0x40\n              dup1\n              mload\n              shl(0xe0, 0x70a08231)\n              dup2\n              mstore\n                /* \"CONTRACT/v2-core-master/contracts/UniswapV2Pair.sol\":8512:8516  this */\n              address\n                /* \"CONTRACT/v2-core-master/contracts/UniswapV2Pair.sol\":8478:8518  IERC20(_token0).balanceOf(address(this)) */\n              0x04\n              dup3\n              add\n              mstore\n              swap1\n              mload\n              sub(shl(0xa0, 0x01), 0x01)\n                /* \"CONTRACT/v2-core-master/contracts/UniswapV2Pair.sol\":8478:8503  IERC20(_token0).balanceOf */\n              dup5\n              and\n              swap2\n              0x70a08231\n              swap2\n                /* \"CONTRACT/v2-core-master/contracts/UniswapV2Pair.sol\":8478:8518  IERC20(_token0).balanceOf(address(this)) */\n              0x24\n              dup1\n              dup4\n              add\n              swap3\n              0x20\n              swap3\n              swap2\n              swap1\n              dup3\n              swap1\n              sub\n              add\n              dup2\n                /* \"CONTRACT/v2-core-master/contracts/UniswapV2Pair.sol\":8478:8503  IERC20(_token0).balanceOf */\n              dup7\n                /* \"CONTRACT/v2-core-master/contracts/UniswapV2Pair.sol\":8478:8518  IERC20(_token0).balanceOf(address(this)) */\n              dup1\n              extcodesize\n              iszero\n                /* \"--CODEGEN--\":5:7   */\n              dup1\n              iszero\n              tag_131\n              jumpi\n                /* \"--CODEGEN--\":30:31   */\n              0x00\n                /* \"--CODEGEN--\":27:28   */\n              dup1\n                /* \"--CODEGEN--\":20:32   */\n              revert\n                /* \"--CODEGEN--\":5:7   */\n            tag_131:\n                /* \"CONTRACT/v2-core-master/contracts/UniswapV2Pair.sol\":8478:8518  IERC20(_token0).balanceOf(address(this)) */\n              pop\n              gas\n              staticcall\n              iszero\n                /* \"--CODEGEN--\":8:17   */\n              dup1\n                /* \"--CODEGEN--\":5:7   */\n              iszero\n              tag_132\n              jumpi\n                /* \"--CODEGEN--\":45:61   */\n              returndatasize\n                /* \"--CODEGEN--\":42:43   */\n              0x00\n                /* \"--CODEGEN--\":39:40   */\n              dup1\n                /* \"--CODEGEN--\":24:62   */\n              returndatacopy\n                /* \"--CODEGEN--\":77:93   */\n              returndatasize\n                /* \"--CODEGEN--\":74:75   */\n              0x00\n                /* \"--CODEGEN--\":67:94   */\n              revert\n                /* \"--CODEGEN--\":5:7   */\n            tag_132:\n                /* \"CONTRACT/v2-core-master/contracts/UniswapV2Pair.sol\":8478:8518  IERC20(_token0).balanceOf(address(this)) */\n              pop\n              pop\n              pop\n              pop\n              mload(0x40)\n              returndatasize\n                /* \"--CODEGEN--\":13:15   */\n              0x20\n                /* \"--CODEGEN--\":8:11   */\n              dup2\n                /* \"--CODEGEN--\":5:16   */\n              lt\n                /* \"--CODEGEN--\":2:4   */\n              iszero\n              tag_133\n              jumpi\n                /* \"--CODEGEN--\":29:30   */\n              0x00\n                /* \"--CODEGEN--\":26:27   */\n              dup1\n                /* \"--CODEGEN--\":19:31   */\n              revert\n                /* \"--CODEGEN--\":2:4   */\n            tag_133:\n              pop\n                /* \"CONTRACT/v2-core-master/contracts/UniswapV2Pair.sol\":8478:8518  IERC20(_token0).balanceOf(address(this)) */\n              mload\n                /* \"CONTRACT/v2-core-master/contracts/UniswapV2Pair.sol\":8540:8580  IERC20(_token1).balanceOf(address(this)) */\n              0x40\n              dup1\n              mload\n              shl(0xe0, 0x70a08231)\n              dup2\n              mstore\n                /* \"CONTRACT/v2-core-master/contracts/UniswapV2Pair.sol\":8574:8578  this */\n              address\n                /* \"CONTRACT/v2-core-master/contracts/UniswapV2Pair.sol\":8540:8580  IERC20(_token1).balanceOf(address(this)) */\n              0x04\n              dup3\n              add\n              mstore\n              swap1\n              mload\n                /* \"CONTRACT/v2-core-master/contracts/UniswapV2Pair.sol\":8478:8518  IERC20(_token0).balanceOf(address(this)) */\n              swap2\n              swap6\n              pop\n              sub(shl(0xa0, 0x01), 0x01)\n                /* \"CONTRACT/v2-core-master/contracts/UniswapV2Pair.sol\":8540:8565  IERC20(_token1).balanceOf */\n              dup4\n              and\n              swap2\n              0x70a08231\n              swap2\n                /* \"CONTRACT/v2-core-master/contracts/UniswapV2Pair.sol\":8540:8580  IERC20(_token1).balanceOf(address(this)) */\n              0x24\n              dup1\n              dup3\n              add\n              swap3\n                /* \"CONTRACT/v2-core-master/contracts/UniswapV2Pair.sol\":8478:8518  IERC20(_token0).balanceOf(address(this)) */\n              0x20\n              swap3\n                /* \"CONTRACT/v2-core-master/contracts/UniswapV2Pair.sol\":8540:8580  IERC20(_token1).balanceOf(address(this)) */\n              swap1\n              swap2\n              swap1\n              dup3\n              swap1\n              sub\n              add\n              dup2\n                /* \"CONTRACT/v2-core-master/contracts/UniswapV2Pair.sol\":8540:8565  IERC20(_token1).balanceOf */\n              dup7\n                /* \"CONTRACT/v2-core-master/contracts/UniswapV2Pair.sol\":8540:8580  IERC20(_token1).balanceOf(address(this)) */\n              dup1\n              extcodesize\n              iszero\n                /* \"--CODEGEN--\":5:7   */\n              dup1\n              iszero\n              tag_134\n              jumpi\n                /* \"--CODEGEN--\":30:31   */\n              0x00\n                /* \"--CODEGEN--\":27:28   */\n              dup1\n                /* \"--CODEGEN--\":20:32   */\n              revert\n                /* \"--CODEGEN--\":5:7   */\n            tag_134:\n                /* \"CONTRACT/v2-core-master/contracts/UniswapV2Pair.sol\":8540:8580  IERC20(_token1).balanceOf(address(this)) */\n              pop\n              gas\n              staticcall\n              iszero\n                /* \"--CODEGEN--\":8:17   */\n              dup1\n                /* \"--CODEGEN--\":5:7   */\n              iszero\n              tag_135\n              jumpi\n                /* \"--CODEGEN--\":45:61   */\n              returndatasize\n                /* \"--CODEGEN--\":42:43   */\n              0x00\n                /* \"--CODEGEN--\":39:40   */\n              dup1\n                /* \"--CODEGEN--\":24:62   */\n              returndatacopy\n                /* \"--CODEGEN--\":77:93   */\n              returndatasize\n                /* \"--CODEGEN--\":74:75   */\n              0x00\n                /* \"--CODEGEN--\":67:94   */\n              revert\n                /* \"--CODEGEN--\":5:7   */\n            tag_135:\n                /* \"CONTRACT/v2-core-master/contracts/UniswapV2Pair.sol\":8540:8580  IERC20(_token1).balanceOf(address(this)) */\n              pop\n              pop\n              pop\n              pop\n              mload(0x40)\n              returndatasize\n                /* \"--CODEGEN--\":13:15   */\n              0x20\n                /* \"--CODEGEN--\":8:11   */\n              dup2\n                /* \"--CODEGEN--\":5:16   */\n              lt\n                /* \"--CODEGEN--\":2:4   */\n              iszero\n              tag_136\n              jumpi\n                /* \"--CODEGEN--\":29:30   */\n              0x00\n                /* \"--CODEGEN--\":26:27   */\n              dup1\n                /* \"--CODEGEN--\":19:31   */\n              revert\n                /* \"--CODEGEN--\":2:4   */\n            tag_136:\n              pop\n                /* \"CONTRACT/v2-core-master/contracts/UniswapV2Pair.sol\":8540:8580  IERC20(_token1).balanceOf(address(this)) */\n              mload\n              swap3\n              pop\n                /* \"CONTRACT/v2-core-master/contracts/UniswapV2Pair.sol\":8602:8616  uint amount0In */\n              0x00\n              swap2\n              pop\n              pop\n              sub(shl(0x70, 0x01), 0x01)\n                /* \"CONTRACT/v2-core-master/contracts/UniswapV2Pair.sol\":8630:8652  _reserve0 - amount0Out */\n              dup6\n              and\n              dup11\n              swap1\n              sub\n                /* \"CONTRACT/v2-core-master/contracts/UniswapV2Pair.sol\":8619:8652  balance0 > _reserve0 - amount0Out */\n              dup4\n              gt\n                /* \"CONTRACT/v2-core-master/contracts/UniswapV2Pair.sol\":8619:8694  balance0 > _reserve0 - amount0Out ? balance0 - (_reserve0 - amount0Out) : 0 */\n              tag_137\n              jumpi\n                /* \"CONTRACT/v2-core-master/contracts/UniswapV2Pair.sol\":8693:8694  0 */\n              0x00\n                /* \"CONTRACT/v2-core-master/contracts/UniswapV2Pair.sol\":8619:8694  balance0 > _reserve0 - amount0Out ? balance0 - (_reserve0 - amount0Out) : 0 */\n              jump(tag_138)\n            tag_137:\n              sub(shl(0x70, 0x01), 0x01)\n                /* \"CONTRACT/v2-core-master/contracts/UniswapV2Pair.sol\":8667:8689  _reserve0 - amount0Out */\n              dup6\n              and\n              dup11\n              swap1\n              sub\n                /* \"CONTRACT/v2-core-master/contracts/UniswapV2Pair.sol\":8655:8690  balance0 - (_reserve0 - amount0Out) */\n              dup4\n              sub\n                /* \"CONTRACT/v2-core-master/contracts/UniswapV2Pair.sol\":8619:8694  balance0 > _reserve0 - amount0Out ? balance0 - (_reserve0 - amount0Out) : 0 */\n            tag_138:\n                /* \"CONTRACT/v2-core-master/contracts/UniswapV2Pair.sol\":8602:8694  uint amount0In = balance0 > _reserve0 - amount0Out ? balance0 - (_reserve0 - amount0Out) : 0 */\n              swap1\n              pop\n                /* \"CONTRACT/v2-core-master/contracts/UniswapV2Pair.sol\":8705:8719  uint amount1In */\n              0x00\n              sub(shl(0x70, 0x01), 0x01)\n                /* \"CONTRACT/v2-core-master/contracts/UniswapV2Pair.sol\":8733:8755  _reserve1 - amount1Out */\n              dup6\n              and\n              dup11\n              swap1\n              sub\n                /* \"CONTRACT/v2-core-master/contracts/UniswapV2Pair.sol\":8722:8755  balance1 > _reserve1 - amount1Out */\n              dup4\n              gt\n                /* \"CONTRACT/v2-core-master/contracts/UniswapV2Pair.sol\":8722:8797  balance1 > _reserve1 - amount1Out ? balance1 - (_reserve1 - amount1Out) : 0 */\n              tag_139\n              jumpi\n                /* \"CONTRACT/v2-core-master/contracts/UniswapV2Pair.sol\":8796:8797  0 */\n              0x00\n                /* \"CONTRACT/v2-core-master/contracts/UniswapV2Pair.sol\":8722:8797  balance1 > _reserve1 - amount1Out ? balance1 - (_reserve1 - amount1Out) : 0 */\n              jump(tag_140)\n            tag_139:\n              sub(shl(0x70, 0x01), 0x01)\n                /* \"CONTRACT/v2-core-master/contracts/UniswapV2Pair.sol\":8770:8792  _reserve1 - amount1Out */\n              dup6\n              and\n              dup11\n              swap1\n              sub\n                /* \"CONTRACT/v2-core-master/contracts/UniswapV2Pair.sol\":8758:8793  balance1 - (_reserve1 - amount1Out) */\n              dup4\n              sub\n                /* \"CONTRACT/v2-core-master/contracts/UniswapV2Pair.sol\":8722:8797  balance1 > _reserve1 - amount1Out ? balance1 - (_reserve1 - amount1Out) : 0 */\n            tag_140:\n                /* \"CONTRACT/v2-core-master/contracts/UniswapV2Pair.sol\":8705:8797  uint amount1In = balance1 > _reserve1 - amount1Out ? balance1 - (_reserve1 - amount1Out) : 0 */\n              swap1\n              pop\n                /* \"CONTRACT/v2-core-master/contracts/UniswapV2Pair.sol\":8828:8829  0 */\n              0x00\n                /* \"CONTRACT/v2-core-master/contracts/UniswapV2Pair.sol\":8816:8825  amount0In */\n              dup3\n                /* \"CONTRACT/v2-core-master/contracts/UniswapV2Pair.sol\":8816:8829  amount0In > 0 */\n              gt\n                /* \"CONTRACT/v2-core-master/contracts/UniswapV2Pair.sol\":8816:8846  amount0In > 0 || amount1In > 0 */\n              dup1\n              tag_141\n              jumpi\n              pop\n                /* \"CONTRACT/v2-core-master/contracts/UniswapV2Pair.sol\":8845:8846  0 */\n              0x00\n                /* \"CONTRACT/v2-core-master/contracts/UniswapV2Pair.sol\":8833:8842  amount1In */\n              dup2\n                /* \"CONTRACT/v2-core-master/contracts/UniswapV2Pair.sol\":8833:8846  amount1In > 0 */\n              gt\n                /* \"CONTRACT/v2-core-master/contracts/UniswapV2Pair.sol\":8816:8846  amount0In > 0 || amount1In > 0 */\n            tag_141:\n                /* \"CONTRACT/v2-core-master/contracts/UniswapV2Pair.sol\":8808:8887  require(amount0In > 0 || amount1In > 0, 'UniswapV2: INSUFFICIENT_INPUT_AMOUNT') */\n              tag_142\n              jumpi\n              mload(0x40)\n              shl(0xe5, 0x461bcd)\n              dup2\n              mstore\n              0x04\n              add\n              dup1\n              dup1\n              0x20\n              add\n              dup3\n              dup2\n              sub\n              dup3\n              mstore\n              0x24\n              dup2\n              mstore\n              0x20\n              add\n              dup1\n              data_10e2efc32d8a31d3b2c11a545b3ed09c2dbabc58ef6de4033929d0002e425b67\n              0x24\n              swap2\n              codecopy\n              0x40\n              add\n              swap2\n              pop\n              pop\n              mload(0x40)\n              dup1\n              swap2\n              sub\n              swap1\n              revert\n            tag_142:\n                /* \"CONTRACT/v2-core-master/contracts/UniswapV2Pair.sol\":8973:8994  uint balance0Adjusted */\n              0x00\n                /* \"CONTRACT/v2-core-master/contracts/UniswapV2Pair.sol\":8997:9037  balance0.mul(1000).sub(amount0In.mul(3)) */\n              tag_143\n                /* \"CONTRACT/v2-core-master/contracts/UniswapV2Pair.sol\":9020:9036  amount0In.mul(3) */\n              tag_144\n                /* \"CONTRACT/v2-core-master/contracts/UniswapV2Pair.sol\":9020:9029  amount0In */\n              dup5\n                /* \"CONTRACT/v2-core-master/contracts/UniswapV2Pair.sol\":9034:9035  3 */\n              0x03\n                /* \"CONTRACT/v2-core-master/contracts/UniswapV2Pair.sol\":9020:9036  amount0In.mul(3) */\n              0xffffffff\n                /* \"CONTRACT/v2-core-master/contracts/UniswapV2Pair.sol\":9020:9033  amount0In.mul */\n              tag_145\n                /* \"CONTRACT/v2-core-master/contracts/UniswapV2Pair.sol\":9020:9036  amount0In.mul(3) */\n              and\n              jump\t// in\n            tag_144:\n                /* \"CONTRACT/v2-core-master/contracts/UniswapV2Pair.sol\":8997:9015  balance0.mul(1000) */\n              tag_146\n                /* \"CONTRACT/v2-core-master/contracts/UniswapV2Pair.sol\":8997:9005  balance0 */\n              dup8\n                /* \"CONTRACT/v2-core-master/contracts/UniswapV2Pair.sol\":9010:9014  1000 */\n              0x03e8\n                /* \"CONTRACT/v2-core-master/contracts/UniswapV2Pair.sol\":8997:9015  balance0.mul(1000) */\n              0xffffffff\n                /* \"CONTRACT/v2-core-master/contracts/UniswapV2Pair.sol\":8997:9009  balance0.mul */\n              tag_145\n                /* \"CONTRACT/v2-core-master/contracts/UniswapV2Pair.sol\":8997:9015  balance0.mul(1000) */\n              and\n              jump\t// in\n            tag_146:\n                /* \"CONTRACT/v2-core-master/contracts/UniswapV2Pair.sol\":8997:9019  balance0.mul(1000).sub */\n              swap1\n                /* \"CONTRACT/v2-core-master/contracts/UniswapV2Pair.sol\":8997:9037  balance0.mul(1000).sub(amount0In.mul(3)) */\n              0xffffffff\n                /* \"CONTRACT/v2-core-master/contracts/UniswapV2Pair.sol\":8997:9019  balance0.mul(1000).sub */\n              tag_147\n                /* \"CONTRACT/v2-core-master/contracts/UniswapV2Pair.sol\":8997:9037  balance0.mul(1000).sub(amount0In.mul(3)) */\n              and\n              jump\t// in\n            tag_143:\n                /* \"CONTRACT/v2-core-master/contracts/UniswapV2Pair.sol\":8973:9037  uint balance0Adjusted = balance0.mul(1000).sub(amount0In.mul(3)) */\n              swap1\n              pop\n                /* \"CONTRACT/v2-core-master/contracts/UniswapV2Pair.sol\":9048:9069  uint balance1Adjusted */\n              0x00\n                /* \"CONTRACT/v2-core-master/contracts/UniswapV2Pair.sol\":9072:9112  balance1.mul(1000).sub(amount1In.mul(3)) */\n              tag_148\n                /* \"CONTRACT/v2-core-master/contracts/UniswapV2Pair.sol\":9095:9111  amount1In.mul(3) */\n              tag_144\n                /* \"CONTRACT/v2-core-master/contracts/UniswapV2Pair.sol\":9095:9104  amount1In */\n              dup5\n                /* \"CONTRACT/v2-core-master/contracts/UniswapV2Pair.sol\":9109:9110  3 */\n              0x03\n                /* \"CONTRACT/v2-core-master/contracts/UniswapV2Pair.sol\":9095:9111  amount1In.mul(3) */\n              0xffffffff\n                /* \"CONTRACT/v2-core-master/contracts/UniswapV2Pair.sol\":9095:9108  amount1In.mul */\n              tag_145\n                /* \"CONTRACT/v2-core-master/contracts/UniswapV2Pair.sol\":9095:9111  amount1In.mul(3) */\n              and\n              jump\t// in\n                /* \"CONTRACT/v2-core-master/contracts/UniswapV2Pair.sol\":9072:9112  balance1.mul(1000).sub(amount1In.mul(3)) */\n            tag_148:\n                /* \"CONTRACT/v2-core-master/contracts/UniswapV2Pair.sol\":9048:9112  uint balance1Adjusted = balance1.mul(1000).sub(amount1In.mul(3)) */\n              swap1\n              pop\n                /* \"CONTRACT/v2-core-master/contracts/UniswapV2Pair.sol\":9173:9216  uint(_reserve0).mul(_reserve1).mul(1000**2) */\n              tag_151\n                /* \"CONTRACT/v2-core-master/contracts/UniswapV2Pair.sol\":9208:9215  1000**2 */\n              0x0f4240\n                /* \"CONTRACT/v2-core-master/contracts/UniswapV2Pair.sol\":9173:9203  uint(_reserve0).mul(_reserve1) */\n              tag_152\n              sub(shl(0x70, 0x01), 0x01)\n                /* \"CONTRACT/v2-core-master/contracts/UniswapV2Pair.sol\":9173:9188  uint(_reserve0) */\n              dup12\n              dup2\n              and\n              swap1\n                /* \"CONTRACT/v2-core-master/contracts/UniswapV2Pair.sol\":9173:9203  uint(_reserve0).mul(_reserve1) */\n              dup12\n              and\n                /* \"CONTRACT/v2-core-master/contracts/UniswapV2Pair.sol\":9173:9192  uint(_reserve0).mul */\n              tag_145\n                /* \"CONTRACT/v2-core-master/contracts/UniswapV2Pair.sol\":9173:9203  uint(_reserve0).mul(_reserve1) */\n              jump\t// in\n            tag_152:\n                /* \"CONTRACT/v2-core-master/contracts/UniswapV2Pair.sol\":9173:9207  uint(_reserve0).mul(_reserve1).mul */\n              swap1\n                /* \"CONTRACT/v2-core-master/contracts/UniswapV2Pair.sol\":9173:9216  uint(_reserve0).mul(_reserve1).mul(1000**2) */\n              0xffffffff\n                /* \"CONTRACT/v2-core-master/contracts/UniswapV2Pair.sol\":9173:9207  uint(_reserve0).mul(_reserve1).mul */\n              tag_145\n                /* \"CONTRACT/v2-core-master/contracts/UniswapV2Pair.sol\":9173:9216  uint(_reserve0).mul(_reserve1).mul(1000**2) */\n              and\n              jump\t// in\n            tag_151:\n                /* \"CONTRACT/v2-core-master/contracts/UniswapV2Pair.sol\":9131:9169  balance0Adjusted.mul(balance1Adjusted) */\n              tag_153\n                /* \"CONTRACT/v2-core-master/contracts/UniswapV2Pair.sol\":9131:9147  balance0Adjusted */\n              dup4\n                /* \"CONTRACT/v2-core-master/contracts/UniswapV2Pair.sol\":9152:9168  balance1Adjusted */\n              dup4\n                /* \"CONTRACT/v2-core-master/contracts/UniswapV2Pair.sol\":9131:9169  balance0Adjusted.mul(balance1Adjusted) */\n              0xffffffff\n                /* \"CONTRACT/v2-core-master/contracts/UniswapV2Pair.sol\":9131:9151  balance0Adjusted.mul */\n              tag_145\n                /* \"CONTRACT/v2-core-master/contracts/UniswapV2Pair.sol\":9131:9169  balance0Adjusted.mul(balance1Adjusted) */\n              and\n              jump\t// in\n            tag_153:\n                /* \"CONTRACT/v2-core-master/contracts/UniswapV2Pair.sol\":9131:9216  balance0Adjusted.mul(balance1Adjusted) >= uint(_reserve0).mul(_reserve1).mul(1000**2) */\n              lt\n              iszero\n                /* \"CONTRACT/v2-core-master/contracts/UniswapV2Pair.sol\":9123:9233  require(balance0Adjusted.mul(balance1Adjusted) >= uint(_reserve0).mul(_reserve1).mul(1000**2), 'UniswapV2: K') */\n              tag_154\n              jumpi\n              0x40\n              dup1\n              mload\n              shl(0xe5, 0x461bcd)\n              dup2\n              mstore\n              0x20\n              0x04\n              dup3\n              add\n              mstore\n              0x0c\n              0x24\n              dup3\n              add\n              mstore\n              shl(0xa0, 0x556e697377617056323a204b)\n              0x44\n              dup3\n              add\n              mstore\n              swap1\n              mload\n              swap1\n              dup2\n              swap1\n              sub\n              0x64\n              add\n              swap1\n              revert\n            tag_154:\n                /* \"CONTRACT/v2-core-master/contracts/UniswapV2Pair.sol\":1282:1283  _ */\n              pop\n              pop\n                /* \"CONTRACT/v2-core-master/contracts/UniswapV2Pair.sol\":9257:9306  _update(balance0, balance1, _reserve0, _reserve1) */\n              tag_155\n                /* \"CONTRACT/v2-core-master/contracts/UniswapV2Pair.sol\":9265:9273  balance0 */\n              dup5\n                /* \"CONTRACT/v2-core-master/contracts/UniswapV2Pair.sol\":9275:9283  balance1 */\n              dup5\n                /* \"CONTRACT/v2-core-master/contracts/UniswapV2Pair.sol\":9285:9294  _reserve0 */\n              dup9\n                /* \"CONTRACT/v2-core-master/contracts/UniswapV2Pair.sol\":9296:9305  _reserve1 */\n              dup9\n                /* \"CONTRACT/v2-core-master/contracts/UniswapV2Pair.sol\":9257:9264  _update */\n              tag_156\n                /* \"CONTRACT/v2-core-master/contracts/UniswapV2Pair.sol\":9257:9306  _update(balance0, balance1, _reserve0, _reserve1) */\n              jump\t// in\n            tag_155:\n                /* \"CONTRACT/v2-core-master/contracts/UniswapV2Pair.sol\":9322:9388  Swap(msg.sender, amount0In, amount1In, amount0Out, amount1Out, to) */\n              0x40\n              dup1\n              mload\n              dup4\n              dup2\n              mstore\n              0x20\n              dup2\n              add\n              dup4\n              swap1\n              mstore\n              dup1\n              dup3\n              add\n              dup14\n              swap1\n              mstore\n              0x60\n              dup2\n              add\n              dup13\n              swap1\n              mstore\n              swap1\n              mload\n              sub(shl(0xa0, 0x01), 0x01)\n              dup12\n              and\n              swap2\n                /* \"CONTRACT/v2-core-master/contracts/UniswapV2Pair.sol\":9327:9337  msg.sender */\n              caller\n              swap2\n                /* \"CONTRACT/v2-core-master/contracts/UniswapV2Pair.sol\":9322:9388  Swap(msg.sender, amount0In, amount1In, amount0Out, amount1Out, to) */\n              0xd78ad95fa46c994b6551d0da85fc275fe613ce37657fb8d5e3d130840159d822\n              swap2\n              dup2\n              swap1\n              sub\n              0x80\n              add\n              swap1\n              log3\n              pop\n              pop\n                /* \"CONTRACT/v2-core-master/contracts/UniswapV2Pair.sol\":1305:1306  1 */\n              0x01\n                /* \"CONTRACT/v2-core-master/contracts/UniswapV2Pair.sol\":1294:1302  unlocked */\n              0x0c\n                /* \"CONTRACT/v2-core-master/contracts/UniswapV2Pair.sol\":1294:1306  unlocked = 1 */\n              sstore\n              pop\n              pop\n              pop\n              pop\n              pop\n              pop\n              pop\n              pop\n              pop\n                /* \"CONTRACT/v2-core-master/contracts/UniswapV2Pair.sol\":7507:9396  function swap(uint amount0Out, uint amount1Out, address to, bytes calldata data) external lock {\r... */\n              jump\t// out\n                /* \"CONTRACT/v2-core-master/contracts/UniswapV2ERC20.sol\":193:228  string public constant name = 'EVO' */\n            tag_43:\n              0x40\n              dup1\n              mload\n              dup1\n              dup3\n              add\n              swap1\n              swap2\n              mstore\n              0x03\n              dup2\n              mstore\n              shl(0xe8, 0x45564f)\n              0x20\n              dup3\n              add\n              mstore\n              dup2\n              jump\t// out\n                /* \"CONTRACT/v2-core-master/contracts/UniswapV2Pair.sol\":1322:1553  function getReserves() public view returns (uint112 _reserve0, uint112 _reserve1, uint32 _blockTimestampLast) {\r... */\n            tag_49:\n                /* \"CONTRACT/v2-core-master/contracts/UniswapV2Pair.sol\":1455:1463  reserve0 */\n              sload(0x08)\n              sub(shl(0x70, 0x01), 0x01)\n              dup1\n              dup3\n              and\n              swap3\n              shl(0x70, 0x01)\n                /* \"CONTRACT/v2-core-master/contracts/UniswapV2Pair.sol\":1486:1494  reserve1 */\n              dup4\n              div\n              swap1\n              swap2\n              and\n              swap2\n              shl(0xe0, 0x01)\n                /* \"CONTRACT/v2-core-master/contracts/UniswapV2Pair.sol\":1527:1545  blockTimestampLast */\n              swap1\n              div\n              0xffffffff\n              and\n              swap1\n                /* \"CONTRACT/v2-core-master/contracts/UniswapV2Pair.sol\":1322:1553  function getReserves() public view returns (uint112 _reserve0, uint112 _reserve1, uint32 _blockTimestampLast) {\r... */\n              jump\t// out\n                /* \"CONTRACT/v2-core-master/contracts/UniswapV2ERC20.sol\":2230:2377  function approve(address spender, uint value) external returns (bool) {\r... */\n            tag_52:\n                /* \"CONTRACT/v2-core-master/contracts/UniswapV2ERC20.sol\":2294:2298  bool */\n              0x00\n                /* \"CONTRACT/v2-core-master/contracts/UniswapV2ERC20.sol\":2311:2347  _approve(msg.sender, spender, value) */\n              tag_159\n                /* \"CONTRACT/v2-core-master/contracts/UniswapV2ERC20.sol\":2320:2330  msg.sender */\n              caller\n                /* \"CONTRACT/v2-core-master/contracts/UniswapV2ERC20.sol\":2332:2339  spender */\n              dup5\n                /* \"CONTRACT/v2-core-master/contracts/UniswapV2ERC20.sol\":2341:2346  value */\n              dup5\n                /* \"CONTRACT/v2-core-master/contracts/UniswapV2ERC20.sol\":2311:2319  _approve */\n              tag_160\n                /* \"CONTRACT/v2-core-master/contracts/UniswapV2ERC20.sol\":2311:2347  _approve(msg.sender, spender, value) */\n              jump\t// in\n            tag_159:\n              pop\n                /* \"CONTRACT/v2-core-master/contracts/UniswapV2ERC20.sol\":2365:2369  true */\n              0x01\n                /* \"CONTRACT/v2-core-master/contracts/UniswapV2ERC20.sol\":2230:2377  function approve(address spender, uint value) external returns (bool) {\r... */\n            tag_158:\n              swap3\n              swap2\n              pop\n              pop\n              jump\t// out\n                /* \"CONTRACT/v2-core-master/contracts/UniswapV2Pair.sol\":611:632  address public token0 */\n            tag_54:\n              and(sub(shl(0xa0, 0x01), 0x01), sload(0x06))\n              dup2\n              jump\t// out\n                /* \"CONTRACT/v2-core-master/contracts/UniswapV2ERC20.sol\":321:345  uint  public totalSupply */\n            tag_56:\n              sload(0x00)\n              dup2\n              jump\t// out\n                /* \"CONTRACT/v2-core-master/contracts/UniswapV2ERC20.sol\":2532:2833  function transferFrom(address from, address to, uint value) external returns (bool) {\r... */\n            tag_59:\n              sub(shl(0xa0, 0x01), 0x01)\n                /* \"CONTRACT/v2-core-master/contracts/UniswapV2ERC20.sol\":2631:2646  allowance[from] */\n              dup4\n              and\n                /* \"CONTRACT/v2-core-master/contracts/UniswapV2ERC20.sol\":2610:2614  bool */\n              0x00\n                /* \"CONTRACT/v2-core-master/contracts/UniswapV2ERC20.sol\":2631:2646  allowance[from] */\n              swap1\n              dup2\n              mstore\n                /* \"CONTRACT/v2-core-master/contracts/UniswapV2ERC20.sol\":2631:2640  allowance */\n              0x02\n                /* \"CONTRACT/v2-core-master/contracts/UniswapV2ERC20.sol\":2631:2646  allowance[from] */\n              0x20\n              swap1\n              dup2\n              mstore\n              0x40\n              dup1\n              dup4\n              keccak256\n                /* \"CONTRACT/v2-core-master/contracts/UniswapV2ERC20.sol\":2647:2657  msg.sender */\n              caller\n                /* \"CONTRACT/v2-core-master/contracts/UniswapV2ERC20.sol\":2631:2658  allowance[from][msg.sender] */\n              dup5\n              mstore\n              swap1\n              swap2\n              mstore\n              dup2\n              keccak256\n              sload\n              not(0x00)\n                /* \"CONTRACT/v2-core-master/contracts/UniswapV2ERC20.sol\":2631:2670  allowance[from][msg.sender] != uint(-1) */\n              eq\n                /* \"CONTRACT/v2-core-master/contracts/UniswapV2ERC20.sol\":2627:2767  if (allowance[from][msg.sender] != uint(-1)) {\r... */\n              tag_162\n              jumpi\n              sub(shl(0xa0, 0x01), 0x01)\n                /* \"CONTRACT/v2-core-master/contracts/UniswapV2ERC20.sol\":2717:2732  allowance[from] */\n              dup5\n              and\n              0x00\n              swap1\n              dup2\n              mstore\n                /* \"CONTRACT/v2-core-master/contracts/UniswapV2ERC20.sol\":2717:2726  allowance */\n              0x02\n                /* \"CONTRACT/v2-core-master/contracts/UniswapV2ERC20.sol\":2717:2732  allowance[from] */\n              0x20\n              swap1\n              dup2\n              mstore\n              0x40\n              dup1\n              dup4\n              keccak256\n                /* \"CONTRACT/v2-core-master/contracts/UniswapV2ERC20.sol\":2733:2743  msg.sender */\n              caller\n                /* \"CONTRACT/v2-core-master/contracts/UniswapV2ERC20.sol\":2717:2744  allowance[from][msg.sender] */\n              dup5\n              mstore\n              swap1\n              swap2\n              mstore\n              swap1\n              keccak256\n              sload\n                /* \"CONTRACT/v2-core-master/contracts/UniswapV2ERC20.sol\":2717:2755  allowance[from][msg.sender].sub(value) */\n              tag_163\n              swap1\n                /* \"CONTRACT/v2-core-master/contracts/UniswapV2ERC20.sol\":2749:2754  value */\n              dup4\n                /* \"CONTRACT/v2-core-master/contracts/UniswapV2ERC20.sol\":2717:2748  allowance[from][msg.sender].sub */\n              tag_147\n                /* \"CONTRACT/v2-core-master/contracts/UniswapV2ERC20.sol\":2717:2755  allowance[from][msg.sender].sub(value) */\n              jump\t// in\n            tag_163:\n              sub(shl(0xa0, 0x01), 0x01)\n                /* \"CONTRACT/v2-core-master/contracts/UniswapV2ERC20.sol\":2687:2702  allowance[from] */\n              dup6\n              and\n              0x00\n              swap1\n              dup2\n              mstore\n                /* \"CONTRACT/v2-core-master/contracts/UniswapV2ERC20.sol\":2687:2696  allowance */\n              0x02\n                /* \"CONTRACT/v2-core-master/contracts/UniswapV2ERC20.sol\":2687:2702  allowance[from] */\n              0x20\n              swap1\n              dup2\n              mstore\n              0x40\n              dup1\n              dup4\n              keccak256\n                /* \"CONTRACT/v2-core-master/contracts/UniswapV2ERC20.sol\":2703:2713  msg.sender */\n              caller\n                /* \"CONTRACT/v2-core-master/contracts/UniswapV2ERC20.sol\":2687:2714  allowance[from][msg.sender] */\n              dup5\n              mstore\n              swap1\n              swap2\n              mstore\n              swap1\n              keccak256\n                /* \"CONTRACT/v2-core-master/contracts/UniswapV2ERC20.sol\":2687:2755  allowance[from][msg.sender] = allowance[from][msg.sender].sub(value) */\n              sstore\n                /* \"CONTRACT/v2-core-master/contracts/UniswapV2ERC20.sol\":2627:2767  if (allowance[from][msg.sender] != uint(-1)) {\r... */\n            tag_162:\n                /* \"CONTRACT/v2-core-master/contracts/UniswapV2ERC20.sol\":2777:2803  _transfer(from, to, value) */\n              tag_164\n                /* \"CONTRACT/v2-core-master/contracts/UniswapV2ERC20.sol\":2787:2791  from */\n              dup5\n                /* \"CONTRACT/v2-core-master/contracts/UniswapV2ERC20.sol\":2793:2795  to */\n              dup5\n                /* \"CONTRACT/v2-core-master/contracts/UniswapV2ERC20.sol\":2797:2802  value */\n              dup5\n                /* \"CONTRACT/v2-core-master/contracts/UniswapV2ERC20.sol\":2777:2786  _transfer */\n              tag_165\n                /* \"CONTRACT/v2-core-master/contracts/UniswapV2ERC20.sol\":2777:2803  _transfer(from, to, value) */\n              jump\t// in\n            tag_164:\n              pop\n                /* \"CONTRACT/v2-core-master/contracts/UniswapV2ERC20.sol\":2821:2825  true */\n              0x01\n                /* \"CONTRACT/v2-core-master/contracts/UniswapV2ERC20.sol\":2532:2833  function transferFrom(address from, address to, uint value) external returns (bool) {\r... */\n              swap4\n              swap3\n              pop\n              pop\n              pop\n              jump\t// out\n                /* \"CONTRACT/v2-core-master/contracts/UniswapV2ERC20.sol\":613:721  bytes32 public constant PERMIT_TYPEHASH = 0x6e71edae12b1b97f4d1f60370fef10105fa2faae0126114a169c64845d6126c9 */\n            tag_61:\n                /* \"CONTRACT/v2-core-master/contracts/UniswapV2ERC20.sol\":655:721  0x6e71edae12b1b97f4d1f60370fef10105fa2faae0126114a169c64845d6126c9 */\n              0x6e71edae12b1b97f4d1f60370fef10105fa2faae0126114a169c64845d6126c9\n                /* \"CONTRACT/v2-core-master/contracts/UniswapV2ERC20.sol\":613:721  bytes32 public constant PERMIT_TYPEHASH = 0x6e71edae12b1b97f4d1f60370fef10105fa2faae0126114a169c64845d6126c9 */\n              dup2\n              jump\t// out\n                /* \"CONTRACT/v2-core-master/contracts/UniswapV2ERC20.sol\":279:314  uint8 public constant decimals = 18 */\n            tag_63:\n                /* \"CONTRACT/v2-core-master/contracts/UniswapV2ERC20.sol\":312:314  18 */\n              0x12\n                /* \"CONTRACT/v2-core-master/contracts/UniswapV2ERC20.sol\":279:314  uint8 public constant decimals = 18 */\n              dup2\n              jump\t// out\n                /* \"CONTRACT/v2-core-master/contracts/UniswapV2ERC20.sol\":470:501  bytes32 public DOMAIN_SEPARATOR */\n            tag_65:\n              sload(0x03)\n              dup2\n              jump\t// out\n                /* \"CONTRACT/v2-core-master/contracts/UniswapV2Pair.sol\":2382:2592  function initialize(address _token0, address _token1) external {\r... */\n            tag_68:\n                /* \"CONTRACT/v2-core-master/contracts/UniswapV2Pair.sol\":2478:2485  factory */\n              and(sub(shl(0xa0, 0x01), 0x01), sload(0x05))\n                /* \"CONTRACT/v2-core-master/contracts/UniswapV2Pair.sol\":2464:2474  msg.sender */\n              caller\n                /* \"CONTRACT/v2-core-master/contracts/UniswapV2Pair.sol\":2464:2485  msg.sender == factory */\n              eq\n                /* \"CONTRACT/v2-core-master/contracts/UniswapV2Pair.sol\":2456:2510  require(msg.sender == factory, 'UniswapV2: FORBIDDEN') */\n              tag_167\n              jumpi\n              0x40\n              dup1\n              mload\n              shl(0xe5, 0x461bcd)\n              dup2\n              mstore\n              0x20\n              0x04\n              dup3\n              add\n              mstore\n              0x14\n              0x24\n              dup3\n              add\n              mstore\n              shl(0x61, 0x2ab734b9bbb0b82b191d102327a92124a22222a7)\n              0x44\n              dup3\n              add\n              mstore\n              swap1\n              mload\n              swap1\n              dup2\n              swap1\n              sub\n              0x64\n              add\n              swap1\n              revert\n            tag_167:\n                /* \"CONTRACT/v2-core-master/contracts/UniswapV2Pair.sol\":2541:2547  token0 */\n              0x06\n                /* \"CONTRACT/v2-core-master/contracts/UniswapV2Pair.sol\":2541:2557  token0 = _token0 */\n              dup1\n              sload\n              sub(shl(0xa0, 0x01), 0x01)\n              swap4\n              dup5\n              and\n              not(sub(shl(0xa0, 0x01), 0x01))\n              swap2\n              dup3\n              and\n              or\n              swap1\n              swap2\n              sstore\n                /* \"CONTRACT/v2-core-master/contracts/UniswapV2Pair.sol\":2568:2574  token1 */\n              0x07\n                /* \"CONTRACT/v2-core-master/contracts/UniswapV2Pair.sol\":2568:2584  token1 = _token1 */\n              dup1\n              sload\n              swap3\n              swap1\n              swap4\n              and\n              swap2\n              and\n              or\n              swap1\n              sstore\n                /* \"CONTRACT/v2-core-master/contracts/UniswapV2Pair.sol\":2382:2592  function initialize(address _token0, address _token1) external {\r... */\n              jump\t// out\n                /* \"CONTRACT/v2-core-master/contracts/UniswapV2Pair.sol\":962:994  uint public price0CumulativeLast */\n            tag_70:\n              sload(0x09)\n              dup2\n              jump\t// out\n                /* \"CONTRACT/v2-core-master/contracts/UniswapV2Pair.sol\":1001:1033  uint public price1CumulativeLast */\n            tag_72:\n              sload(0x0a)\n              dup2\n              jump\t// out\n                /* \"CONTRACT/v2-core-master/contracts/UniswapV2Pair.sol\":4577:5817  function mint(address to) external lock returns (uint liquidity) {\r... */\n            tag_75:\n                /* \"CONTRACT/v2-core-master/contracts/UniswapV2Pair.sol\":4626:4640  uint liquidity */\n              0x00\n                /* \"CONTRACT/v2-core-master/contracts/UniswapV2Pair.sol\":1213:1221  unlocked */\n              sload(0x0c)\n                /* \"CONTRACT/v2-core-master/contracts/UniswapV2Pair.sol\":1225:1226  1 */\n              0x01\n                /* \"CONTRACT/v2-core-master/contracts/UniswapV2Pair.sol\":1213:1226  unlocked == 1 */\n              eq\n                /* \"CONTRACT/v2-core-master/contracts/UniswapV2Pair.sol\":1205:1248  require(unlocked == 1, 'UniswapV2: LOCKED') */\n              tag_169\n              jumpi\n              0x40\n              dup1\n              mload\n              shl(0xe5, 0x461bcd)\n              dup2\n              mstore\n              0x20\n              0x04\n              dup3\n              add\n              mstore\n              0x11\n              0x24\n              dup3\n              add\n              mstore\n              shl(0x7a, 0x155b9a5cddd85c158c8e881313d0d2d151)\n              0x44\n              dup3\n              add\n              mstore\n              swap1\n              mload\n              swap1\n              dup2\n              swap1\n              sub\n              0x64\n              add\n              swap1\n              revert\n            tag_169:\n                /* \"CONTRACT/v2-core-master/contracts/UniswapV2Pair.sol\":1270:1271  0 */\n              0x00\n                /* \"CONTRACT/v2-core-master/contracts/UniswapV2Pair.sol\":1259:1267  unlocked */\n              0x0c\n                /* \"CONTRACT/v2-core-master/contracts/UniswapV2Pair.sol\":1259:1271  unlocked = 0 */\n              dup2\n              swap1\n              sstore\n                /* \"CONTRACT/v2-core-master/contracts/UniswapV2Pair.sol\":1270:1271  0 */\n              dup1\n                /* \"CONTRACT/v2-core-master/contracts/UniswapV2Pair.sol\":4695:4708  getReserves() */\n              tag_171\n                /* \"CONTRACT/v2-core-master/contracts/UniswapV2Pair.sol\":4695:4706  getReserves */\n              tag_49\n                /* \"CONTRACT/v2-core-master/contracts/UniswapV2Pair.sol\":4695:4708  getReserves() */\n              jump\t// in\n            tag_171:\n              pop\n                /* \"CONTRACT/v2-core-master/contracts/UniswapV2Pair.sol\":4757:4763  token0 */\n              sload(0x06)\n                /* \"CONTRACT/v2-core-master/contracts/UniswapV2Pair.sol\":4750:4789  IERC20(token0).balanceOf(address(this)) */\n              0x40\n              dup1\n              mload\n              shl(0xe0, 0x70a08231)\n              dup2\n              mstore\n                /* \"CONTRACT/v2-core-master/contracts/UniswapV2Pair.sol\":4783:4787  this */\n              address\n                /* \"CONTRACT/v2-core-master/contracts/UniswapV2Pair.sol\":4750:4789  IERC20(token0).balanceOf(address(this)) */\n              0x04\n              dup3\n              add\n              mstore\n              swap1\n              mload\n                /* \"CONTRACT/v2-core-master/contracts/UniswapV2Pair.sol\":4653:4708  (uint112 _reserve0, uint112 _reserve1,) = getReserves() */\n              swap4\n              swap6\n              pop\n              swap2\n              swap4\n              pop\n              0x00\n              swap3\n              sub(shl(0xa0, 0x01), 0x01)\n                /* \"CONTRACT/v2-core-master/contracts/UniswapV2Pair.sol\":4757:4763  token0 */\n              swap1\n              swap2\n              and\n              swap2\n              0x70a08231\n              swap2\n                /* \"CONTRACT/v2-core-master/contracts/UniswapV2Pair.sol\":4750:4789  IERC20(token0).balanceOf(address(this)) */\n              0x24\n              dup1\n              dup4\n              add\n              swap3\n              0x20\n              swap3\n              swap2\n              swap1\n              dup3\n              swap1\n              sub\n              add\n              dup2\n                /* \"CONTRACT/v2-core-master/contracts/UniswapV2Pair.sol\":4757:4763  token0 */\n              dup7\n                /* \"CONTRACT/v2-core-master/contracts/UniswapV2Pair.sol\":4750:4789  IERC20(token0).balanceOf(address(this)) */\n              dup1\n              extcodesize\n              iszero\n                /* \"--CODEGEN--\":5:7   */\n              dup1\n              iszero\n              tag_172\n              jumpi\n                /* \"--CODEGEN--\":30:31   */\n              0x00\n                /* \"--CODEGEN--\":27:28   */\n              dup1\n                /* \"--CODEGEN--\":20:32   */\n              revert\n                /* \"--CODEGEN--\":5:7   */\n            tag_172:\n                /* \"CONTRACT/v2-core-master/contracts/UniswapV2Pair.sol\":4750:4789  IERC20(token0).balanceOf(address(this)) */\n              pop\n              gas\n              staticcall\n              iszero\n                /* \"--CODEGEN--\":8:17   */\n              dup1\n                /* \"--CODEGEN--\":5:7   */\n              iszero\n              tag_173\n              jumpi\n                /* \"--CODEGEN--\":45:61   */\n              returndatasize\n                /* \"--CODEGEN--\":42:43   */\n              0x00\n                /* \"--CODEGEN--\":39:40   */\n              dup1\n                /* \"--CODEGEN--\":24:62   */\n              returndatacopy\n                /* \"--CODEGEN--\":77:93   */\n              returndatasize\n                /* \"--CODEGEN--\":74:75   */\n              0x00\n                /* \"--CODEGEN--\":67:94   */\n              revert\n                /* \"--CODEGEN--\":5:7   */\n            tag_173:\n                /* \"CONTRACT/v2-core-master/contracts/UniswapV2Pair.sol\":4750:4789  IERC20(token0).balanceOf(address(this)) */\n              pop\n              pop\n              pop\n              pop\n              mload(0x40)\n              returndatasize\n                /* \"--CODEGEN--\":13:15   */\n              0x20\n                /* \"--CODEGEN--\":8:11   */\n              dup2\n                /* \"--CODEGEN--\":5:16   */\n              lt\n                /* \"--CODEGEN--\":2:4   */\n              iszero\n              tag_174\n              jumpi\n                /* \"--CODEGEN--\":29:30   */\n              0x00\n                /* \"--CODEGEN--\":26:27   */\n              dup1\n                /* \"--CODEGEN--\":19:31   */\n              revert\n                /* \"--CODEGEN--\":2:4   */\n            tag_174:\n              pop\n                /* \"CONTRACT/v2-core-master/contracts/UniswapV2Pair.sol\":4750:4789  IERC20(token0).balanceOf(address(this)) */\n              mload\n                /* \"CONTRACT/v2-core-master/contracts/UniswapV2Pair.sol\":4823:4829  token1 */\n              sload(0x07)\n                /* \"CONTRACT/v2-core-master/contracts/UniswapV2Pair.sol\":4816:4855  IERC20(token1).balanceOf(address(this)) */\n              0x40\n              dup1\n              mload\n              shl(0xe0, 0x70a08231)\n              dup2\n              mstore\n                /* \"CONTRACT/v2-core-master/contracts/UniswapV2Pair.sol\":4849:4853  this */\n              address\n                /* \"CONTRACT/v2-core-master/contracts/UniswapV2Pair.sol\":4816:4855  IERC20(token1).balanceOf(address(this)) */\n              0x04\n              dup3\n              add\n              mstore\n              swap1\n              mload\n                /* \"CONTRACT/v2-core-master/contracts/UniswapV2Pair.sol\":4750:4789  IERC20(token0).balanceOf(address(this)) */\n              swap3\n              swap4\n              pop\n              0x00\n              swap3\n              sub(shl(0xa0, 0x01), 0x01)\n                /* \"CONTRACT/v2-core-master/contracts/UniswapV2Pair.sol\":4823:4829  token1 */\n              swap1\n              swap3\n              and\n              swap2\n              0x70a08231\n              swap2\n                /* \"CONTRACT/v2-core-master/contracts/UniswapV2Pair.sol\":4816:4855  IERC20(token1).balanceOf(address(this)) */\n              0x24\n              dup1\n              dup3\n              add\n              swap3\n                /* \"CONTRACT/v2-core-master/contracts/UniswapV2Pair.sol\":4750:4789  IERC20(token0).balanceOf(address(this)) */\n              0x20\n              swap3\n                /* \"CONTRACT/v2-core-master/contracts/UniswapV2Pair.sol\":4816:4855  IERC20(token1).balanceOf(address(this)) */\n              swap1\n              swap2\n              swap1\n              dup3\n              swap1\n              sub\n              add\n              dup2\n                /* \"CONTRACT/v2-core-master/contracts/UniswapV2Pair.sol\":4823:4829  token1 */\n              dup7\n                /* \"CONTRACT/v2-core-master/contracts/UniswapV2Pair.sol\":4816:4855  IERC20(token1).balanceOf(address(this)) */\n              dup1\n              extcodesize\n              iszero\n                /* \"--CODEGEN--\":5:7   */\n              dup1\n              iszero\n              tag_175\n              jumpi\n                /* \"--CODEGEN--\":30:31   */\n              0x00\n                /* \"--CODEGEN--\":27:28   */\n              dup1\n                /* \"--CODEGEN--\":20:32   */\n              revert\n                /* \"--CODEGEN--\":5:7   */\n            tag_175:\n                /* \"CONTRACT/v2-core-master/contracts/UniswapV2Pair.sol\":4816:4855  IERC20(token1).balanceOf(address(this)) */\n              pop\n              gas\n              staticcall\n              iszero\n                /* \"--CODEGEN--\":8:17   */\n              dup1\n                /* \"--CODEGEN--\":5:7   */\n              iszero\n              tag_176\n              jumpi\n                /* \"--CODEGEN--\":45:61   */\n              returndatasize\n                /* \"--CODEGEN--\":42:43   */\n              0x00\n                /* \"--CODEGEN--\":39:40   */\n              dup1\n                /* \"--CODEGEN--\":24:62   */\n              returndatacopy\n                /* \"--CODEGEN--\":77:93   */\n              returndatasize\n                /* \"--CODEGEN--\":74:75   */\n              0x00\n                /* \"--CODEGEN--\":67:94   */\n              revert\n                /* \"--CODEGEN--\":5:7   */\n            tag_176:\n                /* \"CONTRACT/v2-core-master/contracts/UniswapV2Pair.sol\":4816:4855  IERC20(token1).balanceOf(address(this)) */\n              pop\n              pop\n              pop\n              pop\n              mload(0x40)\n              returndatasize\n                /* \"--CODEGEN--\":13:15   */\n              0x20\n                /* \"--CODEGEN--\":8:11   */\n              dup2\n                /* \"--CODEGEN--\":5:16   */\n              lt\n                /* \"--CODEGEN--\":2:4   */\n              iszero\n              tag_177\n              jumpi\n                /* \"--CODEGEN--\":29:30   */\n              0x00\n                /* \"--CODEGEN--\":26:27   */\n              dup1\n                /* \"--CODEGEN--\":19:31   */\n              revert\n                /* \"--CODEGEN--\":2:4   */\n            tag_177:\n              pop\n                /* \"CONTRACT/v2-core-master/contracts/UniswapV2Pair.sol\":4816:4855  IERC20(token1).balanceOf(address(this)) */\n              mload\n              swap1\n              pop\n                /* \"CONTRACT/v2-core-master/contracts/UniswapV2Pair.sol\":4866:4878  uint amount0 */\n              0x00\n                /* \"CONTRACT/v2-core-master/contracts/UniswapV2Pair.sol\":4881:4904  balance0.sub(_reserve0) */\n              tag_178\n                /* \"CONTRACT/v2-core-master/contracts/UniswapV2Pair.sol\":4881:4889  balance0 */\n              dup4\n              sub(shl(0x70, 0x01), 0x01)\n                /* \"CONTRACT/v2-core-master/contracts/UniswapV2Pair.sol\":4881:4904  balance0.sub(_reserve0) */\n              dup8\n              and\n                /* \"CONTRACT/v2-core-master/contracts/UniswapV2Pair.sol\":4881:4893  balance0.sub */\n              tag_147\n                /* \"CONTRACT/v2-core-master/contracts/UniswapV2Pair.sol\":4881:4904  balance0.sub(_reserve0) */\n              jump\t// in\n            tag_178:\n                /* \"CONTRACT/v2-core-master/contracts/UniswapV2Pair.sol\":4866:4904  uint amount0 = balance0.sub(_reserve0) */\n              swap1\n              pop\n                /* \"CONTRACT/v2-core-master/contracts/UniswapV2Pair.sol\":4915:4927  uint amount1 */\n              0x00\n                /* \"CONTRACT/v2-core-master/contracts/UniswapV2Pair.sol\":4930:4953  balance1.sub(_reserve1) */\n              tag_179\n                /* \"CONTRACT/v2-core-master/contracts/UniswapV2Pair.sol\":4930:4938  balance1 */\n              dup4\n              sub(shl(0x70, 0x01), 0x01)\n                /* \"CONTRACT/v2-core-master/contracts/UniswapV2Pair.sol\":4930:4953  balance1.sub(_reserve1) */\n              dup8\n              and\n                /* \"CONTRACT/v2-core-master/contracts/UniswapV2Pair.sol\":4930:4942  balance1.sub */\n              tag_147\n                /* \"CONTRACT/v2-core-master/contracts/UniswapV2Pair.sol\":4930:4953  balance1.sub(_reserve1) */\n              jump\t// in\n            tag_179:\n                /* \"CONTRACT/v2-core-master/contracts/UniswapV2Pair.sol\":4915:4953  uint amount1 = balance1.sub(_reserve1) */\n              swap1\n              pop\n                /* \"CONTRACT/v2-core-master/contracts/UniswapV2Pair.sol\":4966:4976  bool feeOn */\n              0x00\n                /* \"CONTRACT/v2-core-master/contracts/UniswapV2Pair.sol\":4979:5009  _mintFee(_reserve0, _reserve1) */\n              tag_180\n                /* \"CONTRACT/v2-core-master/contracts/UniswapV2Pair.sol\":4988:4997  _reserve0 */\n              dup8\n                /* \"CONTRACT/v2-core-master/contracts/UniswapV2Pair.sol\":4999:5008  _reserve1 */\n              dup8\n                /* \"CONTRACT/v2-core-master/contracts/UniswapV2Pair.sol\":4979:4987  _mintFee */\n              tag_181\n                /* \"CONTRACT/v2-core-master/contracts/UniswapV2Pair.sol\":4979:5009  _mintFee(_reserve0, _reserve1) */\n              jump\t// in\n            tag_180:\n                /* \"CONTRACT/v2-core-master/contracts/UniswapV2Pair.sol\":5020:5037  uint _totalSupply */\n              0x00\n                /* \"CONTRACT/v2-core-master/contracts/UniswapV2Pair.sol\":5040:5051  totalSupply */\n              sload\n                /* \"CONTRACT/v2-core-master/contracts/UniswapV2Pair.sol\":4966:5009  bool feeOn = _mintFee(_reserve0, _reserve1) */\n              swap1\n              swap2\n              pop\n                /* \"CONTRACT/v2-core-master/contracts/UniswapV2Pair.sol\":5144:5161  _totalSupply == 0 */\n              dup1\n                /* \"CONTRACT/v2-core-master/contracts/UniswapV2Pair.sol\":5140:5492  if (_totalSupply == 0) {\r... */\n              tag_182\n              jumpi\n                /* \"CONTRACT/v2-core-master/contracts/UniswapV2Pair.sol\":5190:5244  Math.sqrt(amount0.mul(amount1)).sub(MINIMUM_LIQUIDITY) */\n              tag_183\n                /* \"CONTRACT/v2-core-master/contracts/UniswapV2Pair.sol\":473:478  10**3 */\n              0x03e8\n                /* \"CONTRACT/v2-core-master/contracts/UniswapV2Pair.sol\":5190:5221  Math.sqrt(amount0.mul(amount1)) */\n              tag_146\n                /* \"CONTRACT/v2-core-master/contracts/UniswapV2Pair.sol\":5200:5220  amount0.mul(amount1) */\n              tag_185\n                /* \"CONTRACT/v2-core-master/contracts/UniswapV2Pair.sol\":5200:5207  amount0 */\n              dup8\n                /* \"CONTRACT/v2-core-master/contracts/UniswapV2Pair.sol\":5212:5219  amount1 */\n              dup8\n                /* \"CONTRACT/v2-core-master/contracts/UniswapV2Pair.sol\":5200:5220  amount0.mul(amount1) */\n              0xffffffff\n                /* \"CONTRACT/v2-core-master/contracts/UniswapV2Pair.sol\":5200:5211  amount0.mul */\n              tag_145\n                /* \"CONTRACT/v2-core-master/contracts/UniswapV2Pair.sol\":5200:5220  amount0.mul(amount1) */\n              and\n              jump\t// in\n            tag_185:\n                /* \"CONTRACT/v2-core-master/contracts/UniswapV2Pair.sol\":5190:5199  Math.sqrt */\n              tag_186\n                /* \"CONTRACT/v2-core-master/contracts/UniswapV2Pair.sol\":5190:5221  Math.sqrt(amount0.mul(amount1)) */\n              jump\t// in\n                /* \"CONTRACT/v2-core-master/contracts/UniswapV2Pair.sol\":5190:5244  Math.sqrt(amount0.mul(amount1)).sub(MINIMUM_LIQUIDITY) */\n            tag_183:\n                /* \"CONTRACT/v2-core-master/contracts/UniswapV2Pair.sol\":5178:5244  liquidity = Math.sqrt(amount0.mul(amount1)).sub(MINIMUM_LIQUIDITY) */\n              swap9\n              pop\n                /* \"CONTRACT/v2-core-master/contracts/UniswapV2Pair.sol\":5258:5294  _mint(address(0), MINIMUM_LIQUIDITY) */\n              tag_187\n                /* \"CONTRACT/v2-core-master/contracts/UniswapV2Pair.sol\":5272:5273  0 */\n              0x00\n                /* \"CONTRACT/v2-core-master/contracts/UniswapV2Pair.sol\":473:478  10**3 */\n              0x03e8\n                /* \"CONTRACT/v2-core-master/contracts/UniswapV2Pair.sol\":5258:5263  _mint */\n              tag_188\n                /* \"CONTRACT/v2-core-master/contracts/UniswapV2Pair.sol\":5258:5294  _mint(address(0), MINIMUM_LIQUIDITY) */\n              jump\t// in\n            tag_187:\n                /* \"CONTRACT/v2-core-master/contracts/UniswapV2Pair.sol\":5140:5492  if (_totalSupply == 0) {\r... */\n              jump(tag_189)\n            tag_182:\n                /* \"CONTRACT/v2-core-master/contracts/UniswapV2Pair.sol\":5394:5480  Math.min(amount0.mul(_totalSupply) / _reserve0, amount1.mul(_totalSupply) / _reserve1) */\n              tag_190\n              sub(shl(0x70, 0x01), 0x01)\n                /* \"CONTRACT/v2-core-master/contracts/UniswapV2Pair.sol\":5403:5440  amount0.mul(_totalSupply) / _reserve0 */\n              dup10\n              and\n                /* \"CONTRACT/v2-core-master/contracts/UniswapV2Pair.sol\":5403:5428  amount0.mul(_totalSupply) */\n              tag_191\n                /* \"CONTRACT/v2-core-master/contracts/UniswapV2Pair.sol\":5403:5410  amount0 */\n              dup7\n                /* \"CONTRACT/v2-core-master/contracts/UniswapV2Pair.sol\":5415:5427  _totalSupply */\n              dup5\n                /* \"CONTRACT/v2-core-master/contracts/UniswapV2Pair.sol\":5403:5414  amount0.mul */\n              tag_145\n                /* \"CONTRACT/v2-core-master/contracts/UniswapV2Pair.sol\":5403:5428  amount0.mul(_totalSupply) */\n              jump\t// in\n            tag_191:\n                /* \"CONTRACT/v2-core-master/contracts/UniswapV2Pair.sol\":5403:5440  amount0.mul(_totalSupply) / _reserve0 */\n              dup2\n              tag_192\n              jumpi\n              invalid\n            tag_192:\n              div\n              sub(shl(0x70, 0x01), 0x01)\n                /* \"CONTRACT/v2-core-master/contracts/UniswapV2Pair.sol\":5442:5479  amount1.mul(_totalSupply) / _reserve1 */\n              dup10\n              and\n                /* \"CONTRACT/v2-core-master/contracts/UniswapV2Pair.sol\":5442:5467  amount1.mul(_totalSupply) */\n              tag_193\n                /* \"CONTRACT/v2-core-master/contracts/UniswapV2Pair.sol\":5442:5449  amount1 */\n              dup7\n                /* \"CONTRACT/v2-core-master/contracts/UniswapV2Pair.sol\":5454:5466  _totalSupply */\n              dup6\n                /* \"CONTRACT/v2-core-master/contracts/UniswapV2Pair.sol\":5442:5453  amount1.mul */\n              tag_145\n                /* \"CONTRACT/v2-core-master/contracts/UniswapV2Pair.sol\":5442:5467  amount1.mul(_totalSupply) */\n              jump\t// in\n            tag_193:\n                /* \"CONTRACT/v2-core-master/contracts/UniswapV2Pair.sol\":5442:5479  amount1.mul(_totalSupply) / _reserve1 */\n              dup2\n              tag_194\n              jumpi\n              invalid\n            tag_194:\n              div\n                /* \"CONTRACT/v2-core-master/contracts/UniswapV2Pair.sol\":5394:5402  Math.min */\n              tag_195\n                /* \"CONTRACT/v2-core-master/contracts/UniswapV2Pair.sol\":5394:5480  Math.min(amount0.mul(_totalSupply) / _reserve0, amount1.mul(_totalSupply) / _reserve1) */\n              jump\t// in\n            tag_190:\n                /* \"CONTRACT/v2-core-master/contracts/UniswapV2Pair.sol\":5382:5480  liquidity = Math.min(amount0.mul(_totalSupply) / _reserve0, amount1.mul(_totalSupply) / _reserve1) */\n              swap9\n              pop\n                /* \"CONTRACT/v2-core-master/contracts/UniswapV2Pair.sol\":5140:5492  if (_totalSupply == 0) {\r... */\n            tag_189:\n                /* \"CONTRACT/v2-core-master/contracts/UniswapV2Pair.sol\":5522:5523  0 */\n              0x00\n                /* \"CONTRACT/v2-core-master/contracts/UniswapV2Pair.sol\":5510:5519  liquidity */\n              dup10\n                /* \"CONTRACT/v2-core-master/contracts/UniswapV2Pair.sol\":5510:5523  liquidity > 0 */\n              gt\n                /* \"CONTRACT/v2-core-master/contracts/UniswapV2Pair.sol\":5502:5568  require(liquidity > 0, 'UniswapV2: INSUFFICIENT_LIQUIDITY_MINTED') */\n              tag_196\n              jumpi\n              mload(0x40)\n              shl(0xe5, 0x461bcd)\n              dup2\n              mstore\n              0x04\n              add\n              dup1\n              dup1\n              0x20\n              add\n              dup3\n              dup2\n              sub\n              dup3\n              mstore\n              0x28\n              dup2\n              mstore\n              0x20\n              add\n              dup1\n              data_6591c9f5bf1fefaad109b76a20e25c857b696080c952191f86220f001a83663e\n              0x28\n              swap2\n              codecopy\n              0x40\n              add\n              swap2\n              pop\n              pop\n              mload(0x40)\n              dup1\n              swap2\n              sub\n              swap1\n              revert\n            tag_196:\n                /* \"CONTRACT/v2-core-master/contracts/UniswapV2Pair.sol\":5579:5599  _mint(to, liquidity) */\n              tag_197\n                /* \"CONTRACT/v2-core-master/contracts/UniswapV2Pair.sol\":5585:5587  to */\n              dup11\n                /* \"CONTRACT/v2-core-master/contracts/UniswapV2Pair.sol\":5589:5598  liquidity */\n              dup11\n                /* \"CONTRACT/v2-core-master/contracts/UniswapV2Pair.sol\":5579:5584  _mint */\n              tag_188\n                /* \"CONTRACT/v2-core-master/contracts/UniswapV2Pair.sol\":5579:5599  _mint(to, liquidity) */\n              jump\t// in\n            tag_197:\n                /* \"CONTRACT/v2-core-master/contracts/UniswapV2Pair.sol\":5612:5661  _update(balance0, balance1, _reserve0, _reserve1) */\n              tag_198\n                /* \"CONTRACT/v2-core-master/contracts/UniswapV2Pair.sol\":5620:5628  balance0 */\n              dup7\n                /* \"CONTRACT/v2-core-master/contracts/UniswapV2Pair.sol\":5630:5638  balance1 */\n              dup7\n                /* \"CONTRACT/v2-core-master/contracts/UniswapV2Pair.sol\":5640:5649  _reserve0 */\n              dup11\n                /* \"CONTRACT/v2-core-master/contracts/UniswapV2Pair.sol\":5651:5660  _reserve1 */\n              dup11\n                /* \"CONTRACT/v2-core-master/contracts/UniswapV2Pair.sol\":5612:5619  _update */\n              tag_156\n                /* \"CONTRACT/v2-core-master/contracts/UniswapV2Pair.sol\":5612:5661  _update(balance0, balance1, _reserve0, _reserve1) */\n              jump\t// in\n            tag_198:\n                /* \"CONTRACT/v2-core-master/contracts/UniswapV2Pair.sol\":5676:5681  feeOn */\n              dup2\n                /* \"CONTRACT/v2-core-master/contracts/UniswapV2Pair.sol\":5672:5719  if (feeOn) kLast = uint(reserve0).mul(reserve1) */\n              iszero\n              tag_199\n              jumpi\n                /* \"CONTRACT/v2-core-master/contracts/UniswapV2Pair.sol\":5710:5718  reserve1 */\n              sload(0x08)\n                /* \"CONTRACT/v2-core-master/contracts/UniswapV2Pair.sol\":5691:5719  uint(reserve0).mul(reserve1) */\n              tag_200\n              swap1\n              sub(shl(0x70, 0x01), 0x01)\n                /* \"CONTRACT/v2-core-master/contracts/UniswapV2Pair.sol\":5696:5704  reserve0 */\n              dup1\n              dup3\n              and\n              swap2\n              shl(0x70, 0x01)\n                /* \"CONTRACT/v2-core-master/contracts/UniswapV2Pair.sol\":5710:5718  reserve1 */\n              swap1\n              div\n              and\n                /* \"CONTRACT/v2-core-master/contracts/UniswapV2Pair.sol\":5691:5709  uint(reserve0).mul */\n              tag_145\n                /* \"CONTRACT/v2-core-master/contracts/UniswapV2Pair.sol\":5691:5719  uint(reserve0).mul(reserve1) */\n              jump\t// in\n            tag_200:\n                /* \"CONTRACT/v2-core-master/contracts/UniswapV2Pair.sol\":5683:5688  kLast */\n              0x0b\n                /* \"CONTRACT/v2-core-master/contracts/UniswapV2Pair.sol\":5683:5719  kLast = uint(reserve0).mul(reserve1) */\n              sstore\n                /* \"CONTRACT/v2-core-master/contracts/UniswapV2Pair.sol\":5672:5719  if (feeOn) kLast = uint(reserve0).mul(reserve1) */\n            tag_199:\n                /* \"CONTRACT/v2-core-master/contracts/UniswapV2Pair.sol\":5775:5809  Mint(msg.sender, amount0, amount1) */\n              0x40\n              dup1\n              mload\n              dup6\n              dup2\n              mstore\n              0x20\n              dup2\n              add\n              dup6\n              swap1\n              mstore\n              dup2\n              mload\n                /* \"CONTRACT/v2-core-master/contracts/UniswapV2Pair.sol\":5780:5790  msg.sender */\n              caller\n              swap3\n                /* \"CONTRACT/v2-core-master/contracts/UniswapV2Pair.sol\":5775:5809  Mint(msg.sender, amount0, amount1) */\n              0x4c209b5fc8ad50758f13e2e1088ba56a560dff690a1c6fef26394f4c03821c4f\n              swap3\n              dup3\n              swap1\n              sub\n              add\n              swap1\n              log2\n              pop\n              pop\n                /* \"CONTRACT/v2-core-master/contracts/UniswapV2Pair.sol\":1305:1306  1 */\n              0x01\n                /* \"CONTRACT/v2-core-master/contracts/UniswapV2Pair.sol\":1294:1302  unlocked */\n              0x0c\n                /* \"CONTRACT/v2-core-master/contracts/UniswapV2Pair.sol\":1294:1306  unlocked = 1 */\n              sstore\n              pop\n                /* \"CONTRACT/v2-core-master/contracts/UniswapV2Pair.sol\":4577:5817  function mint(address to) external lock returns (uint liquidity) {\r... */\n              swap5\n              swap7\n              swap6\n              pop\n              pop\n              pop\n              pop\n              pop\n              pop\n              jump\t// out\n                /* \"CONTRACT/v2-core-master/contracts/UniswapV2ERC20.sol\":352:393  mapping(address => uint) public balanceOf */\n            tag_78:\n              mstore(0x20, 0x01)\n              0x00\n              swap1\n              dup2\n              mstore\n              0x40\n              swap1\n              keccak256\n              sload\n              dup2\n              jump\t// out\n                /* \"CONTRACT/v2-core-master/contracts/UniswapV2Pair.sol\":1040:1057  uint public kLast */\n            tag_80:\n              sload(0x0b)\n              dup2\n              jump\t// out\n                /* \"CONTRACT/v2-core-master/contracts/UniswapV2ERC20.sol\":728:766  mapping(address => uint) public nonces */\n            tag_83:\n              mstore(0x20, 0x04)\n              0x00\n              swap1\n              dup2\n              mstore\n              0x40\n              swap1\n              keccak256\n              sload\n              dup2\n              jump\t// out\n                /* \"CONTRACT/v2-core-master/contracts/UniswapV2Pair.sol\":5929:7395  function burn(address to) external lock returns (uint amount0, uint amount1) {\r... */\n            tag_86:\n                /* \"CONTRACT/v2-core-master/contracts/UniswapV2Pair.sol\":5978:5990  uint amount0 */\n              0x00\n                /* \"CONTRACT/v2-core-master/contracts/UniswapV2Pair.sol\":5992:6004  uint amount1 */\n              dup1\n                /* \"CONTRACT/v2-core-master/contracts/UniswapV2Pair.sol\":1213:1221  unlocked */\n              sload(0x0c)\n                /* \"CONTRACT/v2-core-master/contracts/UniswapV2Pair.sol\":1225:1226  1 */\n              0x01\n                /* \"CONTRACT/v2-core-master/contracts/UniswapV2Pair.sol\":1213:1226  unlocked == 1 */\n              eq\n                /* \"CONTRACT/v2-core-master/contracts/UniswapV2Pair.sol\":1205:1248  require(unlocked == 1, 'UniswapV2: LOCKED') */\n              tag_202\n              jumpi\n              0x40\n              dup1\n              mload\n              shl(0xe5, 0x461bcd)\n              dup2\n              mstore\n              0x20\n              0x04\n              dup3\n              add\n              mstore\n              0x11\n              0x24\n              dup3\n              add\n              mstore\n              shl(0x7a, 0x155b9a5cddd85c158c8e881313d0d2d151)\n              0x44\n              dup3\n              add\n              mstore\n              swap1\n              mload\n              swap1\n              dup2\n              swap1\n              sub\n              0x64\n              add\n              swap1\n              revert\n            tag_202:\n                /* \"CONTRACT/v2-core-master/contracts/UniswapV2Pair.sol\":1270:1271  0 */\n              0x00\n                /* \"CONTRACT/v2-core-master/contracts/UniswapV2Pair.sol\":1259:1267  unlocked */\n              0x0c\n                /* \"CONTRACT/v2-core-master/contracts/UniswapV2Pair.sol\":1259:1271  unlocked = 0 */\n              dup2\n              swap1\n              sstore\n                /* \"CONTRACT/v2-core-master/contracts/UniswapV2Pair.sol\":1270:1271  0 */\n              dup1\n                /* \"CONTRACT/v2-core-master/contracts/UniswapV2Pair.sol\":6059:6072  getReserves() */\n              tag_204\n                /* \"CONTRACT/v2-core-master/contracts/UniswapV2Pair.sol\":6059:6070  getReserves */\n              tag_49\n                /* \"CONTRACT/v2-core-master/contracts/UniswapV2Pair.sol\":6059:6072  getReserves() */\n              jump\t// in\n            tag_204:\n              pop\n                /* \"CONTRACT/v2-core-master/contracts/UniswapV2Pair.sol\":6116:6122  token0 */\n              sload(0x06)\n                /* \"CONTRACT/v2-core-master/contracts/UniswapV2Pair.sol\":6197:6203  token1 */\n              sload(0x07)\n                /* \"CONTRACT/v2-core-master/contracts/UniswapV2Pair.sol\":6276:6316  IERC20(_token0).balanceOf(address(this)) */\n              0x40\n              dup1\n              mload\n              shl(0xe0, 0x70a08231)\n              dup2\n              mstore\n                /* \"CONTRACT/v2-core-master/contracts/UniswapV2Pair.sol\":6310:6314  this */\n              address\n                /* \"CONTRACT/v2-core-master/contracts/UniswapV2Pair.sol\":6276:6316  IERC20(_token0).balanceOf(address(this)) */\n              0x04\n              dup3\n              add\n              mstore\n              swap1\n              mload\n                /* \"CONTRACT/v2-core-master/contracts/UniswapV2Pair.sol\":6017:6072  (uint112 _reserve0, uint112 _reserve1,) = getReserves() */\n              swap5\n              swap7\n              pop\n              swap3\n              swap5\n              pop\n              sub(shl(0xa0, 0x01), 0x01)\n                /* \"CONTRACT/v2-core-master/contracts/UniswapV2Pair.sol\":6116:6122  token0 */\n              swap2\n              dup3\n              and\n              swap4\n                /* \"CONTRACT/v2-core-master/contracts/UniswapV2Pair.sol\":6197:6203  token1 */\n              swap2\n              and\n              swap2\n              0x00\n              swap2\n                /* \"CONTRACT/v2-core-master/contracts/UniswapV2Pair.sol\":6116:6122  token0 */\n              dup5\n              swap2\n              0x70a08231\n              swap2\n                /* \"CONTRACT/v2-core-master/contracts/UniswapV2Pair.sol\":6276:6316  IERC20(_token0).balanceOf(address(this)) */\n              0x24\n              dup1\n              dup4\n              add\n              swap3\n              0x20\n              swap3\n              swap2\n              swap1\n              dup3\n              swap1\n              sub\n              add\n              dup2\n                /* \"CONTRACT/v2-core-master/contracts/UniswapV2Pair.sol\":6116:6122  token0 */\n              dup7\n                /* \"CONTRACT/v2-core-master/contracts/UniswapV2Pair.sol\":6276:6316  IERC20(_token0).balanceOf(address(this)) */\n              dup1\n              extcodesize\n              iszero\n                /* \"--CODEGEN--\":5:7   */\n              dup1\n              iszero\n              tag_205\n              jumpi\n                /* \"--CODEGEN--\":30:31   */\n              0x00\n                /* \"--CODEGEN--\":27:28   */\n              dup1\n                /* \"--CODEGEN--\":20:32   */\n              revert\n                /* \"--CODEGEN--\":5:7   */\n            tag_205:\n                /* \"CONTRACT/v2-core-master/contracts/UniswapV2Pair.sol\":6276:6316  IERC20(_token0).balanceOf(address(this)) */\n              pop\n              gas\n              staticcall\n              iszero\n                /* \"--CODEGEN--\":8:17   */\n              dup1\n                /* \"--CODEGEN--\":5:7   */\n              iszero\n              tag_206\n              jumpi\n                /* \"--CODEGEN--\":45:61   */\n              returndatasize\n                /* \"--CODEGEN--\":42:43   */\n              0x00\n                /* \"--CODEGEN--\":39:40   */\n              dup1\n                /* \"--CODEGEN--\":24:62   */\n              returndatacopy\n                /* \"--CODEGEN--\":77:93   */\n              returndatasize\n                /* \"--CODEGEN--\":74:75   */\n              0x00\n                /* \"--CODEGEN--\":67:94   */\n              revert\n                /* \"--CODEGEN--\":5:7   */\n            tag_206:\n                /* \"CONTRACT/v2-core-master/contracts/UniswapV2Pair.sol\":6276:6316  IERC20(_token0).balanceOf(address(this)) */\n              pop\n              pop\n              pop\n              pop\n              mload(0x40)\n              returndatasize\n                /* \"--CODEGEN--\":13:15   */\n              0x20\n                /* \"--CODEGEN--\":8:11   */\n              dup2\n                /* \"--CODEGEN--\":5:16   */\n              lt\n                /* \"--CODEGEN--\":2:4   */\n              iszero\n              tag_207\n              jumpi\n                /* \"--CODEGEN--\":29:30   */\n              0x00\n                /* \"--CODEGEN--\":26:27   */\n              dup1\n                /* \"--CODEGEN--\":19:31   */\n              revert\n                /* \"--CODEGEN--\":2:4   */\n            tag_207:\n              pop\n                /* \"CONTRACT/v2-core-master/contracts/UniswapV2Pair.sol\":6276:6316  IERC20(_token0).balanceOf(address(this)) */\n              mload\n                /* \"CONTRACT/v2-core-master/contracts/UniswapV2Pair.sol\":6343:6383  IERC20(_token1).balanceOf(address(this)) */\n              0x40\n              dup1\n              mload\n              shl(0xe0, 0x70a08231)\n              dup2\n              mstore\n                /* \"CONTRACT/v2-core-master/contracts/UniswapV2Pair.sol\":6377:6381  this */\n              address\n                /* \"CONTRACT/v2-core-master/contracts/UniswapV2Pair.sol\":6343:6383  IERC20(_token1).balanceOf(address(this)) */\n              0x04\n              dup3\n              add\n              mstore\n              swap1\n              mload\n                /* \"CONTRACT/v2-core-master/contracts/UniswapV2Pair.sol\":6276:6316  IERC20(_token0).balanceOf(address(this)) */\n              swap2\n              swap3\n              pop\n              0x00\n              swap2\n              sub(shl(0xa0, 0x01), 0x01)\n                /* \"CONTRACT/v2-core-master/contracts/UniswapV2Pair.sol\":6343:6368  IERC20(_token1).balanceOf */\n              dup6\n              and\n              swap2\n              0x70a08231\n              swap2\n                /* \"CONTRACT/v2-core-master/contracts/UniswapV2Pair.sol\":6343:6383  IERC20(_token1).balanceOf(address(this)) */\n              0x24\n              dup1\n              dup4\n              add\n              swap3\n                /* \"CONTRACT/v2-core-master/contracts/UniswapV2Pair.sol\":6276:6316  IERC20(_token0).balanceOf(address(this)) */\n              0x20\n              swap3\n                /* \"CONTRACT/v2-core-master/contracts/UniswapV2Pair.sol\":6343:6383  IERC20(_token1).balanceOf(address(this)) */\n              swap2\n              swap1\n              dup3\n              swap1\n              sub\n              add\n              dup2\n                /* \"CONTRACT/v2-core-master/contracts/UniswapV2Pair.sol\":6343:6368  IERC20(_token1).balanceOf */\n              dup7\n                /* \"CONTRACT/v2-core-master/contracts/UniswapV2Pair.sol\":6343:6383  IERC20(_token1).balanceOf(address(this)) */\n              dup1\n              extcodesize\n              iszero\n                /* \"--CODEGEN--\":5:7   */\n              dup1\n              iszero\n              tag_208\n              jumpi\n                /* \"--CODEGEN--\":30:31   */\n              0x00\n                /* \"--CODEGEN--\":27:28   */\n              dup1\n                /* \"--CODEGEN--\":20:32   */\n              revert\n                /* \"--CODEGEN--\":5:7   */\n            tag_208:\n                /* \"CONTRACT/v2-core-master/contracts/UniswapV2Pair.sol\":6343:6383  IERC20(_token1).balanceOf(address(this)) */\n              pop\n              gas\n              staticcall\n              iszero\n                /* \"--CODEGEN--\":8:17   */\n              dup1\n                /* \"--CODEGEN--\":5:7   */\n              iszero\n              tag_209\n              jumpi\n                /* \"--CODEGEN--\":45:61   */\n              returndatasize\n                /* \"--CODEGEN--\":42:43   */\n              0x00\n                /* \"--CODEGEN--\":39:40   */\n              dup1\n                /* \"--CODEGEN--\":24:62   */\n              returndatacopy\n                /* \"--CODEGEN--\":77:93   */\n              returndatasize\n                /* \"--CODEGEN--\":74:75   */\n              0x00\n                /* \"--CODEGEN--\":67:94   */\n              revert\n                /* \"--CODEGEN--\":5:7   */\n            tag_209:\n                /* \"CONTRACT/v2-core-master/contracts/UniswapV2Pair.sol\":6343:6383  IERC20(_token1).balanceOf(address(this)) */\n              pop\n              pop\n              pop\n              pop\n              mload(0x40)\n              returndatasize\n                /* \"--CODEGEN--\":13:15   */\n              0x20\n                /* \"--CODEGEN--\":8:11   */\n              dup2\n                /* \"--CODEGEN--\":5:16   */\n              lt\n                /* \"--CODEGEN--\":2:4   */\n              iszero\n              tag_210\n              jumpi\n                /* \"--CODEGEN--\":29:30   */\n              0x00\n                /* \"--CODEGEN--\":26:27   */\n              dup1\n                /* \"--CODEGEN--\":19:31   */\n              revert\n                /* \"--CODEGEN--\":2:4   */\n            tag_210:\n              pop\n                /* \"CONTRACT/v2-core-master/contracts/UniswapV2Pair.sol\":6343:6383  IERC20(_token1).balanceOf(address(this)) */\n              mload\n                /* \"CONTRACT/v2-core-master/contracts/UniswapV2Pair.sol\":6429:6433  this */\n              address\n                /* \"CONTRACT/v2-core-master/contracts/UniswapV2Pair.sol\":6394:6408  uint liquidity */\n              0x00\n                /* \"CONTRACT/v2-core-master/contracts/UniswapV2Pair.sol\":6411:6435  balanceOf[address(this)] */\n              swap1\n              dup2\n              mstore\n                /* \"CONTRACT/v2-core-master/contracts/UniswapV2Pair.sol\":6411:6420  balanceOf */\n              0x01\n                /* \"CONTRACT/v2-core-master/contracts/UniswapV2Pair.sol\":6343:6383  IERC20(_token1).balanceOf(address(this)) */\n              0x20\n                /* \"CONTRACT/v2-core-master/contracts/UniswapV2Pair.sol\":6411:6435  balanceOf[address(this)] */\n              mstore\n              0x40\n              dup2\n              keccak256\n              sload\n                /* \"CONTRACT/v2-core-master/contracts/UniswapV2Pair.sol\":6343:6383  IERC20(_token1).balanceOf(address(this)) */\n              swap2\n              swap3\n              pop\n                /* \"CONTRACT/v2-core-master/contracts/UniswapV2Pair.sol\":6461:6491  _mintFee(_reserve0, _reserve1) */\n              tag_211\n                /* \"CONTRACT/v2-core-master/contracts/UniswapV2Pair.sol\":6470:6479  _reserve0 */\n              dup9\n                /* \"CONTRACT/v2-core-master/contracts/UniswapV2Pair.sol\":6481:6490  _reserve1 */\n              dup9\n                /* \"CONTRACT/v2-core-master/contracts/UniswapV2Pair.sol\":6461:6469  _mintFee */\n              tag_181\n                /* \"CONTRACT/v2-core-master/contracts/UniswapV2Pair.sol\":6461:6491  _mintFee(_reserve0, _reserve1) */\n              jump\t// in\n            tag_211:\n                /* \"CONTRACT/v2-core-master/contracts/UniswapV2Pair.sol\":6502:6519  uint _totalSupply */\n              0x00\n                /* \"CONTRACT/v2-core-master/contracts/UniswapV2Pair.sol\":6522:6533  totalSupply */\n              sload\n                /* \"CONTRACT/v2-core-master/contracts/UniswapV2Pair.sol\":6448:6491  bool feeOn = _mintFee(_reserve0, _reserve1) */\n              swap1\n              swap2\n              pop\n                /* \"CONTRACT/v2-core-master/contracts/UniswapV2Pair.sol\":6522:6533  totalSupply */\n              dup1\n                /* \"CONTRACT/v2-core-master/contracts/UniswapV2Pair.sol\":6632:6655  liquidity.mul(balance0) */\n              tag_212\n                /* \"CONTRACT/v2-core-master/contracts/UniswapV2Pair.sol\":6632:6641  liquidity */\n              dup5\n                /* \"CONTRACT/v2-core-master/contracts/UniswapV2Pair.sol\":6646:6654  balance0 */\n              dup8\n                /* \"CONTRACT/v2-core-master/contracts/UniswapV2Pair.sol\":6632:6655  liquidity.mul(balance0) */\n              0xffffffff\n                /* \"CONTRACT/v2-core-master/contracts/UniswapV2Pair.sol\":6632:6645  liquidity.mul */\n              tag_145\n                /* \"CONTRACT/v2-core-master/contracts/UniswapV2Pair.sol\":6632:6655  liquidity.mul(balance0) */\n              and\n              jump\t// in\n            tag_212:\n                /* \"CONTRACT/v2-core-master/contracts/UniswapV2Pair.sol\":6632:6670  liquidity.mul(balance0) / _totalSupply */\n              dup2\n              tag_213\n              jumpi\n              invalid\n            tag_213:\n              div\n              swap11\n              pop\n                /* \"CONTRACT/v2-core-master/contracts/UniswapV2Pair.sol\":6765:6777  _totalSupply */\n              dup1\n                /* \"CONTRACT/v2-core-master/contracts/UniswapV2Pair.sol\":6739:6762  liquidity.mul(balance1) */\n              tag_214\n                /* \"CONTRACT/v2-core-master/contracts/UniswapV2Pair.sol\":6739:6748  liquidity */\n              dup5\n                /* \"CONTRACT/v2-core-master/contracts/UniswapV2Pair.sol\":6753:6761  balance1 */\n              dup7\n                /* \"CONTRACT/v2-core-master/contracts/UniswapV2Pair.sol\":6739:6762  liquidity.mul(balance1) */\n              0xffffffff\n                /* \"CONTRACT/v2-core-master/contracts/UniswapV2Pair.sol\":6739:6752  liquidity.mul */\n              tag_145\n                /* \"CONTRACT/v2-core-master/contracts/UniswapV2Pair.sol\":6739:6762  liquidity.mul(balance1) */\n              and\n              jump\t// in\n            tag_214:\n                /* \"CONTRACT/v2-core-master/contracts/UniswapV2Pair.sol\":6739:6777  liquidity.mul(balance1) / _totalSupply */\n              dup2\n              tag_215\n              jumpi\n              invalid\n            tag_215:\n              div\n                /* \"CONTRACT/v2-core-master/contracts/UniswapV2Pair.sol\":6729:6777  amount1 = liquidity.mul(balance1) / _totalSupply */\n              swap10\n              pop\n                /* \"CONTRACT/v2-core-master/contracts/UniswapV2Pair.sol\":6854:6855  0 */\n              0x00\n                /* \"CONTRACT/v2-core-master/contracts/UniswapV2Pair.sol\":6844:6851  amount0 */\n              dup12\n                /* \"CONTRACT/v2-core-master/contracts/UniswapV2Pair.sol\":6844:6855  amount0 > 0 */\n              gt\n                /* \"CONTRACT/v2-core-master/contracts/UniswapV2Pair.sol\":6844:6870  amount0 > 0 && amount1 > 0 */\n              dup1\n              iszero\n              tag_216\n              jumpi\n              pop\n                /* \"CONTRACT/v2-core-master/contracts/UniswapV2Pair.sol\":6869:6870  0 */\n              0x00\n                /* \"CONTRACT/v2-core-master/contracts/UniswapV2Pair.sol\":6859:6866  amount1 */\n              dup11\n                /* \"CONTRACT/v2-core-master/contracts/UniswapV2Pair.sol\":6859:6870  amount1 > 0 */\n              gt\n                /* \"CONTRACT/v2-core-master/contracts/UniswapV2Pair.sol\":6844:6870  amount0 > 0 && amount1 > 0 */\n            tag_216:\n                /* \"CONTRACT/v2-core-master/contracts/UniswapV2Pair.sol\":6836:6915  require(amount0 > 0 && amount1 > 0, 'UniswapV2: INSUFFICIENT_LIQUIDITY_BURNED') */\n              tag_217\n              jumpi\n              mload(0x40)\n              shl(0xe5, 0x461bcd)\n              dup2\n              mstore\n              0x04\n              add\n              dup1\n              dup1\n              0x20\n              add\n              dup3\n              dup2\n              sub\n              dup3\n              mstore\n              0x28\n              dup2\n              mstore\n              0x20\n              add\n              dup1\n              data_57ebfb4dd8b5082cdba0f23c17077e3b0ecb9782a51e0e9a15e9bc8c4b30c562\n              0x28\n              swap2\n              codecopy\n              0x40\n              add\n              swap2\n              pop\n              pop\n              mload(0x40)\n              dup1\n              swap2\n              sub\n              swap1\n              revert\n            tag_217:\n                /* \"CONTRACT/v2-core-master/contracts/UniswapV2Pair.sol\":6926:6957  _burn(address(this), liquidity) */\n              tag_218\n                /* \"CONTRACT/v2-core-master/contracts/UniswapV2Pair.sol\":6940:6944  this */\n              address\n                /* \"CONTRACT/v2-core-master/contracts/UniswapV2Pair.sol\":6947:6956  liquidity */\n              dup5\n                /* \"CONTRACT/v2-core-master/contracts/UniswapV2Pair.sol\":6926:6931  _burn */\n              tag_219\n                /* \"CONTRACT/v2-core-master/contracts/UniswapV2Pair.sol\":6926:6957  _burn(address(this), liquidity) */\n              jump\t// in\n            tag_218:\n                /* \"CONTRACT/v2-core-master/contracts/UniswapV2Pair.sol\":6968:7003  _safeTransfer(_token0, to, amount0) */\n              tag_220\n                /* \"CONTRACT/v2-core-master/contracts/UniswapV2Pair.sol\":6982:6989  _token0 */\n              dup8\n                /* \"CONTRACT/v2-core-master/contracts/UniswapV2Pair.sol\":6991:6993  to */\n              dup14\n                /* \"CONTRACT/v2-core-master/contracts/UniswapV2Pair.sol\":6995:7002  amount0 */\n              dup14\n                /* \"CONTRACT/v2-core-master/contracts/UniswapV2Pair.sol\":6968:6981  _safeTransfer */\n              tag_125\n                /* \"CONTRACT/v2-core-master/contracts/UniswapV2Pair.sol\":6968:7003  _safeTransfer(_token0, to, amount0) */\n              jump\t// in\n            tag_220:\n                /* \"CONTRACT/v2-core-master/contracts/UniswapV2Pair.sol\":7014:7049  _safeTransfer(_token1, to, amount1) */\n              tag_221\n                /* \"CONTRACT/v2-core-master/contracts/UniswapV2Pair.sol\":7028:7035  _token1 */\n              dup7\n                /* \"CONTRACT/v2-core-master/contracts/UniswapV2Pair.sol\":7037:7039  to */\n              dup14\n                /* \"CONTRACT/v2-core-master/contracts/UniswapV2Pair.sol\":7041:7048  amount1 */\n              dup13\n                /* \"CONTRACT/v2-core-master/contracts/UniswapV2Pair.sol\":7014:7027  _safeTransfer */\n              tag_125\n                /* \"CONTRACT/v2-core-master/contracts/UniswapV2Pair.sol\":7014:7049  _safeTransfer(_token1, to, amount1) */\n              jump\t// in\n            tag_221:\n                /* \"CONTRACT/v2-core-master/contracts/UniswapV2Pair.sol\":7071:7111  IERC20(_token0).balanceOf(address(this)) */\n              0x40\n              dup1\n              mload\n              shl(0xe0, 0x70a08231)\n              dup2\n              mstore\n                /* \"CONTRACT/v2-core-master/contracts/UniswapV2Pair.sol\":7105:7109  this */\n              address\n                /* \"CONTRACT/v2-core-master/contracts/UniswapV2Pair.sol\":7071:7111  IERC20(_token0).balanceOf(address(this)) */\n              0x04\n              dup3\n              add\n              mstore\n              swap1\n              mload\n              sub(shl(0xa0, 0x01), 0x01)\n                /* \"CONTRACT/v2-core-master/contracts/UniswapV2Pair.sol\":7071:7096  IERC20(_token0).balanceOf */\n              dup10\n              and\n              swap2\n              0x70a08231\n              swap2\n                /* \"CONTRACT/v2-core-master/contracts/UniswapV2Pair.sol\":7071:7111  IERC20(_token0).balanceOf(address(this)) */\n              0x24\n              dup1\n              dup4\n              add\n              swap3\n              0x20\n              swap3\n              swap2\n              swap1\n              dup3\n              swap1\n              sub\n              add\n              dup2\n                /* \"CONTRACT/v2-core-master/contracts/UniswapV2Pair.sol\":7071:7096  IERC20(_token0).balanceOf */\n              dup7\n                /* \"CONTRACT/v2-core-master/contracts/UniswapV2Pair.sol\":7071:7111  IERC20(_token0).balanceOf(address(this)) */\n              dup1\n              extcodesize\n              iszero\n                /* \"--CODEGEN--\":5:7   */\n              dup1\n              iszero\n              tag_222\n              jumpi\n                /* \"--CODEGEN--\":30:31   */\n              0x00\n                /* \"--CODEGEN--\":27:28   */\n              dup1\n                /* \"--CODEGEN--\":20:32   */\n              revert\n                /* \"--CODEGEN--\":5:7   */\n            tag_222:\n                /* \"CONTRACT/v2-core-master/contracts/UniswapV2Pair.sol\":7071:7111  IERC20(_token0).balanceOf(address(this)) */\n              pop\n              gas\n              staticcall\n              iszero\n                /* \"--CODEGEN--\":8:17   */\n              dup1\n                /* \"--CODEGEN--\":5:7   */\n              iszero\n              tag_223\n              jumpi\n                /* \"--CODEGEN--\":45:61   */\n              returndatasize\n                /* \"--CODEGEN--\":42:43   */\n              0x00\n                /* \"--CODEGEN--\":39:40   */\n              dup1\n                /* \"--CODEGEN--\":24:62   */\n              returndatacopy\n                /* \"--CODEGEN--\":77:93   */\n              returndatasize\n                /* \"--CODEGEN--\":74:75   */\n              0x00\n                /* \"--CODEGEN--\":67:94   */\n              revert\n                /* \"--CODEGEN--\":5:7   */\n            tag_223:\n                /* \"CONTRACT/v2-core-master/contracts/UniswapV2Pair.sol\":7071:7111  IERC20(_token0).balanceOf(address(this)) */\n              pop\n              pop\n              pop\n              pop\n              mload(0x40)\n              returndatasize\n                /* \"--CODEGEN--\":13:15   */\n              0x20\n                /* \"--CODEGEN--\":8:11   */\n              dup2\n                /* \"--CODEGEN--\":5:16   */\n              lt\n                /* \"--CODEGEN--\":2:4   */\n              iszero\n              tag_224\n              jumpi\n                /* \"--CODEGEN--\":29:30   */\n              0x00\n                /* \"--CODEGEN--\":26:27   */\n              dup1\n                /* \"--CODEGEN--\":19:31   */\n              revert\n                /* \"--CODEGEN--\":2:4   */\n            tag_224:\n              pop\n                /* \"CONTRACT/v2-core-master/contracts/UniswapV2Pair.sol\":7071:7111  IERC20(_token0).balanceOf(address(this)) */\n              mload\n                /* \"CONTRACT/v2-core-master/contracts/UniswapV2Pair.sol\":7133:7173  IERC20(_token1).balanceOf(address(this)) */\n              0x40\n              dup1\n              mload\n              shl(0xe0, 0x70a08231)\n              dup2\n              mstore\n                /* \"CONTRACT/v2-core-master/contracts/UniswapV2Pair.sol\":7167:7171  this */\n              address\n                /* \"CONTRACT/v2-core-master/contracts/UniswapV2Pair.sol\":7133:7173  IERC20(_token1).balanceOf(address(this)) */\n              0x04\n              dup3\n              add\n              mstore\n              swap1\n              mload\n                /* \"CONTRACT/v2-core-master/contracts/UniswapV2Pair.sol\":7071:7111  IERC20(_token0).balanceOf(address(this)) */\n              swap2\n              swap7\n              pop\n              sub(shl(0xa0, 0x01), 0x01)\n                /* \"CONTRACT/v2-core-master/contracts/UniswapV2Pair.sol\":7133:7158  IERC20(_token1).balanceOf */\n              dup9\n              and\n              swap2\n              0x70a08231\n              swap2\n                /* \"CONTRACT/v2-core-master/contracts/UniswapV2Pair.sol\":7133:7173  IERC20(_token1).balanceOf(address(this)) */\n              0x24\n              dup1\n              dup3\n              add\n              swap3\n                /* \"CONTRACT/v2-core-master/contracts/UniswapV2Pair.sol\":7071:7111  IERC20(_token0).balanceOf(address(this)) */\n              0x20\n              swap3\n                /* \"CONTRACT/v2-core-master/contracts/UniswapV2Pair.sol\":7133:7173  IERC20(_token1).balanceOf(address(this)) */\n              swap1\n              swap2\n              swap1\n              dup3\n              swap1\n              sub\n              add\n              dup2\n                /* \"CONTRACT/v2-core-master/contracts/UniswapV2Pair.sol\":7133:7158  IERC20(_token1).balanceOf */\n              dup7\n                /* \"CONTRACT/v2-core-master/contracts/UniswapV2Pair.sol\":7133:7173  IERC20(_token1).balanceOf(address(this)) */\n              dup1\n              extcodesize\n              iszero\n                /* \"--CODEGEN--\":5:7   */\n              dup1\n              iszero\n              tag_225\n              jumpi\n                /* \"--CODEGEN--\":30:31   */\n              0x00\n                /* \"--CODEGEN--\":27:28   */\n              dup1\n                /* \"--CODEGEN--\":20:32   */\n              revert\n                /* \"--CODEGEN--\":5:7   */\n            tag_225:\n                /* \"CONTRACT/v2-core-master/contracts/UniswapV2Pair.sol\":7133:7173  IERC20(_token1).balanceOf(address(this)) */\n              pop\n              gas\n              staticcall\n              iszero\n                /* \"--CODEGEN--\":8:17   */\n              dup1\n                /* \"--CODEGEN--\":5:7   */\n              iszero\n              tag_226\n              jumpi\n                /* \"--CODEGEN--\":45:61   */\n              returndatasize\n                /* \"--CODEGEN--\":42:43   */\n              0x00\n                /* \"--CODEGEN--\":39:40   */\n              dup1\n                /* \"--CODEGEN--\":24:62   */\n              returndatacopy\n                /* \"--CODEGEN--\":77:93   */\n              returndatasize\n                /* \"--CODEGEN--\":74:75   */\n              0x00\n                /* \"--CODEGEN--\":67:94   */\n              revert\n                /* \"--CODEGEN--\":5:7   */\n            tag_226:\n                /* \"CONTRACT/v2-core-master/contracts/UniswapV2Pair.sol\":7133:7173  IERC20(_token1).balanceOf(address(this)) */\n              pop\n              pop\n              pop\n              pop\n              mload(0x40)\n              returndatasize\n                /* \"--CODEGEN--\":13:15   */\n              0x20\n                /* \"--CODEGEN--\":8:11   */\n              dup2\n                /* \"--CODEGEN--\":5:16   */\n              lt\n                /* \"--CODEGEN--\":2:4   */\n              iszero\n              tag_227\n              jumpi\n                /* \"--CODEGEN--\":29:30   */\n              0x00\n                /* \"--CODEGEN--\":26:27   */\n              dup1\n                /* \"--CODEGEN--\":19:31   */\n              revert\n                /* \"--CODEGEN--\":2:4   */\n            tag_227:\n              pop\n                /* \"CONTRACT/v2-core-master/contracts/UniswapV2Pair.sol\":7133:7173  IERC20(_token1).balanceOf(address(this)) */\n              mload\n              swap4\n              pop\n                /* \"CONTRACT/v2-core-master/contracts/UniswapV2Pair.sol\":7186:7235  _update(balance0, balance1, _reserve0, _reserve1) */\n              tag_228\n                /* \"CONTRACT/v2-core-master/contracts/UniswapV2Pair.sol\":7194:7202  balance0 */\n              dup6\n                /* \"CONTRACT/v2-core-master/contracts/UniswapV2Pair.sol\":7133:7173  IERC20(_token1).balanceOf(address(this)) */\n              dup6\n                /* \"CONTRACT/v2-core-master/contracts/UniswapV2Pair.sol\":7214:7223  _reserve0 */\n              dup12\n                /* \"CONTRACT/v2-core-master/contracts/UniswapV2Pair.sol\":7225:7234  _reserve1 */\n              dup12\n                /* \"CONTRACT/v2-core-master/contracts/UniswapV2Pair.sol\":7186:7193  _update */\n              tag_156\n                /* \"CONTRACT/v2-core-master/contracts/UniswapV2Pair.sol\":7186:7235  _update(balance0, balance1, _reserve0, _reserve1) */\n              jump\t// in\n            tag_228:\n                /* \"CONTRACT/v2-core-master/contracts/UniswapV2Pair.sol\":7250:7255  feeOn */\n              dup2\n                /* \"CONTRACT/v2-core-master/contracts/UniswapV2Pair.sol\":7246:7293  if (feeOn) kLast = uint(reserve0).mul(reserve1) */\n              iszero\n              tag_229\n              jumpi\n                /* \"CONTRACT/v2-core-master/contracts/UniswapV2Pair.sol\":7284:7292  reserve1 */\n              sload(0x08)\n                /* \"CONTRACT/v2-core-master/contracts/UniswapV2Pair.sol\":7265:7293  uint(reserve0).mul(reserve1) */\n              tag_230\n              swap1\n              sub(shl(0x70, 0x01), 0x01)\n                /* \"CONTRACT/v2-core-master/contracts/UniswapV2Pair.sol\":7270:7278  reserve0 */\n              dup1\n              dup3\n              and\n              swap2\n              shl(0x70, 0x01)\n                /* \"CONTRACT/v2-core-master/contracts/UniswapV2Pair.sol\":7284:7292  reserve1 */\n              swap1\n              div\n              and\n                /* \"CONTRACT/v2-core-master/contracts/UniswapV2Pair.sol\":7265:7283  uint(reserve0).mul */\n              tag_145\n                /* \"CONTRACT/v2-core-master/contracts/UniswapV2Pair.sol\":7265:7293  uint(reserve0).mul(reserve1) */\n              jump\t// in\n            tag_230:\n                /* \"CONTRACT/v2-core-master/contracts/UniswapV2Pair.sol\":7257:7262  kLast */\n              0x0b\n                /* \"CONTRACT/v2-core-master/contracts/UniswapV2Pair.sol\":7257:7293  kLast = uint(reserve0).mul(reserve1) */\n              sstore\n                /* \"CONTRACT/v2-core-master/contracts/UniswapV2Pair.sol\":7246:7293  if (feeOn) kLast = uint(reserve0).mul(reserve1) */\n            tag_229:\n                /* \"CONTRACT/v2-core-master/contracts/UniswapV2Pair.sol\":7349:7387  Burn(msg.sender, amount0, amount1, to) */\n              0x40\n              dup1\n              mload\n              dup13\n              dup2\n              mstore\n              0x20\n              dup2\n              add\n              dup13\n              swap1\n              mstore\n              dup2\n              mload\n              sub(shl(0xa0, 0x01), 0x01)\n              dup16\n              and\n              swap3\n                /* \"CONTRACT/v2-core-master/contracts/UniswapV2Pair.sol\":7354:7364  msg.sender */\n              caller\n              swap3\n                /* \"CONTRACT/v2-core-master/contracts/UniswapV2Pair.sol\":7349:7387  Burn(msg.sender, amount0, amount1, to) */\n              0xdccd412f0b1252819cb1fd330b93224ca42612892bb3f4f789976e6d81936496\n              swap3\n              swap1\n              dup2\n              swap1\n              sub\n              swap1\n              swap2\n              add\n              swap1\n              log3\n                /* \"CONTRACT/v2-core-master/contracts/UniswapV2Pair.sol\":1282:1283  _ */\n              pop\n              pop\n              pop\n              pop\n              pop\n              pop\n              pop\n              pop\n              pop\n                /* \"CONTRACT/v2-core-master/contracts/UniswapV2Pair.sol\":1305:1306  1 */\n              0x01\n                /* \"CONTRACT/v2-core-master/contracts/UniswapV2Pair.sol\":1294:1302  unlocked */\n              0x0c\n                /* \"CONTRACT/v2-core-master/contracts/UniswapV2Pair.sol\":1294:1306  unlocked = 1 */\n              dup2\n              swap1\n              sstore\n              pop\n                /* \"CONTRACT/v2-core-master/contracts/UniswapV2Pair.sol\":5929:7395  function burn(address to) external lock returns (uint amount0, uint amount1) {\r... */\n              swap2\n              pop\n              swap2\n              jump\t// out\n                /* \"CONTRACT/v2-core-master/contracts/UniswapV2ERC20.sol\":2385:2524  function transfer(address to, uint value) external returns (bool) {\r... */\n            tag_95:\n                /* \"CONTRACT/v2-core-master/contracts/UniswapV2ERC20.sol\":2445:2449  bool */\n              0x00\n                /* \"CONTRACT/v2-core-master/contracts/UniswapV2ERC20.sol\":2462:2494  _transfer(msg.sender, to, value) */\n              tag_159\n                /* \"CONTRACT/v2-core-master/contracts/UniswapV2ERC20.sol\":2472:2482  msg.sender */\n              caller\n                /* \"CONTRACT/v2-core-master/contracts/UniswapV2ERC20.sol\":2484:2486  to */\n              dup5\n                /* \"CONTRACT/v2-core-master/contracts/UniswapV2ERC20.sol\":2488:2493  value */\n              dup5\n                /* \"CONTRACT/v2-core-master/contracts/UniswapV2ERC20.sol\":2462:2471  _transfer */\n              tag_165\n                /* \"CONTRACT/v2-core-master/contracts/UniswapV2ERC20.sol\":2462:2494  _transfer(msg.sender, to, value) */\n              jump\t// in\n                /* \"CONTRACT/v2-core-master/contracts/UniswapV2Pair.sol\":432:478  uint public constant MINIMUM_LIQUIDITY = 10**3 */\n            tag_97:\n                /* \"CONTRACT/v2-core-master/contracts/UniswapV2Pair.sol\":473:478  10**3 */\n              0x03e8\n                /* \"CONTRACT/v2-core-master/contracts/UniswapV2Pair.sol\":432:478  uint public constant MINIMUM_LIQUIDITY = 10**3 */\n              dup2\n              jump\t// out\n                /* \"CONTRACT/v2-core-master/contracts/UniswapV2Pair.sol\":9445:9779  function skim(address to) external lock {\r... */\n            tag_100:\n                /* \"CONTRACT/v2-core-master/contracts/UniswapV2Pair.sol\":1213:1221  unlocked */\n              sload(0x0c)\n                /* \"CONTRACT/v2-core-master/contracts/UniswapV2Pair.sol\":1225:1226  1 */\n              0x01\n                /* \"CONTRACT/v2-core-master/contracts/UniswapV2Pair.sol\":1213:1226  unlocked == 1 */\n              eq\n                /* \"CONTRACT/v2-core-master/contracts/UniswapV2Pair.sol\":1205:1248  require(unlocked == 1, 'UniswapV2: LOCKED') */\n              tag_234\n              jumpi\n              0x40\n              dup1\n              mload\n              shl(0xe5, 0x461bcd)\n              dup2\n              mstore\n              0x20\n              0x04\n              dup3\n              add\n              mstore\n              0x11\n              0x24\n              dup3\n              add\n              mstore\n              shl(0x7a, 0x155b9a5cddd85c158c8e881313d0d2d151)\n              0x44\n              dup3\n              add\n              mstore\n              swap1\n              mload\n              swap1\n              dup2\n              swap1\n              sub\n              0x64\n              add\n              swap1\n              revert\n            tag_234:\n                /* \"CONTRACT/v2-core-master/contracts/UniswapV2Pair.sol\":1270:1271  0 */\n              0x00\n                /* \"CONTRACT/v2-core-master/contracts/UniswapV2Pair.sol\":1259:1267  unlocked */\n              0x0c\n                /* \"CONTRACT/v2-core-master/contracts/UniswapV2Pair.sol\":1259:1271  unlocked = 0 */\n              sstore\n                /* \"CONTRACT/v2-core-master/contracts/UniswapV2Pair.sol\":9514:9520  token0 */\n              sload(0x06)\n                /* \"CONTRACT/v2-core-master/contracts/UniswapV2Pair.sol\":9564:9570  token1 */\n              sload(0x07)\n                /* \"CONTRACT/v2-core-master/contracts/UniswapV2Pair.sol\":9668:9676  reserve0 */\n              sload(0x08)\n                /* \"CONTRACT/v2-core-master/contracts/UniswapV2Pair.sol\":9623:9663  IERC20(_token0).balanceOf(address(this)) */\n              0x40\n              dup1\n              mload\n              shl(0xe0, 0x70a08231)\n              dup2\n              mstore\n                /* \"CONTRACT/v2-core-master/contracts/UniswapV2Pair.sol\":9657:9661  this */\n              address\n                /* \"CONTRACT/v2-core-master/contracts/UniswapV2Pair.sol\":9623:9663  IERC20(_token0).balanceOf(address(this)) */\n              0x04\n              dup3\n              add\n              mstore\n              swap1\n              mload\n              sub(shl(0xa0, 0x01), 0x01)\n                /* \"CONTRACT/v2-core-master/contracts/UniswapV2Pair.sol\":9514:9520  token0 */\n              swap5\n              dup6\n              and\n              swap5\n                /* \"CONTRACT/v2-core-master/contracts/UniswapV2Pair.sol\":9564:9570  token1 */\n              swap1\n              swap4\n              and\n              swap3\n                /* \"CONTRACT/v2-core-master/contracts/UniswapV2Pair.sol\":9596:9678  _safeTransfer(_token0, to, IERC20(_token0).balanceOf(address(this)).sub(reserve0)) */\n              tag_236\n              swap3\n                /* \"CONTRACT/v2-core-master/contracts/UniswapV2Pair.sol\":9514:9520  token0 */\n              dup6\n              swap3\n                /* \"CONTRACT/v2-core-master/contracts/UniswapV2Pair.sol\":9619:9621  to */\n              dup8\n              swap3\n                /* \"CONTRACT/v2-core-master/contracts/UniswapV2Pair.sol\":9623:9677  IERC20(_token0).balanceOf(address(this)).sub(reserve0) */\n              tag_237\n              swap3\n              sub(shl(0x70, 0x01), 0x01)\n                /* \"CONTRACT/v2-core-master/contracts/UniswapV2Pair.sol\":9668:9676  reserve0 */\n              and\n              swap2\n                /* \"CONTRACT/v2-core-master/contracts/UniswapV2Pair.sol\":9514:9520  token0 */\n              dup6\n              swap2\n              0x70a08231\n              swap2\n                /* \"CONTRACT/v2-core-master/contracts/UniswapV2Pair.sol\":9623:9663  IERC20(_token0).balanceOf(address(this)) */\n              0x24\n              dup1\n              dup3\n              add\n              swap3\n              0x20\n              swap3\n              swap1\n              swap2\n              swap1\n              dup3\n              swap1\n              sub\n              add\n              dup2\n                /* \"CONTRACT/v2-core-master/contracts/UniswapV2Pair.sol\":9514:9520  token0 */\n              dup7\n                /* \"CONTRACT/v2-core-master/contracts/UniswapV2Pair.sol\":9623:9663  IERC20(_token0).balanceOf(address(this)) */\n              dup1\n              extcodesize\n              iszero\n                /* \"--CODEGEN--\":5:7   */\n              dup1\n              iszero\n              tag_238\n              jumpi\n                /* \"--CODEGEN--\":30:31   */\n              0x00\n                /* \"--CODEGEN--\":27:28   */\n              dup1\n                /* \"--CODEGEN--\":20:32   */\n              revert\n                /* \"--CODEGEN--\":5:7   */\n            tag_238:\n                /* \"CONTRACT/v2-core-master/contracts/UniswapV2Pair.sol\":9623:9663  IERC20(_token0).balanceOf(address(this)) */\n              pop\n              gas\n              staticcall\n              iszero\n                /* \"--CODEGEN--\":8:17   */\n              dup1\n                /* \"--CODEGEN--\":5:7   */\n              iszero\n              tag_239\n              jumpi\n                /* \"--CODEGEN--\":45:61   */\n              returndatasize\n                /* \"--CODEGEN--\":42:43   */\n              0x00\n                /* \"--CODEGEN--\":39:40   */\n              dup1\n                /* \"--CODEGEN--\":24:62   */\n              returndatacopy\n                /* \"--CODEGEN--\":77:93   */\n              returndatasize\n                /* \"--CODEGEN--\":74:75   */\n              0x00\n                /* \"--CODEGEN--\":67:94   */\n              revert\n                /* \"--CODEGEN--\":5:7   */\n            tag_239:\n                /* \"CONTRACT/v2-core-master/contracts/UniswapV2Pair.sol\":9623:9663  IERC20(_token0).balanceOf(address(this)) */\n              pop\n              pop\n              pop\n              pop\n              mload(0x40)\n              returndatasize\n                /* \"--CODEGEN--\":13:15   */\n              0x20\n                /* \"--CODEGEN--\":8:11   */\n              dup2\n                /* \"--CODEGEN--\":5:16   */\n              lt\n                /* \"--CODEGEN--\":2:4   */\n              iszero\n              tag_240\n              jumpi\n                /* \"--CODEGEN--\":29:30   */\n              0x00\n                /* \"--CODEGEN--\":26:27   */\n              dup1\n                /* \"--CODEGEN--\":19:31   */\n              revert\n                /* \"--CODEGEN--\":2:4   */\n            tag_240:\n              pop\n                /* \"CONTRACT/v2-core-master/contracts/UniswapV2Pair.sol\":9623:9663  IERC20(_token0).balanceOf(address(this)) */\n              mload\n              swap1\n                /* \"CONTRACT/v2-core-master/contracts/UniswapV2Pair.sol\":9623:9677  IERC20(_token0).balanceOf(address(this)).sub(reserve0) */\n              0xffffffff\n                /* \"CONTRACT/v2-core-master/contracts/UniswapV2Pair.sol\":9623:9667  IERC20(_token0).balanceOf(address(this)).sub */\n              tag_147\n                /* \"CONTRACT/v2-core-master/contracts/UniswapV2Pair.sol\":9623:9677  IERC20(_token0).balanceOf(address(this)).sub(reserve0) */\n              and\n              jump\t// in\n            tag_237:\n                /* \"CONTRACT/v2-core-master/contracts/UniswapV2Pair.sol\":9596:9609  _safeTransfer */\n              tag_125\n                /* \"CONTRACT/v2-core-master/contracts/UniswapV2Pair.sol\":9596:9678  _safeTransfer(_token0, to, IERC20(_token0).balanceOf(address(this)).sub(reserve0)) */\n              jump\t// in\n            tag_236:\n                /* \"CONTRACT/v2-core-master/contracts/UniswapV2Pair.sol\":9761:9769  reserve1 */\n              sload(0x08)\n                /* \"CONTRACT/v2-core-master/contracts/UniswapV2Pair.sol\":9716:9756  IERC20(_token1).balanceOf(address(this)) */\n              0x40\n              dup1\n              mload\n              shl(0xe0, 0x70a08231)\n              dup2\n              mstore\n                /* \"CONTRACT/v2-core-master/contracts/UniswapV2Pair.sol\":9750:9754  this */\n              address\n                /* \"CONTRACT/v2-core-master/contracts/UniswapV2Pair.sol\":9716:9756  IERC20(_token1).balanceOf(address(this)) */\n              0x04\n              dup3\n              add\n              mstore\n              swap1\n              mload\n                /* \"CONTRACT/v2-core-master/contracts/UniswapV2Pair.sol\":9689:9771  _safeTransfer(_token1, to, IERC20(_token1).balanceOf(address(this)).sub(reserve1)) */\n              tag_241\n              swap3\n                /* \"CONTRACT/v2-core-master/contracts/UniswapV2Pair.sol\":9703:9710  _token1 */\n              dup5\n              swap3\n                /* \"CONTRACT/v2-core-master/contracts/UniswapV2Pair.sol\":9712:9714  to */\n              dup8\n              swap3\n                /* \"CONTRACT/v2-core-master/contracts/UniswapV2Pair.sol\":9716:9770  IERC20(_token1).balanceOf(address(this)).sub(reserve1) */\n              tag_237\n              swap3\n              shl(0x70, 0x01)\n                /* \"CONTRACT/v2-core-master/contracts/UniswapV2Pair.sol\":9761:9769  reserve1 */\n              swap1\n              div\n              sub(shl(0x70, 0x01), 0x01)\n              and\n              swap2\n              sub(shl(0xa0, 0x01), 0x01)\n                /* \"CONTRACT/v2-core-master/contracts/UniswapV2Pair.sol\":9716:9741  IERC20(_token1).balanceOf */\n              dup7\n              and\n              swap2\n              0x70a08231\n              swap2\n                /* \"CONTRACT/v2-core-master/contracts/UniswapV2Pair.sol\":9716:9756  IERC20(_token1).balanceOf(address(this)) */\n              0x24\n              dup1\n              dup3\n              add\n              swap3\n              0x20\n              swap3\n              swap1\n              swap2\n              swap1\n              dup3\n              swap1\n              sub\n              add\n              dup2\n                /* \"CONTRACT/v2-core-master/contracts/UniswapV2Pair.sol\":9716:9741  IERC20(_token1).balanceOf */\n              dup7\n                /* \"CONTRACT/v2-core-master/contracts/UniswapV2Pair.sol\":9716:9756  IERC20(_token1).balanceOf(address(this)) */\n              dup1\n              extcodesize\n              iszero\n                /* \"--CODEGEN--\":5:7   */\n              dup1\n              iszero\n              tag_238\n              jumpi\n                /* \"--CODEGEN--\":30:31   */\n              0x00\n                /* \"--CODEGEN--\":27:28   */\n              dup1\n                /* \"--CODEGEN--\":20:32   */\n              revert\n                /* \"CONTRACT/v2-core-master/contracts/UniswapV2Pair.sol\":9689:9771  _safeTransfer(_token1, to, IERC20(_token1).balanceOf(address(this)).sub(reserve1)) */\n            tag_241:\n              pop\n              pop\n                /* \"CONTRACT/v2-core-master/contracts/UniswapV2Pair.sol\":1305:1306  1 */\n              0x01\n                /* \"CONTRACT/v2-core-master/contracts/UniswapV2Pair.sol\":1294:1302  unlocked */\n              0x0c\n                /* \"CONTRACT/v2-core-master/contracts/UniswapV2Pair.sol\":1294:1306  unlocked = 1 */\n              sstore\n              pop\n                /* \"CONTRACT/v2-core-master/contracts/UniswapV2Pair.sol\":9445:9779  function skim(address to) external lock {\r... */\n              jump\t// out\n                /* \"CONTRACT/v2-core-master/contracts/UniswapV2Pair.sol\":582:604  address public factory */\n            tag_102:\n              and(sub(shl(0xa0, 0x01), 0x01), sload(0x05))\n              dup2\n              jump\t// out\n                /* \"CONTRACT/v2-core-master/contracts/UniswapV2Pair.sol\":639:660  address public token1 */\n            tag_104:\n              and(sub(shl(0xa0, 0x01), 0x01), sload(0x07))\n              dup2\n              jump\t// out\n                /* \"CONTRACT/v2-core-master/contracts/UniswapV2ERC20.sol\":2841:3515  function permit(address owner, address spender, uint value, uint deadline, uint8 v, bytes32 r, bytes32 s) external {\r... */\n            tag_107:\n                /* \"CONTRACT/v2-core-master/contracts/UniswapV2ERC20.sol\":2987:3002  block.timestamp */\n              timestamp\n                /* \"CONTRACT/v2-core-master/contracts/UniswapV2ERC20.sol\":2975:2983  deadline */\n              dup5\n                /* \"CONTRACT/v2-core-master/contracts/UniswapV2ERC20.sol\":2975:3002  deadline >= block.timestamp */\n              lt\n              iszero\n                /* \"CONTRACT/v2-core-master/contracts/UniswapV2ERC20.sol\":2967:3025  require(deadline >= block.timestamp, 'UniswapV2: EXPIRED') */\n              tag_247\n              jumpi\n              0x40\n              dup1\n              mload\n              shl(0xe5, 0x461bcd)\n              dup2\n              mstore\n              0x20\n              0x04\n              dup3\n              add\n              mstore\n              0x12\n              0x24\n              dup3\n              add\n              mstore\n              shl(0x72, 0x155b9a5cddd85c158c8e8811561412549151)\n              0x44\n              dup3\n              add\n              mstore\n              swap1\n              mload\n              swap1\n              dup2\n              swap1\n              sub\n              0x64\n              add\n              swap1\n              revert\n            tag_247:\n                /* \"CONTRACT/v2-core-master/contracts/UniswapV2ERC20.sol\":3141:3157  DOMAIN_SEPARATOR */\n              sload(0x03)\n              sub(shl(0xa0, 0x01), 0x01)\n                /* \"CONTRACT/v2-core-master/contracts/UniswapV2ERC20.sol\":3237:3250  nonces[owner] */\n              dup9\n              dup2\n              and\n                /* \"CONTRACT/v2-core-master/contracts/UniswapV2ERC20.sol\":3036:3050  bytes32 digest */\n              0x00\n                /* \"CONTRACT/v2-core-master/contracts/UniswapV2ERC20.sol\":3237:3250  nonces[owner] */\n              dup2\n              dup2\n              mstore\n                /* \"CONTRACT/v2-core-master/contracts/UniswapV2ERC20.sol\":3237:3243  nonces */\n              0x04\n                /* \"CONTRACT/v2-core-master/contracts/UniswapV2ERC20.sol\":3237:3250  nonces[owner] */\n              0x20\n              swap1\n              dup2\n              mstore\n              0x40\n              dup1\n              dup4\n              keccak256\n                /* \"CONTRACT/v2-core-master/contracts/UniswapV2ERC20.sol\":3237:3252  nonces[owner]++ */\n              dup1\n              sload\n              0x01\n              dup2\n              dup2\n              add\n              swap1\n              swap3\n              sstore\n                /* \"CONTRACT/v2-core-master/contracts/UniswapV2ERC20.sol\":3186:3263  abi.encode(PERMIT_TYPEHASH, owner, spender, value, nonces[owner]++, deadline) */\n              dup3\n              mload\n                /* \"CONTRACT/v2-core-master/contracts/UniswapV2ERC20.sol\":655:721  0x6e71edae12b1b97f4d1f60370fef10105fa2faae0126114a169c64845d6126c9 */\n              0x6e71edae12b1b97f4d1f60370fef10105fa2faae0126114a169c64845d6126c9\n                /* \"CONTRACT/v2-core-master/contracts/UniswapV2ERC20.sol\":3186:3263  abi.encode(PERMIT_TYPEHASH, owner, spender, value, nonces[owner]++, deadline) */\n              dup2\n              dup7\n              add\n              mstore\n              dup1\n              dup5\n              add\n              swap7\n              swap1\n              swap7\n              mstore\n              swap6\n              dup14\n              and\n              0x60\n              dup7\n              add\n              mstore\n              0x80\n              dup6\n              add\n              dup13\n              swap1\n              mstore\n              0xa0\n              dup6\n              add\n              swap6\n              swap1\n              swap6\n              mstore\n              0xc0\n              dup1\n              dup6\n              add\n              dup12\n              swap1\n              mstore\n              dup2\n              mload\n                /* \"--CODEGEN--\":26:47   */\n              dup1\n              dup7\n              sub\n                /* \"--CODEGEN--\":22:54   */\n              swap1\n              swap2\n              add\n                /* \"--CODEGEN--\":6:55   */\n              dup2\n              mstore\n                /* \"CONTRACT/v2-core-master/contracts/UniswapV2ERC20.sol\":3186:3263  abi.encode(PERMIT_TYPEHASH, owner, spender, value, nonces[owner]++, deadline) */\n              0xe0\n              dup6\n              add\n              dup3\n              mstore\n                /* \"CONTRACT/v2-core-master/contracts/UniswapV2ERC20.sol\":3176:3264  keccak256(abi.encode(PERMIT_TYPEHASH, owner, spender, value, nonces[owner]++, deadline)) */\n              dup1\n              mload\n              swap1\n              dup4\n              add\n              keccak256\n              shl(0xf0, 0x1901)\n                /* \"CONTRACT/v2-core-master/contracts/UniswapV2ERC20.sol\":3077:3279  abi.encodePacked(\r... */\n              0x0100\n              dup7\n              add\n              mstore\n              0x0102\n              dup6\n              add\n              swap7\n              swap1\n              swap7\n              mstore\n              0x0122\n              dup1\n              dup6\n              add\n              swap7\n              swap1\n              swap7\n              mstore\n              dup1\n              mload\n                /* \"--CODEGEN--\":26:47   */\n              dup1\n              dup6\n              sub\n                /* \"--CODEGEN--\":22:54   */\n              swap1\n              swap7\n              add\n                /* \"--CODEGEN--\":6:55   */\n              dup7\n              mstore\n                /* \"CONTRACT/v2-core-master/contracts/UniswapV2ERC20.sol\":3077:3279  abi.encodePacked(\r... */\n              0x0142\n              dup5\n              add\n              dup1\n              dup3\n              mstore\n                /* \"CONTRACT/v2-core-master/contracts/UniswapV2ERC20.sol\":3053:3290  keccak256(\r... */\n              dup7\n              mload\n              swap7\n              dup4\n              add\n              swap7\n              swap1\n              swap7\n              keccak256\n                /* \"CONTRACT/v2-core-master/contracts/UniswapV2ERC20.sol\":3328:3354  ecrecover(digest, v, r, s) */\n              swap6\n              dup4\n              swap1\n              mstore\n              0x0162\n              dup5\n              add\n              dup1\n              dup3\n              mstore\n              dup7\n              swap1\n              mstore\n              0xff\n              dup10\n              and\n              0x0182\n              dup6\n              add\n              mstore\n              0x01a2\n              dup5\n              add\n              dup9\n              swap1\n              mstore\n              0x01c2\n              dup5\n              add\n              dup8\n              swap1\n              mstore\n              mload\n                /* \"CONTRACT/v2-core-master/contracts/UniswapV2ERC20.sol\":3036:3050  bytes32 digest */\n              swap2\n              swap4\n              swap3\n                /* \"CONTRACT/v2-core-master/contracts/UniswapV2ERC20.sol\":3328:3354  ecrecover(digest, v, r, s) */\n              0x01e2\n              dup1\n              dup3\n              add\n              swap4\n              not(0x1f)\n              dup2\n              add\n              swap3\n              dup2\n              swap1\n              sub\n              swap1\n              swap2\n              add\n              swap1\n              dup6\n              gas\n              staticcall\n              iszero\n                /* \"--CODEGEN--\":8:17   */\n              dup1\n                /* \"--CODEGEN--\":5:7   */\n              iszero\n              tag_248\n              jumpi\n                /* \"--CODEGEN--\":45:61   */\n              returndatasize\n                /* \"--CODEGEN--\":42:43   */\n              0x00\n                /* \"--CODEGEN--\":39:40   */\n              dup1\n                /* \"--CODEGEN--\":24:62   */\n              returndatacopy\n                /* \"--CODEGEN--\":77:93   */\n              returndatasize\n                /* \"--CODEGEN--\":74:75   */\n              0x00\n                /* \"--CODEGEN--\":67:94   */\n              revert\n                /* \"--CODEGEN--\":5:7   */\n            tag_248:\n              pop\n              pop\n                /* \"CONTRACT/v2-core-master/contracts/UniswapV2ERC20.sol\":3328:3354  ecrecover(digest, v, r, s) */\n              mload(add(not(0x1f), mload(0x40)))\n              swap2\n              pop\n              pop\n              sub(shl(0xa0, 0x01), 0x01)\n                /* \"CONTRACT/v2-core-master/contracts/UniswapV2ERC20.sol\":3373:3403  recoveredAddress != address(0) */\n              dup2\n              and\n              iszero\n              dup1\n              iszero\n              swap1\n                /* \"CONTRACT/v2-core-master/contracts/UniswapV2ERC20.sol\":3373:3432  recoveredAddress != address(0) && recoveredAddress == owner */\n              tag_249\n              jumpi\n              pop\n              sub(shl(0xa0, 0x01), 0x01)\n                /* \"CONTRACT/v2-core-master/contracts/UniswapV2ERC20.sol\":3407:3432  recoveredAddress == owner */\n              dup2\n              dup2\n              and\n              swap1\n              dup11\n              and\n              eq\n                /* \"CONTRACT/v2-core-master/contracts/UniswapV2ERC20.sol\":3373:3432  recoveredAddress != address(0) && recoveredAddress == owner */\n            tag_249:\n                /* \"CONTRACT/v2-core-master/contracts/UniswapV2ERC20.sol\":3365:3465  require(recoveredAddress != address(0) && recoveredAddress == owner, 'UniswapV2: INVALID_SIGNATURE') */\n              tag_250\n              jumpi\n              0x40\n              dup1\n              mload\n              shl(0xe5, 0x461bcd)\n              dup2\n              mstore\n              0x20\n              0x04\n              dup3\n              add\n              mstore\n              0x1c\n              0x24\n              dup3\n              add\n              mstore\n              0x556e697377617056323a20494e56414c49445f5349474e415455524500000000\n              0x44\n              dup3\n              add\n              mstore\n              swap1\n              mload\n              swap1\n              dup2\n              swap1\n              sub\n              0x64\n              add\n              swap1\n              revert\n            tag_250:\n                /* \"CONTRACT/v2-core-master/contracts/UniswapV2ERC20.sol\":3476:3507  _approve(owner, spender, value) */\n              tag_251\n                /* \"CONTRACT/v2-core-master/contracts/UniswapV2ERC20.sol\":3485:3490  owner */\n              dup10\n                /* \"CONTRACT/v2-core-master/contracts/UniswapV2ERC20.sol\":3492:3499  spender */\n              dup10\n                /* \"CONTRACT/v2-core-master/contracts/UniswapV2ERC20.sol\":3501:3506  value */\n              dup10\n                /* \"CONTRACT/v2-core-master/contracts/UniswapV2ERC20.sol\":3476:3484  _approve */\n              tag_160\n                /* \"CONTRACT/v2-core-master/contracts/UniswapV2ERC20.sol\":3476:3507  _approve(owner, spender, value) */\n              jump\t// in\n            tag_251:\n                /* \"CONTRACT/v2-core-master/contracts/UniswapV2ERC20.sol\":2841:3515  function permit(address owner, address spender, uint value, uint deadline, uint8 v, bytes32 r, bytes32 s) external {\r... */\n              pop\n              pop\n              pop\n              pop\n              pop\n              pop\n              pop\n              pop\n              pop\n              jump\t// out\n                /* \"CONTRACT/v2-core-master/contracts/UniswapV2ERC20.sol\":400:461  mapping(address => mapping(address => uint)) public allowance */\n            tag_110:\n              0x02\n              0x20\n              swap1\n              dup2\n              mstore\n              0x00\n              swap3\n              dup4\n              mstore\n              0x40\n              dup1\n              dup5\n              keccak256\n              swap1\n              swap2\n              mstore\n              swap1\n              dup3\n              mstore\n              swap1\n              keccak256\n              sload\n              dup2\n              jump\t// out\n                /* \"CONTRACT/v2-core-master/contracts/UniswapV2Pair.sol\":9828:9986  function sync() external lock {\r... */\n            tag_112:\n                /* \"CONTRACT/v2-core-master/contracts/UniswapV2Pair.sol\":1213:1221  unlocked */\n              sload(0x0c)\n                /* \"CONTRACT/v2-core-master/contracts/UniswapV2Pair.sol\":1225:1226  1 */\n              0x01\n                /* \"CONTRACT/v2-core-master/contracts/UniswapV2Pair.sol\":1213:1226  unlocked == 1 */\n              eq\n                /* \"CONTRACT/v2-core-master/contracts/UniswapV2Pair.sol\":1205:1248  require(unlocked == 1, 'UniswapV2: LOCKED') */\n              tag_253\n              jumpi\n              0x40\n              dup1\n              mload\n              shl(0xe5, 0x461bcd)\n              dup2\n              mstore\n              0x20\n              0x04\n              dup3\n              add\n              mstore\n              0x11\n              0x24\n              dup3\n              add\n              mstore\n              shl(0x7a, 0x155b9a5cddd85c158c8e881313d0d2d151)\n              0x44\n              dup3\n              add\n              mstore\n              swap1\n              mload\n              swap1\n              dup2\n              swap1\n              sub\n              0x64\n              add\n              swap1\n              revert\n            tag_253:\n                /* \"CONTRACT/v2-core-master/contracts/UniswapV2Pair.sol\":1270:1271  0 */\n              0x00\n                /* \"CONTRACT/v2-core-master/contracts/UniswapV2Pair.sol\":1259:1267  unlocked */\n              0x0c\n                /* \"CONTRACT/v2-core-master/contracts/UniswapV2Pair.sol\":1259:1271  unlocked = 0 */\n              sstore\n                /* \"CONTRACT/v2-core-master/contracts/UniswapV2Pair.sol\":9884:9890  token0 */\n              sload(0x06)\n                /* \"CONTRACT/v2-core-master/contracts/UniswapV2Pair.sol\":9877:9916  IERC20(token0).balanceOf(address(this)) */\n              0x40\n              dup1\n              mload\n              shl(0xe0, 0x70a08231)\n              dup2\n              mstore\n                /* \"CONTRACT/v2-core-master/contracts/UniswapV2Pair.sol\":9910:9914  this */\n              address\n                /* \"CONTRACT/v2-core-master/contracts/UniswapV2Pair.sol\":9877:9916  IERC20(token0).balanceOf(address(this)) */\n              0x04\n              dup3\n              add\n              mstore\n              swap1\n              mload\n                /* \"CONTRACT/v2-core-master/contracts/UniswapV2Pair.sol\":9869:9978  _update(IERC20(token0).balanceOf(address(this)), IERC20(token1).balanceOf(address(this)), reserve0, reserve1) */\n              tag_255\n              swap3\n              sub(shl(0xa0, 0x01), 0x01)\n                /* \"CONTRACT/v2-core-master/contracts/UniswapV2Pair.sol\":9884:9890  token0 */\n              and\n              swap2\n              0x70a08231\n              swap2\n                /* \"CONTRACT/v2-core-master/contracts/UniswapV2Pair.sol\":9877:9916  IERC20(token0).balanceOf(address(this)) */\n              0x24\n              dup1\n              dup4\n              add\n              swap3\n              0x20\n              swap3\n              swap2\n              swap1\n              dup3\n              swap1\n              sub\n              add\n              dup2\n                /* \"CONTRACT/v2-core-master/contracts/UniswapV2Pair.sol\":9884:9890  token0 */\n              dup7\n                /* \"CONTRACT/v2-core-master/contracts/UniswapV2Pair.sol\":9877:9916  IERC20(token0).balanceOf(address(this)) */\n              dup1\n              extcodesize\n              iszero\n                /* \"--CODEGEN--\":5:7   */\n              dup1\n              iszero\n              tag_256\n              jumpi\n                /* \"--CODEGEN--\":30:31   */\n              0x00\n                /* \"--CODEGEN--\":27:28   */\n              dup1\n                /* \"--CODEGEN--\":20:32   */\n              revert\n                /* \"--CODEGEN--\":5:7   */\n            tag_256:\n                /* \"CONTRACT/v2-core-master/contracts/UniswapV2Pair.sol\":9877:9916  IERC20(token0).balanceOf(address(this)) */\n              pop\n              gas\n              staticcall\n              iszero\n                /* \"--CODEGEN--\":8:17   */\n              dup1\n                /* \"--CODEGEN--\":5:7   */\n              iszero\n              tag_257\n              jumpi\n                /* \"--CODEGEN--\":45:61   */\n              returndatasize\n                /* \"--CODEGEN--\":42:43   */\n              0x00\n                /* \"--CODEGEN--\":39:40   */\n              dup1\n                /* \"--CODEGEN--\":24:62   */\n              returndatacopy\n                /* \"--CODEGEN--\":77:93   */\n              returndatasize\n                /* \"--CODEGEN--\":74:75   */\n              0x00\n                /* \"--CODEGEN--\":67:94   */\n              revert\n                /* \"--CODEGEN--\":5:7   */\n            tag_257:\n                /* \"CONTRACT/v2-core-master/contracts/UniswapV2Pair.sol\":9877:9916  IERC20(token0).balanceOf(address(this)) */\n              pop\n              pop\n              pop\n              pop\n              mload(0x40)\n              returndatasize\n                /* \"--CODEGEN--\":13:15   */\n              0x20\n                /* \"--CODEGEN--\":8:11   */\n              dup2\n                /* \"--CODEGEN--\":5:16   */\n              lt\n                /* \"--CODEGEN--\":2:4   */\n              iszero\n              tag_258\n              jumpi\n                /* \"--CODEGEN--\":29:30   */\n              0x00\n                /* \"--CODEGEN--\":26:27   */\n              dup1\n                /* \"--CODEGEN--\":19:31   */\n              revert\n                /* \"--CODEGEN--\":2:4   */\n            tag_258:\n              pop\n                /* \"CONTRACT/v2-core-master/contracts/UniswapV2Pair.sol\":9877:9916  IERC20(token0).balanceOf(address(this)) */\n              mload\n                /* \"CONTRACT/v2-core-master/contracts/UniswapV2Pair.sol\":9925:9931  token1 */\n              sload(0x07)\n                /* \"CONTRACT/v2-core-master/contracts/UniswapV2Pair.sol\":9918:9957  IERC20(token1).balanceOf(address(this)) */\n              0x40\n              dup1\n              mload\n              shl(0xe0, 0x70a08231)\n              dup2\n              mstore\n                /* \"CONTRACT/v2-core-master/contracts/UniswapV2Pair.sol\":9951:9955  this */\n              address\n                /* \"CONTRACT/v2-core-master/contracts/UniswapV2Pair.sol\":9918:9957  IERC20(token1).balanceOf(address(this)) */\n              0x04\n              dup3\n              add\n              mstore\n              swap1\n              mload\n              sub(shl(0xa0, 0x01), 0x01)\n                /* \"CONTRACT/v2-core-master/contracts/UniswapV2Pair.sol\":9925:9931  token1 */\n              swap1\n              swap3\n              and\n              swap2\n              0x70a08231\n              swap2\n                /* \"CONTRACT/v2-core-master/contracts/UniswapV2Pair.sol\":9918:9957  IERC20(token1).balanceOf(address(this)) */\n              0x24\n              dup1\n              dup3\n              add\n              swap3\n                /* \"CONTRACT/v2-core-master/contracts/UniswapV2Pair.sol\":9877:9916  IERC20(token0).balanceOf(address(this)) */\n              0x20\n              swap3\n                /* \"CONTRACT/v2-core-master/contracts/UniswapV2Pair.sol\":9918:9957  IERC20(token1).balanceOf(address(this)) */\n              swap1\n              swap2\n              swap1\n              dup3\n              swap1\n              sub\n              add\n              dup2\n                /* \"CONTRACT/v2-core-master/contracts/UniswapV2Pair.sol\":9925:9931  token1 */\n              dup7\n                /* \"CONTRACT/v2-core-master/contracts/UniswapV2Pair.sol\":9918:9957  IERC20(token1).balanceOf(address(this)) */\n              dup1\n              extcodesize\n              iszero\n                /* \"--CODEGEN--\":5:7   */\n              dup1\n              iszero\n              tag_259\n              jumpi\n                /* \"--CODEGEN--\":30:31   */\n              0x00\n                /* \"--CODEGEN--\":27:28   */\n              dup1\n                /* \"--CODEGEN--\":20:32   */\n              revert\n                /* \"--CODEGEN--\":5:7   */\n            tag_259:\n                /* \"CONTRACT/v2-core-master/contracts/UniswapV2Pair.sol\":9918:9957  IERC20(token1).balanceOf(address(this)) */\n              pop\n              gas\n              staticcall\n              iszero\n                /* \"--CODEGEN--\":8:17   */\n              dup1\n                /* \"--CODEGEN--\":5:7   */\n              iszero\n              tag_260\n              jumpi\n                /* \"--CODEGEN--\":45:61   */\n              returndatasize\n                /* \"--CODEGEN--\":42:43   */\n              0x00\n                /* \"--CODEGEN--\":39:40   */\n              dup1\n                /* \"--CODEGEN--\":24:62   */\n              returndatacopy\n                /* \"--CODEGEN--\":77:93   */\n              returndatasize\n                /* \"--CODEGEN--\":74:75   */\n              0x00\n                /* \"--CODEGEN--\":67:94   */\n              revert\n                /* \"--CODEGEN--\":5:7   */\n            tag_260:\n                /* \"CONTRACT/v2-core-master/contracts/UniswapV2Pair.sol\":9918:9957  IERC20(token1).balanceOf(address(this)) */\n              pop\n              pop\n              pop\n              pop\n              mload(0x40)\n              returndatasize\n                /* \"--CODEGEN--\":13:15   */\n              0x20\n                /* \"--CODEGEN--\":8:11   */\n              dup2\n                /* \"--CODEGEN--\":5:16   */\n              lt\n                /* \"--CODEGEN--\":2:4   */\n              iszero\n              tag_261\n              jumpi\n                /* \"--CODEGEN--\":29:30   */\n              0x00\n                /* \"--CODEGEN--\":26:27   */\n              dup1\n                /* \"--CODEGEN--\":19:31   */\n              revert\n                /* \"--CODEGEN--\":2:4   */\n            tag_261:\n              pop\n                /* \"CONTRACT/v2-core-master/contracts/UniswapV2Pair.sol\":9918:9957  IERC20(token1).balanceOf(address(this)) */\n              mload\n                /* \"CONTRACT/v2-core-master/contracts/UniswapV2Pair.sol\":9959:9967  reserve0 */\n              sload(0x08)\n              sub(shl(0x70, 0x01), 0x01)\n              dup1\n              dup3\n              and\n              swap2\n              shl(0x70, 0x01)\n                /* \"CONTRACT/v2-core-master/contracts/UniswapV2Pair.sol\":9969:9977  reserve1 */\n              swap1\n              div\n              and\n                /* \"CONTRACT/v2-core-master/contracts/UniswapV2Pair.sol\":9869:9876  _update */\n              tag_156\n                /* \"CONTRACT/v2-core-master/contracts/UniswapV2Pair.sol\":9869:9978  _update(IERC20(token0).balanceOf(address(this)), IERC20(token1).balanceOf(address(this)), reserve0, reserve1) */\n              jump\t// in\n            tag_255:\n                /* \"CONTRACT/v2-core-master/contracts/UniswapV2Pair.sol\":1305:1306  1 */\n              0x01\n                /* \"CONTRACT/v2-core-master/contracts/UniswapV2Pair.sol\":1294:1302  unlocked */\n              0x0c\n                /* \"CONTRACT/v2-core-master/contracts/UniswapV2Pair.sol\":1294:1306  unlocked = 1 */\n              sstore\n                /* \"CONTRACT/v2-core-master/contracts/UniswapV2Pair.sol\":9828:9986  function sync() external lock {\r... */\n              jump\t// out\n                /* \"CONTRACT/v2-core-master/contracts/UniswapV2Pair.sol\":1561:1848  function _safeTransfer(address token, address to, uint value) private {\r... */\n            tag_125:\n                /* \"CONTRACT/v2-core-master/contracts/UniswapV2Pair.sol\":537:571  bytes('transfer(address,uint256)') */\n              0x40\n              dup1\n              mload\n              dup1\n              dup3\n              add\n              dup3\n              mstore\n              0x19\n              dup2\n              mstore\n              0x7472616e7366657228616464726573732c75696e743235362900000000000000\n              0x20\n              swap2\n              dup3\n              add\n              mstore\n                /* \"CONTRACT/v2-core-master/contracts/UniswapV2Pair.sol\":1689:1732  abi.encodeWithSelector(SELECTOR, to, value) */\n              dup2\n              mload\n              sub(shl(0xa0, 0x01), 0x01)\n              dup6\n              dup2\n              and\n              0x24\n              dup4\n              add\n              mstore\n              0x44\n              dup1\n              dup4\n              add\n              dup7\n              swap1\n              mstore\n              dup5\n              mload\n                /* \"--CODEGEN--\":26:47   */\n              dup1\n              dup5\n              sub\n                /* \"--CODEGEN--\":22:54   */\n              swap1\n              swap2\n              add\n                /* \"--CODEGEN--\":6:55   */\n              dup2\n              mstore\n                /* \"CONTRACT/v2-core-master/contracts/UniswapV2Pair.sol\":1689:1732  abi.encodeWithSelector(SELECTOR, to, value) */\n              0x64\n              swap1\n              swap3\n              add\n              dup5\n              mstore\n                /* \"--CODEGEN--\":25:43   */\n              swap2\n              dup2\n              add\n                /* \"--CODEGEN--\":61:78   */\n              dup1\n              mload\n              sub(shl(0xe0, 0x01), 0x01)\n                /* \"--CODEGEN--\":182:197   */\n              and\n              shl(0xe0, 0xa9059cbb)\n                /* \"--CODEGEN--\":179:208   */\n              or\n                /* \"--CODEGEN--\":160:209   */\n              dup2\n              mstore\n                /* \"CONTRACT/v2-core-master/contracts/UniswapV2Pair.sol\":1678:1733  token.call(abi.encodeWithSelector(SELECTOR, to, value)) */\n              swap3\n              mload\n              dup2\n              mload\n              0x00\n              swap5\n                /* \"CONTRACT/v2-core-master/contracts/UniswapV2Pair.sol\":1657:1674  bytes memory data */\n              0x60\n              swap5\n                /* \"CONTRACT/v2-core-master/contracts/UniswapV2Pair.sol\":1678:1688  token.call */\n              dup10\n              and\n              swap4\n                /* \"CONTRACT/v2-core-master/contracts/UniswapV2Pair.sol\":1689:1732  abi.encodeWithSelector(SELECTOR, to, value) */\n              swap3\n                /* \"CONTRACT/v2-core-master/contracts/UniswapV2Pair.sol\":1678:1733  token.call(abi.encodeWithSelector(SELECTOR, to, value)) */\n              swap2\n              dup3\n              swap2\n                /* \"--CODEGEN--\":25:43   */\n              swap1\n                /* \"CONTRACT/v2-core-master/contracts/UniswapV2Pair.sol\":1678:1733  token.call(abi.encodeWithSelector(SELECTOR, to, value)) */\n              dup1\n              dup4\n                /* \"--CODEGEN--\":25:43   */\n              dup4\n                /* \"--CODEGEN--\":36:189   */\n            tag_263:\n                /* \"--CODEGEN--\":66:68   */\n              0x20\n                /* \"--CODEGEN--\":61:64   */\n              dup4\n                /* \"--CODEGEN--\":58:69   */\n              lt\n                /* \"--CODEGEN--\":36:189   */\n              tag_265\n              jumpi\n                /* \"--CODEGEN--\":176:186   */\n              dup1\n              mload\n                /* \"--CODEGEN--\":164:187   */\n              dup3\n              mstore\n              not(0x1f)\n                /* \"--CODEGEN--\":139:151   */\n              swap1\n              swap3\n              add\n              swap2\n                /* \"--CODEGEN--\":98:100   */\n              0x20\n                /* \"--CODEGEN--\":89:101   */\n              swap2\n              dup3\n              add\n              swap2\n                /* \"--CODEGEN--\":114:126   */\n              add\n                /* \"--CODEGEN--\":36:189   */\n              jump(tag_263)\n            tag_265:\n                /* \"--CODEGEN--\":274:275   */\n              0x01\n                /* \"--CODEGEN--\":267:270   */\n              dup4\n                /* \"--CODEGEN--\":263:265   */\n              0x20\n                /* \"--CODEGEN--\":259:271   */\n              sub\n                /* \"--CODEGEN--\":254:257   */\n              0x0100\n                /* \"--CODEGEN--\":250:272   */\n              exp\n                /* \"--CODEGEN--\":246:276   */\n              sub\n                /* \"--CODEGEN--\":315:319   */\n              dup1\n                /* \"--CODEGEN--\":311:320   */\n              not\n                /* \"--CODEGEN--\":305:308   */\n              dup3\n                /* \"--CODEGEN--\":299:309   */\n              mload\n                /* \"--CODEGEN--\":295:321   */\n              and\n                /* \"--CODEGEN--\":356:360   */\n              dup2\n                /* \"--CODEGEN--\":350:353   */\n              dup5\n                /* \"--CODEGEN--\":344:354   */\n              mload\n                /* \"--CODEGEN--\":340:361   */\n              and\n                /* \"--CODEGEN--\":389:396   */\n              dup1\n                /* \"--CODEGEN--\":380:387   */\n              dup3\n                /* \"--CODEGEN--\":377:397   */\n              or\n                /* \"--CODEGEN--\":372:375   */\n              dup6\n                /* \"--CODEGEN--\":365:398   */\n              mstore\n                /* \"--CODEGEN--\":3:402   */\n              pop\n              pop\n              pop\n                /* \"CONTRACT/v2-core-master/contracts/UniswapV2Pair.sol\":1678:1733  token.call(abi.encodeWithSelector(SELECTOR, to, value)) */\n              pop\n              pop\n              pop\n              swap1\n              pop\n              add\n              swap2\n              pop\n              pop\n              0x00\n              mload(0x40)\n              dup1\n              dup4\n              sub\n              dup2\n              0x00\n              dup7\n              gas\n              call\n              swap2\n              pop\n              pop\n              returndatasize\n                /* \"--CODEGEN--\":14:15   */\n              dup1\n                /* \"--CODEGEN--\":21:22   */\n              0x00\n                /* \"--CODEGEN--\":16:47   */\n              dup2\n              eq\n              tag_267\n              jumpi\n                /* \"--CODEGEN--\":75:79   */\n              0x40\n                /* \"--CODEGEN--\":69:80   */\n              mload\n                /* \"--CODEGEN--\":64:80   */\n              swap2\n              pop\n                /* \"--CODEGEN--\":144:148   */\n              0x1f\n                /* \"--CODEGEN--\":140:149   */\n              not\n                /* \"--CODEGEN--\":133:137   */\n              0x3f\n                /* \"--CODEGEN--\":115:131   */\n              returndatasize\n                /* \"--CODEGEN--\":111:138   */\n              add\n                /* \"--CODEGEN--\":107:150   */\n              and\n                /* \"--CODEGEN--\":104:105   */\n              dup3\n                /* \"--CODEGEN--\":100:151   */\n              add\n                /* \"--CODEGEN--\":94:98   */\n              0x40\n                /* \"--CODEGEN--\":87:152   */\n              mstore\n                /* \"--CODEGEN--\":169:185   */\n              returndatasize\n                /* \"--CODEGEN--\":166:167   */\n              dup3\n                /* \"--CODEGEN--\":159:186   */\n              mstore\n                /* \"--CODEGEN--\":225:241   */\n              returndatasize\n                /* \"--CODEGEN--\":222:223   */\n              0x00\n                /* \"--CODEGEN--\":215:219   */\n              0x20\n                /* \"--CODEGEN--\":212:213   */\n              dup5\n                /* \"--CODEGEN--\":208:220   */\n              add\n                /* \"--CODEGEN--\":193:242   */\n              returndatacopy\n                /* \"--CODEGEN--\":7:249   */\n              jump(tag_266)\n                /* \"--CODEGEN--\":16:47   */\n            tag_267:\n                /* \"--CODEGEN--\":36:40   */\n              0x60\n                /* \"--CODEGEN--\":31:40   */\n              swap2\n              pop\n                /* \"--CODEGEN--\":7:249   */\n            tag_266:\n              pop\n                /* \"CONTRACT/v2-core-master/contracts/UniswapV2Pair.sol\":1642:1733  (bool success, bytes memory data) = token.call(abi.encodeWithSelector(SELECTOR, to, value)) */\n              swap2\n              pop\n              swap2\n              pop\n                /* \"CONTRACT/v2-core-master/contracts/UniswapV2Pair.sol\":1752:1759  success */\n              dup2\n                /* \"CONTRACT/v2-core-master/contracts/UniswapV2Pair.sol\":1752:1809  success && (data.length == 0 || abi.decode(data, (bool))) */\n              dup1\n              iszero\n              tag_269\n              jumpi\n              pop\n                /* \"CONTRACT/v2-core-master/contracts/UniswapV2Pair.sol\":1764:1775  data.length */\n              dup1\n              mload\n                /* \"CONTRACT/v2-core-master/contracts/UniswapV2Pair.sol\":1764:1780  data.length == 0 */\n              iszero\n              dup1\n                /* \"CONTRACT/v2-core-master/contracts/UniswapV2Pair.sol\":1764:1808  data.length == 0 || abi.decode(data, (bool)) */\n              tag_269\n              jumpi\n              pop\n                /* \"CONTRACT/v2-core-master/contracts/UniswapV2Pair.sol\":1795:1799  data */\n              dup1\n                /* \"CONTRACT/v2-core-master/contracts/UniswapV2Pair.sol\":1784:1808  abi.decode(data, (bool)) */\n              dup1\n              0x20\n              add\n              swap1\n              mload\n                /* \"--CODEGEN--\":13:15   */\n              0x20\n                /* \"--CODEGEN--\":8:11   */\n              dup2\n                /* \"--CODEGEN--\":5:16   */\n              lt\n                /* \"--CODEGEN--\":2:4   */\n              iszero\n              tag_270\n              jumpi\n                /* \"--CODEGEN--\":29:30   */\n              0x00\n                /* \"--CODEGEN--\":26:27   */\n              dup1\n                /* \"--CODEGEN--\":19:31   */\n              revert\n                /* \"--CODEGEN--\":2:4   */\n            tag_270:\n              pop\n                /* \"CONTRACT/v2-core-master/contracts/UniswapV2Pair.sol\":1784:1808  abi.decode(data, (bool)) */\n              mload\n                /* \"CONTRACT/v2-core-master/contracts/UniswapV2Pair.sol\":1764:1808  data.length == 0 || abi.decode(data, (bool)) */\n            tag_269:\n                /* \"CONTRACT/v2-core-master/contracts/UniswapV2Pair.sol\":1744:1840  require(success && (data.length == 0 || abi.decode(data, (bool))), 'UniswapV2: TRANSFER_FAILED') */\n              tag_271\n              jumpi\n              0x40\n              dup1\n              mload\n              shl(0xe5, 0x461bcd)\n              dup2\n              mstore\n              0x20\n              0x04\n              dup3\n              add\n              mstore\n              0x1a\n              0x24\n              dup3\n              add\n              mstore\n              0x556e697377617056323a205452414e534645525f4641494c4544000000000000\n              0x44\n              dup3\n              add\n              mstore\n              swap1\n              mload\n              swap1\n              dup2\n              swap1\n              sub\n              0x64\n              add\n              swap1\n              revert\n            tag_271:\n                /* \"CONTRACT/v2-core-master/contracts/UniswapV2Pair.sol\":1561:1848  function _safeTransfer(address token, address to, uint value) private {\r... */\n              pop\n              pop\n              pop\n              pop\n              pop\n              jump\t// out\n                /* \"CONTRACT/v2-core-master/contracts/libraries/SafeMath.sol\":434:576  function mul(uint x, uint y) internal pure returns (uint z) {\r... */\n            tag_145:\n                /* \"CONTRACT/v2-core-master/contracts/libraries/SafeMath.sol\":486:492  uint z */\n              0x00\n                /* \"CONTRACT/v2-core-master/contracts/libraries/SafeMath.sol\":513:519  y == 0 */\n              dup2\n              iszero\n              dup1\n                /* \"CONTRACT/v2-core-master/contracts/libraries/SafeMath.sol\":513:543  y == 0 || (z = x * y) / y == x */\n              tag_273\n              jumpi\n              pop\n              pop\n                /* \"CONTRACT/v2-core-master/contracts/libraries/SafeMath.sol\":528:533  x * y */\n              dup1\n              dup3\n              mul\n                /* \"CONTRACT/v2-core-master/contracts/libraries/SafeMath.sol\":542:543  x */\n              dup3\n                /* \"CONTRACT/v2-core-master/contracts/libraries/SafeMath.sol\":537:538  y */\n              dup3\n                /* \"CONTRACT/v2-core-master/contracts/libraries/SafeMath.sol\":528:533  x * y */\n              dup3\n                /* \"CONTRACT/v2-core-master/contracts/libraries/SafeMath.sol\":537:538  y */\n              dup2\n                /* \"CONTRACT/v2-core-master/contracts/libraries/SafeMath.sol\":523:538  (z = x * y) / y */\n              tag_274\n              jumpi\n              invalid\n            tag_274:\n              div\n                /* \"CONTRACT/v2-core-master/contracts/libraries/SafeMath.sol\":523:543  (z = x * y) / y == x */\n              eq\n                /* \"CONTRACT/v2-core-master/contracts/libraries/SafeMath.sol\":513:543  y == 0 || (z = x * y) / y == x */\n            tag_273:\n                /* \"CONTRACT/v2-core-master/contracts/libraries/SafeMath.sol\":505:568  require(y == 0 || (z = x * y) / y == x, 'ds-math-mul-overflow') */\n              tag_158\n              jumpi\n              0x40\n              dup1\n              mload\n              shl(0xe5, 0x461bcd)\n              dup2\n              mstore\n              0x20\n              0x04\n              dup3\n              add\n              mstore\n              0x14\n              0x24\n              dup3\n              add\n              mstore\n              shl(0x60, 0x64732d6d6174682d6d756c2d6f766572666c6f77)\n              0x44\n              dup3\n              add\n              mstore\n              swap1\n              mload\n              swap1\n              dup2\n              swap1\n              sub\n              0x64\n              add\n              swap1\n              revert\n                /* \"CONTRACT/v2-core-master/contracts/libraries/SafeMath.sol\":297:426  function sub(uint x, uint y) internal pure returns (uint z) {\r... */\n            tag_147:\n                /* \"CONTRACT/v2-core-master/contracts/libraries/SafeMath.sol\":381:386  x - y */\n              dup1\n              dup3\n              sub\n                /* \"CONTRACT/v2-core-master/contracts/libraries/SafeMath.sol\":376:392  (z = x - y) <= x */\n              dup3\n              dup2\n              gt\n              iszero\n                /* \"CONTRACT/v2-core-master/contracts/libraries/SafeMath.sol\":368:418  require((z = x - y) <= x, 'ds-math-sub-underflow') */\n              tag_158\n              jumpi\n              0x40\n              dup1\n              mload\n              shl(0xe5, 0x461bcd)\n              dup2\n              mstore\n              0x20\n              0x04\n              dup3\n              add\n              mstore\n              0x15\n              0x24\n              dup3\n              add\n              mstore\n              shl(0x58, 0x64732d6d6174682d7375622d756e646572666c6f77)\n              0x44\n              dup3\n              add\n              mstore\n              swap1\n              mload\n              swap1\n              dup2\n              swap1\n              sub\n              0x64\n              add\n              swap1\n              revert\n                /* \"CONTRACT/v2-core-master/contracts/UniswapV2Pair.sol\":2677:3537  function _update(uint balance0, uint balance1, uint112 _reserve0, uint112 _reserve1) private {\r... */\n            tag_156:\n              sub(shl(0x70, 0x01), 0x01)\n                /* \"CONTRACT/v2-core-master/contracts/UniswapV2Pair.sol\":2789:2812  balance0 <= uint112(-1) */\n              dup5\n              gt\n              dup1\n              iszero\n              swap1\n                /* \"CONTRACT/v2-core-master/contracts/UniswapV2Pair.sol\":2789:2839  balance0 <= uint112(-1) && balance1 <= uint112(-1) */\n              tag_279\n              jumpi\n              pop\n              sub(shl(0x70, 0x01), 0x01)\n                /* \"CONTRACT/v2-core-master/contracts/UniswapV2Pair.sol\":2816:2839  balance1 <= uint112(-1) */\n              dup4\n              gt\n              iszero\n                /* \"CONTRACT/v2-core-master/contracts/UniswapV2Pair.sol\":2789:2839  balance0 <= uint112(-1) && balance1 <= uint112(-1) */\n            tag_279:\n                /* \"CONTRACT/v2-core-master/contracts/UniswapV2Pair.sol\":2781:2863  require(balance0 <= uint112(-1) && balance1 <= uint112(-1), 'UniswapV2: OVERFLOW') */\n              tag_280\n              jumpi\n              0x40\n              dup1\n              mload\n              shl(0xe5, 0x461bcd)\n              dup2\n              mstore\n              0x20\n              0x04\n              dup3\n              add\n              mstore\n              0x13\n              0x24\n              dup3\n              add\n              mstore\n              shl(0x68, 0x556e697377617056323a204f564552464c4f57)\n              0x44\n              dup3\n              add\n              mstore\n              swap1\n              mload\n              swap1\n              dup2\n              swap1\n              sub\n              0x64\n              add\n              swap1\n              revert\n            tag_280:\n                /* \"CONTRACT/v2-core-master/contracts/UniswapV2Pair.sol\":2978:2996  blockTimestampLast */\n              sload(0x08)\n                /* \"CONTRACT/v2-core-master/contracts/UniswapV2Pair.sol\":2905:2928  block.timestamp % 2**32 */\n              0xffffffff\n                /* \"CONTRACT/v2-core-master/contracts/UniswapV2Pair.sol\":2905:2920  block.timestamp */\n              timestamp\n                /* \"CONTRACT/v2-core-master/contracts/UniswapV2Pair.sol\":2905:2928  block.timestamp % 2**32 */\n              dup2\n              and\n              swap2\n              shl(0xe0, 0x01)\n                /* \"CONTRACT/v2-core-master/contracts/UniswapV2Pair.sol\":2978:2996  blockTimestampLast */\n              swap1\n              div\n              dup2\n              and\n                /* \"CONTRACT/v2-core-master/contracts/UniswapV2Pair.sol\":2961:2996  blockTimestamp - blockTimestampLast */\n              dup3\n              sub\n              swap1\n                /* \"CONTRACT/v2-core-master/contracts/UniswapV2Pair.sol\":3034:3049  timeElapsed > 0 */\n              dup2\n              and\n              iszero\n              dup1\n              iszero\n              swap1\n                /* \"CONTRACT/v2-core-master/contracts/UniswapV2Pair.sol\":3034:3067  timeElapsed > 0 && _reserve0 != 0 */\n              tag_282\n              jumpi\n              pop\n              sub(shl(0x70, 0x01), 0x01)\n                /* \"CONTRACT/v2-core-master/contracts/UniswapV2Pair.sol\":3053:3067  _reserve0 != 0 */\n              dup5\n              and\n              iszero\n              iszero\n                /* \"CONTRACT/v2-core-master/contracts/UniswapV2Pair.sol\":3034:3067  timeElapsed > 0 && _reserve0 != 0 */\n            tag_282:\n                /* \"CONTRACT/v2-core-master/contracts/UniswapV2Pair.sol\":3034:3085  timeElapsed > 0 && _reserve0 != 0 && _reserve1 != 0 */\n              dup1\n              iszero\n              tag_283\n              jumpi\n              pop\n              sub(shl(0x70, 0x01), 0x01)\n                /* \"CONTRACT/v2-core-master/contracts/UniswapV2Pair.sol\":3071:3085  _reserve1 != 0 */\n              dup4\n              and\n              iszero\n              iszero\n                /* \"CONTRACT/v2-core-master/contracts/UniswapV2Pair.sol\":3034:3085  timeElapsed > 0 && _reserve0 != 0 && _reserve1 != 0 */\n            tag_283:\n                /* \"CONTRACT/v2-core-master/contracts/UniswapV2Pair.sol\":3030:3366  if (timeElapsed > 0 && _reserve0 != 0 && _reserve1 != 0) {\r... */\n              iszero\n              tag_284\n              jumpi\n                /* \"CONTRACT/v2-core-master/contracts/UniswapV2Pair.sol\":3240:3251  timeElapsed */\n              dup1\n                /* \"CONTRACT/v2-core-master/contracts/UniswapV2Pair.sol\":3187:3251  uint(UQ112x112.encode(_reserve1).uqdiv(_reserve0)) * timeElapsed */\n              0xffffffff\n              and\n                /* \"CONTRACT/v2-core-master/contracts/UniswapV2Pair.sol\":3192:3236  UQ112x112.encode(_reserve1).uqdiv(_reserve0) */\n              tag_285\n                /* \"CONTRACT/v2-core-master/contracts/UniswapV2Pair.sol\":3226:3235  _reserve0 */\n              dup6\n                /* \"CONTRACT/v2-core-master/contracts/UniswapV2Pair.sol\":3192:3219  UQ112x112.encode(_reserve1) */\n              tag_286\n                /* \"CONTRACT/v2-core-master/contracts/UniswapV2Pair.sol\":3209:3218  _reserve1 */\n              dup7\n                /* \"CONTRACT/v2-core-master/contracts/UniswapV2Pair.sol\":3192:3208  UQ112x112.encode */\n              tag_287\n                /* \"CONTRACT/v2-core-master/contracts/UniswapV2Pair.sol\":3192:3219  UQ112x112.encode(_reserve1) */\n              jump\t// in\n            tag_286:\n              sub(shl(0xe0, 0x01), 0x01)\n                /* \"CONTRACT/v2-core-master/contracts/UniswapV2Pair.sol\":3192:3225  UQ112x112.encode(_reserve1).uqdiv */\n              and\n              swap1\n              tag_288\n                /* \"CONTRACT/v2-core-master/contracts/UniswapV2Pair.sol\":3192:3236  UQ112x112.encode(_reserve1).uqdiv(_reserve0) */\n              jump\t// in\n            tag_285:\n                /* \"CONTRACT/v2-core-master/contracts/UniswapV2Pair.sol\":3163:3183  price0CumulativeLast */\n              0x09\n                /* \"CONTRACT/v2-core-master/contracts/UniswapV2Pair.sol\":3163:3251  price0CumulativeLast += uint(UQ112x112.encode(_reserve1).uqdiv(_reserve0)) * timeElapsed */\n              dup1\n              sload\n              sub(shl(0xe0, 0x01), 0x01)\n                /* \"CONTRACT/v2-core-master/contracts/UniswapV2Pair.sol\":3187:3237  uint(UQ112x112.encode(_reserve1).uqdiv(_reserve0)) */\n              swap3\n              swap1\n              swap3\n              and\n                /* \"CONTRACT/v2-core-master/contracts/UniswapV2Pair.sol\":3187:3251  uint(UQ112x112.encode(_reserve1).uqdiv(_reserve0)) * timeElapsed */\n              swap3\n              swap1\n              swap3\n              mul\n                /* \"CONTRACT/v2-core-master/contracts/UniswapV2Pair.sol\":3163:3251  price0CumulativeLast += uint(UQ112x112.encode(_reserve1).uqdiv(_reserve0)) * timeElapsed */\n              add\n              swap1\n              sstore\n                /* \"CONTRACT/v2-core-master/contracts/UniswapV2Pair.sol\":3290:3354  uint(UQ112x112.encode(_reserve0).uqdiv(_reserve1)) * timeElapsed */\n              0xffffffff\n              dup2\n              and\n                /* \"CONTRACT/v2-core-master/contracts/UniswapV2Pair.sol\":3295:3339  UQ112x112.encode(_reserve0).uqdiv(_reserve1) */\n              tag_289\n                /* \"CONTRACT/v2-core-master/contracts/UniswapV2Pair.sol\":3329:3338  _reserve1 */\n              dup5\n                /* \"CONTRACT/v2-core-master/contracts/UniswapV2Pair.sol\":3295:3322  UQ112x112.encode(_reserve0) */\n              tag_286\n                /* \"CONTRACT/v2-core-master/contracts/UniswapV2Pair.sol\":3312:3321  _reserve0 */\n              dup8\n                /* \"CONTRACT/v2-core-master/contracts/UniswapV2Pair.sol\":3295:3311  UQ112x112.encode */\n              tag_287\n                /* \"CONTRACT/v2-core-master/contracts/UniswapV2Pair.sol\":3295:3322  UQ112x112.encode(_reserve0) */\n              jump\t// in\n                /* \"CONTRACT/v2-core-master/contracts/UniswapV2Pair.sol\":3295:3339  UQ112x112.encode(_reserve0).uqdiv(_reserve1) */\n            tag_289:\n                /* \"CONTRACT/v2-core-master/contracts/UniswapV2Pair.sol\":3266:3286  price1CumulativeLast */\n              0x0a\n                /* \"CONTRACT/v2-core-master/contracts/UniswapV2Pair.sol\":3266:3354  price1CumulativeLast += uint(UQ112x112.encode(_reserve0).uqdiv(_reserve1)) * timeElapsed */\n              dup1\n              sload\n              sub(shl(0xe0, 0x01), 0x01)\n                /* \"CONTRACT/v2-core-master/contracts/UniswapV2Pair.sol\":3290:3340  uint(UQ112x112.encode(_reserve0).uqdiv(_reserve1)) */\n              swap3\n              swap1\n              swap3\n              and\n                /* \"CONTRACT/v2-core-master/contracts/UniswapV2Pair.sol\":3290:3354  uint(UQ112x112.encode(_reserve0).uqdiv(_reserve1)) * timeElapsed */\n              swap3\n              swap1\n              swap3\n              mul\n                /* \"CONTRACT/v2-core-master/contracts/UniswapV2Pair.sol\":3266:3354  price1CumulativeLast += uint(UQ112x112.encode(_reserve0).uqdiv(_reserve1)) * timeElapsed */\n              add\n              swap1\n              sstore\n                /* \"CONTRACT/v2-core-master/contracts/UniswapV2Pair.sol\":3030:3366  if (timeElapsed > 0 && _reserve0 != 0 && _reserve1 != 0) {\r... */\n            tag_284:\n                /* \"CONTRACT/v2-core-master/contracts/UniswapV2Pair.sol\":3376:3384  reserve0 */\n              0x08\n                /* \"CONTRACT/v2-core-master/contracts/UniswapV2Pair.sol\":3376:3404  reserve0 = uint112(balance0) */\n              dup1\n              sload\n              not(0xffffffffffffffffffffffffffff)\n              and\n              sub(shl(0x70, 0x01), 0x01)\n              dup9\n              dup2\n              and\n              swap2\n              swap1\n              swap2\n              or\n              not(shl(0x70, 0xffffffffffffffffffffffffffff))\n                /* \"CONTRACT/v2-core-master/contracts/UniswapV2Pair.sol\":3415:3443  reserve1 = uint112(balance1) */\n              and\n              shl(0x70, 0x01)\n              dup9\n              dup4\n              and\n              dup2\n              mul\n              swap2\n              swap1\n              swap2\n              or\n              sub(shl(0xe0, 0x01), 0x01)\n                /* \"CONTRACT/v2-core-master/contracts/UniswapV2Pair.sol\":3454:3489  blockTimestampLast = blockTimestamp */\n              and\n              shl(0xe0, 0x01)\n              0xffffffff\n              dup8\n              and\n              mul\n              or\n              swap3\n              dup4\n              swap1\n              sstore\n                /* \"CONTRACT/v2-core-master/contracts/UniswapV2Pair.sol\":3505:3529  Sync(reserve0, reserve1) */\n              0x40\n              dup1\n              mload\n                /* \"CONTRACT/v2-core-master/contracts/UniswapV2Pair.sol\":3510:3518  reserve0 */\n              dup5\n              dup5\n              and\n                /* \"CONTRACT/v2-core-master/contracts/UniswapV2Pair.sol\":3505:3529  Sync(reserve0, reserve1) */\n              dup2\n              mstore\n                /* \"CONTRACT/v2-core-master/contracts/UniswapV2Pair.sol\":3520:3528  reserve1 */\n              swap2\n              swap1\n              swap4\n              div\n              swap1\n              swap2\n              and\n                /* \"CONTRACT/v2-core-master/contracts/UniswapV2Pair.sol\":3505:3529  Sync(reserve0, reserve1) */\n              0x20\n              dup3\n              add\n              mstore\n              dup2\n              mload\n              0x1c411e9a96e071241c2f21f7726b17ae89e3cab4c78be50e062b03a9fffbbad1\n              swap3\n              swap2\n              dup2\n              swap1\n              sub\n              swap1\n              swap2\n              add\n              swap1\n              log1\n                /* \"CONTRACT/v2-core-master/contracts/UniswapV2Pair.sol\":2677:3537  function _update(uint balance0, uint balance1, uint112 _reserve0, uint112 _reserve1) private {\r... */\n              pop\n              pop\n              pop\n              pop\n              pop\n              pop\n              jump\t// out\n                /* \"CONTRACT/v2-core-master/contracts/UniswapV2ERC20.sol\":1825:1994  function _approve(address owner, address spender, uint value) private {\r... */\n            tag_160:\n              sub(shl(0xa0, 0x01), 0x01)\n                /* \"CONTRACT/v2-core-master/contracts/UniswapV2ERC20.sol\":1906:1922  allowance[owner] */\n              dup4\n              dup2\n              and\n              0x00\n              dup2\n              dup2\n              mstore\n                /* \"CONTRACT/v2-core-master/contracts/UniswapV2ERC20.sol\":1906:1915  allowance */\n              0x02\n                /* \"CONTRACT/v2-core-master/contracts/UniswapV2ERC20.sol\":1906:1922  allowance[owner] */\n              0x20\n              swap1\n              dup2\n              mstore\n              0x40\n              dup1\n              dup4\n              keccak256\n                /* \"CONTRACT/v2-core-master/contracts/UniswapV2ERC20.sol\":1906:1931  allowance[owner][spender] */\n              swap5\n              dup8\n              and\n              dup1\n              dup5\n              mstore\n              swap5\n              dup3\n              mstore\n              swap2\n              dup3\n              swap1\n              keccak256\n                /* \"CONTRACT/v2-core-master/contracts/UniswapV2ERC20.sol\":1906:1939  allowance[owner][spender] = value */\n              dup6\n              swap1\n              sstore\n                /* \"CONTRACT/v2-core-master/contracts/UniswapV2ERC20.sol\":1955:1986  Approval(owner, spender, value) */\n              dup2\n              mload\n              dup6\n              dup2\n              mstore\n              swap2\n              mload\n              0x8c5be1e5ebec7d5bd14f71427d1e84f3dd0314c0f7b2291e5b200ac8c7c3b925\n              swap3\n              dup2\n              swap1\n              sub\n              swap1\n              swap2\n              add\n              swap1\n              log3\n                /* \"CONTRACT/v2-core-master/contracts/UniswapV2ERC20.sol\":1825:1994  function _approve(address owner, address spender, uint value) private {\r... */\n              pop\n              pop\n              pop\n              jump\t// out\n                /* \"CONTRACT/v2-core-master/contracts/UniswapV2ERC20.sol\":2002:2222  function _transfer(address from, address to, uint value) private {\r... */\n            tag_165:\n              sub(shl(0xa0, 0x01), 0x01)\n                /* \"CONTRACT/v2-core-master/contracts/UniswapV2ERC20.sol\":2096:2111  balanceOf[from] */\n              dup4\n              and\n              0x00\n              swap1\n              dup2\n              mstore\n              mstore(0x20, 0x01)\n              0x40\n              swap1\n              keccak256\n              sload\n                /* \"CONTRACT/v2-core-master/contracts/UniswapV2ERC20.sol\":2096:2122  balanceOf[from].sub(value) */\n              tag_293\n              swap1\n                /* \"CONTRACT/v2-core-master/contracts/UniswapV2ERC20.sol\":2116:2121  value */\n              dup3\n                /* \"CONTRACT/v2-core-master/contracts/UniswapV2ERC20.sol\":2096:2115  balanceOf[from].sub */\n              tag_147\n                /* \"CONTRACT/v2-core-master/contracts/UniswapV2ERC20.sol\":2096:2122  balanceOf[from].sub(value) */\n              jump\t// in\n            tag_293:\n              sub(shl(0xa0, 0x01), 0x01)\n                /* \"CONTRACT/v2-core-master/contracts/UniswapV2ERC20.sol\":2078:2093  balanceOf[from] */\n              dup5\n              dup2\n              and\n              0x00\n              swap1\n              dup2\n              mstore\n              mstore(0x20, 0x01)\n              0x40\n              dup1\n              dup3\n              keccak256\n                /* \"CONTRACT/v2-core-master/contracts/UniswapV2ERC20.sol\":2078:2122  balanceOf[from] = balanceOf[from].sub(value) */\n              swap4\n              swap1\n              swap4\n              sstore\n                /* \"CONTRACT/v2-core-master/contracts/UniswapV2ERC20.sol\":2149:2162  balanceOf[to] */\n              swap1\n              dup5\n              and\n              dup2\n              mstore\n              keccak256\n              sload\n                /* \"CONTRACT/v2-core-master/contracts/UniswapV2ERC20.sol\":2149:2173  balanceOf[to].add(value) */\n              tag_294\n              swap1\n                /* \"CONTRACT/v2-core-master/contracts/UniswapV2ERC20.sol\":2167:2172  value */\n              dup3\n                /* \"CONTRACT/v2-core-master/contracts/UniswapV2ERC20.sol\":2149:2166  balanceOf[to].add */\n              tag_295\n                /* \"CONTRACT/v2-core-master/contracts/UniswapV2ERC20.sol\":2149:2173  balanceOf[to].add(value) */\n              jump\t// in\n            tag_294:\n              sub(shl(0xa0, 0x01), 0x01)\n                /* \"CONTRACT/v2-core-master/contracts/UniswapV2ERC20.sol\":2133:2146  balanceOf[to] */\n              dup4\n              dup2\n              and\n              0x00\n              dup2\n              dup2\n              mstore\n              0x01\n              0x20\n              swap1\n              dup2\n              mstore\n              0x40\n              swap2\n              dup3\n              swap1\n              keccak256\n                /* \"CONTRACT/v2-core-master/contracts/UniswapV2ERC20.sol\":2133:2173  balanceOf[to] = balanceOf[to].add(value) */\n              swap5\n              swap1\n              swap5\n              sstore\n                /* \"CONTRACT/v2-core-master/contracts/UniswapV2ERC20.sol\":2189:2214  Transfer(from, to, value) */\n              dup1\n              mload\n              dup6\n              dup2\n              mstore\n              swap1\n              mload\n                /* \"CONTRACT/v2-core-master/contracts/UniswapV2ERC20.sol\":2133:2146  balanceOf[to] */\n              swap2\n              swap4\n                /* \"CONTRACT/v2-core-master/contracts/UniswapV2ERC20.sol\":2189:2214  Transfer(from, to, value) */\n              swap3\n              dup8\n              and\n              swap3\n              0xddf252ad1be2c89b69c2b068fc378daa952ba7f163c4a11628f55a4df523b3ef\n              swap3\n              swap2\n              dup3\n              swap1\n              sub\n              add\n              swap1\n              log3\n                /* \"CONTRACT/v2-core-master/contracts/UniswapV2ERC20.sol\":2002:2222  function _transfer(address from, address to, uint value) private {\r... */\n              pop\n              pop\n              pop\n              jump\t// out\n                /* \"CONTRACT/v2-core-master/contracts/UniswapV2Pair.sol\":3628:4465  function _mintFee(uint112 _reserve0, uint112 _reserve1) private returns (bool feeOn) {\r... */\n            tag_181:\n                /* \"CONTRACT/v2-core-master/contracts/UniswapV2Pair.sol\":3758:3765  factory */\n              sload(0x05)\n                /* \"CONTRACT/v2-core-master/contracts/UniswapV2Pair.sol\":3740:3774  IUniswapV2Factory(factory).feeTo() */\n              0x40\n              dup1\n              mload\n              shl(0xe3, 0x2fcfcb)\n              dup2\n              mstore\n              swap1\n              mload\n                /* \"CONTRACT/v2-core-master/contracts/UniswapV2Pair.sol\":3701:3711  bool feeOn */\n              0x00\n              swap3\n              dup4\n              swap3\n              sub(shl(0xa0, 0x01), 0x01)\n                /* \"CONTRACT/v2-core-master/contracts/UniswapV2Pair.sol\":3758:3765  factory */\n              swap1\n              swap2\n              and\n              swap2\n                /* \"CONTRACT/v2-core-master/contracts/UniswapV2Pair.sol\":3740:3772  IUniswapV2Factory(factory).feeTo */\n              0x017e7e58\n              swap2\n                /* \"CONTRACT/v2-core-master/contracts/UniswapV2Pair.sol\":3740:3774  IUniswapV2Factory(factory).feeTo() */\n              0x04\n              dup1\n              dup3\n              add\n              swap3\n              0x20\n              swap3\n              swap1\n              swap2\n              swap1\n              dup3\n              swap1\n              sub\n              add\n              dup2\n                /* \"CONTRACT/v2-core-master/contracts/UniswapV2Pair.sol\":3758:3765  factory */\n              dup7\n                /* \"CONTRACT/v2-core-master/contracts/UniswapV2Pair.sol\":3740:3774  IUniswapV2Factory(factory).feeTo() */\n              dup1\n              extcodesize\n              iszero\n                /* \"--CODEGEN--\":5:7   */\n              dup1\n              iszero\n              tag_297\n              jumpi\n                /* \"--CODEGEN--\":30:31   */\n              0x00\n                /* \"--CODEGEN--\":27:28   */\n              dup1\n                /* \"--CODEGEN--\":20:32   */\n              revert\n                /* \"--CODEGEN--\":5:7   */\n            tag_297:\n                /* \"CONTRACT/v2-core-master/contracts/UniswapV2Pair.sol\":3740:3774  IUniswapV2Factory(factory).feeTo() */\n              pop\n              gas\n              staticcall\n              iszero\n                /* \"--CODEGEN--\":8:17   */\n              dup1\n                /* \"--CODEGEN--\":5:7   */\n              iszero\n              tag_298\n              jumpi\n                /* \"--CODEGEN--\":45:61   */\n              returndatasize\n                /* \"--CODEGEN--\":42:43   */\n              0x00\n                /* \"--CODEGEN--\":39:40   */\n              dup1\n                /* \"--CODEGEN--\":24:62   */\n              returndatacopy\n                /* \"--CODEGEN--\":77:93   */\n              returndatasize\n                /* \"--CODEGEN--\":74:75   */\n              0x00\n                /* \"--CODEGEN--\":67:94   */\n              revert\n                /* \"--CODEGEN--\":5:7   */\n            tag_298:\n                /* \"CONTRACT/v2-core-master/contracts/UniswapV2Pair.sol\":3740:3774  IUniswapV2Factory(factory).feeTo() */\n              pop\n              pop\n              pop\n              pop\n              mload(0x40)\n              returndatasize\n                /* \"--CODEGEN--\":13:15   */\n              0x20\n                /* \"--CODEGEN--\":8:11   */\n              dup2\n                /* \"--CODEGEN--\":5:16   */\n              lt\n                /* \"--CODEGEN--\":2:4   */\n              iszero\n              tag_299\n              jumpi\n                /* \"--CODEGEN--\":29:30   */\n              0x00\n                /* \"--CODEGEN--\":26:27   */\n              dup1\n                /* \"--CODEGEN--\":19:31   */\n              revert\n                /* \"--CODEGEN--\":2:4   */\n            tag_299:\n              pop\n                /* \"CONTRACT/v2-core-master/contracts/UniswapV2Pair.sol\":3740:3774  IUniswapV2Factory(factory).feeTo() */\n              mload\n                /* \"CONTRACT/v2-core-master/contracts/UniswapV2Pair.sol\":3837:3842  kLast */\n              sload(0x0b)\n              sub(shl(0xa0, 0x01), 0x01)\n                /* \"CONTRACT/v2-core-master/contracts/UniswapV2Pair.sol\":3793:3812  feeTo != address(0) */\n              dup3\n              and\n              iszero\n              dup1\n              iszero\n              swap5\n              pop\n                /* \"CONTRACT/v2-core-master/contracts/UniswapV2Pair.sol\":3740:3774  IUniswapV2Factory(factory).feeTo() */\n              swap2\n              swap3\n              pop\n                /* \"CONTRACT/v2-core-master/contracts/UniswapV2Pair.sol\":3837:3842  kLast */\n              swap1\n                /* \"CONTRACT/v2-core-master/contracts/UniswapV2Pair.sol\":3868:4458  if (feeOn) {\r... */\n              tag_300\n              jumpi\n                /* \"CONTRACT/v2-core-master/contracts/UniswapV2Pair.sol\":3898:3909  _kLast != 0 */\n              dup1\n              iszero\n                /* \"CONTRACT/v2-core-master/contracts/UniswapV2Pair.sol\":3894:4388  if (_kLast != 0) {\r... */\n              tag_301\n              jumpi\n                /* \"CONTRACT/v2-core-master/contracts/UniswapV2Pair.sol\":3930:3940  uint rootK */\n              0x00\n                /* \"CONTRACT/v2-core-master/contracts/UniswapV2Pair.sol\":3943:3984  Math.sqrt(uint(_reserve0).mul(_reserve1)) */\n              tag_302\n                /* \"CONTRACT/v2-core-master/contracts/UniswapV2Pair.sol\":3953:3983  uint(_reserve0).mul(_reserve1) */\n              tag_185\n              sub(shl(0x70, 0x01), 0x01)\n                /* \"CONTRACT/v2-core-master/contracts/UniswapV2Pair.sol\":3953:3968  uint(_reserve0) */\n              dup9\n              dup2\n              and\n              swap1\n                /* \"CONTRACT/v2-core-master/contracts/UniswapV2Pair.sol\":3953:3983  uint(_reserve0).mul(_reserve1) */\n              dup9\n              and\n                /* \"CONTRACT/v2-core-master/contracts/UniswapV2Pair.sol\":3953:3972  uint(_reserve0).mul */\n              tag_145\n                /* \"CONTRACT/v2-core-master/contracts/UniswapV2Pair.sol\":3953:3983  uint(_reserve0).mul(_reserve1) */\n              jump\t// in\n                /* \"CONTRACT/v2-core-master/contracts/UniswapV2Pair.sol\":3943:3984  Math.sqrt(uint(_reserve0).mul(_reserve1)) */\n            tag_302:\n                /* \"CONTRACT/v2-core-master/contracts/UniswapV2Pair.sol\":3930:3984  uint rootK = Math.sqrt(uint(_reserve0).mul(_reserve1)) */\n              swap1\n              pop\n                /* \"CONTRACT/v2-core-master/contracts/UniswapV2Pair.sol\":4003:4017  uint rootKLast */\n              0x00\n                /* \"CONTRACT/v2-core-master/contracts/UniswapV2Pair.sol\":4020:4037  Math.sqrt(_kLast) */\n              tag_304\n                /* \"CONTRACT/v2-core-master/contracts/UniswapV2Pair.sol\":4030:4036  _kLast */\n              dup4\n                /* \"CONTRACT/v2-core-master/contracts/UniswapV2Pair.sol\":4020:4029  Math.sqrt */\n              tag_186\n                /* \"CONTRACT/v2-core-master/contracts/UniswapV2Pair.sol\":4020:4037  Math.sqrt(_kLast) */\n              jump\t// in\n            tag_304:\n                /* \"CONTRACT/v2-core-master/contracts/UniswapV2Pair.sol\":4003:4037  uint rootKLast = Math.sqrt(_kLast) */\n              swap1\n              pop\n                /* \"CONTRACT/v2-core-master/contracts/UniswapV2Pair.sol\":4068:4077  rootKLast */\n              dup1\n                /* \"CONTRACT/v2-core-master/contracts/UniswapV2Pair.sol\":4060:4065  rootK */\n              dup3\n                /* \"CONTRACT/v2-core-master/contracts/UniswapV2Pair.sol\":4060:4077  rootK > rootKLast */\n              gt\n                /* \"CONTRACT/v2-core-master/contracts/UniswapV2Pair.sol\":4056:4373  if (rootK > rootKLast) {\r... */\n              iszero\n              tag_305\n              jumpi\n                /* \"CONTRACT/v2-core-master/contracts/UniswapV2Pair.sol\":4102:4116  uint numerator */\n              0x00\n                /* \"CONTRACT/v2-core-master/contracts/UniswapV2Pair.sol\":4119:4156  totalSupply.mul(rootK.sub(rootKLast)) */\n              tag_306\n                /* \"CONTRACT/v2-core-master/contracts/UniswapV2Pair.sol\":4135:4155  rootK.sub(rootKLast) */\n              tag_307\n                /* \"CONTRACT/v2-core-master/contracts/UniswapV2Pair.sol\":4135:4140  rootK */\n              dup5\n                /* \"CONTRACT/v2-core-master/contracts/UniswapV2Pair.sol\":4145:4154  rootKLast */\n              dup5\n                /* \"CONTRACT/v2-core-master/contracts/UniswapV2Pair.sol\":4135:4155  rootK.sub(rootKLast) */\n              0xffffffff\n                /* \"CONTRACT/v2-core-master/contracts/UniswapV2Pair.sol\":4135:4144  rootK.sub */\n              tag_147\n                /* \"CONTRACT/v2-core-master/contracts/UniswapV2Pair.sol\":4135:4155  rootK.sub(rootKLast) */\n              and\n              jump\t// in\n            tag_307:\n                /* \"CONTRACT/v2-core-master/contracts/UniswapV2Pair.sol\":4119:4130  totalSupply */\n              sload(0x00)\n              swap1\n                /* \"CONTRACT/v2-core-master/contracts/UniswapV2Pair.sol\":4119:4156  totalSupply.mul(rootK.sub(rootKLast)) */\n              0xffffffff\n                /* \"CONTRACT/v2-core-master/contracts/UniswapV2Pair.sol\":4119:4134  totalSupply.mul */\n              tag_145\n                /* \"CONTRACT/v2-core-master/contracts/UniswapV2Pair.sol\":4119:4156  totalSupply.mul(rootK.sub(rootKLast)) */\n              and\n              jump\t// in\n            tag_306:\n                /* \"CONTRACT/v2-core-master/contracts/UniswapV2Pair.sol\":4102:4156  uint numerator = totalSupply.mul(rootK.sub(rootKLast)) */\n              swap1\n              pop\n                /* \"CONTRACT/v2-core-master/contracts/UniswapV2Pair.sol\":4179:4195  uint denominator */\n              0x00\n                /* \"CONTRACT/v2-core-master/contracts/UniswapV2Pair.sol\":4198:4225  rootK.mul(9).add(rootKLast) */\n              tag_308\n                /* \"CONTRACT/v2-core-master/contracts/UniswapV2Pair.sol\":4215:4224  rootKLast */\n              dup4\n                /* \"CONTRACT/v2-core-master/contracts/UniswapV2Pair.sol\":4198:4210  rootK.mul(9) */\n              tag_309\n                /* \"CONTRACT/v2-core-master/contracts/UniswapV2Pair.sol\":4198:4203  rootK */\n              dup7\n                /* \"CONTRACT/v2-core-master/contracts/UniswapV2Pair.sol\":4208:4209  9 */\n              0x09\n                /* \"CONTRACT/v2-core-master/contracts/UniswapV2Pair.sol\":4198:4210  rootK.mul(9) */\n              0xffffffff\n                /* \"CONTRACT/v2-core-master/contracts/UniswapV2Pair.sol\":4198:4207  rootK.mul */\n              tag_145\n                /* \"CONTRACT/v2-core-master/contracts/UniswapV2Pair.sol\":4198:4210  rootK.mul(9) */\n              and\n              jump\t// in\n            tag_309:\n                /* \"CONTRACT/v2-core-master/contracts/UniswapV2Pair.sol\":4198:4214  rootK.mul(9).add */\n              swap1\n                /* \"CONTRACT/v2-core-master/contracts/UniswapV2Pair.sol\":4198:4225  rootK.mul(9).add(rootKLast) */\n              0xffffffff\n                /* \"CONTRACT/v2-core-master/contracts/UniswapV2Pair.sol\":4198:4214  rootK.mul(9).add */\n              tag_295\n                /* \"CONTRACT/v2-core-master/contracts/UniswapV2Pair.sol\":4198:4225  rootK.mul(9).add(rootKLast) */\n              and\n              jump\t// in\n            tag_308:\n                /* \"CONTRACT/v2-core-master/contracts/UniswapV2Pair.sol\":4179:4225  uint denominator = rootK.mul(9).add(rootKLast) */\n              swap1\n              pop\n                /* \"CONTRACT/v2-core-master/contracts/UniswapV2Pair.sol\":4248:4262  uint liquidity */\n              0x00\n                /* \"CONTRACT/v2-core-master/contracts/UniswapV2Pair.sol\":4277:4288  denominator */\n              dup2\n                /* \"CONTRACT/v2-core-master/contracts/UniswapV2Pair.sol\":4265:4274  numerator */\n              dup4\n                /* \"CONTRACT/v2-core-master/contracts/UniswapV2Pair.sol\":4265:4288  numerator / denominator */\n              dup2\n              tag_310\n              jumpi\n              invalid\n            tag_310:\n              div\n              swap1\n              pop\n                /* \"CONTRACT/v2-core-master/contracts/UniswapV2Pair.sol\":4315:4328  liquidity > 0 */\n              dup1\n              iszero\n                /* \"CONTRACT/v2-core-master/contracts/UniswapV2Pair.sol\":4311:4353  if (liquidity > 0) _mint(feeTo, liquidity) */\n              tag_312\n              jumpi\n                /* \"CONTRACT/v2-core-master/contracts/UniswapV2Pair.sol\":4330:4353  _mint(feeTo, liquidity) */\n              tag_312\n                /* \"CONTRACT/v2-core-master/contracts/UniswapV2Pair.sol\":4336:4341  feeTo */\n              dup8\n                /* \"CONTRACT/v2-core-master/contracts/UniswapV2Pair.sol\":4343:4352  liquidity */\n              dup3\n                /* \"CONTRACT/v2-core-master/contracts/UniswapV2Pair.sol\":4330:4335  _mint */\n              tag_188\n                /* \"CONTRACT/v2-core-master/contracts/UniswapV2Pair.sol\":4330:4353  _mint(feeTo, liquidity) */\n              jump\t// in\n            tag_312:\n                /* \"CONTRACT/v2-core-master/contracts/UniswapV2Pair.sol\":4056:4373  if (rootK > rootKLast) {\r... */\n              pop\n              pop\n              pop\n            tag_305:\n                /* \"CONTRACT/v2-core-master/contracts/UniswapV2Pair.sol\":3894:4388  if (_kLast != 0) {\r... */\n              pop\n              pop\n            tag_301:\n                /* \"CONTRACT/v2-core-master/contracts/UniswapV2Pair.sol\":3868:4458  if (feeOn) {\r... */\n              jump(tag_314)\n            tag_300:\n                /* \"CONTRACT/v2-core-master/contracts/UniswapV2Pair.sol\":4409:4420  _kLast != 0 */\n              dup1\n              iszero\n                /* \"CONTRACT/v2-core-master/contracts/UniswapV2Pair.sol\":4405:4458  if (_kLast != 0) {\r... */\n              tag_314\n              jumpi\n                /* \"CONTRACT/v2-core-master/contracts/UniswapV2Pair.sol\":4445:4446  0 */\n              0x00\n                /* \"CONTRACT/v2-core-master/contracts/UniswapV2Pair.sol\":4437:4442  kLast */\n              0x0b\n                /* \"CONTRACT/v2-core-master/contracts/UniswapV2Pair.sol\":4437:4446  kLast = 0 */\n              sstore\n                /* \"CONTRACT/v2-core-master/contracts/UniswapV2Pair.sol\":4405:4458  if (_kLast != 0) {\r... */\n            tag_314:\n                /* \"CONTRACT/v2-core-master/contracts/UniswapV2Pair.sol\":3628:4465  function _mintFee(uint112 _reserve0, uint112 _reserve1) private returns (bool feeOn) {\r... */\n              pop\n              pop\n              swap3\n              swap2\n              pop\n              pop\n              jump\t// out\n                /* \"CONTRACT/v2-core-master/contracts/libraries/Math.sol\":317:620  function sqrt(uint y) internal pure returns (uint z) {\r... */\n            tag_186:\n                /* \"CONTRACT/v2-core-master/contracts/libraries/Math.sol\":362:368  uint z */\n              0x00\n                /* \"CONTRACT/v2-core-master/contracts/libraries/Math.sol\":389:390  3 */\n              0x03\n                /* \"CONTRACT/v2-core-master/contracts/libraries/Math.sol\":385:386  y */\n              dup3\n                /* \"CONTRACT/v2-core-master/contracts/libraries/Math.sol\":385:390  y > 3 */\n              gt\n                /* \"CONTRACT/v2-core-master/contracts/libraries/Math.sol\":381:613  if (y > 3) {\r... */\n              iszero\n              tag_316\n              jumpi\n              pop\n                /* \"CONTRACT/v2-core-master/contracts/libraries/Math.sol\":411:412  y */\n              dup1\n                /* \"CONTRACT/v2-core-master/contracts/libraries/Math.sol\":444:445  1 */\n              0x01\n                /* \"CONTRACT/v2-core-master/contracts/libraries/Math.sol\":440:441  2 */\n              0x02\n                /* \"CONTRACT/v2-core-master/contracts/libraries/Math.sol\":436:441  y / 2 */\n              dup3\n              div\n                /* \"CONTRACT/v2-core-master/contracts/libraries/Math.sol\":436:445  y / 2 + 1 */\n              add\n                /* \"CONTRACT/v2-core-master/contracts/libraries/Math.sol\":460:552  while (x < z) {\r... */\n            tag_318:\n                /* \"CONTRACT/v2-core-master/contracts/libraries/Math.sol\":471:472  z */\n              dup2\n                /* \"CONTRACT/v2-core-master/contracts/libraries/Math.sol\":467:468  x */\n              dup2\n                /* \"CONTRACT/v2-core-master/contracts/libraries/Math.sol\":467:472  x < z */\n              lt\n                /* \"CONTRACT/v2-core-master/contracts/libraries/Math.sol\":460:552  while (x < z) {\r... */\n              iszero\n              tag_319\n              jumpi\n                /* \"CONTRACT/v2-core-master/contracts/libraries/Math.sol\":497:498  x */\n              dup1\n                /* \"CONTRACT/v2-core-master/contracts/libraries/Math.sol\":493:498  z = x */\n              swap2\n              pop\n                /* \"CONTRACT/v2-core-master/contracts/libraries/Math.sol\":535:536  2 */\n              0x02\n                /* \"CONTRACT/v2-core-master/contracts/libraries/Math.sol\":530:531  x */\n              dup2\n                /* \"CONTRACT/v2-core-master/contracts/libraries/Math.sol\":526:527  x */\n              dup3\n                /* \"CONTRACT/v2-core-master/contracts/libraries/Math.sol\":522:523  y */\n              dup6\n                /* \"CONTRACT/v2-core-master/contracts/libraries/Math.sol\":522:527  y / x */\n              dup2\n              tag_320\n              jumpi\n              invalid\n            tag_320:\n              div\n                /* \"CONTRACT/v2-core-master/contracts/libraries/Math.sol\":522:531  y / x + x */\n              add\n                /* \"CONTRACT/v2-core-master/contracts/libraries/Math.sol\":521:536  (y / x + x) / 2 */\n              dup2\n              tag_321\n              jumpi\n              invalid\n            tag_321:\n              div\n                /* \"CONTRACT/v2-core-master/contracts/libraries/Math.sol\":517:536  x = (y / x + x) / 2 */\n              swap1\n              pop\n                /* \"CONTRACT/v2-core-master/contracts/libraries/Math.sol\":460:552  while (x < z) {\r... */\n              jump(tag_318)\n            tag_319:\n                /* \"CONTRACT/v2-core-master/contracts/libraries/Math.sol\":381:613  if (y > 3) {\r... */\n              pop\n              jump(tag_323)\n            tag_316:\n                /* \"CONTRACT/v2-core-master/contracts/libraries/Math.sol\":573:579  y != 0 */\n              dup2\n              iszero\n                /* \"CONTRACT/v2-core-master/contracts/libraries/Math.sol\":569:613  if (y != 0) {\r... */\n              tag_323\n              jumpi\n              pop\n                /* \"CONTRACT/v2-core-master/contracts/libraries/Math.sol\":600:601  1 */\n              0x01\n                /* \"CONTRACT/v2-core-master/contracts/libraries/Math.sol\":569:613  if (y != 0) {\r... */\n            tag_323:\n                /* \"CONTRACT/v2-core-master/contracts/libraries/Math.sol\":317:620  function sqrt(uint y) internal pure returns (uint z) {\r... */\n              swap2\n              swap1\n              pop\n              jump\t// out\n                /* \"CONTRACT/v2-core-master/contracts/UniswapV2ERC20.sol\":1399:1600  function _mint(address to, uint value) internal {\r... */\n            tag_188:\n                /* \"CONTRACT/v2-core-master/contracts/UniswapV2ERC20.sol\":1472:1483  totalSupply */\n              sload(0x00)\n                /* \"CONTRACT/v2-core-master/contracts/UniswapV2ERC20.sol\":1472:1494  totalSupply.add(value) */\n              tag_325\n              swap1\n                /* \"CONTRACT/v2-core-master/contracts/UniswapV2ERC20.sol\":1488:1493  value */\n              dup3\n                /* \"CONTRACT/v2-core-master/contracts/UniswapV2ERC20.sol\":1472:1494  totalSupply.add(value) */\n              0xffffffff\n                /* \"CONTRACT/v2-core-master/contracts/UniswapV2ERC20.sol\":1472:1487  totalSupply.add */\n              tag_295\n                /* \"CONTRACT/v2-core-master/contracts/UniswapV2ERC20.sol\":1472:1494  totalSupply.add(value) */\n              and\n              jump\t// in\n            tag_325:\n                /* \"CONTRACT/v2-core-master/contracts/UniswapV2ERC20.sol\":1458:1469  totalSupply */\n              0x00\n                /* \"CONTRACT/v2-core-master/contracts/UniswapV2ERC20.sol\":1458:1494  totalSupply = totalSupply.add(value) */\n              swap1\n              dup2\n              sstore\n              sub(shl(0xa0, 0x01), 0x01)\n                /* \"CONTRACT/v2-core-master/contracts/UniswapV2ERC20.sol\":1521:1534  balanceOf[to] */\n              dup4\n              and\n              dup2\n              mstore\n              mstore(0x20, 0x01)\n              0x40\n              swap1\n              keccak256\n              sload\n                /* \"CONTRACT/v2-core-master/contracts/UniswapV2ERC20.sol\":1521:1545  balanceOf[to].add(value) */\n              tag_326\n              swap1\n                /* \"CONTRACT/v2-core-master/contracts/UniswapV2ERC20.sol\":1539:1544  value */\n              dup3\n                /* \"CONTRACT/v2-core-master/contracts/UniswapV2ERC20.sol\":1521:1538  balanceOf[to].add */\n              tag_295\n                /* \"CONTRACT/v2-core-master/contracts/UniswapV2ERC20.sol\":1521:1545  balanceOf[to].add(value) */\n              jump\t// in\n            tag_326:\n              sub(shl(0xa0, 0x01), 0x01)\n                /* \"CONTRACT/v2-core-master/contracts/UniswapV2ERC20.sol\":1505:1518  balanceOf[to] */\n              dup4\n              and\n              0x00\n              dup2\n              dup2\n              mstore\n              0x01\n              0x20\n              swap1\n              dup2\n              mstore\n              0x40\n              dup1\n              dup4\n              keccak256\n                /* \"CONTRACT/v2-core-master/contracts/UniswapV2ERC20.sol\":1505:1545  balanceOf[to] = balanceOf[to].add(value) */\n              swap5\n              swap1\n              swap5\n              sstore\n                /* \"CONTRACT/v2-core-master/contracts/UniswapV2ERC20.sol\":1561:1592  Transfer(address(0), to, value) */\n              dup4\n              mload\n              dup6\n              dup2\n              mstore\n              swap4\n              mload\n                /* \"CONTRACT/v2-core-master/contracts/UniswapV2ERC20.sol\":1505:1518  balanceOf[to] */\n              swap3\n              swap4\n              swap2\n              swap3\n                /* \"CONTRACT/v2-core-master/contracts/UniswapV2ERC20.sol\":1561:1592  Transfer(address(0), to, value) */\n              0xddf252ad1be2c89b69c2b068fc378daa952ba7f163c4a11628f55a4df523b3ef\n              swap3\n              dup2\n              swap1\n              sub\n              swap1\n              swap2\n              add\n              swap1\n              log3\n                /* \"CONTRACT/v2-core-master/contracts/UniswapV2ERC20.sol\":1399:1600  function _mint(address to, uint value) internal {\r... */\n              pop\n              pop\n              jump\t// out\n                /* \"CONTRACT/v2-core-master/contracts/libraries/Math.sol\":103:199  function min(uint x, uint y) internal pure returns (uint z) {\r... */\n            tag_195:\n                /* \"CONTRACT/v2-core-master/contracts/libraries/Math.sol\":155:161  uint z */\n              0x00\n                /* \"CONTRACT/v2-core-master/contracts/libraries/Math.sol\":182:183  y */\n              dup2\n                /* \"CONTRACT/v2-core-master/contracts/libraries/Math.sol\":178:179  x */\n              dup4\n                /* \"CONTRACT/v2-core-master/contracts/libraries/Math.sol\":178:183  x < y */\n              lt\n                /* \"CONTRACT/v2-core-master/contracts/libraries/Math.sol\":178:191  x < y ? x : y */\n              tag_328\n              jumpi\n                /* \"CONTRACT/v2-core-master/contracts/libraries/Math.sol\":190:191  y */\n              dup2\n                /* \"CONTRACT/v2-core-master/contracts/libraries/Math.sol\":178:191  x < y ? x : y */\n              jump(tag_329)\n            tag_328:\n                /* \"CONTRACT/v2-core-master/contracts/libraries/Math.sol\":186:187  x */\n              dup3\n                /* \"CONTRACT/v2-core-master/contracts/libraries/Math.sol\":178:191  x < y ? x : y */\n            tag_329:\n                /* \"CONTRACT/v2-core-master/contracts/libraries/Math.sol\":174:191  z = x < y ? x : y */\n              swap4\n                /* \"CONTRACT/v2-core-master/contracts/libraries/Math.sol\":103:199  function min(uint x, uint y) internal pure returns (uint z) {\r... */\n              swap3\n              pop\n              pop\n              pop\n              jump\t// out\n                /* \"CONTRACT/v2-core-master/contracts/UniswapV2ERC20.sol\":1608:1817  function _burn(address from, uint value) internal {\r... */\n            tag_219:\n              sub(shl(0xa0, 0x01), 0x01)\n                /* \"CONTRACT/v2-core-master/contracts/UniswapV2ERC20.sol\":1687:1702  balanceOf[from] */\n              dup3\n              and\n              0x00\n              swap1\n              dup2\n              mstore\n              mstore(0x20, 0x01)\n              0x40\n              swap1\n              keccak256\n              sload\n                /* \"CONTRACT/v2-core-master/contracts/UniswapV2ERC20.sol\":1687:1713  balanceOf[from].sub(value) */\n              tag_331\n              swap1\n                /* \"CONTRACT/v2-core-master/contracts/UniswapV2ERC20.sol\":1707:1712  value */\n              dup3\n                /* \"CONTRACT/v2-core-master/contracts/UniswapV2ERC20.sol\":1687:1706  balanceOf[from].sub */\n              tag_147\n                /* \"CONTRACT/v2-core-master/contracts/UniswapV2ERC20.sol\":1687:1713  balanceOf[from].sub(value) */\n              jump\t// in\n            tag_331:\n              sub(shl(0xa0, 0x01), 0x01)\n                /* \"CONTRACT/v2-core-master/contracts/UniswapV2ERC20.sol\":1669:1684  balanceOf[from] */\n              dup4\n              and\n              0x00\n              swap1\n              dup2\n              mstore\n              mstore(0x20, 0x01)\n              0x40\n              dup2\n              keccak256\n                /* \"CONTRACT/v2-core-master/contracts/UniswapV2ERC20.sol\":1669:1713  balanceOf[from] = balanceOf[from].sub(value) */\n              swap2\n              swap1\n              swap2\n              sstore\n                /* \"CONTRACT/v2-core-master/contracts/UniswapV2ERC20.sol\":1738:1749  totalSupply */\n              sload\n                /* \"CONTRACT/v2-core-master/contracts/UniswapV2ERC20.sol\":1738:1760  totalSupply.sub(value) */\n              tag_332\n              swap1\n                /* \"CONTRACT/v2-core-master/contracts/UniswapV2ERC20.sol\":1754:1759  value */\n              dup3\n                /* \"CONTRACT/v2-core-master/contracts/UniswapV2ERC20.sol\":1738:1753  totalSupply.sub */\n              tag_147\n                /* \"CONTRACT/v2-core-master/contracts/UniswapV2ERC20.sol\":1738:1760  totalSupply.sub(value) */\n              jump\t// in\n            tag_332:\n                /* \"CONTRACT/v2-core-master/contracts/UniswapV2ERC20.sol\":1724:1735  totalSupply */\n              0x00\n                /* \"CONTRACT/v2-core-master/contracts/UniswapV2ERC20.sol\":1724:1760  totalSupply = totalSupply.sub(value) */\n              swap1\n              dup2\n              sstore\n                /* \"CONTRACT/v2-core-master/contracts/UniswapV2ERC20.sol\":1776:1809  Transfer(from, address(0), value) */\n              0x40\n              dup1\n              mload\n              dup4\n              dup2\n              mstore\n              swap1\n              mload\n              sub(shl(0xa0, 0x01), 0x01)\n              dup6\n              and\n              swap2\n              0xddf252ad1be2c89b69c2b068fc378daa952ba7f163c4a11628f55a4df523b3ef\n              swap2\n              swap1\n              dup2\n              swap1\n              sub\n              0x20\n              add\n              swap1\n              log3\n                /* \"CONTRACT/v2-core-master/contracts/UniswapV2ERC20.sol\":1608:1817  function _burn(address from, uint value) internal {\r... */\n              pop\n              pop\n              jump\t// out\n                /* \"CONTRACT/v2-core-master/contracts/libraries/UQ112x112.sol\":294:414  function encode(uint112 y) internal pure returns (uint224 z) {\r... */\n            tag_287:\n              sub(shl(0x70, 0x01), 0x01)\n                /* \"CONTRACT/v2-core-master/contracts/libraries/UQ112x112.sol\":370:380  uint224(y) */\n              and\n              shl(0x70, 0x01)\n                /* \"CONTRACT/v2-core-master/contracts/libraries/UQ112x112.sol\":370:387  uint224(y) * Q112 */\n              mul\n              swap1\n                /* \"CONTRACT/v2-core-master/contracts/libraries/UQ112x112.sol\":294:414  function encode(uint112 y) internal pure returns (uint224 z) {\r... */\n              jump\t// out\n                /* \"CONTRACT/v2-core-master/contracts/libraries/UQ112x112.sol\":485:593  function uqdiv(uint224 x, uint112 y) internal pure returns (uint224 z) {\r... */\n            tag_288:\n                /* \"CONTRACT/v2-core-master/contracts/libraries/UQ112x112.sol\":545:554  uint224 z */\n              0x00\n              sub(shl(0x70, 0x01), 0x01)\n                /* \"CONTRACT/v2-core-master/contracts/libraries/UQ112x112.sol\":575:585  uint224(y) */\n              dup3\n              and\n              sub(shl(0xe0, 0x01), 0x01)\n                /* \"CONTRACT/v2-core-master/contracts/libraries/UQ112x112.sol\":571:585  x / uint224(y) */\n              dup5\n              and\n                /* \"CONTRACT/v2-core-master/contracts/libraries/UQ112x112.sol\":575:585  uint224(y) */\n              dup2\n                /* \"CONTRACT/v2-core-master/contracts/libraries/UQ112x112.sol\":571:585  x / uint224(y) */\n              tag_335\n              jumpi\n              invalid\n            tag_335:\n              div\n              swap4\n                /* \"CONTRACT/v2-core-master/contracts/libraries/UQ112x112.sol\":485:593  function uqdiv(uint224 x, uint112 y) internal pure returns (uint224 z) {\r... */\n              swap3\n              pop\n              pop\n              pop\n              jump\t// out\n                /* \"CONTRACT/v2-core-master/contracts/libraries/SafeMath.sol\":161:289  function add(uint x, uint y) internal pure returns (uint z) {\r... */\n            tag_295:\n                /* \"CONTRACT/v2-core-master/contracts/libraries/SafeMath.sol\":245:250  x + y */\n              dup1\n              dup3\n              add\n                /* \"CONTRACT/v2-core-master/contracts/libraries/SafeMath.sol\":240:256  (z = x + y) >= x */\n              dup3\n              dup2\n              lt\n              iszero\n                /* \"CONTRACT/v2-core-master/contracts/libraries/SafeMath.sol\":232:281  require((z = x + y) >= x, 'ds-math-add-overflow') */\n              tag_158\n              jumpi\n              0x40\n              dup1\n              mload\n              shl(0xe5, 0x461bcd)\n              dup2\n              mstore\n              0x20\n              0x04\n              dup3\n              add\n              mstore\n              0x14\n              0x24\n              dup3\n              add\n              mstore\n              shl(0x60, 0x64732d6d6174682d6164642d6f766572666c6f77)\n              0x44\n              dup3\n              add\n              mstore\n              swap1\n              mload\n              swap1\n              dup2\n              swap1\n              sub\n              0x64\n              add\n              swap1\n              revert\n            stop\n            data_05339493da7e2cbe77e17beadf6b91132eb307939495f5f1797bf88d95539e83 556e697377617056323a20494e53554646494349454e545f4f55545055545f414d4f554e54\n            data_10e2efc32d8a31d3b2c11a545b3ed09c2dbabc58ef6de4033929d0002e425b67 556e697377617056323a20494e53554646494349454e545f494e5055545f414d4f554e54\n            data_3f354ef449b2a9b081220ce21f57691008110b653edc191d8288e60cef58bb5f 556e697377617056323a20494e53554646494349454e545f4c4951554944495459\n            data_57ebfb4dd8b5082cdba0f23c17077e3b0ecb9782a51e0e9a15e9bc8c4b30c562 556e697377617056323a20494e53554646494349454e545f4c49515549444954595f4255524e4544\n            data_6591c9f5bf1fefaad109b76a20e25c857b696080c952191f86220f001a83663e 556e697377617056323a20494e53554646494349454e545f4c49515549444954595f4d494e544544\n\n            auxdata: 0xa265627a7a723158202908e4245d2f5e142d7d2c6862c5b549009844cb01b586f2bc6fc6e55eb21ec964736f6c63430005100032\n        }\n    }\n\n    auxdata: 0xa265627a7a72315820d16dde2e83475615d75e0071b8adc21ddefa3923f5e7f005d157ff88b78cfbc864736f6c63430005100032\n}\n",
				"bytecode": {
					"linkReferences": {},
					"object": "608060405234801561001057600080fd5b50604051612b16380380612b168339818101604052602081101561003357600080fd5b5051600180546001600160a01b0319166001600160a01b03909216919091179055612ab3806100636000396000f3fe608060405234801561001057600080fd5b50600436106100935760003560e01c8063574f2ba311610066578063574f2ba3146100fb578063a2e74af614610103578063c9c653961461012b578063e6a4390514610159578063f46901ed1461018757610093565b8063017e7e5814610098578063094b7415146100bc5780631e3dd18b146100c4578063257671f5146100e1575b600080fd5b6100a06101ad565b604080516001600160a01b039092168252519081900360200190f35b6100a06101bc565b6100a0600480360360208110156100da57600080fd5b50356101cb565b6100e96101f2565b60408051918252519081900360200190f35b6100e9610285565b6101296004803603602081101561011957600080fd5b50356001600160a01b031661028b565b005b6100a06004803603604081101561014157600080fd5b506001600160a01b0381358116916020013516610303565b6100a06004803603604081101561016f57600080fd5b506001600160a01b0381358116916020013516610634565b6101296004803603602081101561019d57600080fd5b50356001600160a01b031661065a565b6000546001600160a01b031681565b6001546001600160a01b031681565b600381815481106101d857fe5b6000918252602090912001546001600160a01b0316905081565b604051610201602082016106d2565b6020820181038252601f19601f820116604052506040516020018082805190602001908083835b602083106102475780518252601f199092019160209182019101610228565b6001836020036101000a0380198251168184511680821785525050505050509050019150506040516020818303038152906040528051906020012081565b60035490565b6001546001600160a01b031633146102e1576040805162461bcd60e51b81526020600482015260146024820152732ab734b9bbb0b82b191d102327a92124a22222a760611b604482015290519081900360640190fd5b600180546001600160a01b0319166001600160a01b0392909216919091179055565b6000816001600160a01b0316836001600160a01b0316141561036c576040805162461bcd60e51b815260206004820152601e60248201527f556e697377617056323a204944454e544943414c5f4144445245535345530000604482015290519081900360640190fd5b600080836001600160a01b0316856001600160a01b03161061038f578385610392565b84845b90925090506001600160a01b0382166103f2576040805162461bcd60e51b815260206004820152601760248201527f556e697377617056323a205a45524f5f41444452455353000000000000000000604482015290519081900360640190fd5b6001600160a01b03828116600090815260026020908152604080832085851684529091529020541615610465576040805162461bcd60e51b8152602060048201526016602482015275556e697377617056323a20504149525f45584953545360501b604482015290519081900360640190fd5b606060405180602001610477906106d2565b6020820181038252601f19601f8201166040525090506000838360405160200180836001600160a01b03166001600160a01b031660601b8152601401826001600160a01b03166001600160a01b031660601b815260140192505050604051602081830303815290604052805190602001209050808251602084016000f56040805163485cc95560e01b81526001600160a01b038781166004830152868116602483015291519297509087169163485cc9559160448082019260009290919082900301818387803b15801561054a57600080fd5b505af115801561055e573d6000803e3d6000fd5b505050506001600160a01b0384811660008181526002602081815260408084208987168086529083528185208054978d166001600160a01b031998891681179091559383528185208686528352818520805488168517905560038054600181018255958190527fc2575a0e9e593c00f959f8c92f12db2869c3395a3b0502d05e2516446f71f85b90950180549097168417909655925483519283529082015281517f0d3648bd0f6ba80134a33ba9275ac585d9d315f0ad8355cddefde31afa28d0e9929181900390910190a35050505092915050565b60026020908152600092835260408084209091529082529020546001600160a01b031681565b6001546001600160a01b031633146106b0576040805162461bcd60e51b81526020600482015260146024820152732ab734b9bbb0b82b191d102327a92124a22222a760611b604482015290519081900360640190fd5b600080546001600160a01b0319166001600160a01b0392909216919091179055565b61239f806106e08339019056fe60806040526001600c5534801561001557600080fd5b50604051469080605261234d823960408051918290036052018220828201825260038084526245564f60e81b6020948501528251808401845260018152603160f81b908501528251808501929092527f19282f83aceb4f3cdf76a68e7025cfbabe6150e8d7b6d40b07961c72c7c778e8828401527fc89efdaa54c0f20c7adf612882df0950f5a951637e0307cdcb4c672f298b8bc6606083015260808201959095523060a0808301919091528251808303909101815260c0909101909152805191012090915550600580546001600160a01b03191633179055612250806100fd6000396000f3fe608060405234801561001057600080fd5b50600436106101a95760003560e01c80636a627842116100f9578063ba9a7a5611610097578063d21220a711610071578063d21220a71461052c578063d505accf14610534578063dd62ed3e14610585578063fff6cae9146105b3576101a9565b8063ba9a7a56146104f6578063bc25cf77146104fe578063c45a015514610524576101a9565b80637ecebe00116100d35780637ecebe001461046557806389afcb441461048b57806395d89b411461023c578063a9059cbb146104ca576101a9565b80636a6278421461041157806370a08231146104375780637464fc3d1461045d576101a9565b806323b872dd116101665780633644e515116101405780633644e515146103cb578063485cc955146103d35780635909c0d5146104015780635a3d549314610409576101a9565b806323b872dd1461036f57806330adf81f146103a5578063313ce567146103ad576101a9565b8063022c0d9f146101ae57806306fdde031461023c5780630902f1ac146102b9578063095ea7b3146102f15780630dfe16811461033157806318160ddd14610355575b600080fd5b61023a600480360360808110156101c457600080fd5b8135916020810135916001600160a01b0360408301351691908101906080810160608201356401000000008111156101fb57600080fd5b82018360208201111561020d57600080fd5b8035906020019184600183028401116401000000008311171561022f57600080fd5b5090925090506105bb565b005b610244610af6565b6040805160208082528351818301528351919283929083019185019080838360005b8381101561027e578181015183820152602001610266565b50505050905090810190601f1680156102ab5780820380516001836020036101000a031916815260200191505b509250505060405180910390f35b6102c1610b15565b604080516001600160701b03948516815292909316602083015263ffffffff168183015290519081900360600190f35b61031d6004803603604081101561030757600080fd5b506001600160a01b038135169060200135610b3f565b604080519115158252519081900360200190f35b610339610b56565b604080516001600160a01b039092168252519081900360200190f35b61035d610b65565b60408051918252519081900360200190f35b61031d6004803603606081101561038557600080fd5b506001600160a01b03813581169160208101359091169060400135610b6b565b61035d610c05565b6103b5610c29565b6040805160ff9092168252519081900360200190f35b61035d610c2e565b61023a600480360360408110156103e957600080fd5b506001600160a01b0381358116916020013516610c34565b61035d610cb8565b61035d610cbe565b61035d6004803603602081101561042757600080fd5b50356001600160a01b0316610cc4565b61035d6004803603602081101561044d57600080fd5b50356001600160a01b0316610fc4565b61035d610fd6565b61035d6004803603602081101561047b57600080fd5b50356001600160a01b0316610fdc565b6104b1600480360360208110156104a157600080fd5b50356001600160a01b0316610fee565b6040805192835260208301919091528051918290030190f35b61031d600480360360408110156104e057600080fd5b506001600160a01b038135169060200135611394565b61035d6113a1565b61023a6004803603602081101561051457600080fd5b50356001600160a01b03166113a7565b610339611512565b610339611521565b61023a600480360360e081101561054a57600080fd5b506001600160a01b03813581169160208101359091169060408101359060608101359060ff6080820135169060a08101359060c00135611530565b61035d6004803603604081101561059b57600080fd5b506001600160a01b0381358116916020013516611732565b61023a61174f565b600c54600114610606576040805162461bcd60e51b8152602060048201526011602482015270155b9a5cddd85c158c8e881313d0d2d151607a1b604482015290519081900360640190fd5b6000600c55841515806106195750600084115b6106545760405162461bcd60e51b81526004018080602001828103825260258152602001806121626025913960400191505060405180910390fd5b60008061065f610b15565b5091509150816001600160701b0316871080156106845750806001600160701b031686105b6106bf5760405162461bcd60e51b81526004018080602001828103825260218152602001806121ab6021913960400191505060405180910390fd5b60065460075460009182916001600160a01b039182169190811690891682148015906106fd5750806001600160a01b0316896001600160a01b031614155b610746576040805162461bcd60e51b8152602060048201526015602482015274556e697377617056323a20494e56414c49445f544f60581b604482015290519081900360640190fd5b8a1561075757610757828a8d6118b1565b891561076857610768818a8c6118b1565b861561082357886001600160a01b03166310d1e85c338d8d8c8c6040518663ffffffff1660e01b815260040180866001600160a01b03166001600160a01b03168152602001858152602001848152602001806020018281038252848482818152602001925080828437600081840152601f19601f8201169050808301925050509650505050505050600060405180830381600087803b15801561080a57600080fd5b505af115801561081e573d6000803e3d6000fd5b505050505b604080516370a0823160e01b815230600482015290516001600160a01b038416916370a08231916024808301926020929190829003018186803b15801561086957600080fd5b505afa15801561087d573d6000803e3d6000fd5b505050506040513d602081101561089357600080fd5b5051604080516370a0823160e01b815230600482015290519195506001600160a01b038316916370a0823191602480820192602092909190829003018186803b1580156108df57600080fd5b505afa1580156108f3573d6000803e3d6000fd5b505050506040513d602081101561090957600080fd5b5051925060009150506001600160701b0385168a9003831161092c57600061093b565b89856001600160701b03160383035b9050600089856001600160701b0316038311610958576000610967565b89856001600160701b03160383035b905060008211806109785750600081115b6109b35760405162461bcd60e51b81526004018080602001828103825260248152602001806121876024913960400191505060405180910390fd5b60006109e76109c984600363ffffffff611a4b16565b6109db876103e863ffffffff611a4b16565b9063ffffffff611aae16565b905060006109ff6109c984600363ffffffff611a4b16565b9050610a30620f4240610a246001600160701b038b8116908b1663ffffffff611a4b16565b9063ffffffff611a4b16565b610a40838363ffffffff611a4b16565b1015610a82576040805162461bcd60e51b815260206004820152600c60248201526b556e697377617056323a204b60a01b604482015290519081900360640190fd5b5050610a9084848888611afe565b60408051838152602081018390528082018d9052606081018c905290516001600160a01b038b169133917fd78ad95fa46c994b6551d0da85fc275fe613ce37657fb8d5e3d130840159d8229181900360800190a350506001600c55505050505050505050565b6040518060400160405280600381526020016245564f60e81b81525081565b6008546001600160701b0380821692600160701b830490911691600160e01b900463ffffffff1690565b6000610b4c338484611cc3565b5060015b92915050565b6006546001600160a01b031681565b60005481565b6001600160a01b038316600090815260026020908152604080832033845290915281205460001914610bf0576001600160a01b0384166000908152600260209081526040808320338452909152902054610bcb908363ffffffff611aae16565b6001600160a01b03851660009081526002602090815260408083203384529091529020555b610bfb848484611d25565b5060019392505050565b7f6e71edae12b1b97f4d1f60370fef10105fa2faae0126114a169c64845d6126c981565b601281565b60035481565b6005546001600160a01b03163314610c8a576040805162461bcd60e51b81526020600482015260146024820152732ab734b9bbb0b82b191d102327a92124a22222a760611b604482015290519081900360640190fd5b600680546001600160a01b039384166001600160a01b03199182161790915560078054929093169116179055565b60095481565b600a5481565b6000600c54600114610d11576040805162461bcd60e51b8152602060048201526011602482015270155b9a5cddd85c158c8e881313d0d2d151607a1b604482015290519081900360640190fd5b6000600c81905580610d21610b15565b50600654604080516370a0823160e01b815230600482015290519395509193506000926001600160a01b03909116916370a08231916024808301926020929190829003018186803b158015610d7557600080fd5b505afa158015610d89573d6000803e3d6000fd5b505050506040513d6020811015610d9f57600080fd5b5051600754604080516370a0823160e01b815230600482015290519293506000926001600160a01b03909216916370a0823191602480820192602092909190829003018186803b158015610df257600080fd5b505afa158015610e06573d6000803e3d6000fd5b505050506040513d6020811015610e1c57600080fd5b505190506000610e3b836001600160701b03871663ffffffff611aae16565b90506000610e58836001600160701b03871663ffffffff611aae16565b90506000610e668787611ddf565b60005490915080610ea357610e8f6103e86109db610e8a878763ffffffff611a4b16565b611f3d565b9850610e9e60006103e8611f8f565b610ef2565b610eef6001600160701b038916610ec0868463ffffffff611a4b16565b81610ec757fe5b046001600160701b038916610ee2868563ffffffff611a4b16565b81610ee957fe5b04612025565b98505b60008911610f315760405162461bcd60e51b81526004018080602001828103825260288152602001806121f46028913960400191505060405180910390fd5b610f3b8a8a611f8f565b610f4786868a8a611afe565b8115610f7757600854610f73906001600160701b0380821691600160701b90041663ffffffff611a4b16565b600b555b6040805185815260208101859052815133927f4c209b5fc8ad50758f13e2e1088ba56a560dff690a1c6fef26394f4c03821c4f928290030190a250506001600c5550949695505050505050565b60016020526000908152604090205481565b600b5481565b60046020526000908152604090205481565b600080600c5460011461103c576040805162461bcd60e51b8152602060048201526011602482015270155b9a5cddd85c158c8e881313d0d2d151607a1b604482015290519081900360640190fd5b6000600c8190558061104c610b15565b50600654600754604080516370a0823160e01b815230600482015290519496509294506001600160a01b039182169391169160009184916370a08231916024808301926020929190829003018186803b1580156110a857600080fd5b505afa1580156110bc573d6000803e3d6000fd5b505050506040513d60208110156110d257600080fd5b5051604080516370a0823160e01b815230600482015290519192506000916001600160a01b038516916370a08231916024808301926020929190829003018186803b15801561112057600080fd5b505afa158015611134573d6000803e3d6000fd5b505050506040513d602081101561114a57600080fd5b5051306000908152600160205260408120549192506111698888611ddf565b60005490915080611180848763ffffffff611a4b16565b8161118757fe5b049a508061119b848663ffffffff611a4b16565b816111a257fe5b04995060008b1180156111b5575060008a115b6111f05760405162461bcd60e51b81526004018080602001828103825260288152602001806121cc6028913960400191505060405180910390fd5b6111fa308461203d565b611205878d8d6118b1565b611210868d8c6118b1565b604080516370a0823160e01b815230600482015290516001600160a01b038916916370a08231916024808301926020929190829003018186803b15801561125657600080fd5b505afa15801561126a573d6000803e3d6000fd5b505050506040513d602081101561128057600080fd5b5051604080516370a0823160e01b815230600482015290519196506001600160a01b038816916370a0823191602480820192602092909190829003018186803b1580156112cc57600080fd5b505afa1580156112e0573d6000803e3d6000fd5b505050506040513d60208110156112f657600080fd5b5051935061130685858b8b611afe565b811561133657600854611332906001600160701b0380821691600160701b90041663ffffffff611a4b16565b600b555b604080518c8152602081018c905281516001600160a01b038f169233927fdccd412f0b1252819cb1fd330b93224ca42612892bb3f4f789976e6d81936496929081900390910190a35050505050505050506001600c81905550915091565b6000610b4c338484611d25565b6103e881565b600c546001146113f2576040805162461bcd60e51b8152602060048201526011602482015270155b9a5cddd85c158c8e881313d0d2d151607a1b604482015290519081900360640190fd5b6000600c55600654600754600854604080516370a0823160e01b815230600482015290516001600160a01b0394851694909316926114a1928592879261149c926001600160701b03169185916370a0823191602480820192602092909190829003018186803b15801561146457600080fd5b505afa158015611478573d6000803e3d6000fd5b505050506040513d602081101561148e57600080fd5b50519063ffffffff611aae16565b6118b1565b600854604080516370a0823160e01b81523060048201529051611508928492879261149c92600160701b90046001600160701b0316916001600160a01b038616916370a0823191602480820192602092909190829003018186803b15801561146457600080fd5b50506001600c5550565b6005546001600160a01b031681565b6007546001600160a01b031681565b4284101561157a576040805162461bcd60e51b8152602060048201526012602482015271155b9a5cddd85c158c8e881156141254915160721b604482015290519081900360640190fd5b6003546001600160a01b0380891660008181526004602090815260408083208054600180820190925582517f6e71edae12b1b97f4d1f60370fef10105fa2faae0126114a169c64845d6126c98186015280840196909652958d166060860152608085018c905260a085019590955260c08085018b90528151808603909101815260e08501825280519083012061190160f01b6101008601526101028501969096526101228085019690965280518085039096018652610142840180825286519683019690962095839052610162840180825286905260ff89166101828501526101a284018890526101c28401879052519193926101e280820193601f1981019281900390910190855afa158015611695573d6000803e3d6000fd5b5050604051601f1901519150506001600160a01b038116158015906116cb5750886001600160a01b0316816001600160a01b0316145b61171c576040805162461bcd60e51b815260206004820152601c60248201527f556e697377617056323a20494e56414c49445f5349474e415455524500000000604482015290519081900360640190fd5b611727898989611cc3565b505050505050505050565b600260209081526000928352604080842090915290825290205481565b600c5460011461179a576040805162461bcd60e51b8152602060048201526011602482015270155b9a5cddd85c158c8e881313d0d2d151607a1b604482015290519081900360640190fd5b6000600c55600654604080516370a0823160e01b815230600482015290516118aa926001600160a01b0316916370a08231916024808301926020929190829003018186803b1580156117eb57600080fd5b505afa1580156117ff573d6000803e3d6000fd5b505050506040513d602081101561181557600080fd5b5051600754604080516370a0823160e01b815230600482015290516001600160a01b03909216916370a0823191602480820192602092909190829003018186803b15801561186257600080fd5b505afa158015611876573d6000803e3d6000fd5b505050506040513d602081101561188c57600080fd5b50516008546001600160701b0380821691600160701b900416611afe565b6001600c55565b604080518082018252601981527f7472616e7366657228616464726573732c75696e74323536290000000000000060209182015281516001600160a01b0385811660248301526044808301869052845180840390910181526064909201845291810180516001600160e01b031663a9059cbb60e01b1781529251815160009460609489169392918291908083835b6020831061195e5780518252601f19909201916020918201910161193f565b6001836020036101000a0380198251168184511680821785525050505050509050019150506000604051808303816000865af19150503d80600081146119c0576040519150601f19603f3d011682016040523d82523d6000602084013e6119c5565b606091505b50915091508180156119f35750805115806119f357508080602001905160208110156119f057600080fd5b50515b611a44576040805162461bcd60e51b815260206004820152601a60248201527f556e697377617056323a205452414e534645525f4641494c4544000000000000604482015290519081900360640190fd5b5050505050565b6000811580611a6657505080820282828281611a6357fe5b04145b610b50576040805162461bcd60e51b815260206004820152601460248201527364732d6d6174682d6d756c2d6f766572666c6f7760601b604482015290519081900360640190fd5b80820382811115610b50576040805162461bcd60e51b815260206004820152601560248201527464732d6d6174682d7375622d756e646572666c6f7760581b604482015290519081900360640190fd5b6001600160701b038411801590611b1c57506001600160701b038311155b611b63576040805162461bcd60e51b8152602060048201526013602482015272556e697377617056323a204f564552464c4f5760681b604482015290519081900360640190fd5b60085463ffffffff42811691600160e01b90048116820390811615801590611b9357506001600160701b03841615155b8015611ba757506001600160701b03831615155b15611c18578063ffffffff16611bd585611bc0866120db565b6001600160e01b03169063ffffffff6120ed16565b600980546001600160e01b03929092169290920201905563ffffffff8116611c0084611bc0876120db565b600a80546001600160e01b0392909216929092020190555b600880546dffffffffffffffffffffffffffff19166001600160701b03888116919091176dffffffffffffffffffffffffffff60701b1916600160701b8883168102919091176001600160e01b0316600160e01b63ffffffff871602179283905560408051848416815291909304909116602082015281517f1c411e9a96e071241c2f21f7726b17ae89e3cab4c78be50e062b03a9fffbbad1929181900390910190a1505050505050565b6001600160a01b03808416600081815260026020908152604080832094871680845294825291829020859055815185815291517f8c5be1e5ebec7d5bd14f71427d1e84f3dd0314c0f7b2291e5b200ac8c7c3b9259281900390910190a3505050565b6001600160a01b038316600090815260016020526040902054611d4e908263ffffffff611aae16565b6001600160a01b038085166000908152600160205260408082209390935590841681522054611d83908263ffffffff61211216565b6001600160a01b0380841660008181526001602090815260409182902094909455805185815290519193928716927fddf252ad1be2c89b69c2b068fc378daa952ba7f163c4a11628f55a4df523b3ef92918290030190a3505050565b600080600560009054906101000a90046001600160a01b03166001600160a01b031663017e7e586040518163ffffffff1660e01b815260040160206040518083038186803b158015611e3057600080fd5b505afa158015611e44573d6000803e3d6000fd5b505050506040513d6020811015611e5a57600080fd5b5051600b546001600160a01b038216158015945091925090611f29578015611f24576000611e9d610e8a6001600160701b0388811690881663ffffffff611a4b16565b90506000611eaa83611f3d565b905080821115611f21576000611ed8611ec9848463ffffffff611aae16565b6000549063ffffffff611a4b16565b90506000611efd83611ef186600963ffffffff611a4b16565b9063ffffffff61211216565b90506000818381611f0a57fe5b0490508015611f1d57611f1d8782611f8f565b5050505b50505b611f35565b8015611f35576000600b555b505092915050565b60006003821115611f80575080600160028204015b81811015611f7a57809150600281828581611f6957fe5b040181611f7257fe5b049050611f52565b50611f8a565b8115611f8a575060015b919050565b600054611fa2908263ffffffff61211216565b60009081556001600160a01b038316815260016020526040902054611fcd908263ffffffff61211216565b6001600160a01b03831660008181526001602090815260408083209490945583518581529351929391927fddf252ad1be2c89b69c2b068fc378daa952ba7f163c4a11628f55a4df523b3ef9281900390910190a35050565b60008183106120345781612036565b825b9392505050565b6001600160a01b038216600090815260016020526040902054612066908263ffffffff611aae16565b6001600160a01b03831660009081526001602052604081209190915554612093908263ffffffff611aae16565b60009081556040805183815290516001600160a01b038516917fddf252ad1be2c89b69c2b068fc378daa952ba7f163c4a11628f55a4df523b3ef919081900360200190a35050565b6001600160701b0316600160701b0290565b60006001600160701b0382166001600160e01b0384168161210a57fe5b049392505050565b80820182811015610b50576040805162461bcd60e51b815260206004820152601460248201527364732d6d6174682d6164642d6f766572666c6f7760601b604482015290519081900360640190fdfe556e697377617056323a20494e53554646494349454e545f4f55545055545f414d4f554e54556e697377617056323a20494e53554646494349454e545f494e5055545f414d4f554e54556e697377617056323a20494e53554646494349454e545f4c4951554944495459556e697377617056323a20494e53554646494349454e545f4c49515549444954595f4255524e4544556e697377617056323a20494e53554646494349454e545f4c49515549444954595f4d494e544544a265627a7a723158202908e4245d2f5e142d7d2c6862c5b549009844cb01b586f2bc6fc6e55eb21ec964736f6c63430005100032454950373132446f6d61696e28737472696e67206e616d652c737472696e672076657273696f6e2c75696e7432353620636861696e49642c6164647265737320766572696679696e67436f6e747261637429a265627a7a72315820d16dde2e83475615d75e0071b8adc21ddefa3923f5e7f005d157ff88b78cfbc864736f6c63430005100032",
					"opcodes": "PUSH1 0x80 PUSH1 0x40 MSTORE CALLVALUE DUP1 ISZERO PUSH2 0x10 JUMPI PUSH1 0x0 DUP1 REVERT JUMPDEST POP PUSH1 0x40 MLOAD PUSH2 0x2B16 CODESIZE SUB DUP1 PUSH2 0x2B16 DUP4 CODECOPY DUP2 DUP2 ADD PUSH1 0x40 MSTORE PUSH1 0x20 DUP2 LT ISZERO PUSH2 0x33 JUMPI PUSH1 0x0 DUP1 REVERT JUMPDEST POP MLOAD PUSH1 0x1 DUP1 SLOAD PUSH1 0x1 PUSH1 0x1 PUSH1 0xA0 SHL SUB NOT AND PUSH1 0x1 PUSH1 0x1 PUSH1 0xA0 SHL SUB SWAP1 SWAP3 AND SWAP2 SWAP1 SWAP2 OR SWAP1 SSTORE PUSH2 0x2AB3 DUP1 PUSH2 0x63 PUSH1 0x0 CODECOPY PUSH1 0x0 RETURN INVALID PUSH1 0x80 PUSH1 0x40 MSTORE CALLVALUE DUP1 ISZERO PUSH2 0x10 JUMPI PUSH1 0x0 DUP1 REVERT JUMPDEST POP PUSH1 0x4 CALLDATASIZE LT PUSH2 0x93 JUMPI PUSH1 0x0 CALLDATALOAD PUSH1 0xE0 SHR DUP1 PUSH4 0x574F2BA3 GT PUSH2 0x66 JUMPI DUP1 PUSH4 0x574F2BA3 EQ PUSH2 0xFB JUMPI DUP1 PUSH4 0xA2E74AF6 EQ PUSH2 0x103 JUMPI DUP1 PUSH4 0xC9C65396 EQ PUSH2 0x12B JUMPI DUP1 PUSH4 0xE6A43905 EQ PUSH2 0x159 JUMPI DUP1 PUSH4 0xF46901ED EQ PUSH2 0x187 JUMPI PUSH2 0x93 JUMP JUMPDEST DUP1 PUSH4 0x17E7E58 EQ PUSH2 0x98 JUMPI DUP1 PUSH4 0x94B7415 EQ PUSH2 0xBC JUMPI DUP1 PUSH4 0x1E3DD18B EQ PUSH2 0xC4 JUMPI DUP1 PUSH4 0x257671F5 EQ PUSH2 0xE1 JUMPI JUMPDEST PUSH1 0x0 DUP1 REVERT JUMPDEST PUSH2 0xA0 PUSH2 0x1AD JUMP JUMPDEST PUSH1 0x40 DUP1 MLOAD PUSH1 0x1 PUSH1 0x1 PUSH1 0xA0 SHL SUB SWAP1 SWAP3 AND DUP3 MSTORE MLOAD SWAP1 DUP2 SWAP1 SUB PUSH1 0x20 ADD SWAP1 RETURN JUMPDEST PUSH2 0xA0 PUSH2 0x1BC JUMP JUMPDEST PUSH2 0xA0 PUSH1 0x4 DUP1 CALLDATASIZE SUB PUSH1 0x20 DUP2 LT ISZERO PUSH2 0xDA JUMPI PUSH1 0x0 DUP1 REVERT JUMPDEST POP CALLDATALOAD PUSH2 0x1CB JUMP JUMPDEST PUSH2 0xE9 PUSH2 0x1F2 JUMP JUMPDEST PUSH1 0x40 DUP1 MLOAD SWAP2 DUP3 MSTORE MLOAD SWAP1 DUP2 SWAP1 SUB PUSH1 0x20 ADD SWAP1 RETURN JUMPDEST PUSH2 0xE9 PUSH2 0x285 JUMP JUMPDEST PUSH2 0x129 PUSH1 0x4 DUP1 CALLDATASIZE SUB PUSH1 0x20 DUP2 LT ISZERO PUSH2 0x119 JUMPI PUSH1 0x0 DUP1 REVERT JUMPDEST POP CALLDATALOAD PUSH1 0x1 PUSH1 0x1 PUSH1 0xA0 SHL SUB AND PUSH2 0x28B JUMP JUMPDEST STOP JUMPDEST PUSH2 0xA0 PUSH1 0x4 DUP1 CALLDATASIZE SUB PUSH1 0x40 DUP2 LT ISZERO PUSH2 0x141 JUMPI PUSH1 0x0 DUP1 REVERT JUMPDEST POP PUSH1 0x1 PUSH1 0x1 PUSH1 0xA0 SHL SUB DUP2 CALLDATALOAD DUP2 AND SWAP2 PUSH1 0x20 ADD CALLDATALOAD AND PUSH2 0x303 JUMP JUMPDEST PUSH2 0xA0 PUSH1 0x4 DUP1 CALLDATASIZE SUB PUSH1 0x40 DUP2 LT ISZERO PUSH2 0x16F JUMPI PUSH1 0x0 DUP1 REVERT JUMPDEST POP PUSH1 0x1 PUSH1 0x1 PUSH1 0xA0 SHL SUB DUP2 CALLDATALOAD DUP2 AND SWAP2 PUSH1 0x20 ADD CALLDATALOAD AND PUSH2 0x634 JUMP JUMPDEST PUSH2 0x129 PUSH1 0x4 DUP1 CALLDATASIZE SUB PUSH1 0x20 DUP2 LT ISZERO PUSH2 0x19D JUMPI PUSH1 0x0 DUP1 REVERT JUMPDEST POP CALLDATALOAD PUSH1 0x1 PUSH1 0x1 PUSH1 0xA0 SHL SUB AND PUSH2 0x65A JUMP JUMPDEST PUSH1 0x0 SLOAD PUSH1 0x1 PUSH1 0x1 PUSH1 0xA0 SHL SUB AND DUP2 JUMP JUMPDEST PUSH1 0x1 SLOAD PUSH1 0x1 PUSH1 0x1 PUSH1 0xA0 SHL SUB AND DUP2 JUMP JUMPDEST PUSH1 0x3 DUP2 DUP2 SLOAD DUP2 LT PUSH2 0x1D8 JUMPI INVALID JUMPDEST PUSH1 0x0 SWAP2 DUP3 MSTORE PUSH1 0x20 SWAP1 SWAP2 KECCAK256 ADD SLOAD PUSH1 0x1 PUSH1 0x1 PUSH1 0xA0 SHL SUB AND SWAP1 POP DUP2 JUMP JUMPDEST PUSH1 0x40 MLOAD PUSH2 0x201 PUSH1 0x20 DUP3 ADD PUSH2 0x6D2 JUMP JUMPDEST PUSH1 0x20 DUP3 ADD DUP2 SUB DUP3 MSTORE PUSH1 0x1F NOT PUSH1 0x1F DUP3 ADD AND PUSH1 0x40 MSTORE POP PUSH1 0x40 MLOAD PUSH1 0x20 ADD DUP1 DUP3 DUP1 MLOAD SWAP1 PUSH1 0x20 ADD SWAP1 DUP1 DUP4 DUP4 JUMPDEST PUSH1 0x20 DUP4 LT PUSH2 0x247 JUMPI DUP1 MLOAD DUP3 MSTORE PUSH1 0x1F NOT SWAP1 SWAP3 ADD SWAP2 PUSH1 0x20 SWAP2 DUP3 ADD SWAP2 ADD PUSH2 0x228 JUMP JUMPDEST PUSH1 0x1 DUP4 PUSH1 0x20 SUB PUSH2 0x100 EXP SUB DUP1 NOT DUP3 MLOAD AND DUP2 DUP5 MLOAD AND DUP1 DUP3 OR DUP6 MSTORE POP POP POP POP POP POP SWAP1 POP ADD SWAP2 POP POP PUSH1 0x40 MLOAD PUSH1 0x20 DUP2 DUP4 SUB SUB DUP2 MSTORE SWAP1 PUSH1 0x40 MSTORE DUP1 MLOAD SWAP1 PUSH1 0x20 ADD KECCAK256 DUP2 JUMP JUMPDEST PUSH1 0x3 SLOAD SWAP1 JUMP JUMPDEST PUSH1 0x1 SLOAD PUSH1 0x1 PUSH1 0x1 PUSH1 0xA0 SHL SUB AND CALLER EQ PUSH2 0x2E1 JUMPI PUSH1 0x40 DUP1 MLOAD PUSH3 0x461BCD PUSH1 0xE5 SHL DUP2 MSTORE PUSH1 0x20 PUSH1 0x4 DUP3 ADD MSTORE PUSH1 0x14 PUSH1 0x24 DUP3 ADD MSTORE PUSH20 0x2AB734B9BBB0B82B191D102327A92124A22222A7 PUSH1 0x61 SHL PUSH1 0x44 DUP3 ADD MSTORE SWAP1 MLOAD SWAP1 DUP2 SWAP1 SUB PUSH1 0x64 ADD SWAP1 REVERT JUMPDEST PUSH1 0x1 DUP1 SLOAD PUSH1 0x1 PUSH1 0x1 PUSH1 0xA0 SHL SUB NOT AND PUSH1 0x1 PUSH1 0x1 PUSH1 0xA0 SHL SUB SWAP3 SWAP1 SWAP3 AND SWAP2 SWAP1 SWAP2 OR SWAP1 SSTORE JUMP JUMPDEST PUSH1 0x0 DUP2 PUSH1 0x1 PUSH1 0x1 PUSH1 0xA0 SHL SUB AND DUP4 PUSH1 0x1 PUSH1 0x1 PUSH1 0xA0 SHL SUB AND EQ ISZERO PUSH2 0x36C JUMPI PUSH1 0x40 DUP1 MLOAD PUSH3 0x461BCD PUSH1 0xE5 SHL DUP2 MSTORE PUSH1 0x20 PUSH1 0x4 DUP3 ADD MSTORE PUSH1 0x1E PUSH1 0x24 DUP3 ADD MSTORE PUSH32 0x556E697377617056323A204944454E544943414C5F4144445245535345530000 PUSH1 0x44 DUP3 ADD MSTORE SWAP1 MLOAD SWAP1 DUP2 SWAP1 SUB PUSH1 0x64 ADD SWAP1 REVERT JUMPDEST PUSH1 0x0 DUP1 DUP4 PUSH1 0x1 PUSH1 0x1 PUSH1 0xA0 SHL SUB AND DUP6 PUSH1 0x1 PUSH1 0x1 PUSH1 0xA0 SHL SUB AND LT PUSH2 0x38F JUMPI DUP4 DUP6 PUSH2 0x392 JUMP JUMPDEST DUP5 DUP5 JUMPDEST SWAP1 SWAP3 POP SWAP1 POP PUSH1 0x1 PUSH1 0x1 PUSH1 0xA0 SHL SUB DUP3 AND PUSH2 0x3F2 JUMPI PUSH1 0x40 DUP1 MLOAD PUSH3 0x461BCD PUSH1 0xE5 SHL DUP2 MSTORE PUSH1 0x20 PUSH1 0x4 DUP3 ADD MSTORE PUSH1 0x17 PUSH1 0x24 DUP3 ADD MSTORE PUSH32 0x556E697377617056323A205A45524F5F41444452455353000000000000000000 PUSH1 0x44 DUP3 ADD MSTORE SWAP1 MLOAD SWAP1 DUP2 SWAP1 SUB PUSH1 0x64 ADD SWAP1 REVERT JUMPDEST PUSH1 0x1 PUSH1 0x1 PUSH1 0xA0 SHL SUB DUP3 DUP2 AND PUSH1 0x0 SWAP1 DUP2 MSTORE PUSH1 0x2 PUSH1 0x20 SWAP1 DUP2 MSTORE PUSH1 0x40 DUP1 DUP4 KECCAK256 DUP6 DUP6 AND DUP5 MSTORE SWAP1 SWAP2 MSTORE SWAP1 KECCAK256 SLOAD AND ISZERO PUSH2 0x465 JUMPI PUSH1 0x40 DUP1 MLOAD PUSH3 0x461BCD PUSH1 0xE5 SHL DUP2 MSTORE PUSH1 0x20 PUSH1 0x4 DUP3 ADD MSTORE PUSH1 0x16 PUSH1 0x24 DUP3 ADD MSTORE PUSH22 0x556E697377617056323A20504149525F455849535453 PUSH1 0x50 SHL PUSH1 0x44 DUP3 ADD MSTORE SWAP1 MLOAD SWAP1 DUP2 SWAP1 SUB PUSH1 0x64 ADD SWAP1 REVERT JUMPDEST PUSH1 0x60 PUSH1 0x40 MLOAD DUP1 PUSH1 0x20 ADD PUSH2 0x477 SWAP1 PUSH2 0x6D2 JUMP JUMPDEST PUSH1 0x20 DUP3 ADD DUP2 SUB DUP3 MSTORE PUSH1 0x1F NOT PUSH1 0x1F DUP3 ADD AND PUSH1 0x40 MSTORE POP SWAP1 POP PUSH1 0x0 DUP4 DUP4 PUSH1 0x40 MLOAD PUSH1 0x20 ADD DUP1 DUP4 PUSH1 0x1 PUSH1 0x1 PUSH1 0xA0 SHL SUB AND PUSH1 0x1 PUSH1 0x1 PUSH1 0xA0 SHL SUB AND PUSH1 0x60 SHL DUP2 MSTORE PUSH1 0x14 ADD DUP3 PUSH1 0x1 PUSH1 0x1 PUSH1 0xA0 SHL SUB AND PUSH1 0x1 PUSH1 0x1 PUSH1 0xA0 SHL SUB AND PUSH1 0x60 SHL DUP2 MSTORE PUSH1 0x14 ADD SWAP3 POP POP POP PUSH1 0x40 MLOAD PUSH1 0x20 DUP2 DUP4 SUB SUB DUP2 MSTORE SWAP1 PUSH1 0x40 MSTORE DUP1 MLOAD SWAP1 PUSH1 0x20 ADD KECCAK256 SWAP1 POP DUP1 DUP3 MLOAD PUSH1 0x20 DUP5 ADD PUSH1 0x0 CREATE2 PUSH1 0x40 DUP1 MLOAD PUSH4 0x485CC955 PUSH1 0xE0 SHL DUP2 MSTORE PUSH1 0x1 PUSH1 0x1 PUSH1 0xA0 SHL SUB DUP8 DUP2 AND PUSH1 0x4 DUP4 ADD MSTORE DUP7 DUP2 AND PUSH1 0x24 DUP4 ADD MSTORE SWAP2 MLOAD SWAP3 SWAP8 POP SWAP1 DUP8 AND SWAP2 PUSH4 0x485CC955 SWAP2 PUSH1 0x44 DUP1 DUP3 ADD SWAP3 PUSH1 0x0 SWAP3 SWAP1 SWAP2 SWAP1 DUP3 SWAP1 SUB ADD DUP2 DUP4 DUP8 DUP1 EXTCODESIZE ISZERO DUP1 ISZERO PUSH2 0x54A JUMPI PUSH1 0x0 DUP1 REVERT JUMPDEST POP GAS CALL ISZERO DUP1 ISZERO PUSH2 0x55E JUMPI RETURNDATASIZE PUSH1 0x0 DUP1 RETURNDATACOPY RETURNDATASIZE PUSH1 0x0 REVERT JUMPDEST POP POP POP POP PUSH1 0x1 PUSH1 0x1 PUSH1 0xA0 SHL SUB DUP5 DUP2 AND PUSH1 0x0 DUP2 DUP2 MSTORE PUSH1 0x2 PUSH1 0x20 DUP2 DUP2 MSTORE PUSH1 0x40 DUP1 DUP5 KECCAK256 DUP10 DUP8 AND DUP1 DUP7 MSTORE SWAP1 DUP4 MSTORE DUP2 DUP6 KECCAK256 DUP1 SLOAD SWAP8 DUP14 AND PUSH1 0x1 PUSH1 0x1 PUSH1 0xA0 SHL SUB NOT SWAP9 DUP10 AND DUP2 OR SWAP1 SWAP2 SSTORE SWAP4 DUP4 MSTORE DUP2 DUP6 KECCAK256 DUP7 DUP7 MSTORE DUP4 MSTORE DUP2 DUP6 KECCAK256 DUP1 SLOAD DUP9 AND DUP6 OR SWAP1 SSTORE PUSH1 0x3 DUP1 SLOAD PUSH1 0x1 DUP2 ADD DUP3 SSTORE SWAP6 DUP2 SWAP1 MSTORE PUSH32 0xC2575A0E9E593C00F959F8C92F12DB2869C3395A3B0502D05E2516446F71F85B SWAP1 SWAP6 ADD DUP1 SLOAD SWAP1 SWAP8 AND DUP5 OR SWAP1 SWAP7 SSTORE SWAP3 SLOAD DUP4 MLOAD SWAP3 DUP4 MSTORE SWAP1 DUP3 ADD MSTORE DUP2 MLOAD PUSH32 0xD3648BD0F6BA80134A33BA9275AC585D9D315F0AD8355CDDEFDE31AFA28D0E9 SWAP3 SWAP2 DUP2 SWAP1 SUB SWAP1 SWAP2 ADD SWAP1 LOG3 POP POP POP POP SWAP3 SWAP2 POP POP JUMP JUMPDEST PUSH1 0x2 PUSH1 0x20 SWAP1 DUP2 MSTORE PUSH1 0x0 SWAP3 DUP4 MSTORE PUSH1 0x40 DUP1 DUP5 KECCAK256 SWAP1 SWAP2 MSTORE SWAP1 DUP3 MSTORE SWAP1 KECCAK256 SLOAD PUSH1 0x1 PUSH1 0x1 PUSH1 0xA0 SHL SUB AND DUP2 JUMP JUMPDEST PUSH1 0x1 SLOAD PUSH1 0x1 PUSH1 0x1 PUSH1 0xA0 SHL SUB AND CALLER EQ PUSH2 0x6B0 JUMPI PUSH1 0x40 DUP1 MLOAD PUSH3 0x461BCD PUSH1 0xE5 SHL DUP2 MSTORE PUSH1 0x20 PUSH1 0x4 DUP3 ADD MSTORE PUSH1 0x14 PUSH1 0x24 DUP3 ADD MSTORE PUSH20 0x2AB734B9BBB0B82B191D102327A92124A22222A7 PUSH1 0x61 SHL PUSH1 0x44 DUP3 ADD MSTORE SWAP1 MLOAD SWAP1 DUP2 SWAP1 SUB PUSH1 0x64 ADD SWAP1 REVERT JUMPDEST PUSH1 0x0 DUP1 SLOAD PUSH1 0x1 PUSH1 0x1 PUSH1 0xA0 SHL SUB NOT AND PUSH1 0x1 PUSH1 0x1 PUSH1 0xA0 SHL SUB SWAP3 SWAP1 SWAP3 AND SWAP2 SWAP1 SWAP2 OR SWAP1 SSTORE JUMP JUMPDEST PUSH2 0x239F DUP1 PUSH2 0x6E0 DUP4 CODECOPY ADD SWAP1 JUMP INVALID PUSH1 0x80 PUSH1 0x40 MSTORE PUSH1 0x1 PUSH1 0xC SSTORE CALLVALUE DUP1 ISZERO PUSH2 0x15 JUMPI PUSH1 0x0 DUP1 REVERT JUMPDEST POP PUSH1 0x40 MLOAD CHAINID SWAP1 DUP1 PUSH1 0x52 PUSH2 0x234D DUP3 CODECOPY PUSH1 0x40 DUP1 MLOAD SWAP2 DUP3 SWAP1 SUB PUSH1 0x52 ADD DUP3 KECCAK256 DUP3 DUP3 ADD DUP3 MSTORE PUSH1 0x3 DUP1 DUP5 MSTORE PUSH3 0x45564F PUSH1 0xE8 SHL PUSH1 0x20 SWAP5 DUP6 ADD MSTORE DUP3 MLOAD DUP1 DUP5 ADD DUP5 MSTORE PUSH1 0x1 DUP2 MSTORE PUSH1 0x31 PUSH1 0xF8 SHL SWAP1 DUP6 ADD MSTORE DUP3 MLOAD DUP1 DUP6 ADD SWAP3 SWAP1 SWAP3 MSTORE PUSH32 0x19282F83ACEB4F3CDF76A68E7025CFBABE6150E8D7B6D40B07961C72C7C778E8 DUP3 DUP5 ADD MSTORE PUSH32 0xC89EFDAA54C0F20C7ADF612882DF0950F5A951637E0307CDCB4C672F298B8BC6 PUSH1 0x60 DUP4 ADD MSTORE PUSH1 0x80 DUP3 ADD SWAP6 SWAP1 SWAP6 MSTORE ADDRESS PUSH1 0xA0 DUP1 DUP4 ADD SWAP2 SWAP1 SWAP2 MSTORE DUP3 MLOAD DUP1 DUP4 SUB SWAP1 SWAP2 ADD DUP2 MSTORE PUSH1 0xC0 SWAP1 SWAP2 ADD SWAP1 SWAP2 MSTORE DUP1 MLOAD SWAP2 ADD KECCAK256 SWAP1 SWAP2 SSTORE POP PUSH1 0x5 DUP1 SLOAD PUSH1 0x1 PUSH1 0x1 PUSH1 0xA0 SHL SUB NOT AND CALLER OR SWAP1 SSTORE PUSH2 0x2250 DUP1 PUSH2 0xFD PUSH1 0x0 CODECOPY PUSH1 0x0 RETURN INVALID PUSH1 0x80 PUSH1 0x40 MSTORE CALLVALUE DUP1 ISZERO PUSH2 0x10 JUMPI PUSH1 0x0 DUP1 REVERT JUMPDEST POP PUSH1 0x4 CALLDATASIZE LT PUSH2 0x1A9 JUMPI PUSH1 0x0 CALLDATALOAD PUSH1 0xE0 SHR DUP1 PUSH4 0x6A627842 GT PUSH2 0xF9 JUMPI DUP1 PUSH4 0xBA9A7A56 GT PUSH2 0x97 JUMPI DUP1 PUSH4 0xD21220A7 GT PUSH2 0x71 JUMPI DUP1 PUSH4 0xD21220A7 EQ PUSH2 0x52C JUMPI DUP1 PUSH4 0xD505ACCF EQ PUSH2 0x534 JUMPI DUP1 PUSH4 0xDD62ED3E EQ PUSH2 0x585 JUMPI DUP1 PUSH4 0xFFF6CAE9 EQ PUSH2 0x5B3 JUMPI PUSH2 0x1A9 JUMP JUMPDEST DUP1 PUSH4 0xBA9A7A56 EQ PUSH2 0x4F6 JUMPI DUP1 PUSH4 0xBC25CF77 EQ PUSH2 0x4FE JUMPI DUP1 PUSH4 0xC45A0155 EQ PUSH2 0x524 JUMPI PUSH2 0x1A9 JUMP JUMPDEST DUP1 PUSH4 0x7ECEBE00 GT PUSH2 0xD3 JUMPI DUP1 PUSH4 0x7ECEBE00 EQ PUSH2 0x465 JUMPI DUP1 PUSH4 0x89AFCB44 EQ PUSH2 0x48B JUMPI DUP1 PUSH4 0x95D89B41 EQ PUSH2 0x23C JUMPI DUP1 PUSH4 0xA9059CBB EQ PUSH2 0x4CA JUMPI PUSH2 0x1A9 JUMP JUMPDEST DUP1 PUSH4 0x6A627842 EQ PUSH2 0x411 JUMPI DUP1 PUSH4 0x70A08231 EQ PUSH2 0x437 JUMPI DUP1 PUSH4 0x7464FC3D EQ PUSH2 0x45D JUMPI PUSH2 0x1A9 JUMP JUMPDEST DUP1 PUSH4 0x23B872DD GT PUSH2 0x166 JUMPI DUP1 PUSH4 0x3644E515 GT PUSH2 0x140 JUMPI DUP1 PUSH4 0x3644E515 EQ PUSH2 0x3CB JUMPI DUP1 PUSH4 0x485CC955 EQ PUSH2 0x3D3 JUMPI DUP1 PUSH4 0x5909C0D5 EQ PUSH2 0x401 JUMPI DUP1 PUSH4 0x5A3D5493 EQ PUSH2 0x409 JUMPI PUSH2 0x1A9 JUMP JUMPDEST DUP1 PUSH4 0x23B872DD EQ PUSH2 0x36F JUMPI DUP1 PUSH4 0x30ADF81F EQ PUSH2 0x3A5 JUMPI DUP1 PUSH4 0x313CE567 EQ PUSH2 0x3AD JUMPI PUSH2 0x1A9 JUMP JUMPDEST DUP1 PUSH4 0x22C0D9F EQ PUSH2 0x1AE JUMPI DUP1 PUSH4 0x6FDDE03 EQ PUSH2 0x23C JUMPI DUP1 PUSH4 0x902F1AC EQ PUSH2 0x2B9 JUMPI DUP1 PUSH4 0x95EA7B3 EQ PUSH2 0x2F1 JUMPI DUP1 PUSH4 0xDFE1681 EQ PUSH2 0x331 JUMPI DUP1 PUSH4 0x18160DDD EQ PUSH2 0x355 JUMPI JUMPDEST PUSH1 0x0 DUP1 REVERT JUMPDEST PUSH2 0x23A PUSH1 0x4 DUP1 CALLDATASIZE SUB PUSH1 0x80 DUP2 LT ISZERO PUSH2 0x1C4 JUMPI PUSH1 0x0 DUP1 REVERT JUMPDEST DUP2 CALLDATALOAD SWAP2 PUSH1 0x20 DUP2 ADD CALLDATALOAD SWAP2 PUSH1 0x1 PUSH1 0x1 PUSH1 0xA0 SHL SUB PUSH1 0x40 DUP4 ADD CALLDATALOAD AND SWAP2 SWAP1 DUP2 ADD SWAP1 PUSH1 0x80 DUP2 ADD PUSH1 0x60 DUP3 ADD CALLDATALOAD PUSH5 0x100000000 DUP2 GT ISZERO PUSH2 0x1FB JUMPI PUSH1 0x0 DUP1 REVERT JUMPDEST DUP3 ADD DUP4 PUSH1 0x20 DUP3 ADD GT ISZERO PUSH2 0x20D JUMPI PUSH1 0x0 DUP1 REVERT JUMPDEST DUP1 CALLDATALOAD SWAP1 PUSH1 0x20 ADD SWAP2 DUP5 PUSH1 0x1 DUP4 MUL DUP5 ADD GT PUSH5 0x100000000 DUP4 GT OR ISZERO PUSH2 0x22F JUMPI PUSH1 0x0 DUP1 REVERT JUMPDEST POP SWAP1 SWAP3 POP SWAP1 POP PUSH2 0x5BB JUMP JUMPDEST STOP JUMPDEST PUSH2 0x244 PUSH2 0xAF6 JUMP JUMPDEST PUSH1 0x40 DUP1 MLOAD PUSH1 0x20 DUP1 DUP3 MSTORE DUP4 MLOAD DUP2 DUP4 ADD MSTORE DUP4 MLOAD SWAP2 SWAP3 DUP4 SWAP3 SWAP1 DUP4 ADD SWAP2 DUP6 ADD SWAP1 DUP1 DUP4 DUP4 PUSH1 0x0 JUMPDEST DUP4 DUP2 LT ISZERO PUSH2 0x27E JUMPI DUP2 DUP2 ADD MLOAD DUP4 DUP3 ADD MSTORE PUSH1 0x20 ADD PUSH2 0x266 JUMP JUMPDEST POP POP POP POP SWAP1 POP SWAP1 DUP2 ADD SWAP1 PUSH1 0x1F AND DUP1 ISZERO PUSH2 0x2AB JUMPI DUP1 DUP3 SUB DUP1 MLOAD PUSH1 0x1 DUP4 PUSH1 0x20 SUB PUSH2 0x100 EXP SUB NOT AND DUP2 MSTORE PUSH1 0x20 ADD SWAP2 POP JUMPDEST POP SWAP3 POP POP POP PUSH1 0x40 MLOAD DUP1 SWAP2 SUB SWAP1 RETURN JUMPDEST PUSH2 0x2C1 PUSH2 0xB15 JUMP JUMPDEST PUSH1 0x40 DUP1 MLOAD PUSH1 0x1 PUSH1 0x1 PUSH1 0x70 SHL SUB SWAP5 DUP6 AND DUP2 MSTORE SWAP3 SWAP1 SWAP4 AND PUSH1 0x20 DUP4 ADD MSTORE PUSH4 0xFFFFFFFF AND DUP2 DUP4 ADD MSTORE SWAP1 MLOAD SWAP1 DUP2 SWAP1 SUB PUSH1 0x60 ADD SWAP1 RETURN JUMPDEST PUSH2 0x31D PUSH1 0x4 DUP1 CALLDATASIZE SUB PUSH1 0x40 DUP2 LT ISZERO PUSH2 0x307 JUMPI PUSH1 0x0 DUP1 REVERT JUMPDEST POP PUSH1 0x1 PUSH1 0x1 PUSH1 0xA0 SHL SUB DUP2 CALLDATALOAD AND SWAP1 PUSH1 0x20 ADD CALLDATALOAD PUSH2 0xB3F JUMP JUMPDEST PUSH1 0x40 DUP1 MLOAD SWAP2 ISZERO ISZERO DUP3 MSTORE MLOAD SWAP1 DUP2 SWAP1 SUB PUSH1 0x20 ADD SWAP1 RETURN JUMPDEST PUSH2 0x339 PUSH2 0xB56 JUMP JUMPDEST PUSH1 0x40 DUP1 MLOAD PUSH1 0x1 PUSH1 0x1 PUSH1 0xA0 SHL SUB SWAP1 SWAP3 AND DUP3 MSTORE MLOAD SWAP1 DUP2 SWAP1 SUB PUSH1 0x20 ADD SWAP1 RETURN JUMPDEST PUSH2 0x35D PUSH2 0xB65 JUMP JUMPDEST PUSH1 0x40 DUP1 MLOAD SWAP2 DUP3 MSTORE MLOAD SWAP1 DUP2 SWAP1 SUB PUSH1 0x20 ADD SWAP1 RETURN JUMPDEST PUSH2 0x31D PUSH1 0x4 DUP1 CALLDATASIZE SUB PUSH1 0x60 DUP2 LT ISZERO PUSH2 0x385 JUMPI PUSH1 0x0 DUP1 REVERT JUMPDEST POP PUSH1 0x1 PUSH1 0x1 PUSH1 0xA0 SHL SUB DUP2 CALLDATALOAD DUP2 AND SWAP2 PUSH1 0x20 DUP2 ADD CALLDATALOAD SWAP1 SWAP2 AND SWAP1 PUSH1 0x40 ADD CALLDATALOAD PUSH2 0xB6B JUMP JUMPDEST PUSH2 0x35D PUSH2 0xC05 JUMP JUMPDEST PUSH2 0x3B5 PUSH2 0xC29 JUMP JUMPDEST PUSH1 0x40 DUP1 MLOAD PUSH1 0xFF SWAP1 SWAP3 AND DUP3 MSTORE MLOAD SWAP1 DUP2 SWAP1 SUB PUSH1 0x20 ADD SWAP1 RETURN JUMPDEST PUSH2 0x35D PUSH2 0xC2E JUMP JUMPDEST PUSH2 0x23A PUSH1 0x4 DUP1 CALLDATASIZE SUB PUSH1 0x40 DUP2 LT ISZERO PUSH2 0x3E9 JUMPI PUSH1 0x0 DUP1 REVERT JUMPDEST POP PUSH1 0x1 PUSH1 0x1 PUSH1 0xA0 SHL SUB DUP2 CALLDATALOAD DUP2 AND SWAP2 PUSH1 0x20 ADD CALLDATALOAD AND PUSH2 0xC34 JUMP JUMPDEST PUSH2 0x35D PUSH2 0xCB8 JUMP JUMPDEST PUSH2 0x35D PUSH2 0xCBE JUMP JUMPDEST PUSH2 0x35D PUSH1 0x4 DUP1 CALLDATASIZE SUB PUSH1 0x20 DUP2 LT ISZERO PUSH2 0x427 JUMPI PUSH1 0x0 DUP1 REVERT JUMPDEST POP CALLDATALOAD PUSH1 0x1 PUSH1 0x1 PUSH1 0xA0 SHL SUB AND PUSH2 0xCC4 JUMP JUMPDEST PUSH2 0x35D PUSH1 0x4 DUP1 CALLDATASIZE SUB PUSH1 0x20 DUP2 LT ISZERO PUSH2 0x44D JUMPI PUSH1 0x0 DUP1 REVERT JUMPDEST POP CALLDATALOAD PUSH1 0x1 PUSH1 0x1 PUSH1 0xA0 SHL SUB AND PUSH2 0xFC4 JUMP JUMPDEST PUSH2 0x35D PUSH2 0xFD6 JUMP JUMPDEST PUSH2 0x35D PUSH1 0x4 DUP1 CALLDATASIZE SUB PUSH1 0x20 DUP2 LT ISZERO PUSH2 0x47B JUMPI PUSH1 0x0 DUP1 REVERT JUMPDEST POP CALLDATALOAD PUSH1 0x1 PUSH1 0x1 PUSH1 0xA0 SHL SUB AND PUSH2 0xFDC JUMP JUMPDEST PUSH2 0x4B1 PUSH1 0x4 DUP1 CALLDATASIZE SUB PUSH1 0x20 DUP2 LT ISZERO PUSH2 0x4A1 JUMPI PUSH1 0x0 DUP1 REVERT JUMPDEST POP CALLDATALOAD PUSH1 0x1 PUSH1 0x1 PUSH1 0xA0 SHL SUB AND PUSH2 0xFEE JUMP JUMPDEST PUSH1 0x40 DUP1 MLOAD SWAP3 DUP4 MSTORE PUSH1 0x20 DUP4 ADD SWAP2 SWAP1 SWAP2 MSTORE DUP1 MLOAD SWAP2 DUP3 SWAP1 SUB ADD SWAP1 RETURN JUMPDEST PUSH2 0x31D PUSH1 0x4 DUP1 CALLDATASIZE SUB PUSH1 0x40 DUP2 LT ISZERO PUSH2 0x4E0 JUMPI PUSH1 0x0 DUP1 REVERT JUMPDEST POP PUSH1 0x1 PUSH1 0x1 PUSH1 0xA0 SHL SUB DUP2 CALLDATALOAD AND SWAP1 PUSH1 0x20 ADD CALLDATALOAD PUSH2 0x1394 JUMP JUMPDEST PUSH2 0x35D PUSH2 0x13A1 JUMP JUMPDEST PUSH2 0x23A PUSH1 0x4 DUP1 CALLDATASIZE SUB PUSH1 0x20 DUP2 LT ISZERO PUSH2 0x514 JUMPI PUSH1 0x0 DUP1 REVERT JUMPDEST POP CALLDATALOAD PUSH1 0x1 PUSH1 0x1 PUSH1 0xA0 SHL SUB AND PUSH2 0x13A7 JUMP JUMPDEST PUSH2 0x339 PUSH2 0x1512 JUMP JUMPDEST PUSH2 0x339 PUSH2 0x1521 JUMP JUMPDEST PUSH2 0x23A PUSH1 0x4 DUP1 CALLDATASIZE SUB PUSH1 0xE0 DUP2 LT ISZERO PUSH2 0x54A JUMPI PUSH1 0x0 DUP1 REVERT JUMPDEST POP PUSH1 0x1 PUSH1 0x1 PUSH1 0xA0 SHL SUB DUP2 CALLDATALOAD DUP2 AND SWAP2 PUSH1 0x20 DUP2 ADD CALLDATALOAD SWAP1 SWAP2 AND SWAP1 PUSH1 0x40 DUP2 ADD CALLDATALOAD SWAP1 PUSH1 0x60 DUP2 ADD CALLDATALOAD SWAP1 PUSH1 0xFF PUSH1 0x80 DUP3 ADD CALLDATALOAD AND SWAP1 PUSH1 0xA0 DUP2 ADD CALLDATALOAD SWAP1 PUSH1 0xC0 ADD CALLDATALOAD PUSH2 0x1530 JUMP JUMPDEST PUSH2 0x35D PUSH1 0x4 DUP1 CALLDATASIZE SUB PUSH1 0x40 DUP2 LT ISZERO PUSH2 0x59B JUMPI PUSH1 0x0 DUP1 REVERT JUMPDEST POP PUSH1 0x1 PUSH1 0x1 PUSH1 0xA0 SHL SUB DUP2 CALLDATALOAD DUP2 AND SWAP2 PUSH1 0x20 ADD CALLDATALOAD AND PUSH2 0x1732 JUMP JUMPDEST PUSH2 0x23A PUSH2 0x174F JUMP JUMPDEST PUSH1 0xC SLOAD PUSH1 0x1 EQ PUSH2 0x606 JUMPI PUSH1 0x40 DUP1 MLOAD PUSH3 0x461BCD PUSH1 0xE5 SHL DUP2 MSTORE PUSH1 0x20 PUSH1 0x4 DUP3 ADD MSTORE PUSH1 0x11 PUSH1 0x24 DUP3 ADD MSTORE PUSH17 0x155B9A5CDDD85C158C8E881313D0D2D151 PUSH1 0x7A SHL PUSH1 0x44 DUP3 ADD MSTORE SWAP1 MLOAD SWAP1 DUP2 SWAP1 SUB PUSH1 0x64 ADD SWAP1 REVERT JUMPDEST PUSH1 0x0 PUSH1 0xC SSTORE DUP5 ISZERO ISZERO DUP1 PUSH2 0x619 JUMPI POP PUSH1 0x0 DUP5 GT JUMPDEST PUSH2 0x654 JUMPI PUSH1 0x40 MLOAD PUSH3 0x461BCD PUSH1 0xE5 SHL DUP2 MSTORE PUSH1 0x4 ADD DUP1 DUP1 PUSH1 0x20 ADD DUP3 DUP2 SUB DUP3 MSTORE PUSH1 0x25 DUP2 MSTORE PUSH1 0x20 ADD DUP1 PUSH2 0x2162 PUSH1 0x25 SWAP2 CODECOPY PUSH1 0x40 ADD SWAP2 POP POP PUSH1 0x40 MLOAD DUP1 SWAP2 SUB SWAP1 REVERT JUMPDEST PUSH1 0x0 DUP1 PUSH2 0x65F PUSH2 0xB15 JUMP JUMPDEST POP SWAP2 POP SWAP2 POP DUP2 PUSH1 0x1 PUSH1 0x1 PUSH1 0x70 SHL SUB AND DUP8 LT DUP1 ISZERO PUSH2 0x684 JUMPI POP DUP1 PUSH1 0x1 PUSH1 0x1 PUSH1 0x70 SHL SUB AND DUP7 LT JUMPDEST PUSH2 0x6BF JUMPI PUSH1 0x40 MLOAD PUSH3 0x461BCD PUSH1 0xE5 SHL DUP2 MSTORE PUSH1 0x4 ADD DUP1 DUP1 PUSH1 0x20 ADD DUP3 DUP2 SUB DUP3 MSTORE PUSH1 0x21 DUP2 MSTORE PUSH1 0x20 ADD DUP1 PUSH2 0x21AB PUSH1 0x21 SWAP2 CODECOPY PUSH1 0x40 ADD SWAP2 POP POP PUSH1 0x40 MLOAD DUP1 SWAP2 SUB SWAP1 REVERT JUMPDEST PUSH1 0x6 SLOAD PUSH1 0x7 SLOAD PUSH1 0x0 SWAP2 DUP3 SWAP2 PUSH1 0x1 PUSH1 0x1 PUSH1 0xA0 SHL SUB SWAP2 DUP3 AND SWAP2 SWAP1 DUP2 AND SWAP1 DUP10 AND DUP3 EQ DUP1 ISZERO SWAP1 PUSH2 0x6FD JUMPI POP DUP1 PUSH1 0x1 PUSH1 0x1 PUSH1 0xA0 SHL SUB AND DUP10 PUSH1 0x1 PUSH1 0x1 PUSH1 0xA0 SHL SUB AND EQ ISZERO JUMPDEST PUSH2 0x746 JUMPI PUSH1 0x40 DUP1 MLOAD PUSH3 0x461BCD PUSH1 0xE5 SHL DUP2 MSTORE PUSH1 0x20 PUSH1 0x4 DUP3 ADD MSTORE PUSH1 0x15 PUSH1 0x24 DUP3 ADD MSTORE PUSH21 0x556E697377617056323A20494E56414C49445F544F PUSH1 0x58 SHL PUSH1 0x44 DUP3 ADD MSTORE SWAP1 MLOAD SWAP1 DUP2 SWAP1 SUB PUSH1 0x64 ADD SWAP1 REVERT JUMPDEST DUP11 ISZERO PUSH2 0x757 JUMPI PUSH2 0x757 DUP3 DUP11 DUP14 PUSH2 0x18B1 JUMP JUMPDEST DUP10 ISZERO PUSH2 0x768 JUMPI PUSH2 0x768 DUP2 DUP11 DUP13 PUSH2 0x18B1 JUMP JUMPDEST DUP7 ISZERO PUSH2 0x823 JUMPI DUP9 PUSH1 0x1 PUSH1 0x1 PUSH1 0xA0 SHL SUB AND PUSH4 0x10D1E85C CALLER DUP14 DUP14 DUP13 DUP13 PUSH1 0x40 MLOAD DUP7 PUSH4 0xFFFFFFFF AND PUSH1 0xE0 SHL DUP2 MSTORE PUSH1 0x4 ADD DUP1 DUP7 PUSH1 0x1 PUSH1 0x1 PUSH1 0xA0 SHL SUB AND PUSH1 0x1 PUSH1 0x1 PUSH1 0xA0 SHL SUB AND DUP2 MSTORE PUSH1 0x20 ADD DUP6 DUP2 MSTORE PUSH1 0x20 ADD DUP5 DUP2 MSTORE PUSH1 0x20 ADD DUP1 PUSH1 0x20 ADD DUP3 DUP2 SUB DUP3 MSTORE DUP5 DUP5 DUP3 DUP2 DUP2 MSTORE PUSH1 0x20 ADD SWAP3 POP DUP1 DUP3 DUP5 CALLDATACOPY PUSH1 0x0 DUP2 DUP5 ADD MSTORE PUSH1 0x1F NOT PUSH1 0x1F DUP3 ADD AND SWAP1 POP DUP1 DUP4 ADD SWAP3 POP POP POP SWAP7 POP POP POP POP POP POP POP PUSH1 0x0 PUSH1 0x40 MLOAD DUP1 DUP4 SUB DUP2 PUSH1 0x0 DUP8 DUP1 EXTCODESIZE ISZERO DUP1 ISZERO PUSH2 0x80A JUMPI PUSH1 0x0 DUP1 REVERT JUMPDEST POP GAS CALL ISZERO DUP1 ISZERO PUSH2 0x81E JUMPI RETURNDATASIZE PUSH1 0x0 DUP1 RETURNDATACOPY RETURNDATASIZE PUSH1 0x0 REVERT JUMPDEST POP POP POP POP JUMPDEST PUSH1 0x40 DUP1 MLOAD PUSH4 0x70A08231 PUSH1 0xE0 SHL DUP2 MSTORE ADDRESS PUSH1 0x4 DUP3 ADD MSTORE SWAP1 MLOAD PUSH1 0x1 PUSH1 0x1 PUSH1 0xA0 SHL SUB DUP5 AND SWAP2 PUSH4 0x70A08231 SWAP2 PUSH1 0x24 DUP1 DUP4 ADD SWAP3 PUSH1 0x20 SWAP3 SWAP2 SWAP1 DUP3 SWAP1 SUB ADD DUP2 DUP7 DUP1 EXTCODESIZE ISZERO DUP1 ISZERO PUSH2 0x869 JUMPI PUSH1 0x0 DUP1 REVERT JUMPDEST POP GAS STATICCALL ISZERO DUP1 ISZERO PUSH2 0x87D JUMPI RETURNDATASIZE PUSH1 0x0 DUP1 RETURNDATACOPY RETURNDATASIZE PUSH1 0x0 REVERT JUMPDEST POP POP POP POP PUSH1 0x40 MLOAD RETURNDATASIZE PUSH1 0x20 DUP2 LT ISZERO PUSH2 0x893 JUMPI PUSH1 0x0 DUP1 REVERT JUMPDEST POP MLOAD PUSH1 0x40 DUP1 MLOAD PUSH4 0x70A08231 PUSH1 0xE0 SHL DUP2 MSTORE ADDRESS PUSH1 0x4 DUP3 ADD MSTORE SWAP1 MLOAD SWAP2 SWAP6 POP PUSH1 0x1 PUSH1 0x1 PUSH1 0xA0 SHL SUB DUP4 AND SWAP2 PUSH4 0x70A08231 SWAP2 PUSH1 0x24 DUP1 DUP3 ADD SWAP3 PUSH1 0x20 SWAP3 SWAP1 SWAP2 SWAP1 DUP3 SWAP1 SUB ADD DUP2 DUP7 DUP1 EXTCODESIZE ISZERO DUP1 ISZERO PUSH2 0x8DF JUMPI PUSH1 0x0 DUP1 REVERT JUMPDEST POP GAS STATICCALL ISZERO DUP1 ISZERO PUSH2 0x8F3 JUMPI RETURNDATASIZE PUSH1 0x0 DUP1 RETURNDATACOPY RETURNDATASIZE PUSH1 0x0 REVERT JUMPDEST POP POP POP POP PUSH1 0x40 MLOAD RETURNDATASIZE PUSH1 0x20 DUP2 LT ISZERO PUSH2 0x909 JUMPI PUSH1 0x0 DUP1 REVERT JUMPDEST POP MLOAD SWAP3 POP PUSH1 0x0 SWAP2 POP POP PUSH1 0x1 PUSH1 0x1 PUSH1 0x70 SHL SUB DUP6 AND DUP11 SWAP1 SUB DUP4 GT PUSH2 0x92C JUMPI PUSH1 0x0 PUSH2 0x93B JUMP JUMPDEST DUP10 DUP6 PUSH1 0x1 PUSH1 0x1 PUSH1 0x70 SHL SUB AND SUB DUP4 SUB JUMPDEST SWAP1 POP PUSH1 0x0 DUP10 DUP6 PUSH1 0x1 PUSH1 0x1 PUSH1 0x70 SHL SUB AND SUB DUP4 GT PUSH2 0x958 JUMPI PUSH1 0x0 PUSH2 0x967 JUMP JUMPDEST DUP10 DUP6 PUSH1 0x1 PUSH1 0x1 PUSH1 0x70 SHL SUB AND SUB DUP4 SUB JUMPDEST SWAP1 POP PUSH1 0x0 DUP3 GT DUP1 PUSH2 0x978 JUMPI POP PUSH1 0x0 DUP2 GT JUMPDEST PUSH2 0x9B3 JUMPI PUSH1 0x40 MLOAD PUSH3 0x461BCD PUSH1 0xE5 SHL DUP2 MSTORE PUSH1 0x4 ADD DUP1 DUP1 PUSH1 0x20 ADD DUP3 DUP2 SUB DUP3 MSTORE PUSH1 0x24 DUP2 MSTORE PUSH1 0x20 ADD DUP1 PUSH2 0x2187 PUSH1 0x24 SWAP2 CODECOPY PUSH1 0x40 ADD SWAP2 POP POP PUSH1 0x40 MLOAD DUP1 SWAP2 SUB SWAP1 REVERT JUMPDEST PUSH1 0x0 PUSH2 0x9E7 PUSH2 0x9C9 DUP5 PUSH1 0x3 PUSH4 0xFFFFFFFF PUSH2 0x1A4B AND JUMP JUMPDEST PUSH2 0x9DB DUP8 PUSH2 0x3E8 PUSH4 0xFFFFFFFF PUSH2 0x1A4B AND JUMP JUMPDEST SWAP1 PUSH4 0xFFFFFFFF PUSH2 0x1AAE AND JUMP JUMPDEST SWAP1 POP PUSH1 0x0 PUSH2 0x9FF PUSH2 0x9C9 DUP5 PUSH1 0x3 PUSH4 0xFFFFFFFF PUSH2 0x1A4B AND JUMP JUMPDEST SWAP1 POP PUSH2 0xA30 PUSH3 0xF4240 PUSH2 0xA24 PUSH1 0x1 PUSH1 0x1 PUSH1 0x70 SHL SUB DUP12 DUP2 AND SWAP1 DUP12 AND PUSH4 0xFFFFFFFF PUSH2 0x1A4B AND JUMP JUMPDEST SWAP1 PUSH4 0xFFFFFFFF PUSH2 0x1A4B AND JUMP JUMPDEST PUSH2 0xA40 DUP4 DUP4 PUSH4 0xFFFFFFFF PUSH2 0x1A4B AND JUMP JUMPDEST LT ISZERO PUSH2 0xA82 JUMPI PUSH1 0x40 DUP1 MLOAD PUSH3 0x461BCD PUSH1 0xE5 SHL DUP2 MSTORE PUSH1 0x20 PUSH1 0x4 DUP3 ADD MSTORE PUSH1 0xC PUSH1 0x24 DUP3 ADD MSTORE PUSH12 0x556E697377617056323A204B PUSH1 0xA0 SHL PUSH1 0x44 DUP3 ADD MSTORE SWAP1 MLOAD SWAP1 DUP2 SWAP1 SUB PUSH1 0x64 ADD SWAP1 REVERT JUMPDEST POP POP PUSH2 0xA90 DUP5 DUP5 DUP9 DUP9 PUSH2 0x1AFE JUMP JUMPDEST PUSH1 0x40 DUP1 MLOAD DUP4 DUP2 MSTORE PUSH1 0x20 DUP2 ADD DUP4 SWAP1 MSTORE DUP1 DUP3 ADD DUP14 SWAP1 MSTORE PUSH1 0x60 DUP2 ADD DUP13 SWAP1 MSTORE SWAP1 MLOAD PUSH1 0x1 PUSH1 0x1 PUSH1 0xA0 SHL SUB DUP12 AND SWAP2 CALLER SWAP2 PUSH32 0xD78AD95FA46C994B6551D0DA85FC275FE613CE37657FB8D5E3D130840159D822 SWAP2 DUP2 SWAP1 SUB PUSH1 0x80 ADD SWAP1 LOG3 POP POP PUSH1 0x1 PUSH1 0xC SSTORE POP POP POP POP POP POP POP POP POP JUMP JUMPDEST PUSH1 0x40 MLOAD DUP1 PUSH1 0x40 ADD PUSH1 0x40 MSTORE DUP1 PUSH1 0x3 DUP2 MSTORE PUSH1 0x20 ADD PUSH3 0x45564F PUSH1 0xE8 SHL DUP2 MSTORE POP DUP2 JUMP JUMPDEST PUSH1 0x8 SLOAD PUSH1 0x1 PUSH1 0x1 PUSH1 0x70 SHL SUB DUP1 DUP3 AND SWAP3 PUSH1 0x1 PUSH1 0x70 SHL DUP4 DIV SWAP1 SWAP2 AND SWAP2 PUSH1 0x1 PUSH1 0xE0 SHL SWAP1 DIV PUSH4 0xFFFFFFFF AND SWAP1 JUMP JUMPDEST PUSH1 0x0 PUSH2 0xB4C CALLER DUP5 DUP5 PUSH2 0x1CC3 JUMP JUMPDEST POP PUSH1 0x1 JUMPDEST SWAP3 SWAP2 POP POP JUMP JUMPDEST PUSH1 0x6 SLOAD PUSH1 0x1 PUSH1 0x1 PUSH1 0xA0 SHL SUB AND DUP2 JUMP JUMPDEST PUSH1 0x0 SLOAD DUP2 JUMP JUMPDEST PUSH1 0x1 PUSH1 0x1 PUSH1 0xA0 SHL SUB DUP4 AND PUSH1 0x0 SWAP1 DUP2 MSTORE PUSH1 0x2 PUSH1 0x20 SWAP1 DUP2 MSTORE PUSH1 0x40 DUP1 DUP4 KECCAK256 CALLER DUP5 MSTORE SWAP1 SWAP2 MSTORE DUP2 KECCAK256 SLOAD PUSH1 0x0 NOT EQ PUSH2 0xBF0 JUMPI PUSH1 0x1 PUSH1 0x1 PUSH1 0xA0 SHL SUB DUP5 AND PUSH1 0x0 SWAP1 DUP2 MSTORE PUSH1 0x2 PUSH1 0x20 SWAP1 DUP2 MSTORE PUSH1 0x40 DUP1 DUP4 KECCAK256 CALLER DUP5 MSTORE SWAP1 SWAP2 MSTORE SWAP1 KECCAK256 SLOAD PUSH2 0xBCB SWAP1 DUP4 PUSH4 0xFFFFFFFF PUSH2 0x1AAE AND JUMP JUMPDEST PUSH1 0x1 PUSH1 0x1 PUSH1 0xA0 SHL SUB DUP6 AND PUSH1 0x0 SWAP1 DUP2 MSTORE PUSH1 0x2 PUSH1 0x20 SWAP1 DUP2 MSTORE PUSH1 0x40 DUP1 DUP4 KECCAK256 CALLER DUP5 MSTORE SWAP1 SWAP2 MSTORE SWAP1 KECCAK256 SSTORE JUMPDEST PUSH2 0xBFB DUP5 DUP5 DUP5 PUSH2 0x1D25 JUMP JUMPDEST POP PUSH1 0x1 SWAP4 SWAP3 POP POP POP JUMP JUMPDEST PUSH32 0x6E71EDAE12B1B97F4D1F60370FEF10105FA2FAAE0126114A169C64845D6126C9 DUP2 JUMP JUMPDEST PUSH1 0x12 DUP2 JUMP JUMPDEST PUSH1 0x3 SLOAD DUP2 JUMP JUMPDEST PUSH1 0x5 SLOAD PUSH1 0x1 PUSH1 0x1 PUSH1 0xA0 SHL SUB AND CALLER EQ PUSH2 0xC8A JUMPI PUSH1 0x40 DUP1 MLOAD PUSH3 0x461BCD PUSH1 0xE5 SHL DUP2 MSTORE PUSH1 0x20 PUSH1 0x4 DUP3 ADD MSTORE PUSH1 0x14 PUSH1 0x24 DUP3 ADD MSTORE PUSH20 0x2AB734B9BBB0B82B191D102327A92124A22222A7 PUSH1 0x61 SHL PUSH1 0x44 DUP3 ADD MSTORE SWAP1 MLOAD SWAP1 DUP2 SWAP1 SUB PUSH1 0x64 ADD SWAP1 REVERT JUMPDEST PUSH1 0x6 DUP1 SLOAD PUSH1 0x1 PUSH1 0x1 PUSH1 0xA0 SHL SUB SWAP4 DUP5 AND PUSH1 0x1 PUSH1 0x1 PUSH1 0xA0 SHL SUB NOT SWAP2 DUP3 AND OR SWAP1 SWAP2 SSTORE PUSH1 0x7 DUP1 SLOAD SWAP3 SWAP1 SWAP4 AND SWAP2 AND OR SWAP1 SSTORE JUMP JUMPDEST PUSH1 0x9 SLOAD DUP2 JUMP JUMPDEST PUSH1 0xA SLOAD DUP2 JUMP JUMPDEST PUSH1 0x0 PUSH1 0xC SLOAD PUSH1 0x1 EQ PUSH2 0xD11 JUMPI PUSH1 0x40 DUP1 MLOAD PUSH3 0x461BCD PUSH1 0xE5 SHL DUP2 MSTORE PUSH1 0x20 PUSH1 0x4 DUP3 ADD MSTORE PUSH1 0x11 PUSH1 0x24 DUP3 ADD MSTORE PUSH17 0x155B9A5CDDD85C158C8E881313D0D2D151 PUSH1 0x7A SHL PUSH1 0x44 DUP3 ADD MSTORE SWAP1 MLOAD SWAP1 DUP2 SWAP1 SUB PUSH1 0x64 ADD SWAP1 REVERT JUMPDEST PUSH1 0x0 PUSH1 0xC DUP2 SWAP1 SSTORE DUP1 PUSH2 0xD21 PUSH2 0xB15 JUMP JUMPDEST POP PUSH1 0x6 SLOAD PUSH1 0x40 DUP1 MLOAD PUSH4 0x70A08231 PUSH1 0xE0 SHL DUP2 MSTORE ADDRESS PUSH1 0x4 DUP3 ADD MSTORE SWAP1 MLOAD SWAP4 SWAP6 POP SWAP2 SWAP4 POP PUSH1 0x0 SWAP3 PUSH1 0x1 PUSH1 0x1 PUSH1 0xA0 SHL SUB SWAP1 SWAP2 AND SWAP2 PUSH4 0x70A08231 SWAP2 PUSH1 0x24 DUP1 DUP4 ADD SWAP3 PUSH1 0x20 SWAP3 SWAP2 SWAP1 DUP3 SWAP1 SUB ADD DUP2 DUP7 DUP1 EXTCODESIZE ISZERO DUP1 ISZERO PUSH2 0xD75 JUMPI PUSH1 0x0 DUP1 REVERT JUMPDEST POP GAS STATICCALL ISZERO DUP1 ISZERO PUSH2 0xD89 JUMPI RETURNDATASIZE PUSH1 0x0 DUP1 RETURNDATACOPY RETURNDATASIZE PUSH1 0x0 REVERT JUMPDEST POP POP POP POP PUSH1 0x40 MLOAD RETURNDATASIZE PUSH1 0x20 DUP2 LT ISZERO PUSH2 0xD9F JUMPI PUSH1 0x0 DUP1 REVERT JUMPDEST POP MLOAD PUSH1 0x7 SLOAD PUSH1 0x40 DUP1 MLOAD PUSH4 0x70A08231 PUSH1 0xE0 SHL DUP2 MSTORE ADDRESS PUSH1 0x4 DUP3 ADD MSTORE SWAP1 MLOAD SWAP3 SWAP4 POP PUSH1 0x0 SWAP3 PUSH1 0x1 PUSH1 0x1 PUSH1 0xA0 SHL SUB SWAP1 SWAP3 AND SWAP2 PUSH4 0x70A08231 SWAP2 PUSH1 0x24 DUP1 DUP3 ADD SWAP3 PUSH1 0x20 SWAP3 SWAP1 SWAP2 SWAP1 DUP3 SWAP1 SUB ADD DUP2 DUP7 DUP1 EXTCODESIZE ISZERO DUP1 ISZERO PUSH2 0xDF2 JUMPI PUSH1 0x0 DUP1 REVERT JUMPDEST POP GAS STATICCALL ISZERO DUP1 ISZERO PUSH2 0xE06 JUMPI RETURNDATASIZE PUSH1 0x0 DUP1 RETURNDATACOPY RETURNDATASIZE PUSH1 0x0 REVERT JUMPDEST POP POP POP POP PUSH1 0x40 MLOAD RETURNDATASIZE PUSH1 0x20 DUP2 LT ISZERO PUSH2 0xE1C JUMPI PUSH1 0x0 DUP1 REVERT JUMPDEST POP MLOAD SWAP1 POP PUSH1 0x0 PUSH2 0xE3B DUP4 PUSH1 0x1 PUSH1 0x1 PUSH1 0x70 SHL SUB DUP8 AND PUSH4 0xFFFFFFFF PUSH2 0x1AAE AND JUMP JUMPDEST SWAP1 POP PUSH1 0x0 PUSH2 0xE58 DUP4 PUSH1 0x1 PUSH1 0x1 PUSH1 0x70 SHL SUB DUP8 AND PUSH4 0xFFFFFFFF PUSH2 0x1AAE AND JUMP JUMPDEST SWAP1 POP PUSH1 0x0 PUSH2 0xE66 DUP8 DUP8 PUSH2 0x1DDF JUMP JUMPDEST PUSH1 0x0 SLOAD SWAP1 SWAP2 POP DUP1 PUSH2 0xEA3 JUMPI PUSH2 0xE8F PUSH2 0x3E8 PUSH2 0x9DB PUSH2 0xE8A DUP8 DUP8 PUSH4 0xFFFFFFFF PUSH2 0x1A4B AND JUMP JUMPDEST PUSH2 0x1F3D JUMP JUMPDEST SWAP9 POP PUSH2 0xE9E PUSH1 0x0 PUSH2 0x3E8 PUSH2 0x1F8F JUMP JUMPDEST PUSH2 0xEF2 JUMP JUMPDEST PUSH2 0xEEF PUSH1 0x1 PUSH1 0x1 PUSH1 0x70 SHL SUB DUP10 AND PUSH2 0xEC0 DUP7 DUP5 PUSH4 0xFFFFFFFF PUSH2 0x1A4B AND JUMP JUMPDEST DUP2 PUSH2 0xEC7 JUMPI INVALID JUMPDEST DIV PUSH1 0x1 PUSH1 0x1 PUSH1 0x70 SHL SUB DUP10 AND PUSH2 0xEE2 DUP7 DUP6 PUSH4 0xFFFFFFFF PUSH2 0x1A4B AND JUMP JUMPDEST DUP2 PUSH2 0xEE9 JUMPI INVALID JUMPDEST DIV PUSH2 0x2025 JUMP JUMPDEST SWAP9 POP JUMPDEST PUSH1 0x0 DUP10 GT PUSH2 0xF31 JUMPI PUSH1 0x40 MLOAD PUSH3 0x461BCD PUSH1 0xE5 SHL DUP2 MSTORE PUSH1 0x4 ADD DUP1 DUP1 PUSH1 0x20 ADD DUP3 DUP2 SUB DUP3 MSTORE PUSH1 0x28 DUP2 MSTORE PUSH1 0x20 ADD DUP1 PUSH2 0x21F4 PUSH1 0x28 SWAP2 CODECOPY PUSH1 0x40 ADD SWAP2 POP POP PUSH1 0x40 MLOAD DUP1 SWAP2 SUB SWAP1 REVERT JUMPDEST PUSH2 0xF3B DUP11 DUP11 PUSH2 0x1F8F JUMP JUMPDEST PUSH2 0xF47 DUP7 DUP7 DUP11 DUP11 PUSH2 0x1AFE JUMP JUMPDEST DUP2 ISZERO PUSH2 0xF77 JUMPI PUSH1 0x8 SLOAD PUSH2 0xF73 SWAP1 PUSH1 0x1 PUSH1 0x1 PUSH1 0x70 SHL SUB DUP1 DUP3 AND SWAP2 PUSH1 0x1 PUSH1 0x70 SHL SWAP1 DIV AND PUSH4 0xFFFFFFFF PUSH2 0x1A4B AND JUMP JUMPDEST PUSH1 0xB SSTORE JUMPDEST PUSH1 0x40 DUP1 MLOAD DUP6 DUP2 MSTORE PUSH1 0x20 DUP2 ADD DUP6 SWAP1 MSTORE DUP2 MLOAD CALLER SWAP3 PUSH32 0x4C209B5FC8AD50758F13E2E1088BA56A560DFF690A1C6FEF26394F4C03821C4F SWAP3 DUP3 SWAP1 SUB ADD SWAP1 LOG2 POP POP PUSH1 0x1 PUSH1 0xC SSTORE POP SWAP5 SWAP7 SWAP6 POP POP POP POP POP POP JUMP JUMPDEST PUSH1 0x1 PUSH1 0x20 MSTORE PUSH1 0x0 SWAP1 DUP2 MSTORE PUSH1 0x40 SWAP1 KECCAK256 SLOAD DUP2 JUMP JUMPDEST PUSH1 0xB SLOAD DUP2 JUMP JUMPDEST PUSH1 0x4 PUSH1 0x20 MSTORE PUSH1 0x0 SWAP1 DUP2 MSTORE PUSH1 0x40 SWAP1 KECCAK256 SLOAD DUP2 JUMP JUMPDEST PUSH1 0x0 DUP1 PUSH1 0xC SLOAD PUSH1 0x1 EQ PUSH2 0x103C JUMPI PUSH1 0x40 DUP1 MLOAD PUSH3 0x461BCD PUSH1 0xE5 SHL DUP2 MSTORE PUSH1 0x20 PUSH1 0x4 DUP3 ADD MSTORE PUSH1 0x11 PUSH1 0x24 DUP3 ADD MSTORE PUSH17 0x155B9A5CDDD85C158C8E881313D0D2D151 PUSH1 0x7A SHL PUSH1 0x44 DUP3 ADD MSTORE SWAP1 MLOAD SWAP1 DUP2 SWAP1 SUB PUSH1 0x64 ADD SWAP1 REVERT JUMPDEST PUSH1 0x0 PUSH1 0xC DUP2 SWAP1 SSTORE DUP1 PUSH2 0x104C PUSH2 0xB15 JUMP JUMPDEST POP PUSH1 0x6 SLOAD PUSH1 0x7 SLOAD PUSH1 0x40 DUP1 MLOAD PUSH4 0x70A08231 PUSH1 0xE0 SHL DUP2 MSTORE ADDRESS PUSH1 0x4 DUP3 ADD MSTORE SWAP1 MLOAD SWAP5 SWAP7 POP SWAP3 SWAP5 POP PUSH1 0x1 PUSH1 0x1 PUSH1 0xA0 SHL SUB SWAP2 DUP3 AND SWAP4 SWAP2 AND SWAP2 PUSH1 0x0 SWAP2 DUP5 SWAP2 PUSH4 0x70A08231 SWAP2 PUSH1 0x24 DUP1 DUP4 ADD SWAP3 PUSH1 0x20 SWAP3 SWAP2 SWAP1 DUP3 SWAP1 SUB ADD DUP2 DUP7 DUP1 EXTCODESIZE ISZERO DUP1 ISZERO PUSH2 0x10A8 JUMPI PUSH1 0x0 DUP1 REVERT JUMPDEST POP GAS STATICCALL ISZERO DUP1 ISZERO PUSH2 0x10BC JUMPI RETURNDATASIZE PUSH1 0x0 DUP1 RETURNDATACOPY RETURNDATASIZE PUSH1 0x0 REVERT JUMPDEST POP POP POP POP PUSH1 0x40 MLOAD RETURNDATASIZE PUSH1 0x20 DUP2 LT ISZERO PUSH2 0x10D2 JUMPI PUSH1 0x0 DUP1 REVERT JUMPDEST POP MLOAD PUSH1 0x40 DUP1 MLOAD PUSH4 0x70A08231 PUSH1 0xE0 SHL DUP2 MSTORE ADDRESS PUSH1 0x4 DUP3 ADD MSTORE SWAP1 MLOAD SWAP2 SWAP3 POP PUSH1 0x0 SWAP2 PUSH1 0x1 PUSH1 0x1 PUSH1 0xA0 SHL SUB DUP6 AND SWAP2 PUSH4 0x70A08231 SWAP2 PUSH1 0x24 DUP1 DUP4 ADD SWAP3 PUSH1 0x20 SWAP3 SWAP2 SWAP1 DUP3 SWAP1 SUB ADD DUP2 DUP7 DUP1 EXTCODESIZE ISZERO DUP1 ISZERO PUSH2 0x1120 JUMPI PUSH1 0x0 DUP1 REVERT JUMPDEST POP GAS STATICCALL ISZERO DUP1 ISZERO PUSH2 0x1134 JUMPI RETURNDATASIZE PUSH1 0x0 DUP1 RETURNDATACOPY RETURNDATASIZE PUSH1 0x0 REVERT JUMPDEST POP POP POP POP PUSH1 0x40 MLOAD RETURNDATASIZE PUSH1 0x20 DUP2 LT ISZERO PUSH2 0x114A JUMPI PUSH1 0x0 DUP1 REVERT JUMPDEST POP MLOAD ADDRESS PUSH1 0x0 SWAP1 DUP2 MSTORE PUSH1 0x1 PUSH1 0x20 MSTORE PUSH1 0x40 DUP2 KECCAK256 SLOAD SWAP2 SWAP3 POP PUSH2 0x1169 DUP9 DUP9 PUSH2 0x1DDF JUMP JUMPDEST PUSH1 0x0 SLOAD SWAP1 SWAP2 POP DUP1 PUSH2 0x1180 DUP5 DUP8 PUSH4 0xFFFFFFFF PUSH2 0x1A4B AND JUMP JUMPDEST DUP2 PUSH2 0x1187 JUMPI INVALID JUMPDEST DIV SWAP11 POP DUP1 PUSH2 0x119B DUP5 DUP7 PUSH4 0xFFFFFFFF PUSH2 0x1A4B AND JUMP JUMPDEST DUP2 PUSH2 0x11A2 JUMPI INVALID JUMPDEST DIV SWAP10 POP PUSH1 0x0 DUP12 GT DUP1 ISZERO PUSH2 0x11B5 JUMPI POP PUSH1 0x0 DUP11 GT JUMPDEST PUSH2 0x11F0 JUMPI PUSH1 0x40 MLOAD PUSH3 0x461BCD PUSH1 0xE5 SHL DUP2 MSTORE PUSH1 0x4 ADD DUP1 DUP1 PUSH1 0x20 ADD DUP3 DUP2 SUB DUP3 MSTORE PUSH1 0x28 DUP2 MSTORE PUSH1 0x20 ADD DUP1 PUSH2 0x21CC PUSH1 0x28 SWAP2 CODECOPY PUSH1 0x40 ADD SWAP2 POP POP PUSH1 0x40 MLOAD DUP1 SWAP2 SUB SWAP1 REVERT JUMPDEST PUSH2 0x11FA ADDRESS DUP5 PUSH2 0x203D JUMP JUMPDEST PUSH2 0x1205 DUP8 DUP14 DUP14 PUSH2 0x18B1 JUMP JUMPDEST PUSH2 0x1210 DUP7 DUP14 DUP13 PUSH2 0x18B1 JUMP JUMPDEST PUSH1 0x40 DUP1 MLOAD PUSH4 0x70A08231 PUSH1 0xE0 SHL DUP2 MSTORE ADDRESS PUSH1 0x4 DUP3 ADD MSTORE SWAP1 MLOAD PUSH1 0x1 PUSH1 0x1 PUSH1 0xA0 SHL SUB DUP10 AND SWAP2 PUSH4 0x70A08231 SWAP2 PUSH1 0x24 DUP1 DUP4 ADD SWAP3 PUSH1 0x20 SWAP3 SWAP2 SWAP1 DUP3 SWAP1 SUB ADD DUP2 DUP7 DUP1 EXTCODESIZE ISZERO DUP1 ISZERO PUSH2 0x1256 JUMPI PUSH1 0x0 DUP1 REVERT JUMPDEST POP GAS STATICCALL ISZERO DUP1 ISZERO PUSH2 0x126A JUMPI RETURNDATASIZE PUSH1 0x0 DUP1 RETURNDATACOPY RETURNDATASIZE PUSH1 0x0 REVERT JUMPDEST POP POP POP POP PUSH1 0x40 MLOAD RETURNDATASIZE PUSH1 0x20 DUP2 LT ISZERO PUSH2 0x1280 JUMPI PUSH1 0x0 DUP1 REVERT JUMPDEST POP MLOAD PUSH1 0x40 DUP1 MLOAD PUSH4 0x70A08231 PUSH1 0xE0 SHL DUP2 MSTORE ADDRESS PUSH1 0x4 DUP3 ADD MSTORE SWAP1 MLOAD SWAP2 SWAP7 POP PUSH1 0x1 PUSH1 0x1 PUSH1 0xA0 SHL SUB DUP9 AND SWAP2 PUSH4 0x70A08231 SWAP2 PUSH1 0x24 DUP1 DUP3 ADD SWAP3 PUSH1 0x20 SWAP3 SWAP1 SWAP2 SWAP1 DUP3 SWAP1 SUB ADD DUP2 DUP7 DUP1 EXTCODESIZE ISZERO DUP1 ISZERO PUSH2 0x12CC JUMPI PUSH1 0x0 DUP1 REVERT JUMPDEST POP GAS STATICCALL ISZERO DUP1 ISZERO PUSH2 0x12E0 JUMPI RETURNDATASIZE PUSH1 0x0 DUP1 RETURNDATACOPY RETURNDATASIZE PUSH1 0x0 REVERT JUMPDEST POP POP POP POP PUSH1 0x40 MLOAD RETURNDATASIZE PUSH1 0x20 DUP2 LT ISZERO PUSH2 0x12F6 JUMPI PUSH1 0x0 DUP1 REVERT JUMPDEST POP MLOAD SWAP4 POP PUSH2 0x1306 DUP6 DUP6 DUP12 DUP12 PUSH2 0x1AFE JUMP JUMPDEST DUP2 ISZERO PUSH2 0x1336 JUMPI PUSH1 0x8 SLOAD PUSH2 0x1332 SWAP1 PUSH1 0x1 PUSH1 0x1 PUSH1 0x70 SHL SUB DUP1 DUP3 AND SWAP2 PUSH1 0x1 PUSH1 0x70 SHL SWAP1 DIV AND PUSH4 0xFFFFFFFF PUSH2 0x1A4B AND JUMP JUMPDEST PUSH1 0xB SSTORE JUMPDEST PUSH1 0x40 DUP1 MLOAD DUP13 DUP2 MSTORE PUSH1 0x20 DUP2 ADD DUP13 SWAP1 MSTORE DUP2 MLOAD PUSH1 0x1 PUSH1 0x1 PUSH1 0xA0 SHL SUB DUP16 AND SWAP3 CALLER SWAP3 PUSH32 0xDCCD412F0B1252819CB1FD330B93224CA42612892BB3F4F789976E6D81936496 SWAP3 SWAP1 DUP2 SWAP1 SUB SWAP1 SWAP2 ADD SWAP1 LOG3 POP POP POP POP POP POP POP POP POP PUSH1 0x1 PUSH1 0xC DUP2 SWAP1 SSTORE POP SWAP2 POP SWAP2 JUMP JUMPDEST PUSH1 0x0 PUSH2 0xB4C CALLER DUP5 DUP5 PUSH2 0x1D25 JUMP JUMPDEST PUSH2 0x3E8 DUP2 JUMP JUMPDEST PUSH1 0xC SLOAD PUSH1 0x1 EQ PUSH2 0x13F2 JUMPI PUSH1 0x40 DUP1 MLOAD PUSH3 0x461BCD PUSH1 0xE5 SHL DUP2 MSTORE PUSH1 0x20 PUSH1 0x4 DUP3 ADD MSTORE PUSH1 0x11 PUSH1 0x24 DUP3 ADD MSTORE PUSH17 0x155B9A5CDDD85C158C8E881313D0D2D151 PUSH1 0x7A SHL PUSH1 0x44 DUP3 ADD MSTORE SWAP1 MLOAD SWAP1 DUP2 SWAP1 SUB PUSH1 0x64 ADD SWAP1 REVERT JUMPDEST PUSH1 0x0 PUSH1 0xC SSTORE PUSH1 0x6 SLOAD PUSH1 0x7 SLOAD PUSH1 0x8 SLOAD PUSH1 0x40 DUP1 MLOAD PUSH4 0x70A08231 PUSH1 0xE0 SHL DUP2 MSTORE ADDRESS PUSH1 0x4 DUP3 ADD MSTORE SWAP1 MLOAD PUSH1 0x1 PUSH1 0x1 PUSH1 0xA0 SHL SUB SWAP5 DUP6 AND SWAP5 SWAP1 SWAP4 AND SWAP3 PUSH2 0x14A1 SWAP3 DUP6 SWAP3 DUP8 SWAP3 PUSH2 0x149C SWAP3 PUSH1 0x1 PUSH1 0x1 PUSH1 0x70 SHL SUB AND SWAP2 DUP6 SWAP2 PUSH4 0x70A08231 SWAP2 PUSH1 0x24 DUP1 DUP3 ADD SWAP3 PUSH1 0x20 SWAP3 SWAP1 SWAP2 SWAP1 DUP3 SWAP1 SUB ADD DUP2 DUP7 DUP1 EXTCODESIZE ISZERO DUP1 ISZERO PUSH2 0x1464 JUMPI PUSH1 0x0 DUP1 REVERT JUMPDEST POP GAS STATICCALL ISZERO DUP1 ISZERO PUSH2 0x1478 JUMPI RETURNDATASIZE PUSH1 0x0 DUP1 RETURNDATACOPY RETURNDATASIZE PUSH1 0x0 REVERT JUMPDEST POP POP POP POP PUSH1 0x40 MLOAD RETURNDATASIZE PUSH1 0x20 DUP2 LT ISZERO PUSH2 0x148E JUMPI PUSH1 0x0 DUP1 REVERT JUMPDEST POP MLOAD SWAP1 PUSH4 0xFFFFFFFF PUSH2 0x1AAE AND JUMP JUMPDEST PUSH2 0x18B1 JUMP JUMPDEST PUSH1 0x8 SLOAD PUSH1 0x40 DUP1 MLOAD PUSH4 0x70A08231 PUSH1 0xE0 SHL DUP2 MSTORE ADDRESS PUSH1 0x4 DUP3 ADD MSTORE SWAP1 MLOAD PUSH2 0x1508 SWAP3 DUP5 SWAP3 DUP8 SWAP3 PUSH2 0x149C SWAP3 PUSH1 0x1 PUSH1 0x70 SHL SWAP1 DIV PUSH1 0x1 PUSH1 0x1 PUSH1 0x70 SHL SUB AND SWAP2 PUSH1 0x1 PUSH1 0x1 PUSH1 0xA0 SHL SUB DUP7 AND SWAP2 PUSH4 0x70A08231 SWAP2 PUSH1 0x24 DUP1 DUP3 ADD SWAP3 PUSH1 0x20 SWAP3 SWAP1 SWAP2 SWAP1 DUP3 SWAP1 SUB ADD DUP2 DUP7 DUP1 EXTCODESIZE ISZERO DUP1 ISZERO PUSH2 0x1464 JUMPI PUSH1 0x0 DUP1 REVERT JUMPDEST POP POP PUSH1 0x1 PUSH1 0xC SSTORE POP JUMP JUMPDEST PUSH1 0x5 SLOAD PUSH1 0x1 PUSH1 0x1 PUSH1 0xA0 SHL SUB AND DUP2 JUMP JUMPDEST PUSH1 0x7 SLOAD PUSH1 0x1 PUSH1 0x1 PUSH1 0xA0 SHL SUB AND DUP2 JUMP JUMPDEST TIMESTAMP DUP5 LT ISZERO PUSH2 0x157A JUMPI PUSH1 0x40 DUP1 MLOAD PUSH3 0x461BCD PUSH1 0xE5 SHL DUP2 MSTORE PUSH1 0x20 PUSH1 0x4 DUP3 ADD MSTORE PUSH1 0x12 PUSH1 0x24 DUP3 ADD MSTORE PUSH18 0x155B9A5CDDD85C158C8E8811561412549151 PUSH1 0x72 SHL PUSH1 0x44 DUP3 ADD MSTORE SWAP1 MLOAD SWAP1 DUP2 SWAP1 SUB PUSH1 0x64 ADD SWAP1 REVERT JUMPDEST PUSH1 0x3 SLOAD PUSH1 0x1 PUSH1 0x1 PUSH1 0xA0 SHL SUB DUP1 DUP10 AND PUSH1 0x0 DUP2 DUP2 MSTORE PUSH1 0x4 PUSH1 0x20 SWAP1 DUP2 MSTORE PUSH1 0x40 DUP1 DUP4 KECCAK256 DUP1 SLOAD PUSH1 0x1 DUP1 DUP3 ADD SWAP1 SWAP3 SSTORE DUP3 MLOAD PUSH32 0x6E71EDAE12B1B97F4D1F60370FEF10105FA2FAAE0126114A169C64845D6126C9 DUP2 DUP7 ADD MSTORE DUP1 DUP5 ADD SWAP7 SWAP1 SWAP7 MSTORE SWAP6 DUP14 AND PUSH1 0x60 DUP7 ADD MSTORE PUSH1 0x80 DUP6 ADD DUP13 SWAP1 MSTORE PUSH1 0xA0 DUP6 ADD SWAP6 SWAP1 SWAP6 MSTORE PUSH1 0xC0 DUP1 DUP6 ADD DUP12 SWAP1 MSTORE DUP2 MLOAD DUP1 DUP7 SUB SWAP1 SWAP2 ADD DUP2 MSTORE PUSH1 0xE0 DUP6 ADD DUP3 MSTORE DUP1 MLOAD SWAP1 DUP4 ADD KECCAK256 PUSH2 0x1901 PUSH1 0xF0 SHL PUSH2 0x100 DUP7 ADD MSTORE PUSH2 0x102 DUP6 ADD SWAP7 SWAP1 SWAP7 MSTORE PUSH2 0x122 DUP1 DUP6 ADD SWAP7 SWAP1 SWAP7 MSTORE DUP1 MLOAD DUP1 DUP6 SUB SWAP1 SWAP7 ADD DUP7 MSTORE PUSH2 0x142 DUP5 ADD DUP1 DUP3 MSTORE DUP7 MLOAD SWAP7 DUP4 ADD SWAP7 SWAP1 SWAP7 KECCAK256 SWAP6 DUP4 SWAP1 MSTORE PUSH2 0x162 DUP5 ADD DUP1 DUP3 MSTORE DUP7 SWAP1 MSTORE PUSH1 0xFF DUP10 AND PUSH2 0x182 DUP6 ADD MSTORE PUSH2 0x1A2 DUP5 ADD DUP9 SWAP1 MSTORE PUSH2 0x1C2 DUP5 ADD DUP8 SWAP1 MSTORE MLOAD SWAP2 SWAP4 SWAP3 PUSH2 0x1E2 DUP1 DUP3 ADD SWAP4 PUSH1 0x1F NOT DUP2 ADD SWAP3 DUP2 SWAP1 SUB SWAP1 SWAP2 ADD SWAP1 DUP6 GAS STATICCALL ISZERO DUP1 ISZERO PUSH2 0x1695 JUMPI RETURNDATASIZE PUSH1 0x0 DUP1 RETURNDATACOPY RETURNDATASIZE PUSH1 0x0 REVERT JUMPDEST POP POP PUSH1 0x40 MLOAD PUSH1 0x1F NOT ADD MLOAD SWAP2 POP POP PUSH1 0x1 PUSH1 0x1 PUSH1 0xA0 SHL SUB DUP2 AND ISZERO DUP1 ISZERO SWAP1 PUSH2 0x16CB JUMPI POP DUP9 PUSH1 0x1 PUSH1 0x1 PUSH1 0xA0 SHL SUB AND DUP2 PUSH1 0x1 PUSH1 0x1 PUSH1 0xA0 SHL SUB AND EQ JUMPDEST PUSH2 0x171C JUMPI PUSH1 0x40 DUP1 MLOAD PUSH3 0x461BCD PUSH1 0xE5 SHL DUP2 MSTORE PUSH1 0x20 PUSH1 0x4 DUP3 ADD MSTORE PUSH1 0x1C PUSH1 0x24 DUP3 ADD MSTORE PUSH32 0x556E697377617056323A20494E56414C49445F5349474E415455524500000000 PUSH1 0x44 DUP3 ADD MSTORE SWAP1 MLOAD SWAP1 DUP2 SWAP1 SUB PUSH1 0x64 ADD SWAP1 REVERT JUMPDEST PUSH2 0x1727 DUP10 DUP10 DUP10 PUSH2 0x1CC3 JUMP JUMPDEST POP POP POP POP POP POP POP POP POP JUMP JUMPDEST PUSH1 0x2 PUSH1 0x20 SWAP1 DUP2 MSTORE PUSH1 0x0 SWAP3 DUP4 MSTORE PUSH1 0x40 DUP1 DUP5 KECCAK256 SWAP1 SWAP2 MSTORE SWAP1 DUP3 MSTORE SWAP1 KECCAK256 SLOAD DUP2 JUMP JUMPDEST PUSH1 0xC SLOAD PUSH1 0x1 EQ PUSH2 0x179A JUMPI PUSH1 0x40 DUP1 MLOAD PUSH3 0x461BCD PUSH1 0xE5 SHL DUP2 MSTORE PUSH1 0x20 PUSH1 0x4 DUP3 ADD MSTORE PUSH1 0x11 PUSH1 0x24 DUP3 ADD MSTORE PUSH17 0x155B9A5CDDD85C158C8E881313D0D2D151 PUSH1 0x7A SHL PUSH1 0x44 DUP3 ADD MSTORE SWAP1 MLOAD SWAP1 DUP2 SWAP1 SUB PUSH1 0x64 ADD SWAP1 REVERT JUMPDEST PUSH1 0x0 PUSH1 0xC SSTORE PUSH1 0x6 SLOAD PUSH1 0x40 DUP1 MLOAD PUSH4 0x70A08231 PUSH1 0xE0 SHL DUP2 MSTORE ADDRESS PUSH1 0x4 DUP3 ADD MSTORE SWAP1 MLOAD PUSH2 0x18AA SWAP3 PUSH1 0x1 PUSH1 0x1 PUSH1 0xA0 SHL SUB AND SWAP2 PUSH4 0x70A08231 SWAP2 PUSH1 0x24 DUP1 DUP4 ADD SWAP3 PUSH1 0x20 SWAP3 SWAP2 SWAP1 DUP3 SWAP1 SUB ADD DUP2 DUP7 DUP1 EXTCODESIZE ISZERO DUP1 ISZERO PUSH2 0x17EB JUMPI PUSH1 0x0 DUP1 REVERT JUMPDEST POP GAS STATICCALL ISZERO DUP1 ISZERO PUSH2 0x17FF JUMPI RETURNDATASIZE PUSH1 0x0 DUP1 RETURNDATACOPY RETURNDATASIZE PUSH1 0x0 REVERT JUMPDEST POP POP POP POP PUSH1 0x40 MLOAD RETURNDATASIZE PUSH1 0x20 DUP2 LT ISZERO PUSH2 0x1815 JUMPI PUSH1 0x0 DUP1 REVERT JUMPDEST POP MLOAD PUSH1 0x7 SLOAD PUSH1 0x40 DUP1 MLOAD PUSH4 0x70A08231 PUSH1 0xE0 SHL DUP2 MSTORE ADDRESS PUSH1 0x4 DUP3 ADD MSTORE SWAP1 MLOAD PUSH1 0x1 PUSH1 0x1 PUSH1 0xA0 SHL SUB SWAP1 SWAP3 AND SWAP2 PUSH4 0x70A08231 SWAP2 PUSH1 0x24 DUP1 DUP3 ADD SWAP3 PUSH1 0x20 SWAP3 SWAP1 SWAP2 SWAP1 DUP3 SWAP1 SUB ADD DUP2 DUP7 DUP1 EXTCODESIZE ISZERO DUP1 ISZERO PUSH2 0x1862 JUMPI PUSH1 0x0 DUP1 REVERT JUMPDEST POP GAS STATICCALL ISZERO DUP1 ISZERO PUSH2 0x1876 JUMPI RETURNDATASIZE PUSH1 0x0 DUP1 RETURNDATACOPY RETURNDATASIZE PUSH1 0x0 REVERT JUMPDEST POP POP POP POP PUSH1 0x40 MLOAD RETURNDATASIZE PUSH1 0x20 DUP2 LT ISZERO PUSH2 0x188C JUMPI PUSH1 0x0 DUP1 REVERT JUMPDEST POP MLOAD PUSH1 0x8 SLOAD PUSH1 0x1 PUSH1 0x1 PUSH1 0x70 SHL SUB DUP1 DUP3 AND SWAP2 PUSH1 0x1 PUSH1 0x70 SHL SWAP1 DIV AND PUSH2 0x1AFE JUMP JUMPDEST PUSH1 0x1 PUSH1 0xC SSTORE JUMP JUMPDEST PUSH1 0x40 DUP1 MLOAD DUP1 DUP3 ADD DUP3 MSTORE PUSH1 0x19 DUP2 MSTORE PUSH32 0x7472616E7366657228616464726573732C75696E743235362900000000000000 PUSH1 0x20 SWAP2 DUP3 ADD MSTORE DUP2 MLOAD PUSH1 0x1 PUSH1 0x1 PUSH1 0xA0 SHL SUB DUP6 DUP2 AND PUSH1 0x24 DUP4 ADD MSTORE PUSH1 0x44 DUP1 DUP4 ADD DUP7 SWAP1 MSTORE DUP5 MLOAD DUP1 DUP5 SUB SWAP1 SWAP2 ADD DUP2 MSTORE PUSH1 0x64 SWAP1 SWAP3 ADD DUP5 MSTORE SWAP2 DUP2 ADD DUP1 MLOAD PUSH1 0x1 PUSH1 0x1 PUSH1 0xE0 SHL SUB AND PUSH4 0xA9059CBB PUSH1 0xE0 SHL OR DUP2 MSTORE SWAP3 MLOAD DUP2 MLOAD PUSH1 0x0 SWAP5 PUSH1 0x60 SWAP5 DUP10 AND SWAP4 SWAP3 SWAP2 DUP3 SWAP2 SWAP1 DUP1 DUP4 DUP4 JUMPDEST PUSH1 0x20 DUP4 LT PUSH2 0x195E JUMPI DUP1 MLOAD DUP3 MSTORE PUSH1 0x1F NOT SWAP1 SWAP3 ADD SWAP2 PUSH1 0x20 SWAP2 DUP3 ADD SWAP2 ADD PUSH2 0x193F JUMP JUMPDEST PUSH1 0x1 DUP4 PUSH1 0x20 SUB PUSH2 0x100 EXP SUB DUP1 NOT DUP3 MLOAD AND DUP2 DUP5 MLOAD AND DUP1 DUP3 OR DUP6 MSTORE POP POP POP POP POP POP SWAP1 POP ADD SWAP2 POP POP PUSH1 0x0 PUSH1 0x40 MLOAD DUP1 DUP4 SUB DUP2 PUSH1 0x0 DUP7 GAS CALL SWAP2 POP POP RETURNDATASIZE DUP1 PUSH1 0x0 DUP2 EQ PUSH2 0x19C0 JUMPI PUSH1 0x40 MLOAD SWAP2 POP PUSH1 0x1F NOT PUSH1 0x3F RETURNDATASIZE ADD AND DUP3 ADD PUSH1 0x40 MSTORE RETURNDATASIZE DUP3 MSTORE RETURNDATASIZE PUSH1 0x0 PUSH1 0x20 DUP5 ADD RETURNDATACOPY PUSH2 0x19C5 JUMP JUMPDEST PUSH1 0x60 SWAP2 POP JUMPDEST POP SWAP2 POP SWAP2 POP DUP2 DUP1 ISZERO PUSH2 0x19F3 JUMPI POP DUP1 MLOAD ISZERO DUP1 PUSH2 0x19F3 JUMPI POP DUP1 DUP1 PUSH1 0x20 ADD SWAP1 MLOAD PUSH1 0x20 DUP2 LT ISZERO PUSH2 0x19F0 JUMPI PUSH1 0x0 DUP1 REVERT JUMPDEST POP MLOAD JUMPDEST PUSH2 0x1A44 JUMPI PUSH1 0x40 DUP1 MLOAD PUSH3 0x461BCD PUSH1 0xE5 SHL DUP2 MSTORE PUSH1 0x20 PUSH1 0x4 DUP3 ADD MSTORE PUSH1 0x1A PUSH1 0x24 DUP3 ADD MSTORE PUSH32 0x556E697377617056323A205452414E534645525F4641494C4544000000000000 PUSH1 0x44 DUP3 ADD MSTORE SWAP1 MLOAD SWAP1 DUP2 SWAP1 SUB PUSH1 0x64 ADD SWAP1 REVERT JUMPDEST POP POP POP POP POP JUMP JUMPDEST PUSH1 0x0 DUP2 ISZERO DUP1 PUSH2 0x1A66 JUMPI POP POP DUP1 DUP3 MUL DUP3 DUP3 DUP3 DUP2 PUSH2 0x1A63 JUMPI INVALID JUMPDEST DIV EQ JUMPDEST PUSH2 0xB50 JUMPI PUSH1 0x40 DUP1 MLOAD PUSH3 0x461BCD PUSH1 0xE5 SHL DUP2 MSTORE PUSH1 0x20 PUSH1 0x4 DUP3 ADD MSTORE PUSH1 0x14 PUSH1 0x24 DUP3 ADD MSTORE PUSH20 0x64732D6D6174682D6D756C2D6F766572666C6F77 PUSH1 0x60 SHL PUSH1 0x44 DUP3 ADD MSTORE SWAP1 MLOAD SWAP1 DUP2 SWAP1 SUB PUSH1 0x64 ADD SWAP1 REVERT JUMPDEST DUP1 DUP3 SUB DUP3 DUP2 GT ISZERO PUSH2 0xB50 JUMPI PUSH1 0x40 DUP1 MLOAD PUSH3 0x461BCD PUSH1 0xE5 SHL DUP2 MSTORE PUSH1 0x20 PUSH1 0x4 DUP3 ADD MSTORE PUSH1 0x15 PUSH1 0x24 DUP3 ADD MSTORE PUSH21 0x64732D6D6174682D7375622D756E646572666C6F77 PUSH1 0x58 SHL PUSH1 0x44 DUP3 ADD MSTORE SWAP1 MLOAD SWAP1 DUP2 SWAP1 SUB PUSH1 0x64 ADD SWAP1 REVERT JUMPDEST PUSH1 0x1 PUSH1 0x1 PUSH1 0x70 SHL SUB DUP5 GT DUP1 ISZERO SWAP1 PUSH2 0x1B1C JUMPI POP PUSH1 0x1 PUSH1 0x1 PUSH1 0x70 SHL SUB DUP4 GT ISZERO JUMPDEST PUSH2 0x1B63 JUMPI PUSH1 0x40 DUP1 MLOAD PUSH3 0x461BCD PUSH1 0xE5 SHL DUP2 MSTORE PUSH1 0x20 PUSH1 0x4 DUP3 ADD MSTORE PUSH1 0x13 PUSH1 0x24 DUP3 ADD MSTORE PUSH19 0x556E697377617056323A204F564552464C4F57 PUSH1 0x68 SHL PUSH1 0x44 DUP3 ADD MSTORE SWAP1 MLOAD SWAP1 DUP2 SWAP1 SUB PUSH1 0x64 ADD SWAP1 REVERT JUMPDEST PUSH1 0x8 SLOAD PUSH4 0xFFFFFFFF TIMESTAMP DUP2 AND SWAP2 PUSH1 0x1 PUSH1 0xE0 SHL SWAP1 DIV DUP2 AND DUP3 SUB SWAP1 DUP2 AND ISZERO DUP1 ISZERO SWAP1 PUSH2 0x1B93 JUMPI POP PUSH1 0x1 PUSH1 0x1 PUSH1 0x70 SHL SUB DUP5 AND ISZERO ISZERO JUMPDEST DUP1 ISZERO PUSH2 0x1BA7 JUMPI POP PUSH1 0x1 PUSH1 0x1 PUSH1 0x70 SHL SUB DUP4 AND ISZERO ISZERO JUMPDEST ISZERO PUSH2 0x1C18 JUMPI DUP1 PUSH4 0xFFFFFFFF AND PUSH2 0x1BD5 DUP6 PUSH2 0x1BC0 DUP7 PUSH2 0x20DB JUMP JUMPDEST PUSH1 0x1 PUSH1 0x1 PUSH1 0xE0 SHL SUB AND SWAP1 PUSH4 0xFFFFFFFF PUSH2 0x20ED AND JUMP JUMPDEST PUSH1 0x9 DUP1 SLOAD PUSH1 0x1 PUSH1 0x1 PUSH1 0xE0 SHL SUB SWAP3 SWAP1 SWAP3 AND SWAP3 SWAP1 SWAP3 MUL ADD SWAP1 SSTORE PUSH4 0xFFFFFFFF DUP2 AND PUSH2 0x1C00 DUP5 PUSH2 0x1BC0 DUP8 PUSH2 0x20DB JUMP JUMPDEST PUSH1 0xA DUP1 SLOAD PUSH1 0x1 PUSH1 0x1 PUSH1 0xE0 SHL SUB SWAP3 SWAP1 SWAP3 AND SWAP3 SWAP1 SWAP3 MUL ADD SWAP1 SSTORE JUMPDEST PUSH1 0x8 DUP1 SLOAD PUSH14 0xFFFFFFFFFFFFFFFFFFFFFFFFFFFF NOT AND PUSH1 0x1 PUSH1 0x1 PUSH1 0x70 SHL SUB DUP9 DUP2 AND SWAP2 SWAP1 SWAP2 OR PUSH14 0xFFFFFFFFFFFFFFFFFFFFFFFFFFFF PUSH1 0x70 SHL NOT AND PUSH1 0x1 PUSH1 0x70 SHL DUP9 DUP4 AND DUP2 MUL SWAP2 SWAP1 SWAP2 OR PUSH1 0x1 PUSH1 0x1 PUSH1 0xE0 SHL SUB AND PUSH1 0x1 PUSH1 0xE0 SHL PUSH4 0xFFFFFFFF DUP8 AND MUL OR SWAP3 DUP4 SWAP1 SSTORE PUSH1 0x40 DUP1 MLOAD DUP5 DUP5 AND DUP2 MSTORE SWAP2 SWAP1 SWAP4 DIV SWAP1 SWAP2 AND PUSH1 0x20 DUP3 ADD MSTORE DUP2 MLOAD PUSH32 0x1C411E9A96E071241C2F21F7726B17AE89E3CAB4C78BE50E062B03A9FFFBBAD1 SWAP3 SWAP2 DUP2 SWAP1 SUB SWAP1 SWAP2 ADD SWAP1 LOG1 POP POP POP POP POP POP JUMP JUMPDEST PUSH1 0x1 PUSH1 0x1 PUSH1 0xA0 SHL SUB DUP1 DUP5 AND PUSH1 0x0 DUP2 DUP2 MSTORE PUSH1 0x2 PUSH1 0x20 SWAP1 DUP2 MSTORE PUSH1 0x40 DUP1 DUP4 KECCAK256 SWAP5 DUP8 AND DUP1 DUP5 MSTORE SWAP5 DUP3 MSTORE SWAP2 DUP3 SWAP1 KECCAK256 DUP6 SWAP1 SSTORE DUP2 MLOAD DUP6 DUP2 MSTORE SWAP2 MLOAD PUSH32 0x8C5BE1E5EBEC7D5BD14F71427D1E84F3DD0314C0F7B2291E5B200AC8C7C3B925 SWAP3 DUP2 SWAP1 SUB SWAP1 SWAP2 ADD SWAP1 LOG3 POP POP POP JUMP JUMPDEST PUSH1 0x1 PUSH1 0x1 PUSH1 0xA0 SHL SUB DUP4 AND PUSH1 0x0 SWAP1 DUP2 MSTORE PUSH1 0x1 PUSH1 0x20 MSTORE PUSH1 0x40 SWAP1 KECCAK256 SLOAD PUSH2 0x1D4E SWAP1 DUP3 PUSH4 0xFFFFFFFF PUSH2 0x1AAE AND JUMP JUMPDEST PUSH1 0x1 PUSH1 0x1 PUSH1 0xA0 SHL SUB DUP1 DUP6 AND PUSH1 0x0 SWAP1 DUP2 MSTORE PUSH1 0x1 PUSH1 0x20 MSTORE PUSH1 0x40 DUP1 DUP3 KECCAK256 SWAP4 SWAP1 SWAP4 SSTORE SWAP1 DUP5 AND DUP2 MSTORE KECCAK256 SLOAD PUSH2 0x1D83 SWAP1 DUP3 PUSH4 0xFFFFFFFF PUSH2 0x2112 AND JUMP JUMPDEST PUSH1 0x1 PUSH1 0x1 PUSH1 0xA0 SHL SUB DUP1 DUP5 AND PUSH1 0x0 DUP2 DUP2 MSTORE PUSH1 0x1 PUSH1 0x20 SWAP1 DUP2 MSTORE PUSH1 0x40 SWAP2 DUP3 SWAP1 KECCAK256 SWAP5 SWAP1 SWAP5 SSTORE DUP1 MLOAD DUP6 DUP2 MSTORE SWAP1 MLOAD SWAP2 SWAP4 SWAP3 DUP8 AND SWAP3 PUSH32 0xDDF252AD1BE2C89B69C2B068FC378DAA952BA7F163C4A11628F55A4DF523B3EF SWAP3 SWAP2 DUP3 SWAP1 SUB ADD SWAP1 LOG3 POP POP POP JUMP JUMPDEST PUSH1 0x0 DUP1 PUSH1 0x5 PUSH1 0x0 SWAP1 SLOAD SWAP1 PUSH2 0x100 EXP SWAP1 DIV PUSH1 0x1 PUSH1 0x1 PUSH1 0xA0 SHL SUB AND PUSH1 0x1 PUSH1 0x1 PUSH1 0xA0 SHL SUB AND PUSH4 0x17E7E58 PUSH1 0x40 MLOAD DUP2 PUSH4 0xFFFFFFFF AND PUSH1 0xE0 SHL DUP2 MSTORE PUSH1 0x4 ADD PUSH1 0x20 PUSH1 0x40 MLOAD DUP1 DUP4 SUB DUP2 DUP7 DUP1 EXTCODESIZE ISZERO DUP1 ISZERO PUSH2 0x1E30 JUMPI PUSH1 0x0 DUP1 REVERT JUMPDEST POP GAS STATICCALL ISZERO DUP1 ISZERO PUSH2 0x1E44 JUMPI RETURNDATASIZE PUSH1 0x0 DUP1 RETURNDATACOPY RETURNDATASIZE PUSH1 0x0 REVERT JUMPDEST POP POP POP POP PUSH1 0x40 MLOAD RETURNDATASIZE PUSH1 0x20 DUP2 LT ISZERO PUSH2 0x1E5A JUMPI PUSH1 0x0 DUP1 REVERT JUMPDEST POP MLOAD PUSH1 0xB SLOAD PUSH1 0x1 PUSH1 0x1 PUSH1 0xA0 SHL SUB DUP3 AND ISZERO DUP1 ISZERO SWAP5 POP SWAP2 SWAP3 POP SWAP1 PUSH2 0x1F29 JUMPI DUP1 ISZERO PUSH2 0x1F24 JUMPI PUSH1 0x0 PUSH2 0x1E9D PUSH2 0xE8A PUSH1 0x1 PUSH1 0x1 PUSH1 0x70 SHL SUB DUP9 DUP2 AND SWAP1 DUP9 AND PUSH4 0xFFFFFFFF PUSH2 0x1A4B AND JUMP JUMPDEST SWAP1 POP PUSH1 0x0 PUSH2 0x1EAA DUP4 PUSH2 0x1F3D JUMP JUMPDEST SWAP1 POP DUP1 DUP3 GT ISZERO PUSH2 0x1F21 JUMPI PUSH1 0x0 PUSH2 0x1ED8 PUSH2 0x1EC9 DUP5 DUP5 PUSH4 0xFFFFFFFF PUSH2 0x1AAE AND JUMP JUMPDEST PUSH1 0x0 SLOAD SWAP1 PUSH4 0xFFFFFFFF PUSH2 0x1A4B AND JUMP JUMPDEST SWAP1 POP PUSH1 0x0 PUSH2 0x1EFD DUP4 PUSH2 0x1EF1 DUP7 PUSH1 0x9 PUSH4 0xFFFFFFFF PUSH2 0x1A4B AND JUMP JUMPDEST SWAP1 PUSH4 0xFFFFFFFF PUSH2 0x2112 AND JUMP JUMPDEST SWAP1 POP PUSH1 0x0 DUP2 DUP4 DUP2 PUSH2 0x1F0A JUMPI INVALID JUMPDEST DIV SWAP1 POP DUP1 ISZERO PUSH2 0x1F1D JUMPI PUSH2 0x1F1D DUP8 DUP3 PUSH2 0x1F8F JUMP JUMPDEST POP POP POP JUMPDEST POP POP JUMPDEST PUSH2 0x1F35 JUMP JUMPDEST DUP1 ISZERO PUSH2 0x1F35 JUMPI PUSH1 0x0 PUSH1 0xB SSTORE JUMPDEST POP POP SWAP3 SWAP2 POP POP JUMP JUMPDEST PUSH1 0x0 PUSH1 0x3 DUP3 GT ISZERO PUSH2 0x1F80 JUMPI POP DUP1 PUSH1 0x1 PUSH1 0x2 DUP3 DIV ADD JUMPDEST DUP2 DUP2 LT ISZERO PUSH2 0x1F7A JUMPI DUP1 SWAP2 POP PUSH1 0x2 DUP2 DUP3 DUP6 DUP2 PUSH2 0x1F69 JUMPI INVALID JUMPDEST DIV ADD DUP2 PUSH2 0x1F72 JUMPI INVALID JUMPDEST DIV SWAP1 POP PUSH2 0x1F52 JUMP JUMPDEST POP PUSH2 0x1F8A JUMP JUMPDEST DUP2 ISZERO PUSH2 0x1F8A JUMPI POP PUSH1 0x1 JUMPDEST SWAP2 SWAP1 POP JUMP JUMPDEST PUSH1 0x0 SLOAD PUSH2 0x1FA2 SWAP1 DUP3 PUSH4 0xFFFFFFFF PUSH2 0x2112 AND JUMP JUMPDEST PUSH1 0x0 SWAP1 DUP2 SSTORE PUSH1 0x1 PUSH1 0x1 PUSH1 0xA0 SHL SUB DUP4 AND DUP2 MSTORE PUSH1 0x1 PUSH1 0x20 MSTORE PUSH1 0x40 SWAP1 KECCAK256 SLOAD PUSH2 0x1FCD SWAP1 DUP3 PUSH4 0xFFFFFFFF PUSH2 0x2112 AND JUMP JUMPDEST PUSH1 0x1 PUSH1 0x1 PUSH1 0xA0 SHL SUB DUP4 AND PUSH1 0x0 DUP2 DUP2 MSTORE PUSH1 0x1 PUSH1 0x20 SWAP1 DUP2 MSTORE PUSH1 0x40 DUP1 DUP4 KECCAK256 SWAP5 SWAP1 SWAP5 SSTORE DUP4 MLOAD DUP6 DUP2 MSTORE SWAP4 MLOAD SWAP3 SWAP4 SWAP2 SWAP3 PUSH32 0xDDF252AD1BE2C89B69C2B068FC378DAA952BA7F163C4A11628F55A4DF523B3EF SWAP3 DUP2 SWAP1 SUB SWAP1 SWAP2 ADD SWAP1 LOG3 POP POP JUMP JUMPDEST PUSH1 0x0 DUP2 DUP4 LT PUSH2 0x2034 JUMPI DUP2 PUSH2 0x2036 JUMP JUMPDEST DUP3 JUMPDEST SWAP4 SWAP3 POP POP POP JUMP JUMPDEST PUSH1 0x1 PUSH1 0x1 PUSH1 0xA0 SHL SUB DUP3 AND PUSH1 0x0 SWAP1 DUP2 MSTORE PUSH1 0x1 PUSH1 0x20 MSTORE PUSH1 0x40 SWAP1 KECCAK256 SLOAD PUSH2 0x2066 SWAP1 DUP3 PUSH4 0xFFFFFFFF PUSH2 0x1AAE AND JUMP JUMPDEST PUSH1 0x1 PUSH1 0x1 PUSH1 0xA0 SHL SUB DUP4 AND PUSH1 0x0 SWAP1 DUP2 MSTORE PUSH1 0x1 PUSH1 0x20 MSTORE PUSH1 0x40 DUP2 KECCAK256 SWAP2 SWAP1 SWAP2 SSTORE SLOAD PUSH2 0x2093 SWAP1 DUP3 PUSH4 0xFFFFFFFF PUSH2 0x1AAE AND JUMP JUMPDEST PUSH1 0x0 SWAP1 DUP2 SSTORE PUSH1 0x40 DUP1 MLOAD DUP4 DUP2 MSTORE SWAP1 MLOAD PUSH1 0x1 PUSH1 0x1 PUSH1 0xA0 SHL SUB DUP6 AND SWAP2 PUSH32 0xDDF252AD1BE2C89B69C2B068FC378DAA952BA7F163C4A11628F55A4DF523B3EF SWAP2 SWAP1 DUP2 SWAP1 SUB PUSH1 0x20 ADD SWAP1 LOG3 POP POP JUMP JUMPDEST PUSH1 0x1 PUSH1 0x1 PUSH1 0x70 SHL SUB AND PUSH1 0x1 PUSH1 0x70 SHL MUL SWAP1 JUMP JUMPDEST PUSH1 0x0 PUSH1 0x1 PUSH1 0x1 PUSH1 0x70 SHL SUB DUP3 AND PUSH1 0x1 PUSH1 0x1 PUSH1 0xE0 SHL SUB DUP5 AND DUP2 PUSH2 0x210A JUMPI INVALID JUMPDEST DIV SWAP4 SWAP3 POP POP POP JUMP JUMPDEST DUP1 DUP3 ADD DUP3 DUP2 LT ISZERO PUSH2 0xB50 JUMPI PUSH1 0x40 DUP1 MLOAD PUSH3 0x461BCD PUSH1 0xE5 SHL DUP2 MSTORE PUSH1 0x20 PUSH1 0x4 DUP3 ADD MSTORE PUSH1 0x14 PUSH1 0x24 DUP3 ADD MSTORE PUSH20 0x64732D6D6174682D6164642D6F766572666C6F77 PUSH1 0x60 SHL PUSH1 0x44 DUP3 ADD MSTORE SWAP1 MLOAD SWAP1 DUP2 SWAP1 SUB PUSH1 0x64 ADD SWAP1 REVERT INVALID SSTORE PUSH15 0x697377617056323A20494E53554646 0x49 NUMBER 0x49 GASLIMIT 0x4E SLOAD 0x5F 0x4F SSTORE SLOAD POP SSTORE SLOAD 0x5F COINBASE 0x4D 0x4F SSTORE 0x4E SLOAD SSTORE PUSH15 0x697377617056323A20494E53554646 0x49 NUMBER 0x49 GASLIMIT 0x4E SLOAD 0x5F 0x49 0x4E POP SSTORE SLOAD 0x5F COINBASE 0x4D 0x4F SSTORE 0x4E SLOAD SSTORE PUSH15 0x697377617056323A20494E53554646 0x49 NUMBER 0x49 GASLIMIT 0x4E SLOAD 0x5F 0x4C 0x49 MLOAD SSTORE 0x49 DIFFICULTY 0x49 SLOAD MSIZE SSTORE PUSH15 0x697377617056323A20494E53554646 0x49 NUMBER 0x49 GASLIMIT 0x4E SLOAD 0x5F 0x4C 0x49 MLOAD SSTORE 0x49 DIFFICULTY 0x49 SLOAD MSIZE 0x5F TIMESTAMP SSTORE MSTORE 0x4E GASLIMIT DIFFICULTY SSTORE PUSH15 0x697377617056323A20494E53554646 0x49 NUMBER 0x49 GASLIMIT 0x4E SLOAD 0x5F 0x4C 0x49 MLOAD SSTORE 0x49 DIFFICULTY 0x49 SLOAD MSIZE 0x5F 0x4D 0x49 0x4E SLOAD GASLIMIT DIFFICULTY LOG2 PUSH6 0x627A7A723158 KECCAK256 0x29 ADDMOD 0xE4 0x24 0x5D 0x2F 0x5E EQ 0x2D PUSH30 0x2C6862C5B549009844CB01B586F2BC6FC6E55EB21EC964736F6C63430005 LT STOP ORIGIN GASLIMIT 0x49 POP CALLDATACOPY BALANCE ORIGIN DIFFICULTY PUSH16 0x6D61696E28737472696E67206E616D65 0x2C PUSH20 0x7472696E672076657273696F6E2C75696E743235 CALLDATASIZE KECCAK256 PUSH4 0x6861696E 0x49 PUSH5 0x2C61646472 PUSH6 0x737320766572 PUSH10 0x6679696E67436F6E7472 PUSH2 0x6374 0x29 LOG2 PUSH6 0x627A7A723158 KECCAK256 0xD1 PUSH14 0xDE2E83475615D75E0071B8ADC21D 0xDE STATICCALL CODECOPY 0x23 CREATE2 0xE7 CREATE SDIV 0xD1 JUMPI SELFDESTRUCT DUP9 0xB7 DUP13 0xFB 0xC8 PUSH5 0x736F6C6343 STOP SDIV LT STOP ORIGIN "
				},
				"gasEstimates": {
					"creation": {
						"codeDepositCost": "2186200",
						"executionCost": "infinite",
						"totalCost": "infinite"
					},
					"external": {
						"INIT_CODE_HASH()": "infinite",
						"allPairs(uint256)": "2015",
						"allPairsLength()": "998",
						"createPair(address,address)": "infinite",
						"feeTo()": "1038",
						"feeToSetter()": "1060",
						"getPair(address,address)": "1322",
						"setFeeTo(address)": "22001",
						"setFeeToSetter(address)": "21935"
					}
				},
				"methodIdentifiers": {
					"INIT_CODE_HASH()": "257671f5",
					"allPairs(uint256)": "1e3dd18b",
					"allPairsLength()": "574f2ba3",
					"createPair(address,address)": "c9c65396",
					"feeTo()": "017e7e58",
					"feeToSetter()": "094b7415",
					"getPair(address,address)": "e6a43905",
					"setFeeTo(address)": "f46901ed",
					"setFeeToSetter(address)": "a2e74af6"
				}
			},
			"storageLayout": {
				"storage": [
					{
						"astId": 392,
						"contract": "CONTRACT/v2-core-master/contracts/UniswapV2Factory.sol:UniswapV2Factory",
						"label": "feeTo",
						"offset": 0,
						"slot": "0",
						"type": "t_address"
					},
					{
						"astId": 394,
						"contract": "CONTRACT/v2-core-master/contracts/UniswapV2Factory.sol:UniswapV2Factory",
						"label": "feeToSetter",
						"offset": 0,
						"slot": "1",
						"type": "t_address"
					},
					{
						"astId": 411,
						"contract": "CONTRACT/v2-core-master/contracts/UniswapV2Factory.sol:UniswapV2Factory",
						"label": "getPair",
						"offset": 0,
						"slot": "2",
						"type": "t_mapping(t_address,t_mapping(t_address,t_address))"
					},
					{
						"astId": 414,
						"contract": "CONTRACT/v2-core-master/contracts/UniswapV2Factory.sol:UniswapV2Factory",
						"label": "allPairs",
						"offset": 0,
						"slot": "3",
						"type": "t_array(t_address)dyn_storage"
					}
				],
				"types": {
					"t_address": {
						"encoding": "inplace",
						"label": "address",
						"numberOfBytes": "20"
					},
					"t_array(t_address)dyn_storage": {
						"base": "t_address",
						"encoding": "dynamic_array",
						"label": "address[]",
						"numberOfBytes": "32"
					},
					"t_mapping(t_address,t_address)": {
						"encoding": "mapping",
						"key": "t_address",
						"label": "mapping(address => address)",
						"numberOfBytes": "32",
						"value": "t_address"
					},
					"t_mapping(t_address,t_mapping(t_address,t_address))": {
						"encoding": "mapping",
						"key": "t_address",
						"label": "mapping(address => mapping(address => address))",
						"numberOfBytes": "32",
						"value": "t_mapping(t_address,t_address)"
					}
				}
			},
			"userdoc": {
				"methods": {}
			}
		}
	}
}